:100000000C94E0000C9408010C9408010C94550920
:100010000C9455090C9455090C9408010C94080192
:100020000C9408010C9408010C9408010C9408012C
:100030000C9408010C9408010C9408010C9408011C
:100040000C94B3080C9408010C9423090C94FD083B
:100050000C9408010C9408010C9408010C940801FC
:100060000C94CD090C94080100407A10F35A00A0BA
:10007000724E18090010A5D4E80000E87648170071
:1000800000E40B54020000CA9A3B000000E1F505B1
:10009000000080969800000040420F000000A086FB
:1000A00001000000102700000000E803000000002D
:1000B0006400000000000A000000000001000000D1
:1000C00000002C76D888DC674F0823DFC1DFAE59EB
:1000D000E1B1B796E5E3E453C63AE651997696E87E
:1000E000E6C28426EB898C9B62ED407C6FFCEFBC02
:1000F0009C9F40F2BAA56FA5F490055A2AF75C932D
:100100006B6CF9676DC11BFCE0E40D47FEF520E662
:10011000B500D0ED902E0300943577050080841E45
:10012000080000204E0A000000C80C333333330FA0
:10013000986E12831141EF8D2114893BE65516CF3D
:10014000FEE6DB18D1844B381BF77C1D901DA4BB49
:10015000E424203284725E228100C9F124ECA1E5FE
:100160003D2700000000240027002A0000000008AE
:10017000000201000003040700000000000000006E
:1001800000000000230026002900000000002500D8
:1001900028002B00040404040404040402020202E4
:1001A000020203030303030301020408102040803A
:1001B000010204081020010204081020EC0AFB0FC1
:1001C00011241FBECFEFD8E0DEBFCDBF23E0AEE5E8
:1001D000B1E001C01D92AE35B207E1F711E0A0E039
:1001E000B1E0E8E2FDE202C005900D92AE35B10744
:1001F000D9F710E0CFEDD0E004C02197FE010E94B6
:100200008F14CE3DD107C9F70E94EE0B0C948716D0
:100210000C940000CF92DF92EF92FF92CF93DF9386
:10022000B0911B03A0E08111AB2F80911C0390E0E3
:10023000880F991FAC0140585E4FC0902103D090A9
:100240002203E0902303F090240330E020E0FA0141
:10025000C591D491E881B90190E080E0EB23EA13E5
:100260000AC02F5F3F4F6C157D058E059F0578F303
:100270006FEF7FEFCB01DF91CF91FF90EF90DF9099
:10028000CF90089590E0FC01E459FE4F2491FC01C9
:10029000E855FE4F3491FC01EC56FE4FE491EE23FD
:1002A000C9F0222339F0233001F1A8F4213019F1EB
:1002B000223029F1F0E0EE0FFF1FE657FE4FA59127
:1002C000B4918FB7F894EC91611126C030953E231C
:1002D0003C938FBF08952730A9F02830C9F024300F
:1002E00049F7809180008F7D03C0809180008F77D7
:1002F00080938000DFCF84B58F7784BDDBCF84B55A
:100300008F7DFBCF8091B0008F778093B000D2CFEC
:100310008091B0008F7DF9CF3E2BDACFCF93DF9362
:1003200090E0FC01E855FE4F24918C569E4FFC0155
:1003300084918823C9F090E0880F991FFC01EE5941
:10034000FE4FA591B491FC01E657FE4FC591D491A3
:1003500061110DC09FB7F8948C91209582238C93E6
:100360008881282328839FBFDF91CF910895623031
:1003700051F49FB7F8943C91822F809583238C93FE
:10038000E8812E2BEFCF8FB7F894EC912E2B2C9386
:100390008FBFEACF1F93CF93DF93182FEB0161E05C
:1003A0000E948E01209739F460E0812FDF91CF9178
:1003B0001F910C944201CF3FD10511F461E0F5CFBC
:1003C000E12FF0E0E459FE4FE491E33031F140F4E5
:1003D000E130B1F0E230E1F0C038D1057CF7E4CF94
:1003E000E73029F1E83059F1E430B1F7809180002D
:1003F000806280938000D0938B00C0938A0004C0F9
:1004000084B5806884BDC7BDDF91CF911F910895E9
:1004100084B5806284BDC8BDF7CF809180008068BC
:1004200080938000D0938900C0938800EDCF8091A5
:10043000B00080688093B000C093B300E5CF809196
:10044000B00080628093B000C093B400DDCF3FB7AE
:10045000F8948091610290916202A0916302B09140
:10046000640226B5A89B05C02F3F19F00196A11D77
:10047000B11D3FBFBA2FA92F982F8827BC01CD01EE
:10048000620F711D811D911D42E0660F771F881F4D
:10049000991F4A95D1F708958F929F92AF92BF927C
:1004A000CF92DF92EF92FF924B015C010E942702F4
:1004B0006B017C010E9427026C197D098E099F093E
:1004C000683E734081059105A8F321E0821A9108E6
:1004D000A108B10888EEC80E83E0D81EE11CF11C0B
:1004E00081149104A104B10429F7FF90EF90DF90EB
:1004F000CF90BF90AF909F908F900895CF92DF9252
:10050000EF92FF920F931F93CF93DF93CDB7DEB798
:10051000C054D1400FB6F894DEBF0FBECDBF2FB789
:10052000F8948091650290916602A0916702B09163
:1005300068022FBF40911D0350911E0360911F035D
:10054000709120038C019D01041B150B260B370BAA
:10055000B901A801403D57406105710590F48091B3
:100560002503C05CDE4F0FB6F894DEBF0FBECDBFD3
:10057000DF91CF911F910F91FF90EF90DF90CF907F
:10058000089580931D0390931E03A0931F03B093BF
:100590002003109218031092170310921603109262
:1005A00015031092140362E0809119030E948E01DA
:1005B00061E070E080E090E00E944C0261E0809198
:1005C00019030E948E0160E0809119030E9442018C
:1005D00080911A038551823020F58BE291E10197D9
:1005E000F1F762E0809119030E948E018091260349
:1005F00090E08230910538F0880F991F880F991F7D
:1006000005970197F1F7F89480E00E940A016F3F87
:100610007F4F8F4F9F4F61F410922503789480E0B5
:10062000A0CF64E170E080E090E00E944C02D9CF5E
:1006300081E00E940A016F3F7F4F8F4F9F4F61F310
:100640008E010F5F1F4F6E018FEBC81A8EEFD80A15
:10065000780180E00E940A01F70160837183828340
:10066000938381E00E940A01F70164837583868386
:100670009783F8E0EF0EF11CEC14FD0451F7789429
:1006800030E020E0F801C080D180E280F380448136
:10069000558166817781FFEFCF16DF06EF06FF06F3
:1006A00031F04F3F8FEF58076807780719F4109221
:1006B0002503B5CFF90183E0F595E7958A95E1F734
:1006C000EC5EFC4F8081880FC416D506E606F7065F
:1006D00010F180832F5F3F4F085F1F4F2832310595
:1006E00089F6409118032091140380911503280F77
:1006F0003327331F80911603280F311D8091170374
:10070000820F932F911D99274817190681F681E0D2
:100710008093250326CF8160DCCF08950895AF92A2
:10072000BF92CF92DF92EF92FF920F931F93CF93DE
:10073000DF936C017B018B01040F151FEB015E0140
:10074000AE18BF08C017D10759F06991D601ED91D5
:10075000FC910190F081E02DC6010995892B79F774
:10076000C501DF91CF911F910F91FF90EF90DF9026
:10077000CF90BF90AF900895FC01538D448D252FED
:1007800030E0842F90E0821B930B541710F0CF962B
:10079000089501970895FC01918D828D981761F05D
:1007A000A28DAE0FBF2FB11D5D968C91928D9F5F74
:1007B0009F73928F90E008958FEF9FEF0895FC0153
:1007C000918D828D981731F0828DE80FF11D858D06
:1007D00090E008958FEF9FEF0895FC01918D228D99
:1007E000892F90E0805C9F4F821B91098F7399271E
:1007F00008958BE692E00E94ED0321E0892B09F435
:1008000020E0822F089580E090E0892B29F00E945B
:10081000F90381110C9400000895FC01A48DA80F28
:10082000B92FB11DA35ABF4F2C91848D90E0019632
:100830008F739927848FA689B7892C93A089B18952
:100840008C91837080648C93938D848D981306C0F3
:100850000288F389E02D80818F7D80830895EF9257
:10086000FF920F931F93CF93DF93EC0181E0888F6A
:100870009B8D8C8D98131AC0E889F989808185FF3A
:1008800015C09FB7F894EE89FF896083E889F989DC
:1008900080818370806480839FBF81E090E0DF91DE
:1008A000CF911F910F91FF90EF900895F62E0B8D31
:1008B00010E00F5F1F4F0F731127E02E8C8D8E11EC
:1008C0000CC00FB607FCFACFE889F989808185FF53
:1008D000F5CFCE010E940D04F1CFEB8DEC0FFD2F73
:1008E000F11DE35AFF4FF0829FB7F8940B8FEA890E
:1008F000FB8980818062CFCFCF93DF93EC01888D1D
:100900008823B9F0AA89BB89E889F9898C9185FD8A
:1009100003C0808186FD0DC00FB607FCF7CF8C9118
:1009200085FFF2CF808185FFEDCFCE010E940D04BF
:10093000E9CFDF91CF910895089520915A02309127
:100940005B022817390771F490915802809159027F
:10095000981741F0E0915802F0E0EE53FE4F80818D
:1009600090E008958FEF9FEF08950895EF92FF9222
:100970000F931F93CF93DF93DC015C96ED90FC9077
:100980005D97E114F10479F481E090E013969C9373
:100990008E93129790E080E0DF91CF911F910F919D
:1009A000FF90EF9008955196ED91FC9152975096DB
:1009B0008C915097982F90950FB75E962C915E97DB
:1009C000122F127021FD6095F8942081112319F1E6
:1009D000282B2083E7012197F1F728E0462F50E0EC
:1009E000308160FF1AC0382B3083E7012197F1F77F
:1009F000BA0175956795215089F7112381F080819F
:100A0000892380830FBF5C968D919C910197F1F7AC
:100A100081E090E0C1CF2923DCCF3923E5CF90815D
:100A2000892BEFCF20915A0230915B0228173907AA
:100A300061F4809159022091580290E0805C9F4FB0
:100A4000821B91098F739927089590E080E00895A3
:100A500020915A0230915B0228173907B9F490911E
:100A6000580280915902981789F0E0915802F0E0FD
:100A7000EE53FE4F80812091580230E02F5F3F4FB0
:100A80002F7333272093580290E008958FEF9FEF44
:100A9000089520919F01260F3327331F21323105FE
:100AA000ECF420912802FC0190E080E0243069F011
:100AB00082E00895A0919F012191AC0141585E4FC1
:100AC000A40FB52FB11D2C930196861798F3809132
:100AD0009F01680F60939F0180E0089581E0089571
:100AE0001092280281E0809327021092020261E0B6
:100AF00082E10E94420161E083E10E944201E9EB50
:100B0000F0E080818E7F808380818D7F808388E488
:100B10008093B80085E48093BC000895CF93DF9361
:100B200091E090937E018823B9F0C091B800D091F4
:100B3000BA008091BC008A7B8093BC0060E082E1B7
:100B40000E94420160E083E10E9442010E94700520
:100B5000D093BA00C093B800DF91CF910895E0918F
:100B6000570280915602E81730F4F0E0E25AFE4F47
:100B7000808190E008958FEF9FEF08959091570244
:100B8000809156022FEF3FEF981748F4E92FF0E0DD
:100B9000E25AFE4F208130E09F5F90935702C901D7
:100BA00008958091560290915702891B990B0895E0
:100BB000CF92DF92EF92FF920F931F93CF93DF9329
:100BC0007C01CB018A0120912E02222389F0EB01C6
:100BD0006B01C40ED51ECC15DD0569F06991D701F6
:100BE000ED91FC910190F081E02DC7010995F3CFC3
:100BF000642F0E944905C801DF91CF911F910F9189
:100C0000FF90EF90DF90CF900895CF93DF931F92E6
:100C1000CDB7DEB7698320912E022223F9F020910F
:100C20005402203258F021E030E0FC01338322836B
:100C300090E080E00F90DF91CF9108958091550270
:100C4000E82FF0E0E15DFD4F998190838F5F809305
:100C500055028093540281E090E0ECCF61E0CE0138
:100C600001960E944905F7CFCF92DF92EF92FF9253
:100C70000F931F93CF93DF93FC01C48121E0209356
:100C80002E02C0934F021092550210925402838597
:100C9000682B88E093E00E940506D0915402D1327F
:100CA00008F092C00E9427026B017C01809128020B
:100CB000811165C082E08093280281E08093270241
:100CC0008FEF8093260210922502D0932402AFE288
:100CD000B2E0E4E0F2E080E0D81385C010920302B5
:100CE00080910302CC0FC82BC093030280910202B3
:100CF000813009F07CC0109202020E9427026B0131
:100D00007C01809103028093BB0080912A02909124
:100D10002B02A0912C02B0912D02892B8A2B8B2BB8
:100D200099F00E94270200912A0210912B02209133
:100D30002C0230912D026C197D098E099F0906172E
:100D4000170728073907E0F18091BC0083FDD9CF50
:100D500085EC8093BC000E9427026B017C0180918E
:100D60002802823009F445C0809126028F3F61F14C
:100D700080912602803241F18091260225C0809127
:100D80002A0290912B02A0912C02B0912D02892B66
:100D90008A2B8B2B09F48ACF0E94270200912A020A
:100DA00010912B0220912C0230912D026C197D099B
:100DB0008E099F09061717072807390708F076CF0D
:100DC000809129020E948E051092550210925402C1
:100DD00010922E02DF91CF911F910F91FF90EF9013
:100DE000DF90CF9008959D9191938F5F75CF85EEA1
:100DF000B0CF80912A0290912B02A0912C02B09149
:100E00002D02892B8A2B8B2B09F4A9CF0E94270254
:100E100000912A0210912B0220912C0230912D0278
:100E20006C197D098E099F090617170728073907CE
:100E300008F095CFC5CF90E080E008950F931F9301
:100E4000CF938C01C62F0E9434066C2F6460C801BA
:100E50000E9434066C2F6B7FC8010E94340683EC1D
:100E600090E00197F1F7CF911F910F9108950F93A3
:100E70001F93CF93DF938C01D62FC42F607F642BF9
:100E80000E941E0780E1D89FB00111246C2BC8017D
:100E9000DF91CF911F910F910C941E0741E00E94AA
:100EA000370781E090E00895CF93DF9360E08CE016
:100EB0000E944201D0916A02C8E06D2F661F66272A
:100EC000661F88E00E944201DD0F61E084E00E941D
:100ED000420160E084E00E944201C15071F761E08C
:100EE0008CE0DF91CF910C9442011F93CF93DF935D
:100EF000EC01162F68838091690281111BC061E0AB
:100F000087E00E948E0161E088E00E948E0161E02E
:100F10008CE00E948E0161E084E00E948E0160E01E
:100F200087E00E94420110926A020E94540781E009
:100F300080936902123029F18BE0898382E08A83F1
:100F400083E08B8361E089810E948E018A8121E0A8
:100F500030E0A90102C0440F551F8A95E2F7CA018B
:100F60009B8101C0220F9A95EAF7822B8095909180
:100F70006A02892380936A02DF91CF911F910C94BA
:100F8000540783E0898381E08A8384E0DACFFC011F
:100F900001900020E9F73197AF01481B590BBC01C4
:100FA0008BE692E00C948F038F929F92AF92BF9248
:100FB0000F931F93CF93DF93CDB7DEB7A1970FB6F3
:100FC000F894DEBF0FBECDBF19A2423008F44AE04C
:100FD0008E010F5D1F4F842E912CB12CA12CA501E9
:100FE00094010E946D14E62FB901CA01EA30F4F4AD
:100FF000E05DD801EE938D01232B242B252B79F76F
:1010000090E080E0109719F0CD010E94C707A196EB
:101010000FB6F894DEBF0FBECDBFDF91CF911F9109
:101020000F91BF90AF909F908F900895E95CE1CFB2
:10103000CF93DF93EC0188819981009711F00E9492
:101040003115198218821D821C821B821A82DF913F
:10105000CF910895FC0180819181009711F00C944B
:10106000311508950F931F93CF93DF93EC0188817F
:101070009981009759F02A813B812617370730F074
:1010800081E0DF91CF911F910F9108958B016F5FE8
:101090007F4F0E94BA15009759F0998388831B836C
:1010A0000A832C813D81232B59F7FC011082E8CF64
:1010B00080E0E7CFEF92FF920F931F93CF93DF93E0
:1010C000EC017B018A01BA010E94320881110BC038
:1010D000CE010E941808CE01DF91CF911F910F9190
:1010E000FF90EF9008951D830C83B701888199814B
:1010F0000E948016F0CF85ED8093BC0080912A027B
:1011000090912B02A0912C02B0912D020796A11D67
:10111000B11D23E0B695A795979587952A95D1F7A8
:101120002091BC0024FD03C0109228020895409134
:101130002A0250912B0260912C0270912D02452BB6
:10114000462B472B69F30097A105B10541F02AE230
:101150002A95F1F700C00197A109B109E1CF80916B
:1011600029020C948E051F920F920FB60F92112434
:101170002F933F938F939F93AF93BF93809165027B
:1011800090916602A0916702B0916802309160026E
:1011900023E0230F2D3758F50196A11DB11D209393
:1011A00060028093650290936602A0936702B093F9
:1011B00068028091610290916202A0916302B091F5
:1011C00064020196A11DB11D809361029093620299
:1011D000A0936302B0936402BF91AF919F918F91EE
:1011E0003F912F910F900FBE0F901F90189526E8FA
:1011F000230F0296A11DB11DD2CF1F920F920FB6E1
:101200000F9211242F933F934F935F936F937F938C
:101210008F939F93AF93BF93EF93FF938BE692E0EF
:101220000E940D04FF91EF91BF91AF919F918F911B
:101230007F916F915F914F913F912F910F900FBED2
:101240000F901F9018951F920F920FB60F921124B6
:101250002F938F939F93EF93FF93E0917B02F091F5
:101260007C028081E0918102F091820282FD1BC0AC
:101270009081809184028F5F8F7320918502821705
:1012800041F0E0918402F0E0E559FD4F958F8093A5
:101290008402FF91EF919F918F912F910F900FBE3C
:1012A0000F901F9018958081F4CF1F920F920FB668
:1012B0000F9211242F933F934F935F936F937F93DC
:1012C0008F939F93AF93BF93EF93FF93E0915A0255
:1012D000F0915B02309749F0A685B7858585968D9C
:1012E00091FF14C09C918923A1F4FF91EF91BF91CC
:1012F000AF919F918F917F916F915F914F913F91AE
:101300002F910F900FBE0F901F9018959C918923DD
:1013100061F7A389B4899C918589809589238C93F1
:10132000868997890197F1F7608D718DA685B785BC
:10133000558538E020E0CB010197F1F7822F90E04E
:1013400095958795282F4C91452309F020683150B9
:1013500091F7868D81FD20958091590290E001964C
:101360008F73992730915802381799F0A09159023C
:10137000B0E0AE53BE4F2C9380935902828D938D73
:101380000197F1F7A389B4898C919589892B8C9366
:10139000ACCF868D8160868FF1CF1F920F920FB6F2
:1013A0000F9211242F933F934F935F936F937F93EB
:1013B0008F939F93AF93BF93EF93FF938091B90067
:1013C000887F803609F44AC0F0F5883209F4A7C056
:1013D00018F5803109F49BC0B8F4882309F4F9C0EA
:1013E000883009F494C0FF91EF91BF91AF919F9124
:1013F0008F917F916F915F914F913F912F910F90BE
:101400000FBE0F901F901895883109F488C0803264
:1014100051F78093260214C0803409F49DC040F433
:101420008033B9F38833F9F68093260285ECB0C097
:10143000803509F485C0883509F496C0883499F65A
:101440000E947B08D0CF883909F48CC038F58837E2
:1014500029F050F4883611F0803729F683E0809324
:1014600028021092C10157C0883809F47BC0803926
:1014700019F0803809F0B7CF8091C101803208F0AF
:1014800071C0E091C10181E08E0F8093C101809114
:10149000BB00F0E0EF55FE4F80833DC0803B39F04C
:1014A000E0F4803A09F479C0883A09F09CCF84E0EE
:1014B000809328021092A00110929F01E0915202A5
:1014C000F0915302099580919F0181110FC081E035
:1014D00080939F0110927F0109C0803C09F4A6CF40
:1014E000883C09F4A3CF883B09F07DCFE091A001AF
:1014F00081E08E0F8093A001F0E0E158FE4F8081E3
:101500008093BB009091A00180919F0129C08091A0
:1015100003028093BB0085EC8093BC0064CF909164
:10152000250280912402981758F5E091250281E068
:101530008E0F80932502F0E0EC5FFD4F8081E9CFB4
:10154000E091250281E08E0F809325028091BB00FF
:10155000F0E0EC5FFD4F80839091250280912402A2
:101560009817C8F285E8D8CFE091250281E08E0F68
:10157000809325028091BB00F0E0EC5FFD4F8083FB
:101580008091270281115CCF81E08093020284EA7E
:101590008093BC001092280226CF85EC8093BC007B
:1015A000109228028091C101803230F4E091C10193
:1015B000F0E0EF55FE4F10826091C10170E0E091C4
:1015C0005002F091510281EA91E009951092C10117
:1015D0000ACF1092260234CFCF92DF92EF92FF9281
:1015E00010926E0210926D0298EEC92E93E0D92EE1
:1015F000E12CF12CC0926F02D0927002E092710245
:10160000F09272028AE091E090936C0280936B02F8
:1016100085EC90E0909378028093770284EC90E0E0
:1016200090937A028093790280EC90E090937C0210
:1016300080937B0281EC90E090937E0280937D0208
:1016400082EC90E09093800280937F0286EC90E0A1
:1016500090938202809381021092840210928502FC
:10166000109286021092870210920B0310920A03C6
:10167000C0920C03D0920D03E0920E03F0920F0380
:101680008CE191E0909309038093080361E086E583
:1016900093E00E94750762E082E593E00E9475077F
:1016A0001092360310923503C0923703D09238035C
:1016B000E0923903F0923A038AE391E09093340385
:1016C0008093330310924A031092490310924C0303
:1016D00010924B0310924E0310924D031092500340
:1016E00010924F03609151036E7F6D7F60935103A1
:1016F0006695617081E0682780E10E94420161E0A7
:1017000080E10E948E01E8EBF1E0E491E093430375
:10171000E4EAF1E0E491F0E0EE0FFF1FE657FE4F40
:1017200085919491909345038093440360E08FE00A
:101730000E948E018091510381FD04C061E08FE021
:101740000E9442018FE080933F03E7EBF1E0E491D8
:10175000E0934003E3EAF1E0E491F0E0EE0FFF1FD5
:10176000E058FE4F859194919093420380934103FA
:1017700010922A03109229038EE291E0909328039D
:101780008093270387E280932B0380E180933003CB
:1017900082E080933103109232038EE0809319032C
:1017A0008BE080931A03E6EBF1E0E491E0931B03F6
:1017B000E2EAF1E0E491E0931C0380E89EE3A0E01C
:1017C000B0E08093210390932203A0932303B0936E
:1017D0002403FF90EF90DF90CF900895CF93DF9395
:1017E000CDB7DEB7EF970FB6F894DEBF0FBECDBF13
:1017F000789484B5826084BD84B5816084BD85B5EC
:10180000826085BD85B5816085BD80916E008160F7
:1018100080936E001092810080918100826080939D
:10182000810080918100816080938100809180009F
:101830008160809380008091B10084608093B100CA
:101840008091B00081608093B00080917A008460C4
:1018500080937A0080917A00826080937A008091F0
:101860007A00816080937A0080917A00806880930A
:101870007A001092C10010925702109256021092F4
:101880005502109254020E9470058DE893E09093E7
:101890005302809352028EE893E09093510280931A
:1018A00050020E94700510922C0380913103823007
:1018B00018F098E090932C0380932F0362E370E07C
:1018C00080E090E00E944C026091320387E293E056
:1018D0000E94340668EE73E080E090E00E944C02C3
:1018E00060E387E293E00E941E070BE416E4C80160
:1018F0000197F1F760E387E293E00E941E07C801B9
:101900000197F1F760E387E293E00E941E0783E509
:1019100092E00197F1F760E287E293E00E941E07F0
:1019200060912C03606240E087E293E00E943707F9
:1019300084E080932D0340E06CE087E293E00E9416
:10194000370740E061E087E293E00E9437070BE34E
:101950001FE1C8010197F1F742E0F42EF0922E0347
:1019600040E066E087E293E00E94370740E062E0F3
:1019700087E293E00E943707C8010197F1F788E0FA
:101980008093320360E087E293E00E94340662E0D5
:10199000809119030E948E012FB7F89480916502FF
:1019A00090916602A0916702B09168022FBF805D9E
:1019B0009740A109B10980931D0390931E03A09342
:1019C0001F03B093200387E380932603E0917B02FB
:1019D000F0917C02F082E0917702F091780210821F
:1019E000E0917902F0917A028FEC80831092830269
:1019F000E0917F02F091800286E08083E0917D0299
:101A0000F0917E02808180618083E0917D02F0917F
:101A10007E02808188608083E0917D02F0917E0269
:101A2000808180688083E0917D02F0917E028081D8
:101A30008F7D808310924E0310924D0310924C03C1
:101A400010924B0310924A03109249038DE991E0E2
:101A50009093500380934F0390913F03963108F089
:101A600047C02DEB30E030934A03209349032BE924
:101A700031E030934C0320934B032CE231E0309360
:101A80004E0320934D032091680084E0983048F085
:101A900031E09E3008F430E081E001C0880F3A95D3
:101AA000EAF7822B809368002DE630E0983050F002
:101AB0002BE630E09E3030F02CE630E0963110F02E
:101AC00030E020E03093470320934603292F30E095
:101AD000983008F056C081E001C0880F9A95EAF767
:101AE0008093480380914F03909150030197F1F741
:101AF00080914D0390914E03892B49F1E0915A0258
:101B0000F0915B0223E0E333F20709F1309739F0FB
:101B1000A389B4899C918589809589238C93809130
:101B200051038E7F809351031092590210925802F4
:101B300083E393E090935B0280935A02E091460323
:101B4000F0914703808190914803892B8083EE2494
:101B5000E394F12C30E0C32E30E0D32E0E947E02BD
:101B6000882341F080911A038C3009F454C1B0F4F9
:101B70008B3069F1812C912C80ECA82E8FE7B82E48
:101B800050C09E3040F42850310981E001C0880FD8
:101B90002A95EAF7A5CF2E503109F7CF855182302B
:101BA00048F710911603612F70E0762F662766279D
:101BB0007F7780911703682B90E080E00E9471127C
:101BC0002DEC3CEC4CEC5DE30E94D21240C16091E4
:101BD000160370E090E080E00E9471124B015C01FE
:101BE0001091170317FF0AC0AC019B0160E070E081
:101BF00080E89FEB0E94C7134B015C011F70612FAF
:101C000070E090E080E00E9473122DEC3CEC4CEC14
:101C10005DE30E94D212A50194010E94C8134B01FA
:101C20005C0180925C0290925D02A0925E02B09292
:101C30005F0240E060E887E293E00E9437071DAA58
:101C40001CAA1FAA1EAA19AE18AE8E010F5F1F4F45
:101C500022E044E0C501B4010E941710009709F486
:101C6000FFC0FC0101900020E9F73197AF01481B4C
:101C7000590BBC01CE01C4960E945A081BAE1AAE85
:101C80001DAE1CAE1FAE1EAE46E050E068E471E033
:101C9000CE01CA960E945A081A8219821C821B829F
:101CA0001E821D826AAD7BAD6115710531F04EADAE
:101CB0005FADCE0101960E945A080CA91DA901151D
:101CC000110509F4D2C0A8ACB9ACA114B104B9F0A3
:101CD0008D819E81A80EB91EB501CE0101960E948C
:101CE0003208882309F4C1C029813A818D819E81FF
:101CF000B801820F931F0E948016BE82AD824D8173
:101D00005E8169817A8187E293E00E948F03CE0130
:101D100001960E942A08CE01CA960E942A08CE0186
:101D2000C4960E942A0883E393E00E9412051816C5
:101D300019060CF045C083E393E00E942805813426
:101D400009F098C068EC70E0809157030E94CA01C6
:101D500080915803970102C0220F331F8A95E2F742
:101D600010916A02122B80915903970102C0220F31
:101D7000331F8A95E2F7C9018095182310936A02F0
:101D80000E94540768EC70E0809153030E94CA01DE
:101D900080915403970102C0220F331F8A95E2F706
:101DA000122B80915503970102C0220F331F8A9591
:101DB000E2F7C9018095182310936A020E94540724
:101DC00080905C0290905D02A0905E02B0905F02F5
:101DD000A5019401C501B4010E946814882309F487
:101DE00078C08FE491E00E94C7078BE591E00E94E4
:101DF000C70764EF71E080E090E00E944C02C114DC
:101E0000D10409F4ABCE0E94F903882309F4A6CECD
:101E10000E940000A3CE10911603612F70E090E0A5
:101E200080E00E9471124B015C01609117036F709A
:101E300070E090E080E00E9473122DEC3CEC4CECE2
:101E40005DE30E94D212A50194010E94C8134B01C8
:101E50005C0117FFE6CEB7FAB094B7F8B094E1CEC4
:101E6000CE01C4960E94180809CFCE0101960E94A7
:101E7000180845CF833509F0A3CF80915803970107
:101E800002C0220F331F8A95E2F7C90190915903CE
:101E9000970101C0220F9A95EAF7182F122B10957F
:101EA00080916A02182310936A020E94540780915D
:101EB0005403970102C0220F331F8A95E2F7C9012C
:101EC00090915503970101C0220F9A95EAF7822B52
:101ED00071CF24013501E89477F82FEF3FEF4FE7FA
:101EE0005FE7C301B2010E94681481110DC02FEF9A
:101EF0003FEF4FE75FE7C301B2010E946C12181673
:101F00001CF483E591E06FCF2FEF3FEF4FE75FE4E5
:101F1000C501B4010E94631418161CF487E591E012
:101F200062CF2FEF3FEF4FE75FECC501B4010E9496
:101F30006C1287FDF3CF20E030E0A901C501B401A8
:101F40000E946C1287FF09C06DE28BE692E00E944E
:101F50002F04B7FAB094B7F8B0942AE037ED43EA0B
:101F60005BE3C501B4010E94C8132B013C010E9430
:101F700034144B015C010E9471129B01AC01C3013E
:101F8000B2010E94C7132B013C014AE0C501B40114
:101F90000E94D4076EE28BE692E00E942F0420E0BC
:101FA00030E040E251E4C301B2010E94D2122B01A1
:101FB0003C010E9434144B01B12CA12C4AE0C50114
:101FC000B4010E94D407C501B4010E9471129B01A3
:101FD000AC01C301B2010E94C71320E030E040E22F
:101FE00051E40E94D2120E94341490E080E04AE052
:101FF0000E94D407FACE8AE391E090933403809351
:10200000330380915A0290915B028353934071F4A1
:10201000E0914603F09147039081809148038095B9
:102020008923808310925B0210925A020895EF92E6
:102030000F931F93CF93DF93E80134E047FD34E122
:10204000042E000C550B57FF03C0519541955109C3
:10205000E32E022F242FAE010E943510CE01DF9116
:10206000CF911F910F91EF900895A9E0B0E0EBE3BD
:10207000F0E10C9496136A01F22EB02E102FFBE3C0
:10208000AF2EA01608F41BE31F5F012F27E0AE015F
:102090004F5F5F4F0E949411BC018981982F997006
:1020A000913009F43FC09BE2E1FC04C09E2D917089
:1020B000E0FC3AC05E2D5071E82FE87083FF46C007
:1020C00084E0911101C083E0EF2DE81B8F1508F02B
:1020D000E0E0D6018E2F20E2552351F1992329F01B
:1020E000D6019C93C60101966C0196012D5F3F4F6E
:1020F000E2FE24C08EE4D6018C9391E411969C9369
:10210000119712968C93D9018E2F90E281111BC0EA
:10211000E20FF32FF11D10828EEF9FEF2996ECE076
:102120000C94B2139DE2C6CF90E2C4CF2D938150A0
:102130008111FCCFCE0ED11CE0E0D0CF8EE6D601CF
:102140008C9391E6DBCF9D938150E0CF482F447074
:1021500082FF3DC084E0911101C083E08F1510F42F
:10216000EF2DE81BD6018E2F20E2552309F199238C
:1021700029F0D6019C93C60101966C0196012D5F52
:102180003F4FE2FE1BC089E4D6018C938EE411968A
:102190008C93119786E412968C93D9018E2F90E23E
:1021A000882309F4B5CF9D938150FACF2D938150A8
:1021B0008111FCCFCE0ED11CE0E0D9CF89E6D6014B
:1021C0008C938EE611968C93119786E6E4CF9B0153
:1021D00077FF02C030E020E0A1E0B0E0911102C042
:1021E000B0E0A0E0F9013196AE0FBF1F8B2C912C0F
:1021F000BB2009F461C05401EFEFAE1ABE0AAA0D6C
:10220000BB1DFA161B0619F014F04F2D4A1B511175
:1022100088C0E3FC59C07601A42FB0E2A1114FC0E1
:10222000C40ED11C992309F45BC040E0D60111967D
:10223000F60190836D01552309F448C0012F060F64
:102240009A81582F507184FF03C0913309F40150D3
:1022500010160CF047C0093008F008E0EEE2FE2E40
:102260005B01A01AB10885019194819491082F3FD8
:10227000320729F4D601FC92F60131966F016217FC
:10228000730794F1021713077CF5DB01A21BB30B54
:10229000AA24A394B12CAC0EBD1EAA0DBB1D119691
:1022A0008C9121503109D601119628153905F4F089
:1022B000F60180836D01DBCFB12CA12CA0CFF701FB
:1022C000B1937F01A150AACF9111B0CFD601942F25
:1022D00050E302C05D9391509111FCCFC40ED11C0C
:1022E00040E0ACCF01E0BACF80E3DBCF62177307E9
:1022F00031F4963388F4953311F4552369F0F601DF
:102300008083FD01842F90E2811108C0A40FB11DCC
:102310001C9290E080E002CF81E3F1CF9193815055
:10232000F3CF911183CF8ACF283008F027E03327ED
:10233000DA01990F311D87FD9160009661057105E5
:1023400039F432602E5F3D9330E32A95E1F708952A
:102350009F3F30F080387105610509F03C5F3C5FBC
:102360003D93913008F08068911DDF93CF931F93C8
:102370000F93FF92EF92192F987F9695E92F9695DC
:102380009695E90FFF27EE53FF4F99273327EE2449
:10239000FF24A701E70105900894079428F4360F5D
:1023A000E71EF81E491F511D660F771F881F991FD2
:1023B0000694A1F70590079428F4E70EF81E491F2C
:1023C000561FC11D770F881F991F661F0694A1F71E
:1023D0000590079428F4F80E491F561FC71FD11DFA
:1023E000880F991F661F771F0694A1F70590079421
:1023F00020F4490F561FC71FD81F990F661F771F5C
:10240000881F0694A9F784911095177041F0D6950E
:10241000C79557954795F794E7941A95C1F7E8E65D
:10242000F0E068941590159135916591959105901E
:102430007FE27395E118F10A430B560BC90BD009E3
:10244000C0F7E10CF11E431F561FC91FD01D7EF4BB
:10245000703311F48A95E6CFE894015030F0080FFC
:102460000AF40027021708F4202F2395022F7A334D
:1024700028F079E37D932A95E9F710C07D932A959A
:1024800089F6069497956795379517951794E118EF
:10249000F10A430B560BC90BD00998F023957E9196
:1024A00073957A3308F070E37C932013B8F77E912C
:1024B00070617D9330F0839571E37D9370E32A958D
:1024C000E1F71124EF90FF900F911F91CF91DF91D1
:1024D000992787FD909508950E94AE1208F481E037
:1024E0000895E89409C097FB3EF490958095709507
:1024F00061957F4F8F4F9F4F9923A9F0F92F96E950
:10250000BB279395F695879577956795B795F111C4
:10251000F8CFFAF4BB0F11F460FF1BC06F5F7F4F61
:102520008F4F9F4F16C0882311F096E911C0772373
:1025300021F09EE8872F762F05C0662371F096E87C
:10254000862F70E060E02AF09A95660F771F881F4B
:10255000DAF7880F9695879597F90895990F0008EF
:10256000550FAA0BE0E8FEEF16161706E807F90765
:10257000C0F012161306E407F50798F0621B730B00
:10258000840B950B39F40A2661F0232B242B252B81
:1025900021F408950A2609F4A140A6958FEF811D24
:1025A000811D08950E94E5120C9456130E94481351
:1025B00038F00E944F1320F0952311F00C943F1334
:1025C0000C94451311240C948A130E94671370F322
:1025D000959FC1F3950F50E0551F629FF001729FC8
:1025E000BB27F00DB11D639FAA27F00DB11DAA1FD7
:1025F000649F6627B00DA11D661F829F2227B00D24
:10260000A11D621F739FB00DA11D621F839FA00DAE
:10261000611D221F749F3327A00D611D231F849FFE
:10262000600D211D822F762F6A2F11249F57504055
:102630009AF0F1F088234AF0EE0FFF1FBB1F661FD0
:10264000771F881F91505040A9F79E3F510580F099
:102650000C943F130C948A135F3FE4F3983ED4F339
:10266000869577956795B795F795E7959F5FC1F73D
:10267000FE2B880F911D9695879597F9089597F9E8
:102680009F6780E870E060E008959FEF80EC089518
:1026900000240A9416161706180609060895002441
:1026A0000A9412161306140605060895092E0394BB
:1026B000000C11F4882352F0BB0F40F4BF2B11F42F
:1026C00060FF04C06F5F7F4F8F4F9F4F089557FD8E
:1026D0009058440F551F59F05F3F71F04795880F90
:1026E00097FB991F61F09F3F79F087950895121627
:1026F00013061406551FF2CF4695F1DF08C01616D3
:1027000017061806991FF1CF869571056105089483
:102710000895E894BB2766277727CB0197F908959A
:102720002F923F924F925F926F927F928F929F92E1
:10273000AF92BF92CF92DF92EF92FF920F931F93CF
:10274000CF93DF93CDB7DEB7CA1BDB0B0FB6F89480
:10275000DEBF0FBECDBF09942A88398848885F84C0
:102760006E847D848C849B84AA84B984C884DF8031
:10277000EE80FD800C811B81AA81B981CE0FD11D15
:102780000FB6F894DEBF0FBECDBFED0108955058CF
:10279000BB27AA270E94DF130C9456130E944813EC
:1027A00038F00E944F1320F039F49F3F19F426F4BB
:1027B0000C9445130EF4E095E7FB0C943F13E92FBE
:1027C0000E94671358F3BA176207730784079507C7
:1027D00020F079F4A6F50C9489130EF4E0950B2EF5
:1027E000BA2FA02D0B01B90190010C01CA01A00163
:1027F0001124FF27591B99F0593F50F4503E68F1BE
:102800001A16F040A22F232F342F4427585FF3CFFE
:10281000469537952795A795F0405395C9F77EF4CF
:102820001F16BA0B620B730B840BBAF09150A1F018
:10283000FF0FBB1F661F771F881FC2F70EC0BA0F9E
:10284000621F731F841F48F4879577956795B79526
:10285000F7959E3F08F0B0CF9395880F08F0992721
:10286000EE0F9795879508950E946F1388F09F57F4
:1028700098F0B92F9927B751B0F0E1F0660F771FA4
:10288000881F991F1AF0BA95C9F714C0B13091F09A
:102890000E948913B1E008950C948913672F782F53
:1028A0008827B85F39F0B93FCCF38695779567955F
:1028B000B395D9F73EF490958095709561957F4FCB
:1028C0008F4F9F4F08950E94AE1208F48FEF089526
:1028D0000E94AE12880B990B0895A1E21A2EAA1B32
:1028E000BB1BFD010DC0AA1FBB1FEE1FFF1FA217C0
:1028F000B307E407F50720F0A21BB30BE40BF50BBD
:10290000661F771F881F991F1A9469F76095709545
:10291000809590959B01AC01BD01CF010895EE0F0C
:10292000FF1F0590F491E02D09940F931F93CF930F
:10293000DF938230910510F482E090E0E0915C0337
:10294000F0915D0330E020E0B0E0A0E0309799F432
:102950002115310509F44AC0281B390B24303105F3
:10296000D8F58A819B816115710589F1FB019383FB
:102970008283FE0111C04081518102811381481779
:102980005907E0F04817590799F4109761F012962B
:102990000C93129713961C933296CF01DF91CF912F
:1029A0001F910F91089500935C0310935D03F4CF82
:1029B0002115310551F04217530738F0A901DB0109
:1029C0009A01BD01DF01F801C1CFEF01F9CF90936A
:1029D0005D0380935C03CDCFFE01E20FF31F819373
:1029E00091932250310939832883D7CF20915A03FC
:1029F00030915B03232B41F42091020130910301BC
:102A000030935B0320935A03209100013091010120
:102A10002115310541F42DB73EB740910401509185
:102A20000501241B350BE0915A03F0915B03E2177B
:102A3000F307A0F42E1B3F0B2817390778F0AC01E1
:102A40004E5F5F4F2417350748F04E0F5F1F5093BE
:102A50005B0340935A03819391939FCFF0E0E0E0B2
:102A60009CCFCF93DF930097E9F0FC01329713825C
:102A70001282A0915C03B0915D03ED0130E020E093
:102A80001097A1F420813181820F931F20915A0366
:102A900030915B032817390709F061C0F0935B039D
:102AA000E0935A03DF91CF910895EA01CE17DF0733
:102AB000E8F54A815B819E0141155105B1F7E901B5
:102AC000FB83EA8349915991C40FD51FEC17FD0789
:102AD00061F4808191810296840F951FE9019983A9
:102AE0008883828193819B838A83F0E0E0E0129661
:102AF0008D919C9113970097B9F52D913C91119769
:102B0000CD010296820F931F20915A0330915B03EF
:102B10002817390739F6309751F510925D03109256
:102B20005C03B0935B03A0935A03BCCFD383C283EF
:102B300040815181840F951FC817D90761F44E5FFA
:102B40005F4F88819981480F591F518340838A8143
:102B50009B81938382832115310509F0B0CFF093D7
:102B60005D03E0935C039ECFFD01DC01C0CF1382C7
:102B70001282D7CFB0E0A0E0E0ECF5E10C94921324
:102B80008C01009751F4CB010E9495148C01C8016F
:102B9000CDB7DEB7E0E10C94AE13FC01E60FF71FF2
:102BA0009C0122503109E217F30708F49DC0D901B6
:102BB000CD91DC911197C617D70798F0C530D10594
:102BC00030F3CE0104978617970708F3C61BD70B7F
:102BD0002297C193D1936D937C93CF010E943115BD
:102BE000D6CF5B01AC1ABD0A4C018C0E9D1EA09184
:102BF0005C03B0915D03512C412CF12CE12C10971A
:102C000031F580915A0390915B038815990509F07D
:102C10005CC04616570608F058C08091000190919C
:102C20000101009741F48DB79EB740910401509186
:102C30000501841B950BE817F90708F055C0F093C0
:102C40005B03E0935A03F90171836083A0CF8D91F8
:102C50009C91119712966C90129713967C901397F3
:102C6000A815B90559F56C0142E0C40ED11CCA146F
:102C7000DB0420F1AC014A195B09DA0112961597C1
:102C800080F06282738251834083D9016D937C937B
:102C9000E114F10471F0D7011396FC93EE931297AF
:102CA00076CF22968C0F9D1FF90191838083F301CB
:102CB000EFCFF0935D03E0935C0369CF48165906AC
:102CC00008F42C017D01D3019ACFCB010E94951409
:102CD0007C01009749F0AE01B8010E947716C80147
:102CE0000E943115870153CF10E000E050CFFB0167
:102CF000DC0102C001900D9241505040D8F7089578
:102D0000FB01DC0101900D920020E1F7089510E035
:102D1000CFEDD0E004C0FE010E948F142196C03E8A
:082D2000D107C9F7F894FFCFB9
:102D280000005E038000000000002F048F03BC0336
:102D38007C04ED03CB03DF03000000000506D80583
:102D48001B07B504D105BE05AF05000000004E07FE
:102D58008F031B079C0400000000B6048F031B07A9
:102D6800B504120528059D0454656D703A20006E5F
:0E2D7800616E00696E66006F7666000D0A00DF
:00000001FF
