:100000000C941A020C944B020C944B020C944B026D
:100010000C944B020C944B020C944B020C944B022C
:100020000C944B020C944B020C944B020C944B021C
:100030000C944B020C944B020C944B020C944B020C
:100040000C944B020C944B020C944B020C944B02FC
:100050000C944B020C944B020C944B020C94930E98
:100060000C944B020C94070F0C94DD0E0C944B0275
:100070000C944B020C944B020C944B020C944B02CC
:100080000C944B020C944B020C944B020C944B02BC
:100090000C944B020C944B020C944B020C943D0FAD
:1000A0000C944B020C944B020C944B020C944B029C
:1000B0000C944B020C944B020C944B020C944B028C
:1000C0000C944B020C944B020C944B020C944B027C
:1000D0000C944B020C944B020C944B020C944B026C
:1000E0000C944B02084AD73B3BCE016E84BCBFFD4B
:1000F000C12F3D6C74319ABD56833DDA3D00C77FF8
:1001000011BED9E4BB4C3E916BAAAABE0000008090
:100110003F000C945F030C9481040C94AF020C9488
:1001200082030C94AB020C949A020C94B9020C94C6
:100130006E030C944D020C94D5020C94A2020C9404
:10014000CF070C945F070C94C8030C9436070C94EB
:1001500045070C94C7020C9430040C9484020C9450
:100160009B0B0C94CB020C947F020C9496020C9483
:1001700090030C94D1020C9435070C948C070C94CA
:1001800058070C9461100C949E020C9432030C944A
:10019000BD020C94B5020C94A5020C94C3020C94FD
:1001A0004E0200407A10F35A00A0724E1809001057
:1001B000A5D4E80000E87648170000E40B540200DC
:1001C00000CA9A3B000000E1F50500008096980007
:1001D000000040420F000000A08601000000102730
:1001E00000000000E80300000000640000000000C0
:1001F0000A00000000000100000000002C76D888F2
:10020000DC674F0823DFC1DFAE59E1B1B796E5E304
:10021000E453C63AE651997696E8E6C28426EB891D
:100220008C9B62ED407C6FFCEFBC9C9F40F2BAA5BA
:100230006FA5F490055A2AF75C936B6CF9676DC152
:100240001BFCE0E40D47FEF520E6B500D0ED902E56
:100250000300943577050080841E080000204E0AB4
:10026000000000C80C333333330F986E12831141F2
:10027000EF8D2114893BE65516CFFEE6DB18D184BD
:100280004B381BF77C1D901DA4BBE42420328472E4
:100290005E228100C9F124ECA1E53D2720204E69B2
:1002A0006E67756E6F2E20526576697361206C6F74
:1002B00073206361626C657320534441207920533D
:1002C000434C2079206C6120616C696D656E7461AE
:1002D0006369C3B36E2E0020204D50553630353043
:1002E00020286F2072656C6F6A20525443290020C9
:1002F0002050434139363835202831362073657215
:10030000766F732900202070616E74616C6C6120BF
:100310004F4C454400202070616E74616C6C61200C
:100320004C434400202030780042757363616E6452
:100330006F20646973706F73697469766F73204995
:1003400032432E2E2E0000002200250028002B0014
:100350002E003100340002010000050108010B01EC
:1003600005050505070508080808020202020A0A31
:10037000080804040404010101010101010103034F
:10038000030303030303040707070C0C0C0C0C0CFA
:100390000C0C0202020206060606060606060B0BF7
:1003A0000B0B0B0B0B0B0102102020080810204038
:1003B0001020408002010201080402010102040829
:1003C00010204080804020100804020180040201B7
:1003D0008040201008040201080402010102040800
:1003E00010204080010204081020408000000A0B09
:1003F00002090C0D0E0807030401000000000000B4
:1004000000000000000000000000000000000000EC
:1004100000000000000000001211100000000000A9
:1004200000000000000000000000000000000000CC
:100430000000611011241FBECFEFD1E2DEBFCDBF9F
:1004400000E00CBF12E0A0E0B2E0E8E1FCE300E075
:100450000BBF02C007900D92AE38B107D9F724E068
:10046000AEE8B2E001C01D92A337B207E1F712E097
:10047000CAE1D2E000E006C021970109802FFE0109
:100480000E94EC1BC931D10780E00807A9F70E9440
:10049000E1100C940A1E0C94000008950895282F72
:1004A00030E0F901E451FC4F9491F901EA55FC4F19
:1004B0004491205A3C4FF9012491222309F435C07C
:1004C000992311F191509231F8F4E92FF0E0882747
:1004D000E359FD4F8F4F0C94EC1B9E02A2027F024A
:1004E00096029A028402A502AB02AF02B502B902DB
:1004F000BD02C302C7028402CB02D102D5028091A1
:1005000080008F7780938000E22FF0E0EE0FFF1FD6
:10051000EA5BFC4FA591B4918FB7F894EC9161110F
:1005200048C040954E234C938FBF08958091800022
:100530008F7DE8CF80918000877FE4CF84B58F776F
:1005400084BDE2CF84B58F7DFBCF8091B0008F77E3
:100550008093B000D9CF8091B0008F7DF9CF80918A
:1005600090008F7780939000CFCF809190008F7D07
:10057000F9CF80919000877FF5CF8091A0008F7791
:100580008093A000C1CF8091A0008F7DF9CF809192
:10059000A000877FF5CF809120018F778093200185
:1005A000B3CF809120018F7DF9CF80912001877F8B
:1005B000F5CF4E2BB8CF3FB7F8948091D7029091EA
:1005C000D802A091D902B091DA0226B5A89B05C045
:1005D0002F3F19F00196A11DB11D3FBFBA2FA92FC2
:1005E000982F8827BC01CD01620F711D811D911DBF
:1005F00042E0660F771F881F991F4A95D1F708952B
:100600008F929F92AF92BF92CF92DF92EF92FF9222
:100610004B015C010E94DB026B017C010E94DB024A
:100620006C197D098E099F09683E7340810591050B
:10063000A8F321E0821A9108A108B10888EEC80E3B
:1006400083E0D81EE11CF11C81149104A104B104C3
:1006500029F7FF90EF90DF90CF90BF90AF909F90E1
:100660008F900895AF92BF92CF92DF92EF92FF9258
:100670000F931F93CF93DF936C017B018B01040FCA
:10068000151FEB015E01AE18BF08C017D10759F066
:100690006991D601ED91FC910190F081E02DC601A8
:1006A0001995892B79F7C501DF91CF911F910F9192
:1006B000FF90EF90DF90CF90BF90AF900895FC0136
:1006C000538D448D252F30E0842F90E0821B930BB7
:1006D000541710F0CF96089501970895FC01918D5D
:1006E000828D981761F0A28DAE0FBF2FB11D5D9660
:1006F0008C91928D9F5F9F73928F90E008958FEF02
:100700009FEF0895FC01918D828D981731F0828DB5
:10071000E80FF11D858D90E008958FEF9FEF08950C
:10072000FC01918D228D892F90E0805C9F4F821B70
:1007300091098F739927089585E593E00E949003AE
:1007400021E0892B09F420E0822F0895FC01A48D7B
:10075000A80FB92FB11DA35ABF4F2C91848D90E0E3
:1007600001968F739927848FA689B7892C93A089C6
:10077000B1898C91837080648C93938D848D981350
:1007800006C00288F389E02D80818F7D80830895E3
:10079000EF92FF920F931F93CF93DF93EC0181E0D1
:1007A000888F9B8D8C8D98131AC0E889F989808178
:1007B00085FF15C09FB7F894EE89FF896083E889AB
:1007C000F98980818370806480839FBF81E090E09D
:1007D000DF91CF911F910F91FF90EF900895F62E2A
:1007E0000B8D10E00F5F1F4F0F731127E02E8C8DC4
:1007F0008E110CC00FB607FCFACFE889F989808109
:1008000085FFF5CFCE010E94A603F1CFEB8DEC0F53
:10081000FD2FF11DE35AFF4FF0829FB7F8940B8F25
:10082000EA89FB8980818062CFCF0F931F93CF939A
:10083000DF938C01D0E0C0E0F801EC0FFD1F649164
:10084000662341F085E593E00E94C803892B11F0EF
:100850002196F2CFCE01DF91CF911F910F91089594
:10086000CF93DF93EC01888D8823B9F0AA89BB89E7
:10087000E889F9898C9185FD03C0808186FD0DC0D2
:100880000FB607FCF7CF8C9185FFF2CF808185FFF3
:10089000EDCFCE010E94A603E9CFDF91CF9108955D
:1008A00080E090E0892B29F00E949C0381110E9436
:1008B000000080E090E0892B49F080E090E0892BF7
:1008C00029F00E94000081110E94000080E090E069
:1008D000892B49F080E090E0892B29F00E940000EC
:1008E00081110E94000080E090E0892B49F080E0B7
:1008F00090E0892B29F00E94000081110C940000E7
:10090000089508952091AF02260F3327331F213217
:100910003105ECF420912B03FC0190E080E02430C1
:1009200069F082E00895A091AF022191AC01415796
:100930005D4FA40FB52FB11D2C930196861798F328
:100940008091AF02680F6093AF0280E0089581E06C
:10095000089510922B0381E080932A0310920503DF
:1009600061E084E10E944F0261E085E10E944F0254
:10097000E9EBF0E080818E7F808380818D7F8083B2
:1009800088E48093B80085E48093BC0008951092B9
:10099000E4021092E30210923203109254030E9478
:1009A000A9048DE492E09093E2028093E1028EE448
:1009B00092E09093E0028093DF020895CF93DF935B
:1009C00091E090938E028823B9F0C091B800D09145
:1009D000BA008091BC008A7B8093BC0060E084E117
:1009E0000E944F0260E085E10E944F020E94A9042C
:1009F000D093BA00C093B800DF91CF9108958F9241
:100A00009F92AF92BF92CF92DF92EF92FF920F939D
:100A10001F93CF93DF93D0915403D13208F0D7C006
:100A2000182FC09153030E94DB026B017C0180915F
:100A30002B0381116BC082E080932B0310932A0358
:100A40008FEF8093290310922803D0932703A3E309
:100A5000B3E0E7E0F3E080E0D81391C01092060322
:100A600080910603CC0FC82BC09306038091050329
:100A7000813009F088C0109205030E94DB026B01EF
:100A80007C01809106038093BB0080912D0390919F
:100A90002E03A0912F03B0913003892B8A2B8B2B2F
:100AA000A1F00E94DB0200912D0310912E032091F2
:100AB0002F03309130036C197D098E099F090617A9
:100AC00017072807390708F442C08091BC0083FD4E
:100AD000D8CF85EC8093BC000E94DB026B017C01C7
:100AE00080912B03823009F450C0809129038F3FFD
:100AF00009F46FC080912903803209F46CC08091A1
:100B00002903803309F469C084E026C080912D0355
:100B100090912E03A0912F03B0913003892B8A2B43
:100B20008B2B09F484CF0E94DB0280902D039090E0
:100B30002E03A0902F03B09030036C197D098E090D
:100B40009F0986169706A806B90608F070CF80910F
:100B50002C030E94DE0485E01092320310925403AD
:100B600010923103DF91CF911F910F91FF90EF9081
:100B7000DF90CF90BF90AF909F908F9008959D9100
:100B800091938F5F69CF85EEA5CF80912D039091D2
:100B90002E03A0912F03B0913003892B8A2B8B2B2E
:100BA00009F49ECF0E94DB0200912D0310912E03C9
:100BB00020912F03309130036C197D098E099F0914
:100BC000061717072807390708F08ACFC0CF81E03A
:100BD000C3CF80E0C1CF82E0BFCF83E0BDCF1F9302
:100BE000CF93DF93162FC7E0D4E0A981BA819B8110
:100BF00021E020933103909353031092320310921B
:100C00005403ED91FC9111970190F081E02D682F34
:100C1000CD01199589819A81DC01ED91FC910190BA
:100C2000F081E02D612F199581E0DF91CF911F9127
:100C30000C94FF041F93CF93DF93EA01122FDC0182
:100C400011968D919C91DC01ED91FC910280F381D4
:100C5000E02D1995C817D90729F4812F0E94FF04A8
:100C600091E0811190E0892FDF91CF911F9108953C
:100C7000CF93DF93EC018B818823A1F0888191E0F1
:100C800090933103809353031092320310925403D4
:100C900081E00E94FF0491E0811190E0892FDF91B3
:100CA000CF9108950E94C70481E08B83CE010E94FA
:100CB0003806982F8111E2CFF1CF8F929F92AF9299
:100CC000BF92CF92DF92EF92FF920F931F93CF9339
:100CD000DF93D82FC62F142F613208F09CC00E94DA
:100CE000DB026B017C0180912B0381116FC081E0DD
:100CF00080932B0310932A039FEF90932903109264
:100D000028039C0F9093270380930603809106038A
:100D1000DD0FD82BD093060380910503813009F0B5
:100D20007CC0109205030E94DB026B017C01809164
:100D300006038093BB0080912D0390912E03A09118
:100D40002F03B0913003892B8A2B8B2BA1F00E94AB
:100D5000DB0200912D0310912E0320912F0330917F
:100D600030036C197D098E099F090617170728079C
:100D7000390708F44CC08091BC0083FDD8CF85ECC6
:100D80008093BC000E94DB026B017C0180912B03ED
:100D9000813009F444C0809128038C1710F4C0916D
:100DA0002803E7E0F3E0A5EEB2E080E08C1359C041
:100DB0008C2FDF91CF911F910F91FF90EF90DF90DB
:100DC000CF90BF90AF909F908F90089580912D030A
:100DD00090912E03A0912F03B0913003892B8A2B81
:100DE0008B2B09F480CF0E94DB0280902D03909022
:100DF0002E03A0902F03B09030036C197D098E094B
:100E00009F0986169706A806B90608F06CCF809150
:100E10002C030E94DE04C0E0CBCF85EEB1CF8091E1
:100E20002D0390912E03A0912F03B0913003892BB5
:100E30008A2B8B2B09F4AACF0E94DB0200912D0391
:100E400010912E0320912F03309130036C197D09EE
:100E50008E099F09061717072807390708F096CF4C
:100E6000D6CF91919D938F5FA1CF0895E091E40239
:100E70008091E302E81730F4F0E0EB51FD4F808100
:100E800090E008958FEF9FEF08959091E402809194
:100E9000E3022FEF3FEF981748F4E92FF0E0EB5112
:100EA000FD4F208130E09F5F9093E402C9010895D7
:100EB0008091E3029091E402891B990B0895CF92EF
:100EC000DF92EF92FF920F931F93CF93DF937C01FA
:100ED000CB018A0120913103222389F0EB016B01C0
:100EE000C40ED51ECC15DD0569F06991D701ED91D1
:100EF000FC910190F081E02DC7011995F3CF642F8B
:100F00000E948204C801DF91CF911F910F91FF9041
:100F1000EF90DF90CF900895CF93DF931F92CDB7DE
:100F2000DEB76983209131032223F9F02091540325
:100F3000203258F021E030E0FC013383228390E03E
:100F400080E00F90DF91CF91089580913203E82FD8
:100F5000F0E0ED5CFC4F998190838F5F80933203CA
:100F60008093540381E090E0ECCF61E0CE010196E4
:100F70000E948204F7CFFC01248131E030933103D9
:100F80002093530310923203109254038385682BED
:100F90008BEF93E00E948C0781E00C94FF0490E0BB
:100FA00080E00895FC0101900020E9F73197AF013E
:100FB000481B590BBC0185E593E00C9432038F92DA
:100FC0009F92AF92BF920F931F93CF93DF93CDB7B2
:100FD000DEB7A1970FB6F894DEBF0FBECDBF19A242
:100FE000423008F44AE08E010F5D1F4F842E912C91
:100FF000B12CA12CA50194010E949C19E62FB901E6
:10100000CA01EA30F4F4E05DD801EE938D01232BA0
:10101000242B252B79F790E080E0109719F0CD0173
:101020000E94D207A1960FB6F894DEBF0FBECDBFC7
:10103000DF91CF911F910F91BF90AF909F908F90B4
:101040000895E95CE1CFCF93DF931F921F92CDB754
:10105000DEB789836A838091F5039091F603FC01E2
:10106000248135812230310590F0208131E03093A8
:10107000310320935303109232031092540321E062
:1010800042E050E0BE016F5F7F4F0E941A060F9052
:101090000F90DF91CF910895AF92BF92CF92DF92E0
:1010A000EF92FF921F93CF93DF93DC0114962D9163
:1010B0003C911597232B09F449C07A01EC018881F2
:1010C00091E0909331038093530310923203109276
:1010D000540320E041E050E0CD010E941A06182F91
:1010E0008823A1F1CC80DD8061E0C114D10409F432
:1010F00060E0A62EB12C462F88810E945D061092DA
:10110000E4028093E3028A151B0401F590E080E07D
:101110008A159B0570F489819A81DC01ED91FC911F
:101120000284F385E02D1995F701808381E090E03A
:10113000EFCFCD28B9F2812FDF91CF911F91FF9092
:10114000EF90DF90CF90BF90AF90089510E0F3CF75
:101150008F929F92AF92BF92CF92DF92EF92FF92C7
:101160001F93CF93DF931F92CDB7DEB76B017C0146
:1011700020E030E040E85FE30E94461887FD86C02B
:1011800020E030EC4AE555E4C701B6010E947B1B24
:1011900018163CF4C12C30ECD32E3AE5E32E35E49E
:1011A000F32E6091F7037091F8038091F903909109
:1011B000FA030E944B184B015C0120E030E040E84C
:1011C00055E4C701B6010E94AC189B01AC01C501F2
:1011D000B4010E94AC1A20E030E040E05FE30E94DE
:1011E000CE1920E030E040E85FE30E94CD196B01AA
:1011F0007C0120E030E040E450E40E94461887FD86
:101200004CC020E030E04FE753E4C701B6010E9434
:101210007B1B181634F4C12CD12C9FE7E92E93E4E4
:10122000F92E1982AE014F5F5F4FBA018091F5032D
:101230009091F6030E944C081981612F6F766061CE
:1012400080E00E942308C701B6010E94251B8EEF93
:101250000E942308612F80E00E94230865E070E06F
:1012600080E090E00E940003612F606A80E00E94AD
:1012700023080F90DF91CF911F91FF90EF90DF90A7
:10128000CF90BF90AF909F908F900895C12CD12C9C
:1012900020E8E22E2FE3F22E84CFC12CD12C80E463
:1012A000E82EFE2CBECF8F929F92AF92BF92CF922C
:1012B000DF92EF92FF921F93CF93DF9300D01F92A4
:1012C0001F92CDB7DEB7182F24E0829FC0011124F2
:1012D000FC01EA5FFD4FC080D1800D2C000CEE08B0
:1012E000FF08DB01653B710514F0A4EBB0E0B7FF2C
:1012F00002C0B0E0A0E08A5F9D4FFC0122813381F3
:10130000032E000C440B550B2C193D094E095F09A7
:101310000E94941924EB30E040E050E00E946A19EA
:10132000C20ED31EE41EF51EB60190E080E00E94BE
:101330004B186B017C018EEF8983AE014F5F5F4FCD
:10134000BA018091F5039091F6030E944C086981DF
:1013500070E06F5F7F4F90E080E00E944B1820E0CC
:1013600034E244E759E40E94AC184B015C016091FF
:10137000F7037091F8038091F9039091FA030E94AA
:101380004B189B01AC01C501B4010E94AC1A9B0132
:10139000AC01C701B6010E94AC1A0E94251B110FB7
:1013A000110F1A5F19831A821B826C837D838091CF
:1013B000F5039091F603FC01248135812530310538
:1013C00090F0208131E03093310320935303109249
:1013D00032031092540321E045E050E0BE016F5FFC
:1013E0007F4F0E941A060F900F900F900F900F9052
:1013F000DF91CF911F91FF90EF90DF90CF90BF9042
:10140000AF909F908F9008958F929F92AF92BF92CE
:10141000CF92DF92EF92FF920F931F93CF93DF93C0
:10142000CDB7DEB72E970FB6F894DEBF0FBECDBF97
:10143000809108049091090420910A0431E03093CE
:101440003103209353031092320310925403DC01B2
:10145000ED91FC910190F081E02D6BE3199580E016
:101460000E94FF0441E06EE080910A040E945D0644
:101470001092E4028093E3028E010F5F1F4F6E0112
:10148000BFE0CB0ED11C8091080490910904DC01CF
:10149000ED91FC910284F385E02D1995B82E809191
:1014A000080490910904DC01ED91FC910284F3851C
:1014B000E02D1995E12C8E299B29F80181939193B8
:1014C0008F01CE16DF06F9F6C0900F04D0901004FD
:1014D000E0901104F090120469817A81072E000CCB
:1014E000880B990B0E944D18A70196010E94AC1A17
:1014F00020911F0430912004409121045091220436
:101500000E94CD1960932F047093300480933104AE
:10151000909332046B817C81072E000C880B990B11
:101520000E944D18A70196010E94AC1A2091230435
:101530003091240440912504509126040E94CD1935
:10154000609333047093340480933504909336048D
:101550008091070461E06827681B770B072E000C59
:10156000880B990B0E944D184B015C016D817E81A7
:10157000072E000C880B990B0E944D189B01AC01A3
:10158000C501B4010E94AC18A70196010E94AC1AD3
:1015900020912704309128044091290450912A0475
:1015A0000E94CD19609337047093380480933904F6
:1015B00090933A046F817885072E000C880B990B65
:1015C0000E944D1820E030EF41E456E40E94CE190D
:1015D00020E030E04AEA53E40E94AC1A60932B0406
:1015E00070932C0480932D0490932E04C0900B04D0
:1015F000D0900C04E0900D04F0900E0469857A857B
:10160000072E000C880B990B0E944D18A70196011C
:101610000E94AC1A209113043091140440911504D7
:10162000509116040E94CD1960933B0470933C04C2
:1016300080933D0490933E046B857C85072E000CBF
:10164000880B990B0E944D18A70196010E94AC1AB5
:1016500020911704309118044091190450911A04F4
:101660000E94CD1960933F0470934004809341041D
:10167000909342046D857E85072E000C880B990B94
:101680000E944D18A70196010E94AC1A20911B04DC
:1016900030911C0440911D0450911E040E94CD19EC
:1016A00060934304709344048093450490934604EC
:1016B0002E960FB6F894DEBF0FBECDBFDF91CF914F
:1016C0001F910F91FF90EF90DF90CF90BF90AF9060
:1016D0009F908F9008950F931F93CF938C01C62FE7
:1016E0000E94BB076C2F6460C8010E94BB076C2F6F
:1016F0006B7FC8010E94BB0783EC90E00197F1F774
:10170000CF911F910F9108950F931F93CF93DF9364
:101710008C01D62FC42F607F642B0E946B0B80E15D
:10172000D89FB00111246C2BC801DF91CF911F917C
:101730000F910C946B0B41E00E94840B81E090E0D0
:1017400008954F925F926F927F928F929F92AF9285
:10175000BF92CF92DF92EF92FF920F931F93CF939E
:10176000DF93CDB7DEB72C970FB6F894DEBF0FBE70
:10177000CDBF0E94040AC0903704D0903804E09096
:101780003904F0903A0421E030E03A83298320E0E4
:1017900030E0A901C701B6010E947B1B87FF02C090
:1017A0001A82198201E010E020E030E0A901C701AF
:1017B000B6010E94461887FD02C010E000E0698172
:1017C0007A81601B710B072E000C880B990B0E940D
:1017D0004D186D837E838F839887A7019601C7017B
:1017E000B6010E94AC182B013C01C0902F04D09090
:1017F0003004E0903104F0903204A7019601C70153
:10180000B6010E94AC18A30192010E94CE190E9459
:101810008E1B9B01AC018090330490903404A09007
:101820003504B09036046D817E818F8198850E9449
:10183000AC189B01AC01C501B4010E944D1A21EE08
:101840003EE245E652E40E94AC1860934704709370
:1018500048048093490490934A04A5019401C5016A
:10186000B4010E94AC18A30192010E94CE190E94FB
:101870008E1B9B01AC01C701B6010E944D1A905806
:1018800021EE3EE245E652E40E94AC1860934B0420
:1018900070934C0480934D0490934E048FB7F8944A
:1018A000C090DB02D090DC02E090DD02F090DE021E
:1018B0008FBF80915B0490915C04A0915D04B09116
:1018C0005E04A7019601281B390B4A0B5B0BCA016A
:1018D000B9010E944B182FE632E143E85AE30E9417
:1018E000AC184B015C01C0925B04D0925C04E092A6
:1018F0005D04F0925E0480915F0490916004A09179
:101900006104B091620489839A83AB83BC83409065
:101910004704509048046090490470904A04209114
:101920003B0430913C0440913D0450913E04C5017C
:10193000B4010E94AC1820914F04309150044091A2
:101940005104509152040E94CE19A30192010E94A9
:10195000CD196B017C0120E030E044E353E40E94A8
:101960007B1B18163CF420E030E044EB53E4C70145
:10197000B601EDCF20E030E044E353ECC701B601FF
:101980000E94461887FF0BC020E030E044EB53E490
:10199000C701B6010E94CE196B017C01EBCF2981F2
:1019A0003A814B815C8160E070E080E89FE30E94B7
:1019B000CD1969877A878B879C87A7019601C30118
:1019C000B2010E94CE1929813A814B815C810E942B
:1019D000AC186B017C0129853A854B855C85C30178
:1019E000B2010E94AC189B01AC01C701B6010E9474
:1019F000CE196B017C0120E030E044E353E40E9407
:101A00007B1B18164CF420E030E044EB53E4C70194
:101A1000B6010E94CD19EDCF20E030E044E353EC55
:101A2000C701B6010E94461887FF0BC020E030E0D6
:101A300044EB53E4C701B6010E94CE196B017C014F
:101A4000EBCFC0924F04D0925004E0925104F09238
:101A5000520440904B0450904C0460904D047090A0
:101A60004E0420913F043091400440914104509134
:101A700042046D817E818F8198850E94AC18A501FA
:101A800094010E94AC182091530430915404409169
:101A90005504509156040E94CE19A30192010E9450
:101AA000CD196B017C0120E030E044EB52E40E9450
:101AB0007B1B18163CF420E030E044E353E4C701FC
:101AC000B601EDCF20E030E044EB52ECC701B601A7
:101AD0000E94461887FF0BC020E030E044E353E447
:101AE000C701B6010E94CE196B017C01EBCFA701A3
:101AF0009601C301B2010E94CE1929813A814B811E
:101B00005C810E94AC186B017C01A3019201698584
:101B10007A858B859C850E94AC189B01AC01C7011E
:101B2000B6010E94CE196B017C0120E030E044EB4D
:101B300052E40E947B1B18164CF420E030E044E392
:101B400053E4C701B6010E94CD19EDCF20E030E08B
:101B500044EB52ECC701B6010E94461887FF0BC048
:101B600020E030E044E353E4C701B6010E94CE19FF
:101B70006B017C01EBCFC0925304D0925404E092ED
:101B80005504F0925604209143043091440440914E
:101B9000450450914604C501B4010E94AC1820913F
:101BA0005704309158044091590450915A040E94AE
:101BB000CE196093570470935804809359049093FE
:101BC0005A042C960FB6F894DEBF0FBECDBFDF913E
:101BD000CF911F910F91FF90EF90DF90CF90BF902A
:101BE000AF909F908F907F906F905F904F900895EF
:101BF000CF93DF93EC0188819981009711F00E94C7
:101C0000901C198218821D821C821B821A82DF910D
:101C1000CF910895FC0180819181009711F00C947F
:101C2000901C08950F931F93CF93DF93EC0188814D
:101C30009981009759F02A813B812617370730F0A8
:101C400081E0DF91CF911F910F9108958B016F5F1C
:101C50007F4F0E94191D009759F0998388831B8339
:101C60000A832C813D81232B59F7FC011082E8CF98
:101C700080E0E7CFEF92FF920F931F93CF93DF9314
:101C8000EC017B018A01BA010E94120E81110BC086
:101C9000CE010E94F80DCE01DF91CF911F910F91DF
:101CA000FF90EF9008951D830C83B701888199817F
:101CB0000E94031EF0CF85ED8093BC0080912D0320
:101CC00090912E03A0912F03B09130030796A11D90
:101CD000B11D23E0B695A795979587952A95D1F7DD
:101CE0002091BC0024FD03C010922B030895409165
:101CF0002D0350912E0360912F0370913003452BDB
:101D0000462B472B69F30097A105B10541F02AE264
:101D10002A95F1F700C00197A109B109E1CF80919F
:101D20002C030C94DE041F920F920FB60F92112415
:101D30002F933F938F939F93AF93BF938091DB0239
:101D40009091DC02A091DD02B091DE023091D602CA
:101D500023E0230F2D3758F50196A11DB11D2093C7
:101D6000D6028093DB029093DC02A093DD02B09355
:101D7000DE028091D7029091D802A091D902B09151
:101D8000DA020196A11DB11D8093D7029093D8026B
:101D9000A093D902B093DA02BF91AF919F918F9136
:101DA0003F912F910F900FBE0F901F90189526E82E
:101DB000230F0296A11DB11DD2CF1F920F920FB615
:101DC0000F9211240BB60F922F933F934F935F9373
:101DD0006F937F938F939F93AF93BF93EF93FF93F3
:101DE00085E593E00E94A603FF91EF91BF91AF912B
:101DF0009F918F917F916F915F914F913F912F9123
:101E00000F900BBE0F900FBE0F901F9018951F9252
:101E10000F920FB60F9211240BB60F922F938F9340
:101E20009F93EF93FF93E0916503F09166038081A8
:101E3000E0916B03F0916C0382FD1DC09081809155
:101E40006E038F5F8F7320916F03821741F0E091D3
:101E50006E03F0E0EB5AFC4F958F80936E03FF9179
:101E6000EF919F918F912F910F900BBE0F900FBE0E
:101E70000F901F9018958081F2CF1F920F920FB68E
:101E80000F9211240BB60F922F933F934F935F93B2
:101E90006F937F938F939F93AF93BF93EF93FF9332
:101EA0008091B900887F803609F44DC008F040C0A9
:101EB000883209F4A9C028F5803109F49DC0C8F41E
:101EC000882309F4FBC0883009F496C0FF91EF9194
:101ED000BF91AF919F918F917F916F915F914F9142
:101EE0003F912F910F900BBE0F900FBE0F901F9040
:101EF0001895883109F488C0803241F7809329030E
:101F000014C0803409F49DC040F48033B9F38833A1
:101F1000E9F68093290385ECB0C0803509F485C0CB
:101F2000883509F496C0883489F60E945B0ECECFBE
:101F3000883909F48CC038F5883729F050F4883690
:101F400011F0803719F683E080932B031092D102B1
:101F500057C0883809F47BC0803919F0803809F0FF
:101F6000B5CF8091D102803208F071C0E091D102EA
:101F700081E08E0F8093D1028091BB00F0E0EF549E
:101F8000FD4F80833DC0803B39F0E0F4803A09F496
:101F900079C0883A09F09ACF84E080932B0310929D
:101FA000B0021092AF02E091E102F091E2021995C5
:101FB0008091AF0281110FC081E08093AF02109237
:101FC0008F0209C0803C09F4A6CF883C09F4A3CF56
:101FD000883B09F07BCFE091B00281E08E0F8093C7
:101FE000B002F0E0E157FD4F80818093BB009091FB
:101FF000B0028091AF0229C0809106038093BB009C
:1020000085EC8093BC0062CF9091280380912703D8
:10201000981758F5E091280381E08E0F80932803EC
:10202000F0E0E95FFC4F8081E9CFE091280381E097
:102030008E0F809328038091BB00F0E0E95FFC4F96
:10204000808390912803809127039817C8F285E830
:10205000D8CFE091280381E08E0F809328038091F0
:10206000BB00F0E0E95FFC4F808380912A0381117F
:102070005CCF81E08093050384EA8093BC001092DA
:102080002B0324CF85EC8093BC0010922B0380910E
:10209000D102803230F4E091D102F0E0EF54FD4FF4
:1020A00010826091D10270E0E091DF02F091E002D5
:1020B00081EB92E019951092D10208CF109229037A
:1020C00034CFE5E5F3E01382128248EE53E060E09E
:1020D00070E044835583668377838AE492E091833A
:1020E000808385EC90E09587848784EC90E09787E7
:1020F000868780EC90E0918B808B81EC90E0938BD5
:10210000828B82EC90E0958B848B86EC90E0978BB1
:10211000868B118E128E138E148EABEFB3E0139656
:102120001C921E92129714964D935D936D937C931F
:1021300017978CE592E011969C938E93E3E6F4E07A
:10214000138212828EE692E09183808387E28483F9
:1021500080E1818782E082871386E7E0F4E01082E5
:1021600088E68383B283A18348E451EE6AE77FE384
:1021700040935F0450936004609361047093620421
:102180001486158616861786108A118A128A138A73
:10219000148A158A168A178A108E118E128E138E43
:1021A000148E158E168E178E10A211A212A213A2D3
:1021B000E2EFF3E080E48083B283A1831482138290
:1021C0000895CF93DF93CDB7DEB7CB54D1090FB6C7
:1021D000F894DEBF0FBECDBF789484B5826084BD15
:1021E00084B5816084BD85B5826085BD85B581601B
:1021F00085BD80916E00816080936E001092810099
:102200008091810082608093810080918100816053
:102210008093810080918000816080938000809114
:10222000B10084608093B1008091B00081608093A0
:10223000B000809191008260809391008091910024
:1022400081608093910080919000816080939000E4
:102250008091A10082608093A1008091A1008160A3
:102260008093A1008091A00081608093A000809164
:1022700021018260809321018091210181608093FE
:1022800021018091200181608093200180917A005A
:10229000846080937A0080917A00826080937A00D3
:1022A00080917A00816080937A0080917A008068C2
:1022B00080937A001092C1000E94C7040E94C70454
:1022C0001092680480916D04823018F098E0909329
:1022D000680480936B0462E370E080E090E00E9409
:1022E000000360916E0483E694E00E94BB0768EEF1
:1022F00073E080E090E00E94000360E383E694E0F6
:102300000E946B0B0BE416E4C8010197F1F760E340
:1023100083E694E00E946B0BC8010197F1F760E33C
:1023200083E694E00E946B0B83E592E00197F1F75E
:1023300060E283E694E00E946B0B60916804606247
:1023400040E083E694E00E94840B84E0809369047B
:1023500040E06CE083E694E00E94840B40E061E0A2
:1023600083E694E00E94840B0BE31FE1C801019710
:10237000F1F782E080936A0440E066E083E694E04F
:102380000E94840B40E062E083E694E00E94840BAC
:10239000C8010197F1F788E080936E0460E083E65E
:1023A00094E00E94BB0761E08BE60E94EF0560E0CD
:1023B00089E10E94EF0560E08AE10E94EF0580E07C
:1023C00090E0A3E8B2E480930B0490930C04A093F4
:1023D0000D04B0930E0468E08BE10E94EF0580E0ED
:1023E00090E0A0E8B6E480930F0490931004A093CB
:1023F0001104B093120460E08CE10E94EF050E948A
:10240000A10B8091470490914804A0914904B09198
:102410004A0480934F0490935004A0935104B093C6
:10242000520480914B0490914C04A0914D04B091C2
:102430004E048093530490935404A0935504B09396
:1024400056042FB7F8948091DB029091DC02A091A2
:10245000DD02B091DE022FBF80935B0490935C0499
:10246000A0935D04B0935E0468EE73E080E090E0BA
:102470000E94000310921304109214041092150489
:102480001092160410921704109218041092190456
:1024900010921A0410921B0410921C0410921D0436
:1024A00010921E0410921F04109220041092210416
:1024B00010922204109223041092240410922504F6
:1024C00010922604109227041092280410922904D6
:1024D00010922A0404EF11E024961CAE1DAE1EAE2D
:1024E0001FAE249728961CAE1DAE1EAE1FAE2897B9
:1024F0002C961CAE1DAE1EAE1FAE2C97C12CD12C3F
:10250000760146015701260137010E94040A2091F5
:102510002F04309130044091310450913204C301B2
:10252000B2010E94CE192B013C012091330430915D
:1025300034044091350450913604C501B4010E9421
:10254000CE194B015C0120E030E040E85FE3609190
:102550003704709138048091390490913A040E94B4
:10256000CD199B01AC01C701B6010E94CE196B01C8
:102570007C0120913B0430913C0440913D045091FA
:102580003E042C966CAD7DAD8EAD9FAD2C970E9418
:10259000CE192C966CAF7DAF8EAF9FAF2C9720914C
:1025A0003F043091400440914104509142042896E8
:1025B0006CAD7DAD8EAD9FAD28970E94CE1928964B
:1025C0006CAF7DAF8EAF9FAF2897209143043091C1
:1025D0004404409145045091460424966CAD7DAD71
:1025E0008EAD9FAD24970E94CE1924966CAF7DAF1F
:1025F0008EAF9FAF249761E070E080E090E00E9492
:1026000000030150110909F080CF20E030E04AEFCB
:1026100053E4C301B2010E94AC1A60931F0470938B
:102620002004809321049093220420E030E04AEFBC
:1026300053E4C501B4010E94AC1A60932304709363
:102640002404809325049093260420E030E04AEF90
:1026500053E4C701B6010E94AC1A6093270470933B
:1026600028048093290490932A0420E030E04AEF64
:1026700053E42C966CAD7DAD8EAD9FAD2C970E9432
:10268000AC1A609313047093140480931504909310
:10269000160420E030E04AEF53E428966CAD7DAD9F
:1026A0008EAD9FAD28970E94AC1A6093170470936B
:1026B00018048093190490931A0420E030E04AEF44
:1026C00053E424966CAD7DAD8EAD9FAD24970E94F2
:1026D000AC1A60931B0470931C0480931D049093A8
:1026E0001E048091F5039091F603009711F00E946B
:1026F000901C86E090E00E94F41B8C018091F30313
:102700009091F4032091F203F80120839283818356
:10271000138280E290E0958384831093F603009304
:10272000F5030E94C70481E0F8018383C8010E9479
:1027300038068823E1F060E880E00E9423086AE020
:1027400070E080E090E00E94000380E498E7ADE74D
:10275000B1E08093F7039093F803A093F903B0934B
:10276000FA0360E070E08AE794E40E94A80880EC35
:102770009CEFABE9B1E08093F7039093F803A0934B
:10278000F903B093FA0360E070E088E492E40E94F9
:10279000A808E0916503F091660382E08083E091F0
:1027A0006103F09162031082E0916303F09164038E
:1027B0008FEC808310926D03E0916903F0916A03BE
:1027C00086E08083E0916703F091680380818061F7
:1027D0008083E0916703F091680380818860808343
:1027E000E0916703F0916803808180688083E091C5
:1027F0006703F091680380818F7D808389E293E095
:102800000E94150486E792E00E94D20798E0C92E44
:10281000D12CE12CF12C00E0BB24B3941C2DB09200
:102820003103C0925303109232031092540381E09B
:102830000E94FF04811134C084E293E00E941504D9
:10284000103128F460E385E593E00E94C80340E17D
:10285000C701B6010E94DF07173211F01F3321F4C0
:1028600085E193E00E94150484EC810F823020F40E
:1028700085E093E00E94150480EC810F883020F4FD
:102880008FEE92E00E9415041856123020F487ED66
:1028900092E00E94150486E792E00E94D2070F5F43
:1028A000FFEFCF1ADF0AEF0AFF0A88E7C816D10444
:1028B000E104F10409F0B2CF011108C08CE992E003
:1028C0000E94150486E792E00E94D2078AE5882ECE
:1028D000912CA12CB12C0E94A10BC0904F04D09040
:1028E0005004E0905104F0905204C092D202D09271
:1028F000D302E092D402F092D50240E060E883E691
:1029000094E00E94840B1DAA1CAA1FAA1EAA19AE3D
:1029100018AE8E010F5F1F4F22E044E0C701B601E1
:102920000E94D715009709F4A6C0FC010190002071
:10293000E9F73197AF01481B590BBC01CE01C49692
:102940000E943A0E1BAE1AAE1DAE1CAE1FAE1EAEDE
:1029500048E050E069E772E0CE01CA960E943A0E64
:102960001A8219821C821B821E821D826AAD7BAD77
:102970006115710531F04EAD5FADCE0101960E943B
:102980003A0EECA8FDA8E114F10409F479C008ADF1
:1029900019AD01151105B9F08D819E81080F191F20
:1029A000B801CE0101960E94120E882309F468C076
:1029B00029813A818D819E81B701820F931F0E94E8
:1029C000031E1E830D834D815E8169817A8183E6BA
:1029D00094E00E943203CE0101960E940A0ECE01BD
:1029E000CA960E940A0ECE01C4960E940A0E6091F9
:1029F000D2027091D3028091D4029091D5020E94AC
:102A00001E1B9B01AC01235D3F4F4F4F5F4FA4EB5B
:102A1000B0E00E948919A50194010E946A19B901C8
:102A200080E00E9453096AE570E083E00E94530948
:102A30000E94A10BC0903704D0903804E090390474
:102A4000F0903A04A7019601C701B6010E94D21B7B
:102A50008823D9F082E892E00E94D20786E792E0CC
:102A60000E94D20762E370E080E090E00E940003E1
:102A70000E94500430CFCE01C4960E94F80D62CF60
:102A8000CE0101960E94F80D9ECF26013701E894F1
:102A900077F82FEF3FEF4FE75FE7C301B2010E94E6
:102AA000D21B81110DC02FEF3FEF4FE75FE7C3014E
:102AB000B2010E94461818161CF486E892E0CCCFAA
:102AC0002FEF3FEF4FE75FE4C701B6010E947B1B8A
:102AD00018161CF48AE892E0BFCF2FEF3FEF4FE7C4
:102AE0005FECC701B6010E94461887FDF3CF20E0D6
:102AF00030E0A901C701B6010E94461887FF09C04E
:102B00006DE285E593E00E94C803F7FAF094F7F8C8
:102B1000F0942AE037ED43EA5BE3C701B6010E9477
:102B2000CE192B013C010E94251B6B017C010E94E8
:102B30004B189B01AC01C301B2010E94CD192B01BE
:102B40003C014AE0C701B6010E94DF076EE285E55D
:102B500093E00E94C80320E030E040E251E4C3016A
:102B6000B2010E94AC182B013C010E94251B6B0195
:102B7000F12CE12C4AE0C701B6010E94DF07C70132
:102B8000B6010E944B189B01AC01C301B2010E9427
:102B9000CD1920E030E040E251E40E94AC180E94E0
:102BA000251B90E080E04AE00E94DF0757CFEF92BC
:102BB0000F931F93CF93DF93E80134E047FD34E197
:102BC000042E000C550B57FF03C051954195510938
:102BD000E32E022F242FAE010E94F515CE01DF91C6
:102BE000CF911F910F91EF9008958F929F92AF9286
:102BF000BF92CF92DF92EF92FF920F931F93CF93EA
:102C0000DF9300D000D000D0CDB7DEB76A01F22E3E
:102C1000B02E102FFBE3AF2EA01608F41BE31F5FAE
:102C2000012F27E0AE014F5F5F4F0E946E17BC017E
:102C30008981982F9970913009F44EC09BE2E1FC94
:102C400004C09E2D9170E0FC49C05E2D5071E82FAC
:102C5000E87083FF55C084E0911101C083E0EF2D3F
:102C6000E81B8F1508F0E0E0D6018E2F20E25523F7
:102C7000C9F1992329F0D6019C93C60101966C01F4
:102C800096012D5F3F4FE2FE33C08EE4D6018C9358
:102C900091E411969C93119712968C93D9018E2FE3
:102CA00090E281112AC0E20FF32FF11D10828EEF06
:102CB0009FEF29960FB6F894DEBF0FBECDBFDF9110
:102CC000CF911F910F91FF90EF90DF90CF90BF9029
:102CD000AF909F908F9008959DE2B7CF90E2B5CFCF
:102CE0002D9381508111FCCFCE0ED11CE0E0C1CFDD
:102CF0008EE6D6018C9391E6CCCF9D938150D1CFB7
:102D0000482F447082FF3DC084E0911101C083E0F0
:102D10008F1510F4EF2DE81BD6018E2F20E25523DE
:102D200009F1992329F0D6019C93C60101966C0103
:102D300096012D5F3F4FE2FE1BC089E4D6018C93C4
:102D40008EE411968C93119786E412968C93D90198
:102D50008E2F90E2882309F4A6CF9D938150FACF5D
:102D60002D9381508111FCCFCE0ED11CE0E0D9CF44
:102D700089E6D6018C938EE611968C93119786E6A0
:102D8000E4CF9B0177FF02C030E020E0A1E0B0E09B
:102D9000911102C0B0E0A0E0F9013196AE0FBF1F63
:102DA0008B2C912CBB2009F461C05401EFEFAE1ABB
:102DB000BE0AAA0DBB1DFA161B0619F014F04F2D02
:102DC0004A1B511188C0E3FC59C07601A42FB0E220
:102DD000A1114FC0C40ED11C992309F45BC040E07F
:102DE000D6011196F60190836D01552309F448C070
:102DF000012F060F9A81582F507184FF03C0913321
:102E000009F4015010160CF047C0093008F008E032
:102E1000EEE2FE2E5B01A01AB10885019194819427
:102E200091082F3F320729F4D601FC92F601319622
:102E30006F016217730794F1021713077CF5DB012A
:102E4000A21BB30BAA24A394B12CAC0EBD1EAA0DD9
:102E5000BB1D11968C9121503109D6011196281570
:102E60003905F4F0F60180836D01DBCFB12CA12C84
:102E7000A0CFF701B1937F01A150AACF9111B0CF9C
:102E8000D601942F50E302C05D9391509111FCCF75
:102E9000C40ED11C40E0ACCF01E0BACF80E3DBCF61
:102EA0006217730731F4963388F4953311F4552380
:102EB00069F0F6018083FD01842F90E2811108C042
:102EC000A40FB11D1C9290E080E0F3CE81E3F1CF1E
:102ED00091938150F3CF911183CF8ACF283008F09E
:102EE00027E03327DA01990F311D87FD91600096A5
:102EF0006105710539F432602E5F3D9330E32A9508
:102F0000E1F708959F3F30F080387105610509F0C1
:102F10003C5F3C5F3D93913008F08068911DDF93EA
:102F2000CF931F930F93FF92EF92192F987F96954F
:102F3000E92F96959695E90FFF27E450FE4F9927C4
:102F40003327EE24FF24A701E70105900894079496
:102F500028F4360FE71EF81E491F511D660F771F14
:102F6000881F991F0694A1F70590079428F4E70E8F
:102F7000F81E491F561FC11D770F881F991F661F16
:102F80000694A1F70590079428F4F80E491F561FE0
:102F9000C71FD11D880F991F661F771F0694A1F7C1
:102FA0000590079420F4490F561FC71FD81F990F8B
:102FB000661F771F881F0694A9F7849110951770D4
:102FC00041F0D695C79557954795F794E7941A958C
:102FD000C1F7E2EAF1E06894159015913591659199
:102FE000959105907FE27395E118F10A430B560B1A
:102FF000C90BD009C0F7E10CF11E431F561FC91FB2
:10300000D01D7EF4703311F48A95E6CFE894015018
:1030100030F0080F0AF40027021708F4202F239538
:10302000022F7A3328F079E37D932A95E9F710C0CF
:103030007D932A9589F60694979567953795179508
:103040001794E118F10A430B560BC90BD00998F0FD
:1030500023957E9173957A3308F070E37C93201367
:10306000B8F77E9170617D9330F0839571E37D9325
:1030700070E32A95E1F71124EF90FF900F911F91D3
:10308000CF91DF91992787FD909508950E94881828
:1030900008F481E00895E89409C097FB3EF4909508
:1030A0008095709561957F4F8F4F9F4F9923A9F021
:1030B000F92F96E9BB279395F695879577956795B0
:1030C000B795F111F8CFFAF4BB0F11F460FF1BC0F4
:1030D0006F5F7F4F8F4F9F4F16C0882311F096E987
:1030E00011C0772321F09EE8872F762F05C0662335
:1030F00071F096E8862F70E060E02AF09A95660FEE
:10310000771F881FDAF7880F9695879597F90895A6
:10311000990F0008550FAA0BE0E8FEEF16161706E8
:10312000E807F907C0F012161306E407F50798F050
:10313000621B730B840B950B39F40A2661F0232B69
:10314000242B252B21F408950A2609F4A140A695E5
:103150008FEF811D811D08950E94BF180C943019B6
:103160000E94221938F00E94291920F0952311F0AD
:103170000C9419190C941F1911240C9464190E94B1
:10318000411970F3959FC1F3950F50E0551F629F51
:10319000F001729FBB27F00DB11D639FAA27F00DB0
:1031A000B11DAA1F649F6627B00DA11D661F829FD7
:1031B0002227B00DA11D621F739FB00DA11D621FBC
:1031C000839FA00D611D221F749F3327A00D611DD9
:1031D000231F849F600D211D822F762F6A2F1124BB
:1031E0009F5750409AF0F1F088234AF0EE0FFF1FEE
:1031F000BB1F661F771F881F91505040A9F79E3F45
:10320000510580F00C9419190C9464195F3FE4F394
:10321000983ED4F3869577956795B795F795E7959A
:103220009F5FC1F7FE2B880F911D9695879597F9A3
:10323000089597F99F6780E870E060E008959FEF38
:1032400080EC089500240A9416161706180609063D
:10325000089500240A94121613061406050608950C
:10326000092E0394000C11F4882352F0BB0F40F494
:10327000BF2B11F460FF04C06F5F7F4F8F4F9F4FD4
:10328000089557FD9058440F551F59F05F3F71F056
:103290004795880F97FB991F61F09F3F79F08795BD
:1032A0000895121613061406551FF2CF4695F1DF46
:1032B00008C0161617061806991FF1CF86957105D6
:1032C000610508940895E894BB2766277727CB010A
:1032D00097F90895052E97FB1EF400940E9481191A
:1032E00057FD07D00E949C1907FC03D04EF40C94A4
:1032F000811950954095309521953F4F4F4F5F4F25
:10330000089590958095709561957F4F8F4F9F4F51
:1033100008950E94BE19A59F900DB49F900DA49F83
:10332000800D911D11240895B7FF0C9489190E94F6
:103330008919821B930B0895A1E21A2EAA1BBB1BAD
:10334000FD010DC0AA1FBB1FEE1FFF1FA217B30771
:10335000E407F50720F0A21BB30BE40BF50B661F87
:10336000771F881F991F1A9469F76095709580954B
:1033700090959B01AC01BD01CF010895A29FB001C2
:10338000B39FC001A39F700D811D1124911DB29F99
:10339000700D811D1124911D08955058BB27AA2737
:1033A0000E94E5190C9430190E94221938F00E94ED
:1033B000291920F039F49F3F19F426F40C941F19B1
:1033C0000EF4E095E7FB0C941919E92F0E944119BE
:1033D00058F3BA17620773078407950720F079F44A
:1033E000A6F50C9463190EF4E0950B2EBA2FA02DC0
:1033F0000B01B90190010C01CA01A0011124FF27A2
:10340000591B99F0593F50F4503E68F11A16F0409C
:10341000A22F232F342F4427585FF3CF469537959B
:103420002795A795F0405395C9F77EF41F16BA0B60
:10343000620B730B840BBAF09150A1F0FF0FBB1F0E
:10344000661F771F881FC2F70EC0BA0F621F731F57
:10345000841F48F4879577956795B795F7959E3FB4
:1034600008F0B0CF9395880F08F09927EE0F979545
:10347000879508950E94221960F080E891E009F490
:103480009EEF0E94291928F040E851E071F45EEFA8
:103490000CC00C941F190C946319E92FE0780E945A
:1034A000411940F3092E052AB1F3261737074807BB
:1034B000590738F00E2E07F8E02569F0E025E064A2
:1034C0000AC0EF6307F8009407FADB01B9019D0118
:1034D000DC01CA01AD01EF930E94C31A0E943019AA
:1034E0000E947D1A5F91552339F02BED3FE049E4AE
:1034F00050FD49EC0C94CE190895DF93DD27B92FC8
:10350000BF7740E85FE31616170648075B0718F415
:10351000D92F0E94801B9F938F937F936F930E945C
:10352000CE1BE4EEF0E00E94541B0E9430192F9154
:103530003F914F915F910E94BF18DD2351F0905849
:10354000A2EA2AED3FE049EC5FE3D0785D270E94D4
:10355000E519DF910C9430190E94C01A0C943019AF
:103560000E94291958F00E94221940F029F45F3F67
:1035700029F00C94191951110C9464190C941F1909
:103580000E94411968F39923B1F3552391F3951BD8
:10359000550BBB27AA2762177307840738F09F5F74
:1035A0005F4F220F331F441FAA1FA9F335D00E2EE1
:1035B0003AF0E0E832D091505040E695001CCAF74E
:1035C0002BD0FE2F29D0660F771F881FBB1F261711
:1035D00037074807AB07B0E809F0BB0B802DBF01E8
:1035E000FF2793585F4F3AF09E3F510578F00C94B7
:1035F00019190C9464195F3FE4F3983ED4F386954F
:1036000077956795B795F7959F5FC9F7880F911DD7
:103610009695879597F90895E1E0660F771F881FC3
:10362000BB1F621773078407BA0720F0621B730B76
:10363000840BBA0BEE1F88F7E09508950E94251BB6
:103640006894B1110C94641908950E94491988F086
:103650009F5798F0B92F9927B751B0F0E1F0660F56
:10366000771F881F991F1AF0BA95C9F714C0B13097
:1036700091F00E946319B1E008950C946319672FCB
:10368000782F8827B85F39F0B93FCCF386957795C6
:103690006795B395D9F73EF49095809570956195AF
:1036A0007F4F8F4F9F4F0895DF93CF931F930F93BB
:1036B000FF92EF92DF927B018C01689406C0DA2EB4
:1036C000EF010E94BF18FE01E894A5912591359164
:1036D00045915591A6F3EF010E94E519FE0197016E
:1036E000A801DA9469F7DF90EF90FF900F911F9196
:1036F000CF91DF9108950E94881808F48FEF089504
:103700009B01AC0160E070E080E89FE30C94AC1A90
:1037100019F416F40C941F190C94D71B0E94491924
:10372000B8F39923C9F3B6F39F57550B87FF0E944F
:10373000E51B0024A0E640EA900180585695979535
:1037400028F4805C660F771F881F20F02617370744
:10375000480730F4621B730B840B202931294A2B54
:10376000A69517940794202531254A2758F7660F08
:10377000771F881F20F026173707480730F4620BA1
:10378000730B840B200D311D411DA09581F7B901EC
:10379000842F9158880F9695879508959B01AC01C9
:1037A0000C94AC180E948818880B990B08959F3FC1
:1037B00031F0915020F4879577956795B795880FEC
:1037C000911D9695879597F9089591505040660FF1
:1037D000771F881FD2F70895EE0FFF1F881F8BBF3A
:1037E0000790F691E02D19940F931F93CF93DF93D9
:1037F0008230910510F482E090E0E0917104F09144
:10380000720430E020E0B0E0A0E0309799F4211598
:10381000310509F44AC0281B390B24303105D8F58D
:103820008A819B816115710589F1FB0193838283F4
:10383000FE0111C04081518102811381481759074F
:10384000E0F04817590799F4109761F012960C931D
:10385000129713961C933296CF01DF91CF911F914F
:103860000F9108950093710410937204F4CF211501
:10387000310551F04217530738F0A901DB019A01D5
:10388000BD01DF01F801C1CFEF01F9CF90937204C0
:1038900080937104CDCFFE01E20FF31F81939193CA
:1038A0002250310939832883D7CF20916F0430917A
:1038B0007004232B41F420910202309103023093D3
:1038C000700420936F0420910002309101022115B1
:1038D000310541F42DB73EB74091040250910502E5
:1038E000241B350BE0916F04F0917004E217F3078D
:1038F000A0F42E1B3F0B2817390778F0AC014E5F60
:103900005F4F2417350748F04E0F5F1F5093700428
:1039100040936F04819391939FCFF0E0E0E09CCFC0
:10392000CF93DF930097E9F0FC0132971382128264
:10393000A0917104B0917204ED0130E020E0109785
:10394000A1F420813181820F931F20916F04309167
:1039500070042817390709F061C0F0937004E093F0
:103960006F04DF91CF910895EA01CE17DF07E8F5E4
:103970004A815B819E0141155105B1F7E901FB8345
:10398000EA8349915991C40FD51FEC17FD0761F4E3
:10399000808191810296840F951FE9019983888324
:1039A000828193819B838A83F0E0E0E012968D917F
:1039B0009C9113970097B9F52D913C911197CD01EA
:1039C0000296820F931F20916F0430917004281784
:1039D000390739F6309751F510927204109271043C
:1039E000B0937004A0936F04BCCFD383C283408193
:1039F0005181840F951FC817D90761F44E5F5F4F3F
:103A000088819981480F591F518340838A819B8106
:103A1000938382832115310509F0B0CFF0937204AE
:103A2000E09371049ECFFD01DC01C0CF13821282AE
:103A3000D7CF4F925F926F927F928F929F92AF9269
:103A4000BF92CF92DF92EF92FF920F931F93CF938B
:103A5000DF938C01009799F4CB01DF91CF911F91F7
:103A60000F91FF90EF90DF90CF90BF90AF909F901D
:103A70008F907F906F905F904F900C94F41BFC019F
:103A8000E60FF71F9C0122503109E217F30708F4F3
:103A9000AEC0D901CD91DC911197C617D70720F19F
:103AA000C530D10578F0CE0104978617970750F0FE
:103AB000C61BD70B2297C193D1936D937C93CF01F3
:103AC0000E94901CC801DF91CF911F910F91FF9030
:103AD000EF90DF90CF90BF90AF909F908F907F90AE
:103AE0006F905F904F9008955B01AC1ABD0A4C0136
:103AF0008C0E9D1EA0917104B0917204512C412C2A
:103B0000F12CE12C109731F580916F0490917004A5
:103B10008815990509F05CC04616570608F058C08C
:103B20008091000290910102009741F48DB79EB7F9
:103B30004091040250910502841B950BE817F90788
:103B400008F055C0F0937004E0936F04F90171839D
:103B50006083B8CF8D919C91119712966C901297BB
:103B600013967C901397A815B90559F56C0142E09E
:103B7000C40ED11CCA14DB0420F1AC014A195B0944
:103B8000DA011296159780F0628273825183408326
:103B9000D9016D937C93E114F10471F0D701139670
:103BA000FC93EE9312978ECF22968C0F9D1FF901F6
:103BB00091838083F301EFCFF0937204E09371045B
:103BC00081CF4816590608F42C017D01D3019ACF04
:103BD000CB010E94F41B7C01009749F0AE01B801B3
:103BE0000E94FA1DC8010E94901C87016BCF10E053
:103BF00000E068CFFB01DC0102C001900D92415052
:103C00005040D8F70895FB01DC0101900D9200208F
:083C1000E1F70895F894FFCFDD
:103C180000007304800026029209F401C409F4012B
:103C2800C40960095802F401C409F401C409F40183
:103C3800C409F401C409F401C409F401C409F40174
:103C4800C409F401C409F401C409F401C409F40164
:103C5800C409F401C40900000000C80332035F036B
:103C6800300490036E038203000000008C075F0796
:103C7800CF073507580745073607000000009B0B9C
:103C88003203CF0781040D0A00416E67756C6F3AE5
:0E3C980020006E616E00696E66006F76660039
:00000001FF
