:100000000C94F5010C9426020C9426020C94260202
:100010000C9426020C9426020C9426020C942602C0
:100020000C9426020C945C0B0C945C0B0C945C0BF3
:100030000C9426020C9426020C9426020C942602A0
:100040000C9426020C9426020C9426020C94260290
:100050000C9426020C9426020C9426020C94B20AEC
:100060000C9426020C94260B0C94FC0A0C94260289
:100070000C9426020C9426020C9426020C94260260
:100080000C9426020C9426020C9426020C94260250
:100090000C9426020C9426020C9426020C94D80B85
:1000A0000C9426020C9426020C9426020C94260230
:1000B0000C9426020C9426020C9426020C94260220
:1000C0000C9426020C9426020C9426020C94260210
:1000D0000C9426020C9426020C9426020C94260200
:1000E0000C9426020C946D030C9466050C9427075F
:1000F0000C94A3050C94A7020C94D0070C947703DE
:100100000C94AB020C94AF030C9460030C94C803E2
:100110000C9468030C94CE020C9495020C949B06EC
:100120000C948B030C94A5030C94FA030C94C60254
:100130000C9481030C94D4020C9465050C94D203A6
:100140000C94E2020C9490020C94B7050C94BC023F
:100150000C9411070C94B9030C94DC020C94B506B2
:100160000C94FC0C0C945F120C949C060C94B3023F
:100170000C94BD070C94E6020C94C5050C944D0933
:100180000C94D8020C9467050C9493030C944A06C3
:100190000C94B6020C9404080C94E6030C949B0394
:1001A0000C9494050C94CA020C94C0020C94D707CA
:1001B0000C94B4060C94DC030C94FD050C941A0901
:1001C0000C94AF020C94AE070C94F00300407A102C
:1001D000F35A00A0724E18090010A5D4E80000E8F8
:1001E0007648170000E40B54020000CA9A3B000056
:1001F00000E1F505000080969800000040420F00E5
:100200000000A08601000000102700000000E803A5
:10021000000000006400000000000A000000000070
:100220000100000000002C76D888DC674F0823DF2F
:10023000C1DFAE59E1B1B796E5E3E453C63AE65102
:10024000997696E8E6C28426EB898C9B62ED407C29
:100250006FFCEFBC9C9F40F2BAA56FA5F490055AC5
:100260002AF75C936B6CF9676DC11BFCE0E40D47EA
:10027000FEF520E6B500D0ED902E0300943577050D
:100280000080841E080000204E0A000000C80C33C5
:100290003333330F986E12831141EF8D2114893B54
:1002A000E65516CFFEE6DB18D1844B381BF77C1DD4
:1002B000901DA4BBE424203284725E228100C9F127
:1002C00024ECA1E53D2700002100240027002A009E
:1002D0002D003000330001010000040107010A0174
:1002E00000000A0B02090C0D0E08070304010000B0
:1002F00000000000000000000000000000000000FE
:1003000000000000000000000000000012111000BA
:1003100000000000000000000000000000000000DD
:10032000000000000000000020002300260029003B
:100330002C002F003200000100000301060109011A
:1003400000002200250028002B002E003100340080
:1003500002010000050108010B010505050507055F
:1003600008080808020202020A0A08080404040431
:10037000010101010101010103030303030303035D
:10038000040707070C0C0C0C0C0C0C0C02020202EC
:1003900006060606060606060B0B0B0B0B0B0B0BD5
:1003A0000102102020080810204010204080020187
:1003B000020108040201010204081020408080406C
:1003C000201008040201800402018040201008046B
:1003D0000201080402010102040810204080010209
:1003E000040810204080FC0C5F1211241FBECFEFC8
:1003F000D1E2DEBFCDBF00E00CBF24E0AEE5B2E04D
:1004000001C01D92AE35B207E1F712E0A0E0B2E004
:10041000ECE0F2E300E00BBF02C007900D92AE35B6
:10042000B107D9F711E0C4EFD1E000E006C0219791
:100430000109802FFE010E94D616C33FD10780E03C
:100440000807A9F70E94FE0D0C94F4180C94000004
:10045000CF92DF92EF92FF92CF93DF93B0911B0484
:10046000A0E08111AB2F80911C0490E0880F991FB0
:10047000AC014A5D5C4FC0902104D0902204E09012
:100480002304F090240430E020E0FA01C591D491D7
:10049000E881B90190E080E0EB23EA130AC02F5F06
:1004A0003F4F6C157D058E059F0578F36FEF7FEF4D
:1004B000CB01DF91CF91FF90EF90DF90CF90089527
:1004C000282F30E0F901E052FD4F9491F901E056F8
:1004D000FC4F4491265A3C4FF9012491222309F400
:1004E00035C0992311F191509231F8F4E92FF0E0E1
:1004F0008827E258FD4F8F4F0C94D616AF02B302F7
:100500009002A702AB029502B602BC02C002C6026C
:10051000CA02CE02D402D8029502DC02E202E6024E
:10052000809180008F7780938000E22FF0E0EE0FC3
:10053000FF1FE05CFC4FA591B4918FB7F894EC914C
:10054000611148C040954E234C938FBF0895809110
:1005500080008F7DE8CF80918000877FE4CF84B5D5
:100560008F7784BDE2CF84B58F7DFBCF8091B000C3
:100570008F778093B000D9CF8091B0008F7DF9CF75
:10058000809190008F7780939000CFCF80919000E2
:100590008F7DF9CF80919000877FF5CF8091A0006B
:1005A0008F778093A000C1CF8091A0008F7DF9CF7D
:1005B0008091A000877FF5CF809120018F77809375
:1005C0002001B3CF809120018F7DF9CF8091200150
:1005D000877FF5CF4E2BB8CFCF93DF9390E0FC0110
:1005E000E056FC4F2491865A9C4FFC01849188234D
:1005F000C9F090E0880F991FFC01EA53FD4FA591C7
:10060000B491FC01E05CFC4FC591D49161110DC027
:100610009FB7F8948C91209582238C93888128230E
:1006200028839FBFDF91CF910895623051F49FB727
:10063000F8943C91822F809583238C93E8812E2B14
:10064000EFCF8FB7F894EC912E2B2C938FBFEACF7E
:100650001F93CF93DF93182FEB0161E00E94EC0210
:10066000209739F460E0812FDF91CF911F910C9496
:100670006002CF3FD10511F461E0F5CFE12FF0E04A
:10068000E052FD4FE491E150E23108F0B3C0F0E0F8
:100690008827E25BFC4F8F4F0C94D61660036803EB
:1006A0006D0377038103FA038B0393039B03A50375
:1006B000AF03B903C803D203FA03DC03E603F00374
:1006C00084B5806884BDC7BDDF91CF911F91089527
:1006D00084B5806284BDC8BDF7CF809180008068FA
:1006E00080938000D0938900C0938800EDCF8091E3
:1006F0008000806280938000D0938B00C0938A003A
:10070000E3CF80918000886080938000D0938D003B
:10071000C0938C00D9CF8091B00080688093B000E6
:10072000C093B300D1CF8091B00080628093B000BD
:10073000C093B400C9CF80919000806880939000EE
:10074000D0939900C0939800BFCF809190008062B1
:1007500080939000D0939B00C0939A00B5CF809176
:100760009000886080939000D0939D00C0939C007F
:10077000ABCF8091A00080688093A0008091A00002
:100780008F7B8093A000D093A900C093A8009CCF3A
:100790008091A00080628093A000D093AB00C093B2
:1007A000AA0092CF8091A00088608093A000D0938F
:1007B000AD00C093AC0088CF809120018068809309
:1007C0002001D0932901C09328017ECF8091200180
:1007D000806280932001D0932B01C0932A0174CFB3
:1007E00080912001886080932001D0932D01C093D7
:1007F0002C016ACFC038D1050CF03ECF33CF3FB7C4
:10080000F8948091610390916203A0916303B09189
:10081000640326B5A89B05C02F3F19F00196A11DC2
:10082000B11D3FBFBA2FA92F982F8827BC01CD013A
:10083000620F711D811D911D42E0660F771F881F99
:10084000991F4A95D1F708958F929F92AF92BF92C8
:10085000CF92DF92EF92FF924B015C010E94FF0367
:100860006B017C010E94FF036C197D098E099F09B1
:10087000683E734081059105A8F321E0821A910832
:10088000A108B10888EEC80E83E0D81EE11CF11C57
:1008900081149104A104B10429F7FF90EF90DF9037
:1008A000CF90BF90AF909F908F900895CF92DF929E
:1008B000EF92FF920F931F93CF93DF93CDB7DEB7E5
:1008C000C054D1400FB6F894DEBF0FBECDBF2FB7D6
:1008D000F8948091650390916603A0916703B091AD
:1008E00068032FBF40911D0450911E0460911F04A6
:1008F000709120048C019D01041B150B260B370BF6
:10090000B901A801403D57406105710590F48091FF
:100910002504C05CDE4F0FB6F894DEBF0FBECDBF1E
:10092000DF91CF911F910F91FF90EF90DF90CF90CB
:10093000089580931D0490931E04A0931F04B09308
:1009400020041092180410921704109216041092AA
:1009500015041092140462E0809119040E94EC02C4
:1009600061E070E080E090E00E94240461E080910A
:1009700019040E94EC0260E0809119040E94600258
:1009800080911A048551823020F58BE291E1019724
:10099000F1F762E0809119040E94EC028091260434
:1009A00090E08230910538F0880F991F880F991FC9
:1009B00005970197F1F7F89480E00E9428026F3FB5
:1009C0007F4F8F4F9F4F61F410922504789480E001
:1009D000A0CF64E170E080E090E00E942404D9CFD1
:1009E00081E00E9428026F3F7F4F8F4F9F4F61F33E
:1009F0008E010F5F1F4F6E018FEBC81A8EEFD80A62
:100A0000780180E00E942802F7016083718382836D
:100A1000938381E00E942802F701648375838683B3
:100A20009783F8E0EF0EF11CEC14FD0451F7789475
:100A300030E020E0F801C080D180E280F380448182
:100A4000558166817781FFEFCF16DF06EF06FF063F
:100A500031F04F3F8FEF58076807780719F410926D
:100A60002504B5CFF90183E0F595E7958A95E1F77F
:100A7000EC5EFB4F8081880FC416D506E606F706AC
:100A800010F180832F5F3F4F085F1F4F28323105E1
:100A900089F6409118042091140480911504280FC0
:100AA0003327331F80911604280F311D80911704BE
:100AB000820F932F911D99274817190681F681E01F
:100AC0008093250426CF8160DCCF08950895AF92EE
:100AD000BF92CF92DF92EF92FF920F931F93CF932B
:100AE000DF936C017B018B01040F151FEB015E018D
:100AF000AE18BF08C017D10759F06991D601ED9122
:100B0000FC910190F081E02DC6011995892B79F7B0
:100B1000C501DF91CF911F910F91FF90EF90DF9072
:100B2000CF90BF90AF900895FC01538D448D252F39
:100B300030E0842F90E0821B930B541710F0CF9677
:100B4000089501970895FC01918D828D981761F0A9
:100B5000A28DAE0FBF2FB11D5D968C91928D9F5FC0
:100B60009F73928F90E008958FEF9FEF0895FC019F
:100B7000918D828D981731F0828DE80FF11D858D52
:100B800090E008958FEF9FEF0895FC01918D228DE5
:100B9000892F90E0805C9F4F821B91098F7399276A
:100BA00008958BE693E00E94C50521E0892B09F4A6
:100BB00020E0822F0895FC01A48DA80FB92FB11D4C
:100BC000A35ABF4F2C91848D90E001968F73992783
:100BD000848FA689B7892C93A089B1898C91837061
:100BE00080648C93938D848D981306C00288F3895A
:100BF000E02D80818F7D80830895EF92FF920F9387
:100C00001F93CF93DF93EC0181E0888F9B8D8C8DB8
:100C100098131AC0E889F989808185FF15C09FB7AC
:100C2000F894EE89FF896083E889F989808183706F
:100C3000806480839FBF81E090E0DF91CF911F911E
:100C40000F91FF90EF900895F62E0B8D10E00F5F3F
:100C50001F4F0F731127E02E8C8D8E110CC00FB615
:100C600007FCFACFE889F989808185FFF5CFCE01AD
:100C70000E94DB05F1CFEB8DEC0FFD2FF11DE35A48
:100C8000FF4FF0829FB7F8940B8FEA89FB89808130
:100C90008062CFCFCF93DF93EC01888D8823B9F0AA
:100CA000AA89BB89E889F9898C9185FD03C0808177
:100CB00086FD0DC00FB607FCF7CF8C9185FFF2CFF4
:100CC000808185FFEDCFCE010E94DB05E9CFDF916A
:100CD000CF91089580E090E0892B29F00E94D10502
:100CE00081110E94000080E090E0892B49F080E0B3
:100CF00090E0892B29F00E94000081110E940000E1
:100D000080E090E0892B49F080E090E0892B29F089
:100D10000E94000081110E94000080E090E0892B79
:100D200049F080E090E0892B29F00E9400008111B9
:100D30000C9400000895089520915A0330915B03AC
:100D40002817390771F49091580380915903981727
:100D500041F0E0915803F0E0EE53FD4F808190E0C8
:100D600008958FEF9FEF08950895EF92FF920F93EC
:100D70001F93CF93DF93DC015C96ED90FC905D9721
:100D8000E114F10479F481E090E013969C938E9342
:100D9000129790E080E0DF91CF911F910F91FF902B
:100DA000EF9008955196ED91FC91529750968C9149
:100DB0005097982F90950FB75E962C915E97122FB3
:100DC000127021FD6095F8942081112319F1282BD0
:100DD0002083E7012197F1F728E0462F50E030818A
:100DE00060FF1AC0382B3083E7012197F1F7BA0171
:100DF00075956795215089F7112381F080818923AA
:100E000080830FBF5C968D919C910197F1F781E0F3
:100E100090E0C1CF2923DCCF3923E5CF9081892B06
:100E2000EFCF20915A0330915B032817390761F403
:100E3000809159032091580390E0805C9F4F821B62
:100E400091098F739927089590E080E0089520918B
:100E50005A0330915B0328173907B9F4909158036E
:100E600080915903981789F0E0915803F0E0EE5310
:100E7000FD4F80812091580330E02F5F3F4F2F734B
:100E800033272093580390E008958FEF9FEF089544
:100E900020919F02260F3327331F21323105ECF4B6
:100EA00020912803FC0190E080E0243069F082E08A
:100EB0000895A0919F022191AC0141585D4FA40F6C
:100EC000B52FB11D2C930196861798F380919F0240
:100ED000680F60939F0280E0089581E0089510926A
:100EE000280381E0809327031092020361E084E1EC
:100EF0000E94600261E085E10E946002E9EBF0E09F
:100F000080818E7F808380818D7F808388E4809341
:100F1000B80085E48093BC000895CF93DF9391E0FF
:100F200090937E028823B9F0C091B800D091BA00A6
:100F30008091BC008A7B8093BC0060E084E10E94C9
:100F4000600260E085E10E9460020E946F07D0931A
:100F5000BA00C093B800DF91CF910895E091570394
:100F600080915603E81730F4F0E0E25AFD4F80819B
:100F700090E008958FEF9FEF08959091570380912F
:100F800056032FEF3FEF981748F4E92FF0E0E25AAD
:100F9000FD4F208130E09F5F90935703C901089572
:100FA0008091560390915703891B990B0895CF9216
:100FB000DF92EF92FF920F931F93CF93DF937C0109
:100FC000CB018A0120912E03222389F0EB016B01D2
:100FD000C40ED51ECC15DD0569F06991D701ED91E0
:100FE000FC910190F081E02DC7011995F3CF642F9A
:100FF0000E944807C801DF91CF911F910F91FF9088
:10100000EF90DF90CF900895CF93DF931F92CDB7ED
:10101000DEB7698320912E032223F9F02091540337
:10102000203258F021E030E0FC013383228390E04D
:1010300080E00F90DF91CF91089580915503E82FC4
:10104000F0E0E15DFC4F998190838F5F80935503C1
:101050008093540381E090E0ECCF61E0CE010196F3
:101060000E944807F7CFCF92DF92EF92FF920F9343
:101070001F93CF93DF93FC01C48121E020932E03C3
:10108000C0934F0310925503109254038385682B2D
:1010900088E094E00E940408D0915403D13208F013
:1010A00092C00E94FF036B017C0180912803811193
:1010B00065C082E08093280381E0809327038FEF4F
:1010C0008093260310922503D0932403AFE2B3E06C
:1010D000E4E0F3E080E0D81385C010920303809130
:1010E0000303CC0FC82BC09303038091020381300C
:1010F00009F07CC0109202030E94FF036B017C0187
:10110000809103038093BB0080912A0390912B036D
:10111000A0912C03B0912D03892B8A2B8B2B99F056
:101120000E94FF0300912A0310912B0320912C03AE
:1011300030912D036C197D098E099F090617170739
:1011400028073907E0F18091BC0083FDD9CF85ECF9
:101150008093BC000E94FF036B017C0180912803F7
:10116000823009F445C0809126038F3F61F1809160
:101170002603803241F18091260325C080912A0305
:1011800090912B03A0912C03B0912D03892B8A2BD6
:101190008B2B09F48ACF0E94FF0300912A03109140
:1011A0002B0320912C0330912D036C197D098E099E
:1011B0009F09061717072807390708F076CF80918F
:1011C00029030E948D071092550310925403109228
:1011D0002E03DF91CF911F910F91FF90EF90DF9041
:1011E000CF9008959D9191938F5F75CF85EEB0CF8D
:1011F00080912A0390912B03A0912C03B0912D0391
:10120000892B8A2B8B2B09F4A9CF0E94FF03009115
:101210002A0310912B0320912C0330912D036C197C
:101220007D098E099F09061717072807390708F057
:1012300095CFC5CF90E080E008950F931F93CF9393
:101240008C01C62F0E9433086C2F6460C8010E9475
:1012500033086C2F6B7FC8010E94330883EC90E049
:101260000197F1F7CF911F910F9108950F931F935D
:10127000CF93DF938C01D62FC42F607F642B0E9405
:101280001D0980E1D89FB00111246C2BC801DF91AA
:10129000CF911F910F910C941D0941E00E943609D6
:1012A00081E090E00895CF93DF9360E08CE00E94AE
:1012B0006002D0916A03C8E06D2F661F6627661F23
:1012C00088E00E946002DD0F61E084E00E9460021D
:1012D00060E084E00E946002C15071F761E08CE040
:1012E000DF91CF910C9460021F93CF93DF93EC01B9
:1012F000162F68838091690381111BC061E087E02C
:101300000E94EC0261E088E00E94EC0261E08CE067
:101310000E94EC0261E084E00E94EC0260E087E061
:101320000E94600210926A030E94530981E0809338
:101330006903123029F18BE0898382E08A8383E09C
:101340008B8361E089810E94EC028A8121E030E098
:10135000A90102C0440F551F8A95E2F7CA019B817B
:1013600001C0220F9A95EAF7822B809590916A032B
:10137000892380936A03DF91CF911F910C945309C5
:1013800083E0898381E08A8384E0DACFFC010190E5
:101390000020E9F73197AF01481B590BBC018BE6E0
:1013A00093E00C9467058F929F92AF92BF920F9338
:1013B0001F93CF93DF93CDB7DEB7A1970FB6F89405
:1013C000DEBF0FBECDBF19A2423008F44AE08E0145
:1013D0000F5D1F4F842E912CB12CA12CA5019401DF
:1013E0000E94B416E62FB901CA01EA30F4F4E05DB8
:1013F000D801EE938D01232B242B252B79F790E038
:1014000080E0109719F0CD010E94C609A1960FB691
:10141000F894DEBF0FBECDBFDF91CF911F910F912A
:10142000BF90AF909F908F900895E95CE1CFCF93EC
:10143000DF93EC0188819981009711F00E947A175F
:10144000198218821D821C821B821A82DF91CF9121
:101450000895FC0180819181009711F00C947A1716
:1014600008950F931F93CF93DF93EC0188819981A7
:10147000009759F02A813B812617370730F081E029
:10148000DF91CF911F910F9108958B016F5F7F4F77
:101490000E940318009759F0998388831B830A835D
:1014A0002C813D81232B59F7FC011082E8CF80E08D
:1014B000E7CFEF92FF920F931F93CF93DF93EC014F
:1014C0007B018A01BA010E94310A81110BC0CE0151
:1014D0000E94170ACE01DF91CF911F910F91FF90CB
:1014E000EF9008951D830C83B701888199810E9434
:1014F000ED18F0CF85ED8093BC0080912A03909188
:101500002B03A0912C03B0912D030796A11DB11DB3
:1015100023E0B695A795979587952A95D1F72091C1
:10152000BC0024FD03C010922803089540912A03B3
:1015300050912B0360912C0370912D03452B462B6A
:10154000472B69F30097A105B10541F02AE22A95DE
:10155000F1F700C00197A109B109E1CF80912903FA
:101560000C948D071F920F920FB60F9211242F9398
:101570003F938F939F93AF93BF9380916503909117
:101580006603A0916703B09168033091600323E084
:10159000230F2D3758F50196A11DB11D209360032F
:1015A0008093650390936603A0936703B0936803E9
:1015B0008091610390916203A0916303B0916403F1
:1015C0000196A11DB11D8093610390936203A093C6
:1015D0006303B0936403BF91AF919F918F913F914B
:1015E0002F910F900FBE0F901F90189526E8230F94
:1015F0000296A11DB11DD2CF1F920F920FB60F926E
:1016000011240BB60F922F933F934F935F936F93D9
:101610007F938F939F93AF93BF93EF93FF938BE64B
:1016200093E00E94DB05FF91EF91BF91AF919F91F5
:101630008F917F916F915F914F913F912F910F907B
:101640000BBE0F900FBE0F901F9018951F920F9218
:101650000FB60F9211240BB60F922F938F939F9377
:10166000EF93FF93E0917B03F0917C038081E09105
:101670008103F091820382FD1DC0908180918403DB
:101680008F5F8F7320918503821741F0E09184036F
:10169000F0E0E559FC4F958F80938403FF91EF9123
:1016A0009F918F912F910F900BBE0F900FBE0F90B7
:1016B0001F9018958081F2CF1F920F920FB60F9254
:1016C00011240BB60F922F933F934F935F936F9319
:1016D0007F938F939F93AF93BF93EF93FF93E0918B
:1016E0005A03F0915B03309749F0A685B78585854D
:1016F000968D91FF16C09C918923B1F4FF91EF91D3
:10170000BF91AF919F918F917F916F915F914F9119
:101710003F912F910F900BBE0F900FBE0F901F9017
:1017200018959C91892351F7A389B4899C91858947
:10173000809589238C93868997890197F1F7608D2D
:10174000718DA685B785558538E020E0CB010197DE
:10175000F1F7822F90E095958795282F4C9145239E
:1017600009F02068315091F7868D81FD2095809198
:10177000590390E001968F739927309158033817D9
:1017800099F0A0915903B0E0AE53BD4F2C938093D4
:101790005903828D938D0197F1F7A389B4898C91B8
:1017A0009589892B8C93AACF868D8160868FF1CF06
:1017B0001F920F920FB60F9211240BB60F922F9318
:1017C0003F934F935F936F937F938F939F93AF93C9
:1017D000BF93EF93FF938091B900887F803609F41F
:1017E0004DC008F040C0883209F4A9C028F5803106
:1017F00009F49DC0C8F4882309F4FBC0883009F4BB
:1018000096C0FF91EF91BF91AF919F918F917F9182
:101810006F915F914F913F912F910F900BBE0F9061
:101820000FBE0F901F901895883109F488C0803240
:1018300041F78093260314C0803409F49DC040F41E
:101840008033B9F38833E9F68093260385ECB0C082
:10185000803509F485C0883509F496C0883489F646
:101860000E947A0ACECF883909F48CC038F58837BF
:1018700029F050F4883611F0803719F683E0809310
:1018800028031092C10257C0883809F47BC0803900
:1018900019F0803809F0B5CF8091C102803208F08C
:1018A00071C0E091C10281E08E0F8093C1028091EE
:1018B000BB00F0E0EF55FD4F80833DC0803B39F029
:1018C000E0F4803A09F479C0883A09F09ACF84E0CC
:1018D000809328031092A00210929F02E09152037D
:1018E000F0915303199580919F0281110FC081E0FF
:1018F00080939F0210927F0209C0803C09F4A6CF1A
:10190000883C09F4A3CF883B09F07BCFE091A0028B
:1019100081E08E0F8093A002F0E0E158FD4F8081BE
:101920008093BB009091A00280919F0229C080917A
:1019300003038093BB0085EC8093BC0062CF909141
:10194000250380912403981758F5E091250381E041
:101950008E0F80932503F0E0EC5FFC4F8081E9CF90
:10196000E091250381E08E0F809325038091BB00D9
:10197000F0E0EC5FFC4F808390912503809124037D
:101980009817C8F285E8D8CFE091250381E08E0F43
:10199000809325038091BB00F0E0EC5FFC4F8083D7
:1019A0008091270381115CCF81E08093020384EA58
:1019B0008093BC001092280324CF85EC8093BC0058
:1019C000109228038091C102803230F4E091C1026C
:1019D000F0E0EF55FD4F10826091C10270E0E091A0
:1019E0005003F091510381EA92E019951092C102DF
:1019F00008CF1092260334CFCF92DF92EF92FF925E
:101A000010926E0310926D0398EEC92E93E0D92EBA
:101A1000E12CF12CC0926F03D0927003E09271031D
:101A2000F09272038AE092E090936C0380936B03D0
:101A300085EC90E0909378038093770384EC90E0BA
:101A400090937A038093790380EC90E090937C03E9
:101A500080937B0381EC90E090937E0380937D03E1
:101A600082EC90E09093800380937F0386EC90E07B
:101A700090938203809381031092840310928503D4
:101A8000109286031092870310920B0410920A049E
:101A9000C0920C04D0920D04E0920E04F0920F0458
:101AA0008CE192E0909309048093080461E086E55C
:101AB00094E00E94740962E082E594E00E94740957
:101AC0001092360410923504C0923704D092380434
:101AD000E0923904F0923A048AE392E0909334045D
:101AE0008093330410924A041092490410924C04DB
:101AF00010924B0410924E0410924D041092500418
:101B000010924F04609151046E7F6D7F6093510479
:101B10006695617081E0682788E30E94600261E059
:101B200088E30E94EC02E8EDF3E0E491E0934304E3
:101B3000E2E9F3E0E491F0E0EE0FFF1FE05CFC4F20
:101B400085919491909345048093440460E087E3E9
:101B50000E94EC028091510481FD04C061E087E3A2
:101B60000E94600287E380933F04E7EDF3E0E49195
:101B7000E0934004E1E9F3E0E491F0E0EE0FFF1FB1
:101B8000EA5DFC4F859194919093420480934104C7
:101B900010922A04109229048EE292E09093280475
:101BA0008093270487E280932B0480E180933004A4
:101BB00082E0809331041092320486E3809319040A
:101BC0008BE080931A04E6EDF3E0E491E0931B04CC
:101BD000E0E9F3E0E491E0931C0480E89EE3A0E0F8
:101BE000B0E08093210490932204A0932304B09347
:101BF0002404FF90EF90DF90CF900895CF93DF9370
:101C0000CDB7DEB7EF970FB6F894DEBF0FBECDBFEE
:101C1000789484B5826084BD84B5816084BD85B5C7
:101C2000826085BD85B5816085BD80916E008160D3
:101C300080936E0010928100809181008260809379
:101C4000810080918100816080938100809180007B
:101C50008160809380008091B10084608093B100A6
:101C60008091B00081608093B0008091910082608B
:101C70008093910080919100816080939100809188
:101C800090008160809390008091A1008260809399
:101C9000A1008091A10081608093A1008091A000AB
:101CA00081608093A0008091210182608093210156
:101CB00080912101816080932101809120018160C8
:101CC0008093200180917A00846080937A008091D3
:101CD0007A00826080937A0080917A00816080939C
:101CE0007A0080917A00806880937A001092C10017
:101CF00010925703109256031092550310925403FA
:101D00000E946F0785E695E09093530380935203FA
:101D100086E695E090935103809350030E946F07ED
:101D200010922C0480913104823018F098E0909346
:101D30002C0480932F0462E370E080E090E00E9426
:101D400024046091320487E294E00E94330868EE34
:101D500073E080E090E00E94240460E387E294E076
:101D60000E941D090BE416E4C8010197F1F760E336
:101D700087E294E00E941D09C8010197F1F760E332
:101D800087E294E00E941D0983E592E00197F1F754
:101D900060E287E294E00E941D0960912C04606279
:101DA00040E087E294E00E94360984E080932D04AD
:101DB00040E06CE087E294E00E94360940E061E098
:101DC00087E294E00E9436090BE31FE1C801019706
:101DD000F1F732E0F32EF0922E0440E066E087E265
:101DE00094E00E94360940E062E087E294E00E94BD
:101DF0003609C8010197F1F788E08093320460E06A
:101E000087E294E00E94330862E0809119040E9406
:101E1000EC022FB7F8948091650390916603A0912E
:101E20006703B09168032FBF805D9740A109B10996
:101E300080931D0490931E04A0931F04B09320046C
:101E400087E380932604E0917B03F0917C03F0828A
:101E5000E0917703F09178031082E0917903F0919B
:101E60007A038FEC808310928303E0917F03F091DB
:101E7000800386E08083E0917D03F0917E03808182
:101E800080618083E0917D03F0917E038081886092
:101E90008083E0917D03F0917E0380818068808360
:101EA000E0917D03F0917E0380818F7D808310928D
:101EB0004E0410924D0410924C0410924B04109258
:101EC0004A04109249048DE991E090935004809364
:101ED0004F0480913F0496EF980F943048F02EEC19
:101EE000280F243028F022EC280F283008F061C099
:101EF0002DEB30E030934A04209349042BE931E084
:101F000030934C0420934B042CE231E030934E0488
:101F100020934D04943050F02EEC280F243030F0F4
:101F200022EC280FF0E0E0E0283010F4E8E6F0E0E2
:101F30002081943028F032EC380F383008F47EC01D
:101F400031E0232B943048F09EEC980F943028F029
:101F50008E53F0E0E0E0883010F4E8E6F0E0208313
:101F600020913F0436EF320F343008F469C08EEC14
:101F7000820F843008F464C082EC820F883008F449
:101F800062C090E080E09093470480934604343030
:101F900008F05CC02650330B81E001C0880F2A9501
:101FA000EAF78093480480914F0490915004019780
:101FB000F1F780914D0490914E04892B49F1E09105
:101FC0005A03F0915B0324E0E333F20709F1309701
:101FD00039F0A389B4899C918589809589238C9354
:101FE000809151048E7F8093510410925903109276
:101FF000580383E394E090935B0380935A03E0914A
:102000004604F0914704808190914804892B808395
:10201000EE24E394F12C0E945604882341F0809131
:102020001A048C3009F45BC130F58B30E9F1812C56
:10203000912C80ECA82E8FE7B82E60C034E081CFC1
:102040008BE690E0A0CF8DE690E09DCF88E0223334
:1020500009F4A7CF84E0233309F4A3CF82E024332B
:1020600009F49FCF82EC820F883018F42E53330B83
:1020700093CF81E096CF85518230C8F61091160437
:10208000612F70E0762F662766277F77809117048F
:10209000682B90E080E00E94EF142DEC3CEC4CECBF
:1020A0005DE30E94501537C16091160470E090E026
:1020B00080E00E94EF144B015C011091170417FFA0
:1020C0000AC0AC019B0160E070E080E89FEB0E94D9
:1020D0000E164B015C011F70612F70E090E080E0F4
:1020E0000E94F1142DEC3CEC4CEC5DE30E94501589
:1020F000A50194010E940F164B015C0180925C03C4
:1021000090925D03A0925E03B0925F0340E060E8AE
:1021100087E294E00E9436091DAA1CAA1FAA1EAAE3
:1021200019AE18AE8E010F5F1F4F22E044E0C501CB
:10213000B4010E947B12009709F4F6C0FC010190E3
:102140000020E9F73197AF01481B590BBC01CE01C4
:10215000C4960E94590A1BAE1AAE1DAE1CAE1FAE2D
:102160001EAE46E050E068E472E0CE01CA960E94DE
:10217000590A1A8219821C821B821E821D826AAD34
:102180007BAD6115710531F04EAD5FADCE010196AD
:102190000E94590A0CA91DA90115110509F4C9C00D
:1021A000A8ACB9ACA114B104B9F08D819E81A80E80
:1021B000B91EB501CE0101960E94310A882309F4A7
:1021C000B8C029813A818D819E81B801820F931F09
:1021D0000E94ED18BE82AD824D815E8169817A8157
:1021E00087E294E00E946705CE0101960E94290AC9
:1021F000CE01CA960E94290ACE01C4960E94290ADD
:1022000083E394E00E941107181619060CF045C0EC
:1022100083E394E00E942707813409F08FC068ECC3
:1022200070E0809157040E94280380915804970120
:1022300002C0220F331F8A95E2F710916A03122B16
:1022400080915904970102C0220F331F8A95E2F74B
:10225000C9018095182310936A030E94530968EC02
:1022600070E0809153040E942803809154049701E8
:1022700002C0220F331F8A95E2F7122B809155047A
:10228000970102C0220F331F8A95E2F7C90180959A
:10229000182310936A030E94530980905C03909066
:1022A0005D03A0905E03B0905F03A5019401C5019A
:1022B000B4010E94AF16882309F46FC08FE492E046
:1022C0000E94C6098BE592E00E94C60964EF71E0A6
:1022D00080E090E00E9424040E946A069CCE109147
:1022E0001604612F70E090E080E00E94EF144B0133
:1022F0005C01609117046F7070E090E080E00E94D4
:10230000F1142DEC3CEC4CEC5DE30E945015A50162
:1023100094010E940F164B015C0117FFEFCEB7FA34
:10232000B094B7F8B094EACECE01C4960E94170AD2
:1023300012CFCE0101960E94170A4ECF833509F0C5
:10234000ACCF80915804970102C0220F331F8A95A9
:10235000E2F7C90190915904970101C0220F9A95A3
:10236000EAF7182F122B109580916A031823109307
:102370006A030E94530980915404970102C0220FFE
:10238000331F8A95E2F7C90190915504970101C066
:10239000220F9A95EAF7822B7ACF24013501E8942F
:1023A00077F82FEF3FEF4FE75FE7C301B2010E94DD
:1023B000AF1681110DC02FEF3FEF4FE75FE7C3016D
:1023C000B2010E94EA1418161CF483E592E078CF5B
:1023D0002FEF3FEF4FE75FE4C501B4010E94AA165B
:1023E00018161CF487E592E06BCF2FEF3FEF4FE715
:1023F0005FECC501B4010E94EA1487FDF3CF20E031
:1024000030E0A901C501B4010E94EA1487FF09C0A8
:102410006DE28BE693E00E94FD05B7FAB094B7F841
:10242000B0942AE037ED43EA5BE3C501B4010E94B2
:102430000F162B013C010E947B164B015C010E9490
:10244000EF149B01AC01C301B2010E940E162B01D7
:102450003C014AE0C501B4010E94D3096EE28BE65B
:1024600093E00E94FD0520E030E040E251E4C3012A
:10247000B2010E9450152B013C010E947B164B01BA
:10248000B12CA12C4AE0C501B4010E94D309C501B9
:10249000B4010E94EF149B01AC01C301B2010E9480
:1024A0000E1620E030E040E251E40E9450150E94F8
:1024B0007B1690E080E04AE00E94D30903CF8AE3D4
:1024C00092E0909334048093330480915A03909166
:1024D0005B038353944071F4E0914604F091470408
:1024E00090818091480480958923808310925B03BA
:1024F00010925A030895EF920F931F93CF93DF9397
:10250000E80134E047FD34E1042E000C550B57FF81
:1025100003C0519541955109E32E022F242FAE019E
:102520000E949912CE01DF91CF911F910F91EF90F0
:1025300008958F929F92AF92BF92CF92DF92EF92C7
:10254000FF920F931F93CF93DF9300D000D000D062
:10255000CDB7DEB76A01F22EB02E102FFBE3AF2EFF
:10256000A01608F41BE31F5F012F27E0AE014F5FA9
:102570005F4F0E941214BC018981982F997091308D
:1025800009F44EC09BE2E1FC04C09E2D9170E0FC7A
:1025900049C05E2D5071E82FE87083FF55C084E07C
:1025A000911101C083E0EF2DE81B8F1508F0E0E0EA
:1025B000D6018E2F20E25523C9F1992329F0D601A7
:1025C0009C93C60101966C0196012D5F3F4FE2FE80
:1025D00033C08EE4D6018C9391E411969C931197AD
:1025E00012968C93D9018E2F90E281112AC0E20FAE
:1025F000F32FF11D10828EEF9FEF29960FB6F894FE
:10260000DEBF0FBECDBFDF91CF911F910F91FF9025
:10261000EF90DF90CF90BF90AF909F908F900895F4
:102620009DE2B7CF90E2B5CF2D9381508111FCCFC1
:10263000CE0ED11CE0E0C1CF8EE6D6018C9391E6A0
:10264000CCCF9D938150D1CF482F447082FF3DC0A5
:1026500084E0911101C083E08F1510F4EF2DE81B89
:10266000D6018E2F20E2552309F1992329F0D601B6
:102670009C93C60101966C0196012D5F3F4FE2FECF
:102680001BC089E4D6018C938EE411968C9311972C
:1026900086E412968C93D9018E2F90E2882309F458
:1026A000A6CF9D938150FACF2D9381508111FCCFFD
:1026B000CE0ED11CE0E0D9CF89E6D6018C938EE610
:1026C00011968C93119786E6E4CF9B0177FF02C0A9
:1026D00030E020E0A1E0B0E0911102C0B0E0A0E065
:1026E000F9013196AE0FBF1F8B2C912CBB2009F442
:1026F00061C05401EFEFAE1ABE0AAA0DBB1DFA1657
:102700001B0619F014F04F2D4A1B511188C0E3FC31
:1027100059C07601A42FB0E2A1114FC0C40ED11C44
:10272000992309F45BC040E0D6011196F60190832D
:102730006D01552309F448C0012F060F9A81582FC7
:10274000507184FF03C0913309F4015010160CF04E
:1027500047C0093008F008E0EEE2FE2E5B01A01A47
:10276000B10885019194819491082F3F320729F493
:10277000D601FC92F60131966F016217730794F14E
:10278000021713077CF5DB01A21BB30BAA24A39449
:10279000B12CAC0EBD1EAA0DBB1D11968C91215003
:1027A0003109D601119628153905F4F0F601808318
:1027B0006D01DBCFB12CA12CA0CFF701B1937F012C
:1027C000A150AACF9111B0CFD601942F50E302C0EF
:1027D0005D9391509111FCCFC40ED11C40E0ACCF61
:1027E00001E0BACF80E3DBCF6217730731F4963391
:1027F00088F4953311F4552369F0F6018083FD01C7
:10280000842F90E2811108C0A40FB11D1C9290E0AA
:1028100080E0F3CE81E3F1CF91938150F3CF91111A
:1028200083CF8ACF283008F027E03327DA01990FC9
:10283000311D87FD916000966105710539F43260A4
:102840002E5F3D9330E32A95E1F708959F3F30F0E6
:1028500080387105610509F03C5F3C5F3D93913024
:1028600008F08068911DDF93CF931F930F93FF9221
:10287000EF92192F987F9695E92F96959695E90FE7
:10288000FF27EA5DFD4F99273327EE24FF24A70198
:10289000E70105900894079428F4360FE71EF81E08
:1028A000491F511D660F771F881F991F0694A1F7B6
:1028B0000590079428F4E70EF81E491F561FC11D06
:1028C000770F881F991F661F0694A1F7059007943C
:1028D00028F4F80E491F561FC71FD11D880F991FD6
:1028E000661F771F0694A1F70590079420F4490FFF
:1028F000561FC71FD81F990F661F771F881F069482
:10290000A9F784911095177041F0D695C795579502
:102910004795F794E7941A95C1F7ECECF1E06894C9
:102920001590159135916591959105907FE273957C
:10293000E118F10A430B560BC90BD009C0F7E10CA3
:10294000F11E431F561FC91FD01D7EF4703311F4B2
:102950008A95E6CFE894015030F0080F0AF400277A
:10296000021708F4202F2395022F7A3328F079E3F9
:102970007D932A95E9F710C07D932A9589F60694F0
:1029800097956795379517951794E118F10A430BBA
:10299000560BC90BD00998F023957E9173957A3325
:1029A00008F070E37C932013B8F77E9170617D93FB
:1029B00030F0839571E37D9370E32A95E1F711245C
:1029C000EF90FF900F911F91CF91DF91992787FD95
:1029D000909508950E942C1508F481E00895E894DC
:1029E00009C097FB3EF490958095709561957F4F57
:1029F0008F4F9F4F9923A9F0F92F96E9BB27939505
:102A0000F695879577956795B795F111F8CFFAF414
:102A1000BB0F11F460FF1BC06F5F7F4F8F4F9F4F45
:102A200016C0882311F096E911C0772321F09EE8A3
:102A3000872F762F05C0662371F096E8862F70E009
:102A400060E02AF09A95660F771F881FDAF7880FE3
:102A50009695879597F90895990F0008550FAA0B39
:102A6000E0E8FEEF16161706E807F907C0F01216A1
:102A70001306E407F50798F0621B730B840B950BA4
:102A800039F40A2661F0232B242B252B21F40895F9
:102A90000A2609F4A140A6958FEF811D811D089596
:102AA0000E9463150C94D4150E94C61538F00E943C
:102AB000CD1520F0952311F00C94BD150C94C31581
:102AC00011240C9408160E94E51570F3959FC1F32C
:102AD000950F50E0551F629FF001729FBB27F00DCC
:102AE000B11D639FAA27F00DB11DAA1F649F662721
:102AF000B00DA11D661F829F2227B00DA11D621F70
:102B0000739FB00DA11D621F839FA00D611D221F29
:102B1000749F3327A00D611D231F849F600D211D0D
:102B2000822F762F6A2F11249F5750409AF0F1F090
:102B300088234AF0EE0FFF1FBB1F661F771F881FF9
:102B400091505040A9F79E3F510580F00C94BD155F
:102B50000C9408165F3FE4F3983ED4F3869577957E
:102B60006795B795F795E7959F5FC1F7FE2B880F9F
:102B7000911D9695879597F9089597F99F6780E835
:102B800070E060E008959FEF80EC089500240A94BF
:102B90001616170618060906089500240A94121638
:102BA0001306140605060895092E0394000C11F46B
:102BB000882352F0BB0F40F4BF2B11F460FF04C018
:102BC0006F5F7F4F8F4F9F4F089557FD9058440F71
:102BD000551F59F05F3F71F04795880F97FB991F7C
:102BE00061F09F3F79F08795089512161306140639
:102BF000551FF2CF4695F1DF08C0161617061806C6
:102C0000991FF1CF86957105610508940895E894A0
:102C1000BB2766277727CB0197F908955058BB2724
:102C2000AA270E9426160C94D4150E94C61538F0C7
:102C30000E94CD1520F039F49F3F19F426F40C942E
:102C4000C3150EF4E095E7FB0C94BD15E92F0E9427
:102C5000E51558F3BA17620773078407950720F044
:102C600079F4A6F50C9407160EF4E0950B2EBA2F06
:102C7000A02D0B01B90190010C01CA01A001112482
:102C8000FF27591B99F0593F50F4503E68F11A162E
:102C9000F040A22F232F342F4427585FF3CF4695BF
:102CA00037952795A795F0405395C9F77EF41F16E1
:102CB000BA0B620B730B840BBAF09150A1F0FF0FAB
:102CC000BB1F661F771F881FC2F70EC0BA0F621F97
:102CD000731F841F48F4879577956795B795F79587
:102CE0009E3F08F0B0CF9395880F08F09927EE0F1C
:102CF0009795879508950E94ED1588F09F5798F055
:102D0000B92F9927B751B0F0E1F0660F771F881FF0
:102D1000991F1AF0BA95C9F714C0B13091F00E940A
:102D20000716B1E008950C940716672F782F8827AF
:102D3000B85F39F0B93FCCF3869577956795B39531
:102D4000D9F73EF490958095709561957F4F8F4FA0
:102D50009F4F08950E942C1508F48FEF08950E944C
:102D60002C15880B990B0895A1E21A2EAA1BBB1BE8
:102D7000FD010DC0AA1FBB1FEE1FFF1FA217B30747
:102D8000E407F50720F0A21BB30BE40BF50B661F5D
:102D9000771F881F991F1A9469F760957095809521
:102DA00090959B01AC01BD01CF010895EE0FFF1F6F
:102DB000881F8BBF0790F691E02D19940F931F93F6
:102DC000CF93DF938230910510F482E090E0E091A0
:102DD0005C04F0915D0430E020E0B0E0A0E03097CA
:102DE00099F42115310509F44AC0281B390B243008
:102DF0003105D8F58A819B816115710589F1FB0147
:102E000093838283FE0111C040815181028113812D
:102E100048175907E0F04817590799F4109761F0DF
:102E200012960C93129713961C933296CF01DF9152
:102E3000CF911F910F91089500935C0410935D044E
:102E4000F4CF2115310551F04217530738F0A9018D
:102E5000DB019A01BD01DF01F801C1CFEF01F9CF1C
:102E600090935D0480935C04CDCFFE01E20FF31FCD
:102E7000819391932250310939832883D7CF2091B0
:102E80005A0430915B04232B41F4209102023091CB
:102E9000030230935B0420935A0420910002309186
:102EA00001022115310541F42DB73EB740910402CE
:102EB00050910502241B350BE0915A04F0915B04FC
:102EC000E217F307A0F42E1B3F0B2817390778F001
:102ED000AC014E5F5F4F2417350748F04E0F5F1F60
:102EE00050935B0440935A04819391939FCFF0E0F9
:102EF000E0E09CCFCF93DF930097E9F0FC0132979D
:102F000013821282A0915C04B0915D04ED0130E067
:102F100020E01097A1F420813181820F931F20912E
:102F20005A0430915B042817390709F061C0F09307
:102F30005B04E0935A04DF91CF910895EA01CE1724
:102F4000DF07E8F54A815B819E0141155105B1F724
:102F5000E901FB83EA8349915991C40FD51FEC170E
:102F6000FD0761F4808191810296840F951FE9012C
:102F700099838883828193819B838A83F0E0E0E058
:102F800012968D919C9113970097B9F52D913C91D4
:102F90001197CD010296820F931F20915A04309110
:102FA0005B042817390739F6309751F510925D0404
:102FB00010925C04B0935B04A0935A04BCCFD383FB
:102FC000C28340815181840F951FC817D90761F4CE
:102FD0004E5F5F4F88819981480F591F518340830D
:102FE0008A819B81938382832115310509F0B0CFBB
:102FF000F0935D04E0935C049ECFFD01DC01C0CF43
:1030000013821282D7CF4F925F926F927F928F92EC
:103010009F92AF92BF92CF92DF92EF92FF920F9367
:103020001F93CF93DF938C01009799F4CB01DF912D
:10303000CF911F910F91FF90EF90DF90CF90BF90B5
:10304000AF909F908F907F906F905F904F900C9477
:10305000DE16FC01E60FF71F9C0122503109E21732
:10306000F30708F4AEC0D901CD91DC911197C617D2
:10307000D70720F1C530D10578F0CE010497861727
:10308000970750F0C61BD70B2297C193D1936D932E
:103090007C93CF010E947A17C801DF91CF911F91D5
:1030A0000F91FF90EF90DF90CF90BF90AF909F90E7
:1030B0008F907F906F905F904F9008955B01AC1A56
:1030C000BD0A4C018C0E9D1EA0915C04B0915D0464
:1030D000512C412CF12CE12C109731F580915A04A0
:1030E00090915B048815990509F05CC04616570657
:1030F00008F058C08091000290910102009741F4BD
:103100008DB79EB74091040250910502841B950B28
:10311000E817F90708F055C0F0935B04E0935A04F0
:10312000F90171836083B8CF8D919C9111971296AC
:103130006C90129713967C901397A815B90559F5C2
:103140006C0142E0C40ED11CCA14DB0420F1AC01B6
:103150004A195B09DA011296159780F06282738230
:1031600051834083D9016D937C93E114F10471F094
:10317000D7011396FC93EE9312978ECF22968C0F65
:103180009D1FF90191838083F301EFCFF0935D04DC
:10319000E0935C0481CF4816590608F42C017D01A8
:1031A000D3019ACFCB010E94DE167C01009749F033
:1031B000AE01B8010E94E418C8010E947A17870185
:1031C0006BCF10E000E068CFFB01DC0102C0019092
:1031D0000D9241505040D8F70895FB01DC01019059
:1031E0000D920020E1F7089511E0C4EFD1E000E076
:1031F00006C0802FFE010E94D6162196011DC53FF4
:0C320000D10780E00807A9F7F894FFCF81
:10320C0000005E04800000000000FD0567059405C9
:10321C004A06C505A305B705000000000408D7073A
:10322C001A09B406D007BD07AE07000000004D090F
:10323C0067051A099B0600000000B50667051A0908
:10324C00B406110727079C0654656D703A20006E72
:0E325C00616E00696E66006F7666000D0A00F6
:00000001FF
