:100000000C945E000C9486000C9486000C94860080
:100010000C9486000C9486000C9486000C94860048
:100020000C9486000C9486000C9486000C94860038
:100030000C9486000C9486000C9486000C94860028
:100040000C9481020C9486000C94F1020C94CB0267
:100050000C9486000C9486000C9486000C94860008
:100060000C9486000C9486000000000024002700F9
:100070002A0000000000250028002B0004040404CE
:100080000404040402020202020203030303030342
:10009000010204081020408001020408102001021F
:1000A00004081020000000080002010000030407FB
:1000B00000000000000000002303660511241FBE9D
:1000C000CFEFD8E0DEBFCDBF21E0AAE3B1E001C0B1
:1000D0001D92AA3EB207E1F711E0A0E0B1E0E6E729
:1000E000FFE002C005900D92AA33B107D9F710E0E6
:1000F000CDE5D0E004C02197FE010E94AD05CC35CE
:10010000D107C9F70E945E030C94AE070C9400005F
:10011000E1EBF0E02491EDE9F0E09491E9E8F0E022
:10012000E491EE23C9F0222339F0233001F1A8F441
:10013000213019F1223029F1F0E0EE0FFF1FEE58C7
:10014000FF4FA591B4912FB7F894EC91811126C07F
:1001500090959E239C932FBF08952730A9F02830B7
:10016000C9F0243049F7209180002F7D03C02091F1
:1001700080002F7720938000DFCF24B52F7724BD18
:10018000DBCF24B52F7DFBCF2091B0002F772093BC
:10019000B000D2CF2091B0002F7DF9CF9E2BDACFC7
:1001A0000895AF92BF92CF92DF92EF92FF920F939A
:1001B0001F93CF93DF936C017B018B01040F151FFD
:1001C000EB015E01AE18BF08C017D10759F0699165
:1001D000D601ED91FC910190F081E02DC6010995C9
:1001E000892B79F7C501DF91CF911F910F91FF9076
:1001F000EF90DF90CF90BF90AF900895FC01538DAA
:10020000448D252F30E0842F90E0821B930B5417F0
:1002100010F0CF96089501970895FC01918D828D7D
:10022000981761F0A28DAE0FBF2FB11D5D968C9116
:10023000928D9F5F9F73928F90E008958FEF9FEF55
:1002400008952FB7F89480913F0190914001A091BB
:100250004101B09142012FBF80934B0190934C011B
:10026000A0934D01B0934E0183E491E00E940D01F3
:1002700097FF26C02FB7F89480913F0190914001DD
:10028000A0914101B09142012FBF40914B0150918B
:100290004C0160914D0170914E01841B950BA60B92
:1002A000B70B40914701509148016091490170910D
:1002B0004A0184179507A607B707B0F28FEF9FEFA3
:1002C0000895FC01918D828D981731F0828DE80F91
:1002D000F11D858D90E008958FEF9FEF0895FC014B
:1002E000918D228D892F90E0805C9F4F821B910918
:1002F0008F739927089583E491E00E946F0121E0B4
:10030000892B09F420E0822F089580E090E0892B6A
:1003100029F00E947B0181110C9400000895FC01DA
:10032000A48DA80FB92FB11DA35ABF4F2C91848D56
:1003300090E001968F739927848FA689B7892C93B3
:10034000A089B1898C91837080648C93938D848D06
:10035000981306C00288F389E02D80818F7D808309
:100360000895EF92FF920F931F93CF93DF93EC01C9
:1003700081E0888F9B8D8C8D98131AC0E889F9894C
:10038000808185FF15C09FB7F894EE89FF8960834F
:10039000E889F98980818370806480839FBF81E0D0
:1003A00090E0DF91CF911F910F91FF90EF90089512
:1003B000F62E0B8D10E00F5F1F4F0F731127E02EED
:1003C0008C8D8E110CC00FB607FCFACFE889F98925
:1003D000808185FFF5CFCE010E948F01F1CFEB8D9B
:1003E000EC0FFD2FF11DE35AFF4FF0829FB7F894F9
:1003F0000B8FEA89FB8980818062CFCFCF93DF9317
:10040000EC01888D8823B9F0AA89BB89E889F9892C
:100410008C9185FD03C0808186FD0DC00FB607FC61
:10042000F7CF8C9185FFF2CF808185FFEDCFCE0194
:100430000E948F01E9CFDF91CF91089542E050E013
:1004400068E171E083E491E00C94D100FC018081CB
:100450009181009711F00C944F0608950F931F930C
:10046000CF93DF93EC0188819981009759F02A811D
:100470003B812617370730F081E0DF91CF911F9144
:100480000F9108958B016F5F7F4F0E94D8060097F0
:1004900059F0998388831B830A832C813D81232B08
:1004A00059F7FC011082E8CF80E0E7CFEF92FF928E
:1004B0000F931F93CF93DF93EC017B018A01BA0165
:1004C0000E942E0228813981811114C02115310525
:1004D00019F0C9010E944F06198218821D821C82E0
:1004E0001B821A82CE01DF91CF911F910F91FF9055
:1004F000EF9008951D830C83B701C9010E94A707DF
:10050000F1CF1F920F920FB60F9211242F933F93AA
:100510008F939F93AF93BF9380913F019091400140
:10052000A0914101B091420130913E0123E0230F9F
:100530002D3758F50196A11DB11D20933E018093E2
:100540003F0190934001A0934101B09342018091FB
:100550003A0190913B01A0913C01B0913D0101967F
:10056000A11DB11D80933A0190933B01A0933C01E2
:10057000B0933D01BF91AF919F918F913F912F918A
:100580000F900FBE0F901F90189526E8230F02962C
:10059000A11DB11DD2CF1F920F920FB60F92112441
:1005A0002F933F934F935F936F937F938F939F937B
:1005B000AF93BF93EF93FF9383E491E00E948F0189
:1005C000FF91EF91BF91AF919F918F917F916F912B
:1005D0005F914F913F912F910F900FBE0F901F9001
:1005E00018951F920F920FB60F9211242F938F938D
:1005F0009F93EF93FF93E0915301F0915401808119
:10060000E0915901F0915A0182FD1BC090818091C7
:100610005C018F5F8F7320915D01821741F0E09143
:100620005C01F0E0ED5BFE4F958F80935C01FF91E4
:10063000EF919F918F912F910F900FBE0F901F9070
:1006400018958081F4CFE3E4F1E01382128288EE02
:1006500093E0A0E0B0E084839583A683B7838AE02B
:1006600091E09183808385EC90E09587848784EC8A
:1006700090E09787868780EC90E0918B808B81EC6F
:1006800090E0938B828B82EC90E0958B848B86EC50
:1006900090E0978B868B118E128E138E148EE0EE67
:1006A000F1E011821082138212821582148250E0CE
:1006B00040E06AE171E0CF010C945602CF93DF93E2
:1006C000CDB7DEB762970FB6F894DEBF0FBECDBFD1
:1006D000789484B5826084BD84B5816084BD85B51D
:1006E000826085BD85B5816085BD80916E00816029
:1006F00080936E00109281008091810082608093CF
:1007000081008091810081608093810080918000D0
:100710008160809380008091B10084608093B100FB
:100720008091B00081608093B00080917A008460F5
:1007300080937A0080917A00826080937A00809121
:100740007A00816080937A0080917A00806880933B
:100750007A001092C100EDE9F0E02491E9E8F0E0C0
:100760008491882399F090E0880F991FFC01E85943
:10077000FF4FA591B491FC01EE58FF4F85919491E4
:100780008FB7F894EC91E22BEC938FBFE09153017B
:10079000F091540182E08083E0914F01F09150018B
:1007A0001082E0915101F09152018FEC8083109200
:1007B0005B01E0915701F091580186E08083E09160
:1007C0005501F0915601808180618083E09155014F
:1007D000F0915601808188608083E0915501F0910D
:1007E0005601808180688083E0915501F091560127
:1007F00080818F7D808340E150E06BE171E083E494
:1008000091E00E94D1000E941E0280E0A82E80E0AC
:10081000B82E83E491E00E946F01181619060CF0BF
:10082000E2C01A8219821C821B821E821D8250E045
:1008300040E06AE171E0CE0101960E9456020E94FA
:10084000210197FD1EC08A309105D9F08F8318864B
:100850000D811E810F5F1F4FB801CE0101960E94CE
:100860002E02882361F329813A818D819E81BE0108
:10087000695F7F4F820F931F0E94A7071E830D831E
:10088000DECFC980DA80C114D10439F00D811E8118
:1008900076010115110509F0B3C08091E001909136
:1008A000E101009709F4E4C069817A81611571055D
:1008B00009F4DCC04091E2015091E3012D813E81B9
:1008C0004217530708F4D2C00E94A7078D819E816A
:1008D0009093E5018093E4011E821D82CE01019672
:1008E0000E9426021E861D86188A1F861A8A198A69
:1008F0006091E0017091E1016115710541F0409155
:10090000E4015091E501CE010D960E9456021A8233
:1009100019821C821B821E821D8249E050E06CE21B
:1009200071E0CE0101960E94560218861F821A8637
:1009300019861C861B8669817A816115710531F0E3
:100940004D815E81CE0107960E945602ED84FE84A1
:10095000E114F10409F4A3C009891A8901151105EC
:10096000B9F08B859C85080F191FB801CE01079639
:100970000E942E02882309F492C02F8138858B852E
:100980009C85B701820F931F0E94A7071C870B87C6
:100990004B855C856F81788583E491E00E94D1006E
:1009A0000E941E02CE0107960E942602CE010196E9
:1009B0000E942602CE010D960E9426028091E4013B
:1009C0009091E501892B79F00091E0011091E1010E
:1009D00066E371E0C8010E949E07892B09F06CC094
:1009E00081E00E948800A114B10409F412CF0E9492
:1009F0007B01882309F40DCF0E9400000ACF740107
:100A000047018FEF881A980AF7018081082E000CA1
:100A1000990B0E946A05892B91F7015011090C0D61
:100A20001D1DF8018081082E000C990B0E946A059B
:100A3000892B31F00E151F0518F001501109F1CF67
:100A4000A8014F5F5F4F4E195F095E834D83CE143F
:100A5000DF0420F4B701C6010E949507E981FA81FD
:100A60008D819E81E80FF91F108217CF0E944F06DB
:100A700089819A819093E1018093E0018B819C812F
:100A80009093E3018093E2018D819E819093E50133
:100A90008093E4011A8219821C821B821DCF8F81F0
:100AA0009885009711F00E944F0618861F821C86B9
:100AB0001B861A8619866CCF68E271E0C8010E9415
:100AC0009E07892B09F08FCF80E08BCF80EE91E0DD
:100AD0000C94260291110C947305803219F0895000
:100AE0008550C8F708959927882708952F923F9237
:100AF0004F925F926F927F928F929F92AF92BF922E
:100B0000CF92DF92EF92FF920F931F93CF93DF93D9
:100B1000CDB7DEB7CA1BDB0B0FB6F894DEBF0FBE36
:100B2000CDBF09942A88398848885F846E847D8483
:100B30008C849B84AA84B984C884DF80EE80FD8085
:100B40000C811B81AA81B981CE0FD11D0FB6F894FB
:100B5000DEBF0FBECDBFED010895EE0FFF1F059064
:100B6000F491E02D09940F931F93CF93DF9382307C
:100B7000910510F482E090E0E091E801F091E90144
:100B800030E020E0B0E0A0E0309799F42115310585
:100B900009F44AC0281B390B24303105D8F58A8165
:100BA0009B816115710589F1FB0193838283FE01AD
:100BB00011C0408151810281138148175907E0F02B
:100BC0004817590799F4109761F012960C931297F1
:100BD00013961C933296CF01DF91CF911F910F9105
:100BE00008950093E8011093E901F4CF2115310530
:100BF00051F04217530738F0A901DB019A01BD01FA
:100C0000DF01F801C1CFEF01F9CF9093E9018093A3
:100C1000E801CDCFFE01E20FF31F819391932250A3
:100C2000310939832883D7CF2091E6013091E7013C
:100C3000232B41F420910201309103013093E7010D
:100C40002093E60120910001309101012115310529
:100C500041F42DB73EB74091040150910501241B8A
:100C6000350BE091E601F091E701E217F307A0F4FC
:100C70002E1B3F0B2817390778F0AC014E5F5F4FF2
:100C80002417350748F04E0F5F1F5093E70140933C
:100C9000E601819391939FCFF0E0E0E09CCFCF936A
:100CA000DF930097E9F0FC01329713821282A09142
:100CB000E801B091E901ED0130E020E01097A1F4E6
:100CC00020813181820F931F2091E6013091E7014D
:100CD0002817390709F061C0F093E701E093E601B6
:100CE000DF91CF910895EA01CE17DF07E8F54A8139
:100CF0005B819E0141155105B1F7E901FB83EA8350
:100D000049915991C40FD51FEC17FD0761F48081FB
:100D100091810296840F951FE901998388838281CE
:100D200093819B838A83F0E0E0E012968D919C9101
:100D300013970097B9F52D913C911197CD0102962B
:100D4000820F931F2091E6013091E70128173907A0
:100D500039F6309751F51092E9011092E801B093FD
:100D6000E701A093E601BCCFD383C28340815181C8
:100D7000840F951FC817D90761F44E5F5F4F8881B4
:100D80009981480F591F518340838A819B819383A6
:100D900082832115310509F0B0CFF093E901E0938A
:100DA000E8019ECFFD01DC01C0CF13821282D7CFB4
:100DB000B0E0A0E0EEEDF6E00C9478058C01009731
:100DC00051F4CB010E94B3058C01C801CDB7DEB749
:100DD000E0E10C949405FC01E60FF71F9C01225002
:100DE0003109E217F30708F49DC0D901CD91DC91D8
:100DF0001197C617D70798F0C530D10530F3CE014B
:100E000004978617970708F3C61BD70B2297C19341
:100E1000D1936D937C93CF010E944F06D6CF5B0197
:100E2000AC1ABD0A4C018C0E9D1EA091E801B09138
:100E3000E901512C412CF12CE12C109731F58091D6
:100E4000E6019091E7018815990509F05CC0461606
:100E5000570608F058C08091000190910101009759
:100E600041F48DB79EB74091040150910501841B58
:100E7000950BE817F90708F055C0F093E701E093E8
:100E8000E601F90171836083A0CF8D919C91119748
:100E900012966C90129713967C901397A815B9052B
:100EA00059F56C0142E0C40ED11CCA14DB0420F1D8
:100EB000AC014A195B09DA011296159780F062823B
:100EC000738251834083D9016D937C93E114F104C3
:100ED00071F0D7011396FC93EE93129776CF22967A
:100EE0008C0F9D1FF90191838083F301EFCFF09365
:100EF000E901E093E80169CF4816590608F42C018E
:100F00007D01D3019ACFCB010E94B3057C010097EC
:100F100049F0AE01B8010E949507C8010E944F0632
:100F2000870153CF10E000E050CFFB01DC0102C08D
:100F300001900D9241505040D8F70895FB01DC011B
:100F40008D91019080190110D9F3990B0895FB013F
:100F5000DC0101900D920020E1F7089510E0CDE54D
:100F6000D0E004C0FE010E94AD052196CE35D10728
:060F7000C9F7F894FFCF61
:100F76000000EA01800000000000B101D100FE007F
:100F8600FE016F010D0161010D0A0045736372696F
:100F96006265206F6E2075206F6666005265636914
:0A0FA60062C3AD3A20006F6E000038
:00000001FF
