:100000000C945E000C9486000C9486000C947B0685
:100010000C947B060C947B060C9486000C94A30530
:100020000C9486000C9486000C9486000C94850633
:100030000C9486000C9486000C9486000C94860028
:100040000C9459050C9486000C9449060C942306D4
:100050000C9486000C9486000C9486000C94860008
:100060000C9486000C948600020000000800020137
:100070000000030407000000000000000000000072
:1000800000250028002B0000000000240027002A83
:100090000004040404040404040202020202020331
:1000A000030303030301020408102040800102043B
:1000B000081020010204081020005C0711241FBE54
:1000C000CFEFD8E0DEBFCDBF11E0A0E0B1E0E2E6C7
:1000D000F6E102C005900D92AC31B107D9F723E0EB
:1000E000ACE1B1E001C01D92A934B207E1F710E024
:1000F000CEE5D0E004C02197FE010E94290BCD354A
:10010000D107C9F70E94C0070C942F0B0C94000074
:1001100090E0FC01EB55FF4F24918F569F4FFC015F
:100120008491882399F090E0880F991FFC01E9578A
:10013000FF4FA591B491FC01E358FF4F8591949135
:100140008FB7F894EC91E22BEC938FBF089590E079
:10015000FC01E759FF4F2491FC01EB55FF4F34910F
:10016000FC01EF56FF4FE491EE23C9F0222339F052
:10017000233001F1A8F4213019F1223029F1F0E007
:10018000EE0FFF1FE358FF4FA591B4918FB7F8947E
:10019000EC91611126C030953E233C938FBF0895AA
:1001A0002730A9F02830C9F0243049F78091800029
:1001B0008F7D03C0809180008F7780938000DFCF98
:1001C00084B58F7784BDDBCF84B58F7DFBCF8091E5
:1001D000B0008F778093B000D2CF8091B0008F7D38
:1001E000F9CF3E2BDACF2FB7F8946091340170919C
:1001F000350180913601909137012FBF0895AF925C
:10020000BF92CF92DF92EF92FF920F931F93CF9303
:10021000DF936C017B018B01040F151FEB015E0165
:10022000AE18BF08C017D10759F06991D601ED91FA
:10023000FC910190F081E02DC6010995892B79F799
:10024000C501DF91CF911F910F91FF90EF90DF904B
:10025000CF90BF90AF900895FC01538D448D252F12
:1002600030E0842F90E0821B930B541710F0CF9650
:10027000089501970895FC01918D828D981761F082
:10028000A28DAE0FBF2FB11D5D968C91928D9F5F99
:100290009F73928F90E008958FEF9FEF0895FC0178
:1002A000918D828D981731F0828DE80FF11D858D2B
:1002B00090E008958FEF9FEF0895FC01918D228DBE
:1002C000892F90E0805C9F4F821B91098F73992743
:1002D000089580E691E00E945D0121E0892B09F4F8
:1002E00020E0822F089580E090E0892B29F00E9481
:1002F000690181110C9400000895FC01A48DA80FE0
:10030000B92FB11DA35ABF4F2C91848D90E0019657
:100310008F739927848FA689B7892C93A089B18977
:100320008C91837080648C93938D848D981306C018
:100330000288F389E02D80818F7D80830895EF927C
:10034000FF920F931F93CF93DF93EC0181E0888F8F
:100350009B8D8C8D98131AC0E889F989808185FF5F
:1003600015C09FB7F894EE89FF896083E889F98901
:1003700080818370806480839FBF81E090E0DF9103
:10038000CF911F910F91FF90EF900895F62E0B8D56
:1003900010E00F5F1F4F0F731127E02E8C8D8E1111
:1003A0000CC00FB607FCFACFE889F989808185FF78
:1003B000F5CFCE010E947D01F1CFEB8DEC0FFD2F2B
:1003C000F11DE35AFF4FF0829FB7F8940B8FEA8933
:1003D000FB8980818062CFCFCF93DF93EC01888D42
:1003E0008823B9F0AA89BB89E889F9898C9185FDB0
:1003F00003C0808186FD0DC00FB607FCF7CF8C913E
:1004000085FFF2CF808185FFEDCFCE010E947D0177
:10041000E9CFDF91CF910895DC01EC918E2F90E030
:10042000FC01EE0FFF1FE80FF91FE85CFE4F808113
:1004300086FF02C08F7B80830895CF92DF92EF9278
:10044000FF92CF93DF93EC01603282E07807CCF526
:10045000653B710514F064EB70E0898128E830E0B9
:10046000281B310987FD3395220F331F220F331FBD
:100470006901330FEE08FF088A8128E532E0281B66
:10048000310987FD3395220F331F220F331F032EAF
:10049000000C440B550B2C193D094E095F09DB017B
:1004A00077FF02C0B0E0A0E00E94190924EB30E021
:1004B00040E050E00E94EF08C20ED31EE41EF51E7D
:1004C000B601E881EC3070F5298188E890E0821B64
:1004D000910927FD9395880F991F880F991F681719
:1004E00079077CF02A8188E592E0821B910927FD3B
:1004F0009395880F991F880F991F681779070CF437
:10050000CB010297880F991F4FB7F8942E2F30E038
:10051000F901EE0FFF1FE20FF31FE85CFE4F92831D
:1005200081834FBFDF91CF91FF90EF90DF90CF900D
:100530000895CF92DF92EF92FF920F931F93CF9384
:10054000DF93EC018B010E94F3006B017C0129A574
:100550003AA5121613060CF042C08BA59CA5A60165
:10056000481B590B429FC001439F900D529F900D15
:10057000112461E070E0883E23E0920724F068EEE9
:1005800073E00E94010B8D859E859801281B390B15
:1005900037FF03C031952195310962177307FCF4C9
:1005A000081719071CF4719561957109860F971F3B
:1005B0009E878D87CBA6DCA6EDA6FEA66D857E85E3
:1005C0008F859889680F791FCE01DF91CF911F9198
:1005D0000F91FF90EF90DF90CF900C941D021E873B
:1005E0000D87E8CF1F93CF93DF93EC01162F8881FF
:1005F0008C3008F04DC0862F0E9488008881282FFB
:1006000030E0F901EE0FFF1FE20FF31FE85CFE4F31
:100610001F736081607C612B608319821A822CE0D9
:10062000622F0E94F50A829FB001112430E020E081
:10063000AB01420F531FFA01EE0FFF1FE40FF51F2E
:10064000E85CFE4F908196FD16C02F5F3F4F2C3027
:10065000310571F781110FC01092800082E0809304
:1006600081001092850010928400B19A80916F00F1
:10067000826080936F00E8818E2F90E0FC01EE0F86
:10068000FF1FE80FF91FE85CFE4F808180648083C4
:100690008881DF91CF911F910895E09100028E2F04
:1006A00090E0FC01EE0FFF1FE80FF91FE85CFE4F22
:1006B000808186FD06C066E070E080E092E00E94E6
:1006C000F20260915C0170915D01665A7F4F653B5B
:1006D000710514F064EB70E077FF02C070E060E039
:1006E00080E092E00E941D02E091FD018E2F90E0DB
:1006F000FC01EE0FFF1FE80FF91FE85CFE4F808141
:1007000086FD06C067E070E08DEF91E00E94F20286
:1007100060915E0170915F01665A7F4F653B710584
:1007200014F064EB70E077FF02C070E060E08DEFE2
:1007300091E00C941D02CF93DF93DC01EC912E2FFE
:1007400030E0F901EE0FFF1FE20FF31FE85CFE4FF0
:10075000208126FD3EC0EC010E94F2028AE590E075
:100760009E878D876AE570E0CE010E941D020E947F
:10077000F3006BA77CA78DA79EA78EE190E09E8FCC
:100780008D8F80ED97E098878F8380E090E0A4E8DC
:10079000B2E4898F9A8FAB8FBC8F8AE198EFA2EC7D
:1007A000BDE38D8B9E8BAF8BB88F1F8E18A219A2C5
:1007B0001AA28DE290E09C838B83198A1A8A1B8A85
:1007C0001C8A19861A861B861C861E821D821FA201
:1007D00018A6DF91CF91089560911E0370911F03B9
:1007E00083E092E00E949B036091200370912103BB
:1007F00082E392E00E949B036091220370912303A5
:1008000081E692E00E949B0360912403709125038E
:1008100080E992E00C949B038F929F92AF92BF92DB
:10082000CF92DF92EF92FF920F931F93CF93DF93BC
:10083000CDB7DEB728970FB6F894DEBF0FBECDBF99
:1008400088E0E1E0F1E0DE01119601900D928A95D9
:10085000E1F70E94EC038091480381111092480354
:100860000E94F3006C507E4F8F4F9F4F6093300378
:100870007093310380933203909333038E010F5FA3
:100880001F4F5E0189E0A80EB11C98E3C92E93E0CA
:10089000D92E23E0E22E22E0F22EF801619171912F
:1008A0008F01F70185859685681B790B072E000C53
:1008B000880B990B0E94690A20E030E048E452E47A
:1008C0000E94BF09F60161937193819391936F0127
:1008D000FFE2EF0EF11CA016B106F9F60E94F3003C
:1008E0000091300310913103209132033091330392
:1008F000601771078207930708F075C00E94F30024
:10090000665F7F4F8F4F9F4F609334037093350323
:10091000809336039093370388E3E82E83E0F82E24
:1009200003E012E0F70181909190A190B1907F01D6
:10093000F80165857685072E000C880B990B0E94BF
:10094000690AA50194010E9453090E94310AC80155
:100950000E949902015D1F4FF2E00F3B1F0711F744
:100960000E94F30000913403109135032091360367
:1009700030913703601771078207930788F3AECF72
:1009800083E092E00E9499026B817C8182E392E095
:100990000E9499026D817E8181E692E00E94990217
:1009A0006F81788580E992E00E9499020E94F300AD
:1009B000665F7F4F8F4F9F4F609334037093350373
:1009C00080933603909337030E94F3000091340321
:1009D000109135032091360330913703601771076A
:1009E0008207930788F369817A8180911002909140
:1009F00011026817790721F62B813C8180913F0213
:100A0000909140022817390709F0BACF2D813E8115
:100A100080916E0290916F022817390709F0B0CFCC
:100A20002F81388580919D0290919E022817390769
:100A300009F0A6CF83E092E00E940C0282E392E0EC
:100A40000E940C0281E692E00E940C0280E992E092
:100A50000E940C0281E08093480328960FB6F89418
:100A6000DEBF0FBECDBFDF91CF911F910F91FF90E1
:100A7000EF90DF90CF90BF90AF909F908F900895B0
:100A8000FF920F931F93CF93DF93EC01F62E088113
:100A90001981C8010E94D908F81621F06F2DC801EC
:100AA0000E94E108CE01DF91CF911F910F91FF903D
:100AB00008951F920F920FB60F9211242F933F9318
:100AC0008F939F93AF93BF938091340190913501A1
:100AD000A0913601B09137013091330123E0230F0B
:100AE0002D3758F50196A11DB11D20933301809338
:100AF000340190933501A0933601B0933701809172
:100B00002F0190913001A0913101B09132010196F5
:100B1000A11DB11D80932F0190933001A09331014D
:100B2000B0933201BF91AF919F918F913F912F91DF
:100B30000F900FBE0F901F90189526E8230F029676
:100B4000A11DB11DD2CF1F920F920FB60F9211248B
:100B50002F933F934F935F936F937F938F939F93C5
:100B6000AF93BF93EF93FF9380912B0190912C0152
:100B7000A0912D01B0912E01892B8A2B8B2BC1F1D5
:100B800090912A0180910000892780930000809134
:100B90002B0190912C01A0912D01B0912E011816DE
:100BA00019061A061B069CF480912B0190912C01CA
:100BB000A0912D01B0912E010197A109B109809357
:100BC0002B0190932C01A0932D01B0932E01FF9146
:100BD000EF91BF91AF919F918F917F916F915F91B5
:100BE0004F913F912F910F900FBE0F901F9018952E
:100BF00080910001E8E6F0E0E4919FEF909300011E
:100C0000E13051F030F0E23069F060E00E94A7007E
:100C1000DECF10926E00F9CF90916F009D7F909380
:100C20006F00F3CF909170009D7F9093700091E0E2
:100C30009093B0009091B100987F94609093B10030
:100C40001092B300E2CF1F920F920FB60F921124B1
:100C50002F933F934F935F936F937F938F939F93C4
:100C6000AF93BF93EF93FF9380E691E00E947D01E5
:100C7000FF91EF91BF91AF919F918F917F916F9174
:100C80005F914F913F912F910F900FBE0F901F904A
:100C900018951F920F920FB60F9211242F938F93D6
:100CA0009F93EF93FF93E0917001F0917101808128
:100CB000E0917601F091770182FD1BC090818091D7
:100CC00079018F5F8F7320917A01821741F0E09153
:100CD0007901F0E0E05AFE4F958F80937901FF9102
:100CE000EF919F918F912F910F900FBE0F901F90BA
:100CF00018958081F4CF1F920F920FB60F92112496
:100D00000F900FBE0F901F9018951F920F920FB665
:100D10000F9211242F933F934F935F936F937F9381
:100D20008F939F93AF93BF93CF93DF93EF93FF93F3
:100D300080912601C0912701D0E087FF24C0109246
:100D4000850010928400809126018F5F8093260198
:100D500080912601082E000C990B8C179D0724F416
:100D6000809126018C30C4F180918400909185009F
:100D7000049680349C4908F47AC080918400909154
:100D80008500049676C080912601082E000C990BF0
:100D90008C179D07C4F6E09126018E2FEE0F990B5C
:100DA000FC01EE0FFF1FE80FF91FE85CFE4F80818A
:100DB00086FFC9CFE09126018E2FEE0F990BFC0123
:100DC000EE0FFF1FE80FF91FE85CFE4F808160E027
:100DD0008F730E94A700B7CF2091840030918500C7
:100DE000E09126018E2FEE0F990BFC01EE0FFF1FF5
:100DF000E80FF91FE85CFE4F81819281820F931FFB
:100E00009093890080938800E09126018E2FEE0F49
:100E1000990BFC01EE0FFF1FE80FF91FE85CFE4F76
:100E2000808186FF11C0E09126018E2FEE0F990B75
:100E3000FC01EE0FFF1FE80FF91FE85CFE4F8081F9
:100E400061E08F730E94A700FF91EF91DF91CF9136
:100E5000BF91AF919F918F917F916F915F914F91D2
:100E60003F912F910F900FBE0F901F90189580E427
:100E70009CE990938900809388008FEF80932601EE
:100E8000E3CFFC01909127019C3098F481E0890F19
:100E9000809327019083892F90E0FC01EE0FFF1FC4
:100EA000E80FF91FE85CFE4F88EB9BE0928381839B
:100EB00008958FEF80830895CF93DF93E0E6F1E00C
:100EC0001382128288EE93E0A0E0B0E084839583E1
:100ED000A683B7838DE091E09183808385EC90E0D9
:100EE0009587848784EC90E09787868780EC90E0F4
:100EF000918B808B81EC90E0938B828B82EC90E0E5
:100F0000958B848B86EC90E0978B868B118E128E5E
:100F1000138E148E83E092E00E944107C3E0D2E07A
:100F2000188A1F861AA619A682E392E00E9441073A
:100F30001FAE1EAE10925C0210925B0281E692E040
:100F40000E944107109271021092700210928B025F
:100F500010928A0280E992E00E9441071092A0025A
:100F600010929F021092BA021092B90280E092E0B1
:100F70000E9441078DEF91E0DF91CF910C944107E2
:100F8000CF93DF9300D0CDB7DEB7789484B582607D
:100F900084BD84B5816084BD85B5826085BD85B51D
:100FA000816085BD80916E00816080936E0010929B
:100FB0008100809181008260809381008091810016
:100FC00081608093810080918000816080938000A7
:100FD0008091B10084608093B1008091B000816005
:100FE0008093B00080917A00846080937A00809131
:100FF0007A00826080937A0080917A008160809389
:101000007A0080917A00806880937A001092C10003
:1010100082E090E090931F0380931E0383E090E0B2
:10102000909321038093200384E090E09093230326
:101030008093220385E090E090932503809324031E
:101040000E94EC031092480393E0E92E92E0F92EFF
:1010500010E000E0C8010E94D90890E081389105B5
:101060000CF09A95F701908B87870F5F1F4FFFE277
:10107000EF0EF11C0430110569F78DE090E09093BC
:101080002F0380932E030E948800809148038111D2
:1010900002C00E940C0466E070E080E092E00E94D2
:1010A000F20267E070E08DEF91E00E94F20286E0CC
:1010B00090E00E94D9088A35B1F484E090E00E9463
:1010C000D908082E000C990B90935D0180935C0168
:1010D00085E090E00E94D908082E000C990B9093AF
:1010E0005F0180935E010E944D038CEF9FEF909310
:1010F00013028093120206E010E010934202009364
:10110000410210927102109270028DEF9FEF909346
:10111000A00280939F026CEF90E080E00E94E108C3
:101120006091410281E090E00E94E10860917002CC
:1011300082E090E00E94E10860919F0283E090E0ED
:101140000E94E108109248030E940C0485E0E82EFA
:10115000F12CF0925D01E0925C0189EF9FEF90939A
:101160005F0180935E0184E090E09A83898365E06B
:10117000CE0101960E94400560915E01FA82E982EB
:10118000CE0101960E9440051A8309836AE5CE01CB
:1011900001960E9440050E944D0300E010E00115F9
:1011A0001105E9F30E9469018823C9F30E94000038
:1011B000F6CFF999FECF92BD81BDF89A992780B5F7
:1011C0000895262FF999FECF1FBA92BD81BD20BD8B
:1011D0000FB6F894FA9AF99A0FBE01960895052E63
:1011E00097FB1EF400940E94060957FD07D00E9449
:1011F000210907FC03D04EF40C9406095095409544
:10120000309521953F4F4F4F5F4F089590958095B2
:10121000709561957F4F8F4F9F4F08950E944309AE
:10122000A59F900DB49F900DA49F800D911D11243A
:101230000895B7FF0C940E090E940E09821B930BB0
:101240000895A1E21A2EAA1BBB1BFD010DC0AA1F07
:10125000BB1FEE1FFF1FA217B307E407F50720F01F
:10126000A21BB30BE40BF50B661F771F881F991F9A
:101270001A9469F760957095809590959B01AC01E3
:10128000BD01CF010895A29FB001B39FC001A39FEC
:10129000700D811D1124911DB29F700D811D1124AF
:1012A000911D08955058BB27AA270E946A090C94E3
:1012B000BB0A0E94AD0A38F00E94B40A20F039F44B
:1012C0009F3F19F426F40C94AA0A0EF4E095E7FB6C
:1012D0000C94A40AE92F0E94CC0A58F3BA176207AB
:1012E00073078407950720F079F4A6F50C94EE0AAD
:1012F0000EF4E0950B2EBA2FA02D0B01B901900131
:101300000C01CA01A0011124FF27591B99F0593F74
:1013100050F4503E68F11A16F040A22F232F342FBC
:101320004427585FF3CF469537952795A795F0400A
:101330005395C9F77EF41F16BA0B620B730B840B1F
:10134000BAF09150A1F0FF0FBB1F661F771F881FD7
:10135000C2F70EC0BA0F621F731F841F48F487952F
:1013600077956795B795F7959E3F08F0B0CF939521
:10137000880F08F09927EE0F9795879508950E949A
:10138000D3090C94BB0A0E94B40A58F00E94AD0A1B
:1013900040F029F45F3F29F00C94A40A51110C94F9
:1013A000EF0A0C94AA0A0E94CC0A68F39923B1F3BD
:1013B000552391F3951B550BBB27AA27621773077B
:1013C000840738F09F5F5F4F220F331F441FAA1F0F
:1013D000A9F335D00E2E3AF0E0E832D091505040CB
:1013E000E695001CCAF72BD0FE2F29D0660F771F79
:1013F000881FBB1F261737074807AB07B0E809F05F
:10140000BB0B802DBF01FF2793585F4F3AF09E3FE3
:10141000510578F00C94A40A0C94EF0A5F3FE4F3B2
:10142000983ED4F3869577956795B795F7959F5F26
:10143000C9F7880F911D9695879597F90895E1E072
:10144000660F771F881FBB1F621773078407BA07D1
:1014500020F0621B730B840BBA0BEE1F88F7E0952C
:1014600008950E94380A6894B1110C94EF0A089507
:101470000E94D40A88F09F5798F0B92F9927B75146
:10148000B0F0E1F0660F771F881F991F1AF0BA9528
:10149000C9F714C0B13091F00E94EE0AB1E008958E
:1014A0000C94EE0A672F782F8827B85F39F0B93F80
:1014B000CCF3869577956795B395D9F73EF49095DB
:1014C0008095709561957F4F8F4F9F4F0895E89459
:1014D00009C097FB3EF490958095709561957F4F7C
:1014E0008F4F9F4F9923A9F0F92F96E9BB2793952A
:1014F000F695879577956795B795F111F8CFFAF43A
:10150000BB0F11F460FF1BC06F5F7F4F8F4F9F4F6A
:1015100016C0882311F096E911C0772321F09EE8C8
:10152000872F762F05C0662371F096E8862F70E02E
:1015300060E02AF09A95660F771F881FDAF7880F08
:101540009695879597F9089597F99F6780E870E0D9
:1015500060E008959FEF80EC089500240A94161629
:10156000170618060906089500240A941216130691
:10157000140605060895092E0394000C11F488231F
:1015800052F0BB0F40F4BF2B11F460FF04C06F5F3B
:101590007F4F8F4F9F4F089557FD9058440F551F11
:1015A00059F05F3F71F04795880F97FB991F61F0E5
:1015B0009F3F79F087950895121613061406551F5C
:1015C000F2CF4695F1DF08C0161617061806991FC8
:1015D000F1CF86957105610508940895E894BB27BD
:1015E00066277727CB0197F90895991B79E004C006
:1015F000991F961708F0961B881F7A95C9F7809552
:10160000089597FB072E16F4009407D077FD09D0B4
:101610000E94150B07FC05D03EF4909581959F4FD5
:101620000895709561957F4F0895AA1BBB1B51E1EA
:1016300007C0AA1FBB1FA617B70710F0A61BB70B42
:10164000881F991F5A95A9F780959095BC01CD01E7
:101650000895EE0FFF1F0590F491E02D0994F89482
:02166000FFCFBA
:10166200FF5A005A005A005A00000000009F01FF72
:0C167200002C01EC015D013B014F010068
:00000001FF
