:100000000C94B0000C94D8000C94D8000C94330DD0
:100010000C94330D0C94330D0C94D8000C94590CA3
:100020000C94D8000C94D8000C94D8000C943D0D7E
:100030000C94D8000C94D8000C94D8000C94D800E0
:100040000C940F0C0C94D8000C94010D0C94DB0C48
:100050000C94D8000C94D8000C94D8000C94D800C0
:100060000C94D8000C94D80005A84CCDB2D44EB94D
:100070003836A9020C50B9918688083CA6AAAA2A4B
:10008000BE000000803F8C24490C0E4130041E420B
:10009000480C8C44480C82E049129CC0411E8CC420
:1000A00021041042081E8CC4480C8EE0480C00232A
:1000B00085000023FD0000E0FD008C14B6128C14B6
:1000C0004A0C00C300008091243F80D4B63F00203A
:1000D000B53F00F0030080582100028140204028F5
:1000E0003100C02F3100C0EC310000420901A1C431
:1000F00048210441480C10C2210480D486004018D5
:100100007A00000000002300260029000000000003
:10011000240027002A00000000080002010000035C
:100120000407000000000000000001020408102085
:100130004080010204081020010204081020000081
:100140000000250028002B00040404040404040417
:100150000202020202020303030303030200590E18
:1001600011241FBECFEFD8E0DEBFCDBF11E0A0E06D
:10017000B1E0EAEDFAE202C005900D92AC33B107AE
:10018000D9F723E0ACE3B1E001C01D92AF36B2076E
:10019000E1F710E0C0EBD0E004C02197FE010E941F
:1001A0006515CF3AD107C9F70E94BD0E0C946B15A7
:1001B0000C94000090E0FC01EA5EFE4F2491FC01EB
:1001C000E65DFE4F3491FC01E85BFE4FE491EE23C7
:1001D000C9F0222339F0233001F1A8F4213019F1BC
:1001E000223029F1F0E0EE0FFF1FE25CFE4FA591F7
:1001F000B4918FB7F894EC91611126C030953E23ED
:100200003C938FBF08952730A9F02830C9F02430DF
:1002100049F7809180008F7D03C0809180008F77A7
:1002200080938000DFCF84B58F7784BDDBCF84B52A
:100230008F7DFBCF8091B0008F778093B000D2CFBD
:100240008091B0008F7DF9CF3E2BDACFCF93DF9333
:1002500090E0FC01E65DFE4F2491885B9E4FFC011F
:1002600084918823D1F090E0880F991FFC01E45F0E
:10027000FE4FA591B491FC01E25CFE4FC591D49173
:1002800061110EC09FB7F8948C91E22FE0958E23F8
:100290008C932881E223E8839FBFDF91CF9108955B
:1002A0008FB7F894EC91E22BEC938FBFF6CF3FB76A
:1002B000F89480914D0190914E01A0914F01B09121
:1002C000500126B5A89B05C02F3F19F00196A11D2E
:1002D000B11D3FBFBA2FA92F982F8827BC01CD0190
:1002E000620F711D811D911D42E0660F771F881FEF
:1002F000991F4A95D1F708958F929F92AF92BF921E
:10030000CF92DF92EF92FF926B017C010E94570126
:100310004B015C01C114D104E104F104B9F00E9465
:100320005701681979098A099B09683E734081055C
:10033000910580F321E0C21AD108E108F10888EEA6
:10034000880E83E0981EA11CB11CE4CFFF90EF90B3
:10035000DF90CF90BF90AF909F908F9008954F9275
:100360005F926F927F928F929F92AF92BF92CF9245
:10037000DF92EF92FF920F931F93CF93DF93CDB74E
:10038000DEB729970FB6F894DEBF0FBECDBF2D8321
:100390003E834F8358870115110511F401E010E0E9
:1003A0000E944E1369837A838B839C8380915403CC
:1003B0009091550320910001281729F12F3F09F44E
:1003C0009DC06D817E818F8198850E947C01B801DE
:1003D000110F880B990B29960FB6F894DEBF0FBE4C
:1003E000CDBFDF91CF911F910F91FF90EF90DF90E4
:1003F000CF90BF90AF909F908F907F906F905F90C5
:100400004F900C947C01ECE5F1E02491298727FDC5
:10041000D8CF61E00E9426018985882321F0998543
:10042000923009F093C189819A814C01B12CA12CA1
:1004300060E072E18AE790E0A50194010E94001259
:1004400029013A017A01690191E0C91AD108E1084C
:10045000F1082FEFC216D104E104F10409F00CF405
:1004600043C160E472E48FE090E0A50194010E9432
:10047000001269017A0181E0C81AD108E108F10887
:100480009985923009F0B5C082E02FEFC216D104F1
:10049000E104F10409F00CF4F9C060E970ED83E0C7
:1004A00090E0A50194010E94001269017A0181E0A7
:1004B000C81AD108E108F10883E09FEFC916D104FA
:1004C000E104F10409F00CF4E1C068E478EE81E0A5
:1004D00090E0A50194010E94001269017A0181E077
:1004E000C81AD108E108F1089FEFC916D104E10448
:1004F000F10411F00CF0D1C084E0C8C08093000179
:10050000ECE5F1E0249129872F3F09F45ACF2130FF
:1005100041F150F0223009F446C0298527FD51CF22
:1005200061E00E9426017BCF14BC15BC24B522607B
:1005300024BD25B5216025BD9C013327F901E85B69
:10054000FE4FE491F0E0EE0FFF1FE25CFE4F45919D
:100550005491F901E65DFE4FE491E093790119862B
:1005600058CF109280001092810020918100286065
:1005700020938100209181002160209381009C01C3
:100580003327F901E85BFE4FE491F0E0EE0FFF1F27
:10059000E25CFE4F45915491F901E65DFE4FE49116
:1005A000E093780136CF1092B0001092B100209104
:1005B000B00022602093B0002091B1002160209310
:1005C000B1009C013327F901E85BFE4FE491F0E0B4
:1005D000EE0FFF1FE25CFE4F45915491509377015F
:1005E00040937601F901E65DFE4FE491E0937501D9
:1005F00010CF2FEFC216D104E104F10409F00CF47E
:10060000A3C068E478EE81E090E0A50194010E9427
:10061000001269017A0181E0C81AD108E108F108E5
:100620009985992309F403C12FEFC216D104E1047F
:10063000F10409F00CF460CF62E17AE780E090E029
:10064000A50194010E94001269017A0181E0C81A93
:10065000D108E108F1089985992309F4DFC086E003
:100660009FEFC916D104E104F10481F078F0730121
:1006700062012AE0F594E794D794C7942A95D1F7BC
:1006800081E0C81AD108E108F10887E09091B10033
:10069000987F892B8093B1002FC064E274EF80E0D3
:1006A00090E0A50194010E94001269017A0181E0A5
:1006B000C81AD108E108F10885E09FEFC916D104F6
:1006C000E104F10419F310F362E17AE780E090E0CD
:1006D000A50194010E94001269017A0191E0C91AF2
:1006E000D108E108F108BBCF81E029852111CECFE7
:1006F00095B5987F892B85BDA981BA81AA0FBB1FAB
:100700002D813E814F8158850E941F1228EE33E0D3
:1007100040E050E00E9432129985913009F44CC0BB
:10072000923009F45BC091114CCEC7BC209382017A
:1007300030938301409384015093850180916E0032
:10074000826080936E003DCE82E0CFCF89819A8116
:100750004C01B12CA12C60E072E18AE790E0A50188
:1007600094010E94001269017A0191E0C91AD1082E
:10077000E108F10891E0C114D10421E0E206F1049E
:1007800084F068E478EE81E090E0A50194010E9495
:10079000001269017A0181E0C81AD108E108F10864
:1007A00093E02985213009F0A7CF80918100887FCF
:1007B000892B80938100A0CFD0928900C0928800BD
:1007C00020937E0130937F014093800150938101FB
:1007D00080916F00826080936F00F3CDC092B30070
:1007E00020937A0130937B0140937C0150937D01EB
:1007F00080917000826080937000E3CD730162018C
:100800009AE0F594E794D794C7949A95D1F721E0AC
:10081000C21AD108E108F10885E06ACF8FEFC81647
:10082000D104E104F10409F048F784E061CF8FEFCF
:10083000C816D104E104F10411F00CF0FDCE83E000
:1008400057CF4F925F926F927F928F929F92AF920B
:10085000BF92CF92DF92EF92FF920F931F93CF93AD
:10086000DF93CDB7DEB728970FB6F894DEBF0FBE83
:10087000CDBF2B013C0129833A834B835C83ED82FE
:10088000FE820F8318870E9447138B0129813A81CA
:100890004B815C81C301B2010E94D01287FF25C049
:1008A000B801110F880B990B0E947F132B013C019B
:1008B000AC019B0169817A818B819C810E942F14FC
:1008C0001816C4F58401A6019501C301B2010E9466
:1008D000AF012D813E814F815885C301B2010E9435
:1008E00034140E9447138B01DBCFB801110F880B22
:1008F000990B0E947F132B013C01AC019B01698184
:100900007A818B819C810E94D01287FF13C0840161
:10091000A6019501C301B2010E94AF012D813E8164
:100920004F815885C301B2010E94D5120E9447131E
:100930008B01DBCF28960FB6F894DEBF0FBECDBF7C
:10094000DF91CF911F910F91FF90EF90DF90CF90AB
:10095000BF90AF909F908F907F906F905F904F90DF
:1009600008952FB7F8946091490170914A018091E0
:100970004B0190914C012FBF0895AF92BF92CF923F
:10098000DF92EF92FF920F931F93CF93DF936C014F
:100990007B018B01040F151FEB015E01AE18BF0830
:1009A000C017D10759F06991D601ED91FC910190E2
:1009B000F081E02DC6010995892B79F7C501DF91FA
:1009C000CF911F910F91FF90EF90DF90CF90BF904C
:1009D000AF900895FC01538D448D252F30E0842F76
:1009E00090E0821B930B541710F0CF960895019757
:1009F0000895FC01918D828D981761F0A28DAE0F44
:100A0000BF2FB11D5D968C91928D9F5F9F73928FCA
:100A100090E008958FEF9FEF0895FC01918D828DF6
:100A2000981731F0828DE80FF11D858D90E00895C3
:100A30008FEF9FEF0895FC01918D228D892F90E01B
:100A4000805C9F4F821B91098F739927089586E8D8
:100A500091E00E941B0521E0892B09F420E0822F00
:100A6000089580E090E0892B29F00E9427058111EC
:100A70000C9400000895FC01A48DA80FB92FB11D9E
:100A8000A35ABF4F2C91848D90E001968F739927C4
:100A9000848FA689B7892C93A089B1898C918370A2
:100AA00080648C93938D848D981306C00288F3899B
:100AB000E02D80818F7D80830895EF92FF920F93C8
:100AC0001F93CF93DF93EC0181E0888F9B8D8C8DFA
:100AD00098131AC0E889F989808185FF15C09FB7EE
:100AE000F894EE89FF896083E889F98980818370B1
:100AF000806480839FBF81E090E0DF91CF911F9160
:100B00000F91FF90EF900895F62E0B8D10E00F5F80
:100B10001F4F0F731127E02E8C8D8E110CC00FB656
:100B200007FCFACFE889F989808185FFF5CFCE01EE
:100B30000E943B05F1CFEB8DEC0FFD2FF11DE35A29
:100B4000FF4FF0829FB7F8940B8FEA89FB89808171
:100B50008062CFCFCF93DF93EC01888D8823B9F0EB
:100B6000AA89BB89E889F9898C9185FD03C08081B8
:100B700086FD0DC00FB607FCF7CF8C9185FFF2CF35
:100B8000808185FFEDCFCE010E943B05E9CFDF914B
:100B9000CF910895DC01EC918E2F90E0FC01EE0FD7
:100BA000FF1FE80FF91FEF5AFE4F808186FF02C03A
:100BB0008F7B80830895CF92DF92EF92FF92CF9345
:100BC000DF93EC01603282E07807CCF5653B71057C
:100BD00014F064EB70E0898128E830E0281B3109CB
:100BE00087FD3395220F331F220F331F6901330F07
:100BF000EE08FF088A8128E532E0281B310987FDCD
:100C00003395220F331F220F331F032E000C440B8A
:100C1000550B2C193D094E095F09DB0177FF02C016
:100C2000B0E0A0E00E942A1224EB30E040E050E067
:100C30000E940012C20ED31EE41EF51EB601E8810A
:100C4000EC3070F5298188E890E0821B910927FD3E
:100C50009395880F991F880F991F681779077CF063
:100C60002A8188E592E0821B910927FD9395880FE0
:100C7000991F880F991F681779070CF4CB01029709
:100C8000880F991F4FB7F8942E2F30E0F901EE0F1F
:100C9000FF1FE20FF31FEF5AFE4F928381834FBF76
:100CA000DF91CF91FF90EF90DF90CF900895CF929A
:100CB000DF92EF92FF920F931F93CF93DF93EC019C
:100CC0008B010E94B1046B017C0129A53AA5121683
:100CD00013060CF042C08BA59CA5A601481B590B1E
:100CE000429FC001439F900D529F900D112461E0DF
:100CF00070E0883E23E0920724F068EE73E00E94E3
:100D000051158D859E859801281B390B37FF03C02F
:100D100031952195310962177307FCF408171907FB
:100D20001CF4719561957109860F971F9E878D87B9
:100D3000CBA6DCA6EDA6FEA66D857E858F8598895F
:100D4000680F791FCE01DF91CF911F910F91FF9016
:100D5000EF90DF90CF900C94DB051E870D87E8CFD6
:100D60001F93CF93DF93EC01162F88818C3008F00E
:100D70004EC061E0812F0E9426018881282F30E03B
:100D8000F901EE0FFF1FE20FF31FEF5AFE4F1F7323
:100D90006081607C612B608319821A822CE0622F53
:100DA0000E943115829FB001112430E020E0AB0198
:100DB000420F531FFA01EE0FFF1FE40FF51FEF5A0A
:100DC000FE4F908196FD16C02F5F3F4F2C303105AE
:100DD00071F781110FC01092800082E08093810032
:100DE0001092850010928400B19A80916F00826009
:100DF00080936F00E8818E2F90E0FC01EE0FFF1FC3
:100E0000E80FF91FEF5AFE4F80818064808388814C
:100E1000DF91CF911F910895CF93DF93DC01EC9187
:100E20002E2F30E0F901EE0FFF1FE20FF31FEF5AF4
:100E3000FE4F208126FD3EC0EC010E94B0068AE5EF
:100E400090E09E878D876AE570E0CE010E94DB0509
:100E50000E94B1046BA77CA78DA79EA78EE190E0AE
:100E60009E8F8D8F80ED97E098878F8380E090E054
:100E7000A4E8B2E4898F9A8FAB8FBC8F8AE198EF98
:100E8000A2ECBDE38D8B9E8BAF8BB88F1F8E18A20B
:100E900019A21AA28DE290E09C838B83198A1A8A88
:100EA0001B8A1C8A19861A861B861C861E821D8236
:100EB0001FA218A6DF91CF9108956091440370910D
:100EC000450389E292E00E940C076091460370910D
:100ED000470388E592E00E940C07609148037091F7
:100EE000490387E892E00E940C0760914A037091E1
:100EF0004B0386EB92E00C940C07EF92FF920F935A
:100F00001F93CF93C82F8B0143E2E42E42E0F42ECF
:100F1000882321F036E2E32E32E0F32ED701EC9164
:100F20008E2F90E0FC01EE0FFF1FE80FF91FEF5A24
:100F3000FE4F808186FD07C067E0C11166E070E06A
:100F4000C7010E94B006E1E0CE27EC2FF0E0EE0FE3
:100F5000FF1FEC5BFE4F60817181600F711F653B6D
:100F6000710514F064EB70E077FF02C070E060E0A0
:100F7000C701CF911F910F91FF90EF900C94DB056B
:100F8000CF93DF93EB01BC0181E00E947D07BE019E
:100F900080E0DF91CF910C947D074F925F926F922A
:100FA0007F928F929F92AF92BF92CF92DF92EF92F9
:100FB000FF920F931F93CF93DF936A0127013801AC
:100FC0008B014C0159017B0188E0E80EF11CC9E25C
:100FD000D2E0F801819191918F019E838D83F4017C
:100FE000819191914F019C838B83D886CF826D8DA7
:100FF0007E8DC6010E943D1590E080E00E947D1329
:101000009B01AC01298F3A8F4B8F5C8F6BED7FE09A
:1010100089EC90E40E94D5126D8B7E8B8F8B988F1C
:10102000F50181919191A191B1915F0189879A8791
:10103000AB87BC87AF960E151F0559F60E94B10409
:101040000E947D134B015C01B601DD0C880B990BEE
:101050000E947F13A30192010E943414A501940100
:101060000E9464126B017C01A5019401C701B601C5
:101070000E942F1487FD89C0C9E2D2E00E94B1040A
:101080006BA37CA38DA39EA30F8D18A129A13AA1C8
:101090004B015C01801A910AA20AB30A0D8D1E8DC4
:1010A00030E020E0081519052A053B050CF05BC06F
:1010B0006F8F78A389A39AA38FA1811146C0298538
:1010C0003A854B855C8569897A898B899C890E94E0
:1010D00064120E94A1144B015C016B817C8190E041
:1010E00080E00E947D13A50194010E9434144B01FD
:1010F0005C016D817E81072E000C880B990B0E948C
:101100007F139B01AC01C501B4010E9464124B0125
:101110005C0120E030E0A9010E942F1420E030E0C3
:1011200040E05FE387FD2CC0C501B4010E9464125A
:101130000E94471388A5882319F07195619571095C
:10114000665A7F4FCE010E9457062D893E894F89EE
:10115000588D69897A898B899C890E946412698B70
:101160007A8B8B8B9C8BAF96F2E0C53EDF0709F044
:1011700085CF0E94B1040E947D134B015C0174CFA6
:10118000C501B4010E946312D3CFDF91CF911F91AB
:101190000F91FF90EF90DF90CF90BF90AF909F9016
:1011A0008F907F906F905F904F9008952F923F9215
:1011B0004F925F926F927F928F929F92AF92BF9267
:1011C000CF92DF92EF92FF920F931F93CF93DF9313
:1011D000CDB7DEB728970FB6F894DEBF0FBECDBFF0
:1011E0009A8389837C836B835E834D8319012701F6
:1011F00038010E945D0780916E03811110926E0389
:10120000C301B2010E9447134B016B01161617066A
:10121000BCF418861F82E12CF12C00E81FE3910139
:101220004D815E816B817C8189819A810E94CD078D
:101230008F819885019698878F83C816D90659F7AC
:10124000B401990C880B990B0E947F139B01AC0190
:10125000C301B2010E9463127B018C0191014D8197
:101260005E816B817C8189819A810E94CD0728965D
:101270000FB6F894DEBF0FBECDBFDF91CF911F91A7
:101280000F91FF90EF90DF90CF90BF90AF909F9025
:101290008F907F906F905F904F903F902F90089528
:1012A0008F929F92AF92BF92CF92DF92EF92FF9276
:1012B0000F931F93CF93DF93CDB7DEB7A0970FB6F1
:1012C000F894DEBF0FBECDBF4B015C0188E0E1E0CA
:1012D000F1E0DE01599601900D928A95E1F788E0E0
:1012E000E9E0F1E0DE01519601900D928A95E1F777
:1012F000CE0101966C0188E0F60111928A95E9F71A
:1013000026EA2403B001259F700D1124072E000C3E
:10131000880B990B0E947F132BED3FE049E450E4CA
:101320000E94341420E030E044E353E40E94D512DC
:1013300069877A878B879C876D877E878F87988B55
:1013400085017401960148EE53E0BE016F5E7F4F48
:10135000CE0149960E94D608A0960FB6F894DEBF3B
:101360000FBECDBFDF91CF911F910F91FF90EF90F6
:10137000DF90CF90BF90AF909F908F9008958F9205
:101380009F92AF92BF92CF92DF92EF92FF920F9314
:101390001F93CF93DF93CDB7DEB728970FB6F8949E
:1013A000DEBF0FBECDBF88E0E1E1F1E0DE011196C6
:1013B00001900D928A95E1F70E945D0780916E037E
:1013C000811110926E030E94B1046C507E4F8F4FBA
:1013D0009F4F6093560370935703809358039093E5
:1013E00059038E010F5F1F4F5E0189E0A80EB11CEB
:1013F0009EE5C92E93E0D92E29E2E22E22E0F22EBC
:10140000F801619171918F01F70185859685681BBF
:10141000790B072E000C880B990B0E947F1320E09C
:1014200030E048E452E40E94D512F60161937193D2
:10143000819391936F01FFE2EF0EF11CA016B106AC
:10144000F9F60E94B10400915603109157032091C0
:10145000580330915903601771078207930708F00A
:1014600075C00E94B104665F7F4F8F4F9F4F60939E
:101470005A0370935B0380935C0390935D038EE546
:10148000E82E83E0F82E09E212E0F70181909190B6
:10149000A190B1907F01F80165857685072E000C3B
:1014A000880B990B0E947F13A50194010E9464127E
:1014B0000E944713C8010E945706015D1F4FF2E0CA
:1014C000053E1F0711F70E94B10400915A031091C5
:1014D0005B0320915C0330915D0360177107820705
:1014E000930788F3AECF89E292E00E9457066B81A2
:1014F0007C8188E592E00E9457066D817E8187E8B5
:1015000092E00E9457066F81788586EB92E00E94F8
:1015100057060E94B104665F7F4F8F4F9F4F6093C5
:101520005A0370935B0380935C0390935D030E9466
:10153000B10400915A0310915B0320915C03309138
:101540005D03601771078207930788F369817A81C9
:1015500080913602909137026817790721F62B8126
:101560003C8180916502909166022817390709F045
:10157000BACF2D813E8180919402909195022817D7
:10158000390709F0B0CF2F8138858091C30290913F
:10159000C4022817390709F0A6CF89E292E00E9419
:1015A000CA0588E592E00E94CA0587E892E00E9499
:1015B000CA0586EB92E00E94CA0581E080936E0323
:1015C00028960FB6F894DEBF0FBECDBFDF91CF9146
:1015D0001F910F91FF90EF90DF90CF90BF90AF9051
:1015E0009F908F9008950F931F93CF93DF93082FB1
:1015F000162FD42FC8E06D2F661F6627661F802F19
:101600000E94DA00DD0F61E0812F0E94DA0060E0C5
:10161000812F0E94DA00C15071F7DF91CF911F91A5
:101620000F910895FF920F931F93CF93DF93F82E9E
:10163000C82FD0E0CB51DD4F2C8181E090E0A0E0BD
:10164000B0E004C0880F991FAA1FBB1F6A95D2F78C
:10165000442329F1822B8C8360E08091E6020E9472
:10166000DA0010E000E0F39424968091E8028017FD
:101670001106E9F0E4F06091E7028091E5020115BE
:10168000110581F44F2D0E94F30A48816091E70211
:101690008091E5020E94F30A0F5F1F4FE6CF80950D
:1016A0008223D9CF40E00E94F30A40E0EFCF60E010
:1016B0008091E6020E94DA0061E08091E602DF910B
:1016C000CF911F910F91FF900C94DA00AF92BF92CF
:1016D000CF92DF92EF92FF920F931F93CF93DF93FE
:1016E0006B017C0180914103909142030197F1F4D9
:1016F000C7E010E000E05801D6E0B701A6010A2CCF
:1017000004C076956795579547950A94D2F741702E
:101710006C2F8D2F0E94120B8FEFA81AB80AD15090
:1017200061F70A5F1F4FC150C23029F78091410312
:10173000909142030297F9F4C0E010E000E05801F4
:10174000D1E0B701A6010A2C04C07695679557959C
:1017500047950A94D2F741706C2F8D2F0E94120B7F
:101760008FEFA81AB80ADF5FD73059F70A5F1F4F0B
:10177000CF5FC53021F780914103909142030397D9
:10178000F1F4C0E010E000E05801D6E0B701A60196
:101790000A2C04C076956795579547950A94D2F719
:1017A00041706D2F8C2F0E94120B8FEFA81AB80A70
:1017B000D15061F70A5F1F4FCF5FC53029F7809185
:1017C0004103909142030497F9F4C7E010E000E070
:1017D0005801D1E0B701A6010A2C04C0769567959F
:1017E000579547950A94D2F741706D2F8C2F0E9420
:1017F000120B8FEFA81AB80ADF5FD73059F70A5FCC
:101800001F4FC150C23021F7DF91CF911F910F912F
:10181000FF90EF90DF90CF90BF90AF9008951F9210
:101820000F920FB60F9211242F933F938F939F9394
:10183000AF93BF938091490190914A01A0914B01D0
:10184000B0914C013091480123E0230F2D3758F51A
:101850000196A11DB11D20934801809349019093E9
:101860004A01A0934B01B0934C0180914D0190919E
:101870004E01A0914F01B09150010196A11DB11DE3
:1018800080934D0190934E01A0934F01B09350016E
:10189000BF91AF919F918F913F912F910F900FBE6C
:1018A0000F901F90189526E8230F0296A11DB11DD9
:1018B000D2CF1F920F920FB60F9211242F933F9306
:1018C0004F935F936F937F938F939F93AF93BF9348
:1018D000EF93FF9380917A0190917B01A0917C011D
:1018E000B0917D01892B8A2B8B2BD1F190917501C1
:1018F000E0917601F0917701808189278083809142
:101900007A0190917B01A0917C01B0917D01181624
:1019100019061A061B069CF480917A0190917B01AE
:10192000A0917C01B0917D010197A109B10980933B
:101930007A0190937B01A0937C01B0937D01FF918C
:10194000EF91BF91AF919F918F917F916F915F9137
:101950004F913F912F910F900FBE0F901F901895B0
:1019600080910001ECE5F1E0E4919FEF909300019C
:10197000E13051F030F0E23069F060E00E94DA00CE
:10198000DECF10926E00F9CF90916F009D7F909303
:101990006F00F3CF909170009D7F9093700091E065
:1019A0009093B0009091B100987F94609093B100B3
:1019B0001092B300E2CF1F920F920FB60F92112434
:1019C0002F933F934F935F936F937F938F939F9347
:1019D000AF93BF93EF93FF9386E891E00E943B059E
:1019E000FF91EF91BF91AF919F918F917F916F91F7
:1019F0005F914F913F912F910F900FBE0F901F90CD
:101A000018951F920F920FB60F9211242F938F9358
:101A10009F93EF93FF93E0919601F091970180815E
:101A2000E0919C01F0919D0182FD1BC0908180910D
:101A30009F018F5F8F732091A001821741F0E09189
:101A40009F01F0E0EA57FE4F958F80939F01FF9131
:101A5000EF919F918F912F910F900FBE0F901F903C
:101A600018958081F4CF1F920F920FB60F92112418
:101A70000F900FBE0F901F9018951F920F920FB6E8
:101A80000F9211242F933F934F935F936F937F9304
:101A90008F939F93AF93BF93CF93DF93EF93FF9376
:101AA00080913C01C0913D01D0E087FF24C010929D
:101AB00085001092840080913C018F5F80933C01EF
:101AC00080913C01082E000C990B8C179D0724F483
:101AD00080913C018C30C4F180918400909185000C
:101AE000049680349C4908F47AC0809184009091D7
:101AF0008500049676C080913C01082E000C990B5D
:101B00008C179D07C4F6E0913C018E2FEE0F990BC8
:101B1000FC01EE0FFF1FE80FF91FEF5AFE4F808107
:101B200086FFC9CFE0913C018E2FEE0F990BFC018F
:101B3000EE0FFF1FE80FF91FEF5AFE4F808160E0A4
:101B40008F730E94DA00B7CF209184003091850016
:101B5000E0913C018E2FEE0F990BFC01EE0FFF1F61
:101B6000E80FF91FEF5AFE4F81819281820F931F78
:101B70009093890080938800E0913C018E2FEE0FB6
:101B8000990BFC01EE0FFF1FE80FF91FEF5AFE4FF4
:101B9000808186FF11C0E0913C018E2FEE0F990BE2
:101BA000FC01EE0FFF1FE80FF91FEF5AFE4F808177
:101BB00061E08F730E94DA00FF91EF91DF91CF9186
:101BC000BF91AF919F918F917F916F915F914F9155
:101BD0003F912F910F900FBE0F901F90189580E4AA
:101BE0009CE990938900809388008FEF80933C015B
:101BF000E3CFCF92DF92EF92FF920F931F93E82FE4
:101C0000F92F05C0015011092109310961F19081B5
:101C100096239417B9F305C0015011092109310920
:101C200011F1908196239413F7CFC12CD12CE12C84
:101C3000F12C0AC08FEFC81AD80AE80AF80A0C1566
:101C40001D052E053F0579F080818623841791F3C9
:101C50006C2D7D2D8E2D9F2D1F910F91FF90EF905C
:101C6000DF90CF90089560E070E080E090E01F91F9
:101C70000F91FF90EF90DF90CF900895FC0190912D
:101C80003D019C3098F481E0890F80933D01908361
:101C9000892F90E0FC01EE0FFF1FE80FF91FEF5AAC
:101CA000FE4F88EB9BE09283818308958FEF8083C2
:101CB0000895CF93DF93E6E8F1E01382128288EE75
:101CC00093E0A0E0B0E084839583A683B7838DE2A0
:101CD00091E09183808385EC90E09587848784EC04
:101CE00090E09787868780EC90E0918B808B81ECE9
:101CF00090E0938B828B82EC90E0958B848B86ECCA
:101D000090E0978B868B118E128E138E148E89E243
:101D100092E00E943E0EC9E2D2E0188A1F861AA6FF
:101D200019A688E592E00E943E0E1FAE1EAE1092EC
:101D300082021092810287E892E00E943E0E109289
:101D40009702109296021092B1021092B00286EBA6
:101D500092E00E943E0E1092C6021092C5021092AE
:101D6000E0021092DF0286E292E00E943E0E83E2E1
:101D700092E0DF91CF910C943E0ECF93DF93CDB7DD
:101D8000DEB7A0970FB6F894DEBF0FBECDBF789434
:101D900084B5826084BD84B5816084BD85B5826070
:101DA00085BD85B5816085BD80916E008160809321
:101DB0006E0010928100809181008260809381008A
:101DC000809181008160809381008091800081609A
:101DD000809380008091B10084608093B1008091F5
:101DE000B00081608093B00080917A00846080931D
:101DF0007A0080917A00826080937A0080917A00E4
:101E0000816080937A0080917A00806880937A0064
:101E10001092C10082E090E09093450380934403C8
:101E200083E090E0909347038093460384E090E042
:101E3000909349038093480385E090E090934B038F
:101E400080934A030E945D0710926E0309E212E03C
:101E5000712C612CC3010E94F81190E0813891052A
:101E60000CF09A95F801908B8787FFEF6F1A7F0A25
:101E7000015D1F4F84E06816710461F78DE090E00A
:101E8000909355038093540361E00E942601809152
:101E90006E03811102C00E94BF0966E070E086E215
:101EA00092E00E94B00667E070E083E292E00E9458
:101EB000B00686E090E00E94F8118A35B1F484E023
:101EC00090E00E94F811082E000C990B90934501A8
:101ED0008093440185E090E00E94F811082E000CE8
:101EE000990B90934701809346016AE570E08AE57B
:101EF00090E00E94C00761E088E00E94260160E057
:101F000089E00E9426010EE110E022E330E040E08B
:101F100050E064EA70ED84E294E40E94AF0109E1CC
:101F200010E027E330E040E050E062E570ED84EA45
:101F300094E40E94AF010AE010E02CE330E040E0BE
:101F400050E060E070E08CED94E40E94AF0103E0AB
:101F500010E060EA70E081E00E947D076AEF70E0C7
:101F600080E090E00E947C0168E770E081E00E94E0
:101F70007D076AEF70E080E090E00E947C010150F4
:101F8000110939F76AE570E081E00E947D07198E3A
:101F90001A8E1B8E1C8E6FE0462E512C5E8E4D8E3F
:101FA00058A24F8E198A1A8A1B8A1C8A89E090E0EF
:101FB0009E8B8D8B87EF9FEF988F8F8BFE013196D5
:101FC0003F0188E011928A95E9F78BED9FE0A9EC3B
:101FD000BFEB89879A87AB87BC8787E39DE8A7E239
:101FE000B0EC8D879E87AF87B88BE12CF12C00E099
:101FF00010E4930148EE53E0BE016F5E7F4FCE01C7
:1020000049960E94D60889E190E09A8F898F9C8F2B
:102010008B8F5E8E4D8E58A24F8E198A1A8A1B8A1C
:102020001C8A8BE090E09E8B8D8B85EF9FEF988FC5
:102030008F8B19861A861B861C8680E090E0A4EBA5
:10204000B2E489839A83AB83BC838D839E83AF8301
:10205000B88782E99AE0A6E8BFEB8D879E87AF87B5
:10206000B88B930148EE53E0BE016F5E7F4FCE0107
:1020700049960E94D60803E010E06EE170E086E920
:1020800090E00E94C0076AEF70E080E090E00E945C
:102090007C0166E470E08EE690E00E94C0076AEF83
:1020A00070E080E090E00E947C010150110929F766
:1020B0006AE570E08AE590E00E94C0070EE110E05A
:1020C00022E330E040E050E064EA70ED84E294E422
:1020D0000E94AF0144E050E06EEA70E080E491E0DD
:1020E0000E94EF1160914001709141018091420185
:1020F000909143010E94660BA8E08A2E912CBFE0CC
:10210000AB2EB12CC12CD12C16E6E12EFE2C06E80C
:102110001FE320E030E04AEF54E460E070E88BEB2E
:1021200094E40E94210464E670E080E090E00E9464
:102130007C019AE0A92EB12CC12CD12C20E030E4F6
:102140004CE155E460E070E88DEE94E40E942104D7
:10215000198E1A8E1B8E1C8E84E190E09E8F8D8FBF
:1021600098A38F8F198A1A8A1B8A1C8A8AE090E0AA
:102170009E8B8D8B86EF9FEF988F8F8B80E1F30185
:1021800011928A95E9F7E12CF12C00E81FE3930105
:1021900040E253E0BE016F5E7F4FCE0149960E9440
:1021A000D6083FE0A32EB12CC12CD12C16E6E12E8F
:1021B000FE2C06E81FE320E030E04AEF54E460E044
:1021C00070E88BEB94E40E94210464E670E080E008
:1021D00090E00E947C015AE0A52EB12CC12CD12C9C
:1021E00020E030E44CE155E460E070E88DEE94E4EA
:1021F0000E94210480916E03811102C00E94BF09D8
:1022000044E050E062EB70E080E491E00E94EF1166
:102210006091400170914101809142019091430190
:102220000E94660BE0E02E2EE0E03E2EFAE04F2EFC
:10223000512C60E088E00E94DA0083E090E0019792
:10224000F1F761E088E00E94DA0083E290E0019714
:10225000F1F760E088E00E94DA00E3E3F1E06491E6
:10226000E1E5F1E08491E82FF0E0EE0FFF1FEE5F73
:10227000FE4F8591949100E315E720E030E0462F72
:102280000E94F90D611571058105910509F49EC043
:102290006F5F7F4F8F4F9F4F9F7061157105810555
:1022A000910509F493C00E947D1320E030E048E6D8
:1022B00052E40E94D51220E030E040E751E40E9451
:1022C000D01287FF83C088248394912C9AE0A92E92
:1022D000B12CC12CD12C1CE5E12E1FE8F12E02E817
:1022E0001FE320E030E646E055E460E070E088E47B
:1022F00094E40E94210437E0A32EB12CC12CD12CF0
:102300001AE0E12E17EDF12E03E81FE320E030E0A4
:1023100048E454E460E070E586E095E40E9421041E
:1023200064E170E080EA90E00E94C0076CE271E036
:1023300080E090E00E947C014FEF5FEF60E070E092
:1023400080E090E40E94500988E0E1E0F1E0DE01E5
:10235000599601900D928A95E1F788E0E9E0F1E065
:10236000DE01519601900D928A95E1F780E1E9E155
:10237000F1E0D30101900D928A95E1F75C8E4B8ECE
:10238000E12CF12C00E410E4930140ED57E0BE0194
:102390006F5E7F4FCE0149960E94D6086AE570E0D5
:1023A0008AE590E00E94C0076CE271E080E090E076
:1023B0000E947C012114310409F43BCF0E942705BF
:1023C000882309F436CF0E94000033CF41E050E06B
:1023D00060E070E080E89FE30E945009EBCFFB01D2
:1023E000DC0102C005900D9241505040D8F708958D
:1023F000F999FECF92BD81BDF89A992780B50895CD
:10240000052E97FB1EF400940E94171257FD07D06B
:102410000E94321207FC03D04EF40C941712509510
:102420004095309521953F4F4F4F5F4F08959095C0
:102430008095709561957F4F8F4F9F4F08950E94B3
:102440005412A59F900DB49F900DA49F800D911DD7
:1024500011240895B7FF0C941F120E941F12821BB3
:10246000930B0895A1E21A2EAA1BBB1BFD010DC000
:10247000AA1FBB1FEE1FFF1FA217B307E407F50734
:1024800020F0A21BB30BE40BF50B661F771F881F10
:10249000991F1A9469F760957095809590959B01A6
:1024A000AC01BD01CF010895A29FB001B39FC0014F
:1024B000A39F700D811D1124911DB29F700D811D70
:1024C0001124911D08955058BB27AA270E947B1202
:1024D0000C94F5130E94E71338F00E94EE1320F0DD
:1024E00039F49F3F19F426F40C94E4130EF4E095AC
:1024F000E7FB0C94DE13E92F0E94061458F3BA1779
:10250000620773078407950720F079F4A6F50C9409
:1025100028140EF4E0950B2EBA2FA02D0B01B90153
:1025200090010C01CA01A0011124FF27591B99F049
:10253000593F50F4503E68F11A16F040A22F232F55
:10254000342F4427585FF3CF469537952795A795A5
:10255000F0405395C9F77EF41F16BA0B620B730B4C
:10256000840BBAF09150A1F0FF0FBB1F661F771FBD
:10257000881FC2F70EC0BA0F621F731F841F48F472
:10258000879577956795B795F7959E3F08F0B0CFFB
:102590009395880F08F09927EE0F979587950895E2
:1025A0000E94BA1308F481E008950E94E9120C9485
:1025B000F5130E94EE1358F00E94E71340F029F43F
:1025C0005F3F29F00C94DE1351110C9429140C94E4
:1025D000E4130E94061468F39923B1F3552391F391
:1025E000951B550BBB27AA2762177307840738F082
:1025F0009F5F5F4F220F331F441FAA1FA9F335D0DF
:102600000E2E3AF0E0E832D091505040E695001C92
:10261000CAF72BD0FE2F29D0660F771F881FBB1F4C
:10262000261737074807AB07B0E809F0BB0B802D2A
:10263000BF01FF2793585F4F3AF09E3F510578F056
:102640000C94DE130C9429145F3FE4F3983ED4F30A
:10265000869577956795B795F7959F5FC9F7880F2A
:10266000911D9695879597F90895E1E0660F771F7C
:10267000881FBB1F621773078407BA0720F0621B0D
:10268000730B840BBA0BEE1F88F7E09508950E9438
:102690004E136894B1110C94291408950E940E14DD
:1026A00088F09F5798F0B92F9927B751B0F0E1F013
:1026B000660F771F881F991F1AF0BA95C9F714C0C3
:1026C000B13091F00E942814B1E008950C942814C0
:1026D000672F782F8827B85F39F0B93FCCF38695FC
:1026E00077956795B395D9F73EF490958095709559
:1026F00061957F4F8F4F9F4F0895E89409C097FBD6
:102700003EF490958095709561957F4F8F4F9F4FC8
:102710009923A9F0F92F96E9BB279395F69587950C
:1027200077956795B795F111F8CFFAF4BB0F11F4CF
:1027300060FF1BC06F5F7F4F8F4F9F4F16C0882376
:1027400011F096E911C0772321F09EE8872F762FAC
:1027500005C0662371F096E8862F70E060E02AF0ED
:102760009A95660F771F881FDAF7880F96958795D9
:1027700097F90895990F0008550FAA0BE0E8FEEFAE
:1027800016161706E807F907C0F012161306E40735
:10279000F50798F0621B730B840B950B39F40A262E
:1027A00061F0232B242B252B21F408950A2609F40C
:1027B000A140A6958FEF811D811D089597F99F6710
:1027C00080E870E060E008959FEF80EC08950024B9
:1027D0000A941616170618060906089500240A9486
:1027E00012161306140605060895092E0394000C0C
:1027F00011F4882352F0BB0F40F4BF2B11F460FF9B
:1028000004C06F5F7F4F8F4F9F4F089557FD9058C3
:10281000440F551F59F05F3F71F04795880F97FBA4
:10282000991F61F09F3F79F087950895121613065E
:102830001406551FF2CF4695F1DF08C0161617068D
:102840001806991FF1CF86957105610508940895C2
:10285000E894BB2766277727CB0197F908950E9454
:10286000BA1308F48FEF08950E9447140C94F513DF
:102870000E94E71338F00E94EE1320F0952311F028
:102880000C94DE130C94E41311240C9429140E946C
:10289000061470F3959FC1F3950F50E0551F629F8A
:1028A000F001729FBB27F00DB11D639FAA27F00DA9
:1028B000B11DAA1F649F6627B00DA11D661F829FD0
:1028C0002227B00DA11D621F739FB00DA11D621FB5
:1028D000839FA00D611D221F749F3327A00D611DD2
:1028E000231F849F600D211D822F762F6A2F1124B4
:1028F0009F5750409AF0F1F088234AF0EE0FFF1FE7
:10290000BB1F661F771F881F91505040A9F79E3F3D
:10291000510580F00C94DE130C9429145F3FE4F30E
:10292000983ED4F3869577956795B795F795E79593
:102930009F5FC1F7FE2B880F911D9695879597F99C
:1029400008959F930E94AB140F9007FCEE5F0C94C8
:10295000D4140C94E4130E940E14D8F3E894E0E02D
:10296000BB279F57F0F02AED3FE049EC06C0EE0F81
:10297000BB0F661F771F881F28F0B23A62077307E4
:10298000840728F0B25A620B730B840BE3959A9577
:1029900072F7803830F49A95BB0F661F771F881F37
:1029A000D2F790480C94EA14EF93E0FF07C0A2EA34
:1029B0002AED3FE049EC5FEB0E947B120E94F51389
:1029C0000F90039401FC9058E8E6F0E00C94F614A4
:1029D0009F3F31F0915020F4879577956795B79593
:1029E000880F911D9695879597F908959F938F93DA
:1029F0007F936F93FF93EF939B01AC010E9434147C
:102A0000EF91FF910E940A152F913F914F915F9195
:102A10000C943414DF93CF931F930F93FF92EF9294
:102A2000DF927B018C01689406C0DA2EEF010E94D0
:102A30004714FE01E894A591259135914591559152
:102A4000A6F3EF010E947B12FE019701A801DA9420
:102A500069F7DF90EF90FF900F911F91CF91DF9179
:102A60000895991B79E004C0991F961708F0961BEA
:102A7000881F7A95C9F780950895AA1BBB1B51E161
:102A800007C0AA1FBB1FA617B70710F0A61BB70BDE
:102A9000881F991F5A95A9F780959095BC01CD0183
:102AA000089597FB072E16F4009407D077FD09D000
:102AB0000E943D1507FC05D03EF4909581959F4FEF
:102AC0000895709561957F4F0895EE0FFF1F059053
:0A2AD000F491E02D0994F894FFCF73
:102ADA00FF1E001E0014001400000000000400FC89
:102AEA00FF5A005A005A005A000000000000000075
:102AFA0000DB0FC9BFDB0FC9BF000000005D05BDC9
:0C2B0A0004EA04AA051B05F9040D0500EF
:00000001FF
