:100000000C946D000C9495000C9495000C94E307EF
:100010000C94E3070C94E3070C9495000C940B07E5
:100020000C9495000C9495000C9495000C94ED079D
:100030000C9495000C9495000C9495000C949500EC
:100040000C94C1060C9495000C94B1070C948B078A
:100050000C9495000C9495000C9495000C949500CC
:100060000C9495000C94950005A84CCDB2D44EB9D3
:100070003836A9020C50B9918688083CA6AAAA2A4B
:10008000BE000000803F02000000080002010000E6
:10009000030407000000000000000000000000252D
:1000A0000028002B0000000000240027002A000484
:1000B000040404040404040202020202020303030F
:1000C0000303030102040810204080010204081009
:1000D0002001020408102000C40811241FBECFEF25
:1000E000D8E0DEBFCDBF11E0A0E0B1E0E4E8FCE184
:1000F00002C005900D92AC32B107D9F723E0ACE213
:10010000B1E001C01D92A935B207E1F710E0CDE6DC
:10011000D0E004C02197FE010E943A0ECC36D107F0
:10012000C9F70E9428090C94400E0C94000090E03E
:10013000FC01ED53FF4F249181559F4FFC018491A9
:10014000882399F090E0880F991FFC01EB55FF4F31
:10015000A591B491FC01E556FF4F859194918FB71D
:10016000F894EC91E22BEC938FBF089590E0FC01A2
:10017000E957FF4F2491FC01ED53FF4F3491FC01EF
:10018000E155FF4FE491EE23C9F0222339F02330EB
:1001900001F1A8F4213019F1223029F1F0E0EE0F3D
:1001A000FF1FE556FF4FA591B4918FB7F894EC91DE
:1001B000611126C030953E233C938FBF08952730B0
:1001C000A9F02830C9F0243049F7809180008F7D54
:1001D00003C0809180008F7780938000DFCF84B54B
:1001E0008F7784BDDBCF84B58F7DFBCF8091B0004E
:1001F0008F778093B000D2CF8091B0008F7DF9CF00
:100200003E2BDACF3FB7F894809148019091490195
:10021000A0914A01B0914B0126B5A89B05C02F3F84
:1002200019F00196A11DB11D3FBFBA2FA92F982F1C
:100230008827BC01CD01620F711D811D911D42E017
:10024000660F771F881F991F4A95D1F708958F92DF
:100250009F92AF92BF92CF92DF92EF92FF920E9455
:1002600002014B015C018AEFC82ED12CE12CF12C4C
:100270000E940201681979098A099B09683E734046
:1002800081059105A8F321E0C21AD108E108F1081F
:1002900088EE880E83E0981EA11CB11CC114D10405
:1002A000E104F10429F7FF90EF90DF90CF90BF9029
:1002B000AF909F908F9008952FB7F894609144016C
:1002C0007091450180914601909147012FBF08959B
:1002D000AF92BF92CF92DF92EF92FF920F931F9354
:1002E000CF93DF936C017B018B01040F151FEB0192
:1002F0005E01AE18BF08C017D10759F06991D60149
:10030000ED91FC910190F081E02DC6010995892BBA
:1003100079F7C501DF91CF911F910F91FF90EF9079
:10032000DF90CF90BF90AF900895FC01538D448D26
:10033000252F30E0842F90E0821B930B541710F090
:10034000CF96089501970895FC01918D828D98179D
:1003500061F0A28DAE0FBF2FB11D5D968C91928D75
:100360009F5F9F73928F90E008958FEF9FEF0895A6
:10037000FC01918D828D981731F0828DE80FF11D6F
:10038000858D90E008958FEF9FEF0895FC01918D8A
:10039000228D892F90E0805C9F4F821B91098F7383
:1003A0009927089580E791E00E94C60121E0892BFA
:1003B00009F420E0822F089580E090E0892B29F055
:1003C0000E94D20181110C9400000895FC01A48DBB
:1003D000A80FB92FB11DA35ABF4F2C91848D90E067
:1003E00001968F739927848FA689B7892C93A0894A
:1003F000B1898C91837080648C93938D848D9813D4
:1004000006C00288F389E02D80818F7D8083089566
:10041000EF92FF920F931F93CF93DF93EC0181E054
:10042000888F9B8D8C8D98131AC0E889F9898081FB
:1004300085FF15C09FB7F894EE89FF896083E8892E
:10044000F98980818370806480839FBF81E090E020
:10045000DF91CF911F910F91FF90EF900895F62EAD
:100460000B8D10E00F5F1F4F0F731127E02E8C8D47
:100470008E110CC00FB607FCFACFE889F98980818C
:1004800085FFF5CFCE010E94E601F1CFEB8DEC0F99
:10049000FD2FF11DE35AFF4FF0829FB7F8940B8FA9
:1004A000EA89FB8980818062CFCFCF93DF93EC0113
:1004B000888D8823B9F0AA89BB89E889F9898C914C
:1004C00085FD03C0808186FD0DC00FB607FCF7CF08
:1004D0008C9185FFF2CF808185FFEDCFCE010E9408
:1004E000E601E9CFDF91CF910895DC01EC918E2FE9
:1004F00090E0FC01EE0FFF1FE80FF91FE45BFE4FD9
:10050000808186FF02C08F7B80830895CF92DF9227
:10051000EF92FF92CF93DF93EC01603282E0780795
:10052000CCF5653B710514F064EB70E0898128E837
:1005300030E0281B310987FD3395220F331F220F2E
:10054000331F6901330FEE08FF088A8128E532E086
:10055000281B310987FD3395220F331F220F331FCC
:10056000032E000C440B550B2C193D094E095F0955
:10057000DB0177FF02C0B0E0A0E00E94040B24EB97
:1005800030E040E050E00E94DA0AC20ED31EE41EC2
:10059000F51EB601E881EC3070F5298188E890E01D
:1005A000821B910927FD9395880F991F880F991F2A
:1005B000681779077CF02A8188E592E0821B91090F
:1005C00027FD9395880F991F880F991F6817790742
:1005D0000CF4CB010297880F991F4FB7F8942E2F78
:1005E00030E0F901EE0FFF1FE20FF31FE45BFE4F57
:1005F000928381834FBFDF91CF91FF90EF90DF9087
:10060000CF900895CF92DF92EF92FF920F931F93B6
:10061000CF93DF93EC018B010E945C016B017C01A5
:1006200029A53AA5121613060CF042C08BA59CA56D
:10063000A601481B590B429FC001439F900D529F3A
:10064000900D112461E070E0883E23E0920724F0D1
:1006500068EE73E00E94260E8D859E859801281B0A
:10066000390B37FF03C031952195310962177307A4
:10067000FCF4081719071CF4719561957109860F30
:10068000971F9E878D87CBA6DCA6EDA6FEA66D855F
:100690007E858F859889680F791FCE01DF91CF9174
:1006A0001F910F91FF90EF90DF90CF900C948602F6
:1006B0001E870D87E8CF1F93CF93DF93EC01162F92
:1006C00088818C3008F04DC0862F0E949700888169
:1006D000282F30E0F901EE0FFF1FE20FF31FE45B5C
:1006E000FE4F1F736081607C612B608319821A82C8
:1006F0002CE0622F0E94060E829FB001112430E090
:1007000020E0AB01420F531FFA01EE0FFF1FE40F71
:10071000F51FE45BFE4F908196FD16C02F5F3F4FA3
:100720002C30310571F781110FC01092800082E0EA
:10073000809381001092850010928400B19A80917C
:100740006F00826080936F00E8818E2F90E0FC0143
:10075000EE0FFF1FE80FF91FE45BFE4F80818064FE
:1007600080838881DF91CF911F910895CF93DF938C
:10077000DC01EC912E2F30E0F901EE0FFF1FE20FAC
:10078000F31FE45BFE4F208126FD3EC0EC010E947A
:100790005B038AE590E09E878D876AE570E0CE0175
:1007A0000E9486020E945C016BA77CA78DA79EA772
:1007B0008EE190E09E8F8D8F80ED97E098878F83FC
:1007C00080E090E0A4E8B2E4898F9A8FAB8FBC8F71
:1007D0008AE198EFA2ECBDE38D8B9E8BAF8BB88F37
:1007E0001F8E18A219A21AA28DE290E09C838B831F
:1007F000198A1A8A1B8A1C8A19861A861B861C86E5
:100800001E821D821FA218A6DF91CF9108956091CC
:100810002E0370912F0383E192E00E94B603609152
:1008200030037091310382E492E00E94B60360913C
:1008300032037091330381E792E00E94B603609126
:1008400034037091350380EA92E00C94B603EF9282
:10085000FF920F931F93CF93C82F8B014DE0E42E8F
:1008600042E0F42E882321F030E1E32E32E0F32E33
:10087000D701EC918E2F90E0FC01EE0FFF1FE80FE7
:10088000F91FE45BFE4F808186FD07C067E0C11160
:1008900066E070E0C7010E945B03E1E0CE27EC2F29
:1008A000F0E0EE0FFF1FE15CFE4F60817181600F91
:1008B000711F653B710514F064EB70E077FF02C0B7
:1008C00070E060E0C701CF911F910F91FF90EF9012
:1008D0000C9486024F925F926F927F928F929F92BA
:1008E000AF92BF92CF92DF92EF92FF920F931F933E
:1008F000CF93DF93280139018B015C017A014B0111
:1009000088E0880E911CC3E1D2E088EEC82E83E017
:10091000D82EF801819191918F019E838D83F501ED
:10092000819191915F019C838B83D886CF826D8D5D
:100930007E8DC6010E94120E90E080E00E94520C53
:100940009B01AC01298F3A8F4B8F5C8F6BED7FE061
:1009500089EC90E40E94AA0B6D8B7E8B8F8B988F15
:10096000F70181919191A191B1917F0189879A8736
:10097000AB87BC87AF960815190559F60E945C0134
:100980000E94520C4B015C0120E030E04AE754E445
:10099000C301B2010E94E50CA50194010E943E0B27
:1009A0006B017C01A5019401C701B6010E94E00C16
:1009B00087FD89C0C3E1D2E00E945C016BA37CA3E8
:1009C0008DA39EA30F8D18A129A13AA14B015C0113
:1009D000801A910AA20AB30A0D8D1E8D30E020E024
:1009E000081519052A053B050CF05BC06F8F78A32D
:1009F00089A39AA38FA1811146C029853A854B8589
:100A00005C8569897A898B899C890E943E0B0E944A
:100A1000520D4B015C016B817C8190E080E00E9473
:100A2000520CA50194010E94E50C4B015C016D8103
:100A30007E81072E000C880B990B0E94540C9B01A1
:100A4000AC01C501B4010E943E0B4B015C0120E0EA
:100A500030E0A9010E94E00C20E030E040E05FE3DC
:100A600087FD2CC0C501B4010E943E0B0E941C0CE6
:100A700088A5882319F0719561957109665A7F4F91
:100A8000CE010E9402032D893E894F89588D6989C4
:100A90007A898B899C890E943E0B698B7A8B8B8B20
:100AA0009C8BAF96F2E0CF3CDF0709F085CF0E9428
:100AB0005C010E94520C4B015C0174CFC501B40172
:100AC0000E943D0BD3CFDF91CF911F910F91FF90EB
:100AD000EF90DF90CF90BF90AF909F908F907F90DE
:100AE0006F905F904F9008958F929F92AF92BF92B8
:100AF000CF92DF92EF92FF920F931F93CF93DF93EA
:100B0000CDB7DEB728970FB6F894DEBF0FBECDBFC6
:100B100088E0E1E0F1E0DE01119601900D928A9506
:100B2000E1F70E9407048091580381111092580345
:100B30000E945C016C507E4F8F4F9F4F609340032B
:100B40007093410380934203909343038E010F5FA0
:100B50001F4F5E0189E0A80EB11C98E4C92E93E0F6
:100B6000D92E23E1E22E22E0F22EF801619171915B
:100B70008F01F70185859685681B790B072E000C80
:100B8000880B990B0E94540C20E030E048E452E4BA
:100B90000E94AA0BF60161937193819391936F0167
:100BA000FFE2EF0EF11CA016B106F9F60E945C01FF
:100BB000009140031091410320914203309143037F
:100BC000601771078207930708F075C00E945C01E7
:100BD000665F7F4F8F4F9F4F609344037093450331
:100BE000809346039093470388E4E82E83E0F82E31
:100BF00003E112E0F70181909190A190B1907F0103
:100C0000F80165857685072E000C880B990B0E94EC
:100C1000540CA50194010E943E0B0E941C0CC801BB
:100C20000E940203015D1F4FF2E00F3C1F0711F706
:100C30000E945C01009144031091450320914603FA
:100C400030914703601771078207930788F3AECF8F
:100C500083E192E00E9402036B817C8182E492E056
:100C60000E9402036D817E8181E792E00E9402036F
:100C70006F81788580EA92E00E9402030E945C0105
:100C8000665F7F4F8F4F9F4F609344037093450380
:100C900080934603909347030E945C0100914403B4
:100CA0001091450320914603309147036017710767
:100CB0008207930788F369817A818091200290915D
:100CC00021026817790721F62B813C8180914F0220
:100CD000909150022817390709F0BACF2D813E8133
:100CE00080917E0290917F022817390709F0B0CFDA
:100CF0002F8138858091AD029091AE022817390777
:100D000009F0A6CF83E192E00E94750282E492E0AE
:100D10000E94750281E792E00E94750280EA92E0EB
:100D20000E94750281E08093580328960FB6F894CC
:100D3000DEBF0FBECDBFDF91CF911F910F91FF900E
:100D4000EF90DF90CF90BF90AF909F908F900895DD
:100D5000FF920F931F93CF93DF93EC01F62E088140
:100D60001981C8010E94C40AF81621F06F2DC8012C
:100D70000E94CC0ACE01DF91CF911F910F91FF907D
:100D800008951F920F920FB60F9211242F933F9345
:100D90008F939F93AF93BF938091440190914501AE
:100DA000A0914601B09147013091430123E0230F08
:100DB0002D3758F50196A11DB11D20934301809355
:100DC000440190934501A0934601B093470180915F
:100DD000480190914901A0914A01B0914B010196BF
:100DE000A11DB11D8093480190934901A0934A0130
:100DF000B0934B01BF91AF919F918F913F912F91F4
:100E00000F900FBE0F901F90189526E8230F0296A3
:100E1000A11DB11DD2CF1F920F920FB60F921124B8
:100E20002F933F934F935F936F937F938F939F93F2
:100E3000AF93BF93EF93FF9380913B0190913C015F
:100E4000A0913D01B0913E01892B8A2B8B2BC1F1E2
:100E500090913A0180910000892780930000809151
:100E60003B0190913C01A0913D01B0913E011816CB
:100E700019061A061B069CF480913B0190913C01D7
:100E8000A0913D01B0913E010197A109B109809364
:100E90003B0190933C01A0933D01B0933E01FF9133
:100EA000EF91BF91AF919F918F917F916F915F91E2
:100EB0004F913F912F910F900FBE0F901F9018955B
:100EC00080910001E6E8F0E0E4919FEF909300014B
:100ED000E13051F030F0E23069F060E00E94B6009D
:100EE000DECF10926E00F9CF90916F009D7F9093AE
:100EF0006F00F3CF909170009D7F9093700091E010
:100F00009093B0009091B100987F94609093B1005D
:100F10001092B300E2CF1F920F920FB60F921124DE
:100F20002F933F934F935F936F937F938F939F93F1
:100F3000AF93BF93EF93FF9380E791E00E94E601A8
:100F4000FF91EF91BF91AF919F918F917F916F91A1
:100F50005F914F913F912F910F900FBE0F901F9077
:100F600018951F920F920FB60F9211242F938F9303
:100F70009F93EF93FF93E0918001F0918101808135
:100F8000E0918601F091870182FD1BC090818091E4
:100F900089018F5F8F7320918A01821741F0E09160
:100FA0008901F0E0E059FE4F958F80938901FF9110
:100FB000EF919F918F912F910F900FBE0F901F90E7
:100FC00018958081F4CF1F920F920FB60F921124C3
:100FD0000F900FBE0F901F9018951F920F920FB693
:100FE0000F9211242F933F934F935F936F937F93AF
:100FF0008F939F93AF93BF93CF93DF93EF93FF9321
:1010000080913601C0913701D0E087FF24C0109253
:10101000850010928400809136018F5F80933601A5
:1010200080913601082E000C990B8C179D0724F433
:10103000809136018C30C4F18091840090918500BC
:10104000049680349C4908F47AC080918400909181
:101050008500049676C080913601082E000C990B0D
:101060008C179D07C4F6E09136018E2FEE0F990B79
:10107000FC01EE0FFF1FE80FF91FE45BFE4F8081BC
:1010800086FFC9CFE09136018E2FEE0F990BFC0140
:10109000EE0FFF1FE80FF91FE45BFE4F808160E059
:1010A0008F730E94B600B7CF2091840030918500E5
:1010B000E09136018E2FEE0F990BFC01EE0FFF1F12
:1010C000E80FF91FE45BFE4F81819281820F931F2D
:1010D0009093890080938800E09136018E2FEE0F67
:1010E000990BFC01EE0FFF1FE80FF91FE45BFE4FA9
:1010F000808186FF11C0E09136018E2FEE0F990B93
:10110000FC01EE0FFF1FE80FF91FE45BFE4F80812B
:1011100061E08F730E94B600FF91EF91DF91CF9154
:10112000BF91AF919F918F917F916F915F914F91FF
:101130003F912F910F900FBE0F901F90189580E454
:101140009CE990938900809388008FEF809336010B
:10115000E3CFFC01909137019C3098F481E0890F36
:10116000809337019083892F90E0FC01EE0FFF1FE1
:10117000E80FF91FE45BFE4F88EB9BE092838183CD
:1011800008958FEF80830895CF93DF93E0E7F1E038
:101190001382128288EE93E0A0E0B0E0848395830E
:1011A000A683B7838DE191E09183808385EC90E005
:1011B0009587848784EC90E09787868780EC90E021
:1011C000918B808B81EC90E0938B828B82EC90E012
:1011D000958B848B86EC90E0978B868B118E128E8C
:1011E000138E148E83E192E00E94A908C3E1D2E03D
:1011F000188A1F861AA619A682E492E00E94A908FE
:101200001FAE1EAE10926C0210926B0281E792E04C
:101210000E94A908109281021092800210929B02F3
:1012200010929A0280EA92E00E94A9081092B002FD
:101230001092AF021092CA021092C90280E192E0AD
:101240000E94A9088DE092E0DF91CF910C94A9084B
:10125000CF93DF93CDB7DEB7A0970FB6F894DEBF7C
:101260000FBECDBF789484B5826084BD84B58160A3
:1012700084BD85B5826085BD85B5816085BD809161
:101280006E00816080936E001092810080918100D9
:1012900082608093810080918100816080938100D1
:1012A000809180008160809380008091B100846093
:1012B0008093B1008091B00081608093B0008091F4
:1012C0007A00846080937A0080917A0082608093B3
:1012D0007A0080917A00816080937A0080917A0010
:1012E000806880937A001092C10082E090E0909331
:1012F0002F0380932E0383E090E09093310380933B
:10130000300384E090E0909333038093320385E0D0
:1013100090E090933503809334030E940704109269
:10132000580303E112E0F12CE12CC7010E94C40A2A
:1013300090E0813891050CF09A95F801908B8787A1
:10134000FFEFEF1AFF0A015D1F4F84E0E816F1047A
:1013500061F78DE090E090933F0380933E030E94FD
:10136000970080915803811102C00E94740566E0C5
:1013700070E080E192E00E945B0367E070E08DE046
:1013800092E00E945B0386E090E00E94C40A8A35E6
:10139000B1F484E090E00E94C40A082E000C990B7E
:1013A0009093400180933F0185E090E00E94C40A41
:1013B000082E000C990B90934201809341016AE53D
:1013C00070E081E00E9427046AE570E080E00E94FE
:1013D00027048CEF9FEF909323028093220206E074
:1013E00010E0109352020093510210928102109269
:1013F00080028DEF9FEF9093B0028093AF026CEF6D
:1014000090E080E00E94CC0A6091510281E090E07F
:101410000E94CC0A6091800282E090E00E94CC0A97
:101420006091AF0283E090E00E94CC0A10925803D2
:101430000E94740585E0C82ED12CD0924001C09244
:101440003F0189EF9FEF909342018093410184E037
:1014500090E09A83898365E0FE0131967F01CF0198
:101460000E94A80660914101DA82C982C7010E94E8
:10147000A8061A8309836AE5C7010E94A8066AE5DF
:1014800070E081E00E9427046AE570E080E00E943D
:10149000270498E0792E2BED822E2FE0922E29EC56
:1014A000A22E2FEBB22E30E0C32E30E0D32E03E07D
:1014B00010E060EA70E081E00E9427040E942701AA
:1014C00068E770E081E00E9427040E942701015034
:1014D000110979F76AE570E081E00E94270488E04D
:1014E000E9E0F1E0DE01599601900D928A95E1F76D
:1014F00088E0E1E1F1E0DE01519601900D928A95DC
:10150000E1F7F701872D11928A95E9F789869A8686
:10151000AB86BC868D869E86AF86B88A0E940704FD
:101520008091580381111092580300E010E020E8E8
:101530003FE3A701BE016F5E7F4FCE0149960E9437
:101540006A0400E010E020E83FE3A701BE016F5EFF
:101550007F4FCE0149960E946A0400E010E0980196
:10156000A701BE016F5E7F4FCE0149960E946A04BB
:10157000C114D10409F49BCF0E94D201882309F43D
:1015800096CF0E94000093CFF999FECF92BD81BD06
:10159000F89A992780B50895262FF999FECF1FBA9A
:1015A00092BD81BD20BD0FB6F894FA9AF99A0FBE8C
:1015B00001960895052E97FB1EF400940E94F10AEF
:1015C00057FD07D00E940C0B07FC03D04EF40C947F
:1015D000F10A50954095309521953F4F4F4F5F4F01
:1015E000089590958095709561957F4F8F4F9F4F8F
:1015F00008950E942E0BA59F900DB49F900DA49F5F
:10160000800D911D11240895B7FF0C94F90A0E94D2
:10161000F90A821B930B0895A1E21A2EAA1BBB1B89
:10162000FD010DC0AA1FBB1FEE1FFF1FA217B307AE
:10163000E407F50720F0A21BB30BE40BF50B661FC4
:10164000771F881F991F1A9469F760957095809588
:1016500090959B01AC01BD01CF010895A29FB001FF
:10166000B39FC001A39F700D811D1124911DB29FD6
:10167000700D811D1124911D08955058BB27AA2774
:101680000E94550B0C94A60C0E94980C38F00E94F6
:101690009F0C20F039F49F3F19F426F40C94950C1C
:1016A0000EF4E095E7FB0C948F0CE92F0E94B70C29
:1016B00058F3BA17620773078407950720F079F487
:1016C000A6F50C94D90C0EF4E0950B2EBA2FA02D94
:1016D0000B01B90190010C01CA01A0011124FF27DF
:1016E000591B99F0593F50F4503E68F11A16F040DA
:1016F000A22F232F342F4427585FF3CF46953795D9
:101700002795A795F0405395C9F77EF41F16BA0B9D
:10171000620B730B840BBAF09150A1F0FF0FBB1F4B
:10172000661F771F881FC2F70EC0BA0F621F731F94
:10173000841F48F4879577956795B795F7959E3FF1
:1017400008F0B0CF9395880F08F09927EE0F979582
:10175000879508950E94BE0B0C94A60C0E949F0CC6
:1017600058F00E94980C40F029F45F3F29F00C9447
:101770008F0C51110C94DA0C0C94950C0E94B70C40
:1017800068F39923B1F3552391F3951B550BBB27B0
:10179000AA2762177307840738F09F5F5F4F220FF5
:1017A000331F441FAA1FA9F335D00E2E3AF0E0E8EC
:1017B00032D091505040E695001CCAF72BD0FE2F36
:1017C00029D0660F771F881FBB1F261737074807CA
:1017D000AB07B0E809F0BB0B802DBF01FF27935882
:1017E0005F4F3AF09E3F510578F00C948F0C0C94AB
:1017F000DA0C5F3FE4F3983ED4F3869577956795CE
:10180000B795F7959F5FC9F7880F911D96958795B6
:1018100097F90895E1E0660F771F881FBB1F6217D5
:1018200073078407BA0720F0621B730B840BBA0B93
:10183000EE1F88F7E09508950E94230C6894B1117B
:101840000C94DA0C08950E94BF0C88F09F5798F012
:10185000B92F9927B751B0F0E1F0660F771F881FB5
:10186000991F1AF0BA95C9F714C0B13091F00E94CF
:10187000D90CB1E008950C94D90C672F782F8827E4
:10188000B85F39F0B93FCCF3869577956795B395F6
:10189000D9F73EF490958095709561957F4F8F4F65
:1018A0009F4F0895E89409C097FB3EF4909580956A
:1018B000709561957F4F8F4F9F4F9923A9F0F92F16
:1018C00096E9BB279395F695879577956795B79594
:1018D000F111F8CFFAF4BB0F11F460FF1BC06F5F7A
:1018E0007F4F8F4F9F4F16C0882311F096E911C08C
:1018F000772321F09EE8872F762F05C0662371F0AD
:1019000096E8862F70E060E02AF09A95660F771FC0
:10191000881FDAF7880F9695879597F9089597F9B4
:101920009F6780E870E060E008959FEF80EC089585
:1019300000240A94161617061806090608950024AE
:101940000A9412161306140605060895092E039428
:10195000000C11F4882352F0BB0F40F4BF2B11F49C
:1019600060FF04C06F5F7F4F8F4F9F4F089557FDFB
:101970009058440F551F59F05F3F71F04795880FFD
:1019800097FB991F61F09F3F79F087950895121694
:1019900013061406551FF2CF4695F1DF08C0161640
:1019A00017061806991FF1CF8695710561050894F1
:1019B0000895E894BB2766277727CB0197F9089508
:1019C0000E945A0D08F48FEF08950E94F80C0C94B1
:1019D000A60C0E94980C38F00E949F0C20F09523D2
:1019E00011F00C948F0C0C94950C11240C94DA0CBF
:1019F0000E94B70C70F3959FC1F3950F50E0551FEF
:101A0000629FF001729FBB27F00DB11D639FAA2753
:101A1000F00DB11DAA1F649F6627B00DA11D661FA2
:101A2000829F2227B00DA11D621F739FB00DA11DC3
:101A3000621F839FA00D611D221F749F3327A00D7D
:101A4000611D231F849F600D211D822F762F6A2F19
:101A500011249F5750409AF0F1F088234AF0EE0F7E
:101A6000FF1FBB1F661F771F881F91505040A9F7AB
:101A70009E3F510580F00C948F0C0C94DA0C5F3F64
:101A8000E4F3983ED4F3869577956795B795F795E7
:101A9000E7959F5FC1F7FE2B880F911D969587955F
:101AA00097F908959F930E94800D0F9007FCEE5FB9
:101AB0000C94A90D990F0008550FAA0BE0E8FEEF52
:101AC00016161706E807F907C0F012161306E40702
:101AD000F50798F0621B730B840B950B39F40A26FB
:101AE00061F0232B242B252B21F408950A2609F4D9
:101AF000A140A6958FEF811D811D08950C94950C32
:101B00000E94BF0CD8F3E894E0E0BB279F57F0F0A9
:101B10002AED3FE049EC06C0EE0FBB0F661F771FB2
:101B2000881F28F0B23A62077307840728F0B25A78
:101B3000620B730B840BE3959A9572F7803830F43F
:101B40009A95BB0F661F771F881FD2F790480C9499
:101B5000BF0DEF93E0FF07C0A2EA2AED3FE049EC9A
:101B60005FEB0E94550B0E94A60C0F90039401FCA2
:101B70009058E8E6F0E00C94CB0D9F3F31F0915087
:101B800020F4879577956795B795880F911D969561
:101B9000879597F908959F938F937F936F93FF9302
:101BA000EF939B01AC010E94E50CEF91FF910E9425
:101BB000DF0D2F913F914F915F910C94E50CDF93D6
:101BC000CF931F930F93FF92EF92DF927B018C01D3
:101BD000689406C0DA2EEF010E94F80CFE01E8942A
:101BE000A5912591359145915591A6F3EF010E945C
:101BF000550BFE019701A801DA9469F7DF90EF9089
:101C0000FF900F911F91CF91DF910895991B79E07B
:101C100004C0991F961708F0961B881F7A95C9F77C
:101C200080950895AA1BBB1B51E107C0AA1FBB1FCB
:101C3000A617B70710F0A61BB70B881F991F5A9558
:101C4000A9F780959095BC01CD01089597FB072ECB
:101C500016F4009407D077FD09D00E94120E07FCFD
:101C600005D03EF4909581959F4F089570956195AC
:101C70007F4F0895EE0FFF1F0590F491E02D09941A
:041C8000F894FFCF06
:101C8400FF5A005A005A005A001E001E0014001485
:101C940000000000000400FCFF00000000080268CF
:0C1CA4000195015502C601A401B8010021
:00000001FF
