:100000000C94C4020C94EC020C94EC020C94CF2CD3
:100010000C94CF2C0C94CF2C0C94EC020C945F2BF2
:100020000C94EC020C94EC020C94EC020C94132C47
:100030000C94EC020C94EC020C94EC020C94EC0288
:100040000C94152B0C94EC020C94E12B0C94BB2B10
:100050000C94EC020C94EC020C94EC020C94EC0268
:100060000C94472D0C94EC02084AD73B3BCE016E12
:1000700084BCBFFDC12F3D6C74319ABD56833DDAFF
:100080003D00C77F11BED9E4BB4C3E916BAAAABE0E
:10009000000000803F05A84CCDB2D44EB93836A937
:1000A000020C50B9918688083CA6AAAA2ABE000074
:1000B00000803F004E414E494E495459494E46CD6D
:1000C000CCCC3D0AD7233C17B7D13877CC2B32950F
:1000D00095E6241FB14F0A000020410000C84200ED
:1000E000401C4620BCBE4CCA1B0E5AAEC59D742097
:1000F000204E696E67756E6F2E205265766973614A
:10010000206C6F73206361626C65732053444120DF
:10011000792053434C2079206C6120616C696D65B6
:100120006E74616369C3B36E2E0020204D50553646
:1001300030353020286F2072656C6F6A205254432E
:1001400029002020504341393638352028313620C7
:10015000736572766F732900202070616E74616C14
:100160006C61204F4C454400202070616E74616CBE
:100170006C61204C4344002020307800427573634A
:10018000616E646F20646973706F73697469766FF0
:1001900073204932432E2E2E003E5149453E0042E7
:1001A0007F400042615149462141454B31181412AC
:1001B0007F1027454545393C4A49493001710905B9
:1001C000033649494936064949291E000000000006
:1001D0007E0909097E7F494949363E414141227FD6
:1001E0004141221C7F494949417F090909013E419A
:1001F00049497A7F0808087F00417F41002040413B
:100200003F017F081422417F404040407F020C02A2
:100210007F7F0408107F3E4141413E7F0909090666
:100220003E4151215E7F091929464649494931011C
:10023000017F01013F4040403F1F2040201F3F40C1
:1002400038403F6314081463030478040361514980
:10025000454300005F000002015109060060600094
:10026000000050300000003636000008080808087A
:1002700008083E080814141414140814224100003D
:1002800041221408001C2241000041221C001408D5
:100290003E0814201008040223130864623031322F
:1002A0003334353637383920414243444546474890
:1002B000494A4B4C4D4E4F50515253545556575836
:1002C000595A213F2E2C3A2D2B3D3C3E28292A2FCE
:1002D000250000C3000080610000C0300000806184
:1002E000000000C3000000860100000C030000862F
:1002F00001000000000000000000300C0000100AA7
:10030000010018496200100A01000000000000000E
:1003100000000000000000000000000000000000DD
:10032000000021000021520884128C144A0C002382
:10033000310000C0000000000000000000000000CC
:100340000000000000000000000000104A0C00083F
:1003500025062084100330420801182904008C145B
:10036000020046028100038140208140203040206D
:1003700090180200000000240027002A000000005E
:100380000800020100000304070000000000000054
:10039000008C24490C0E4130041E42480C8C444809
:1003A0000C82E049129CC0411E8CC42104104208FA
:1003B0001E8CC4480C8EE0480C002385000023FDF1
:1003C0000000E0FD008C14B6128C144A0C00C3002F
:1003D000008091243F80D4B63F0020B53F00F00359
:1003E00000805821000281402040283100C02F3178
:1003F00000C0EC310000420901A1C4482104414879
:100400000C10C2210480D4860040187A0030007C91
:1004100082827C00310042FE0200003200468A9255
:10042000620033004492926C0034001C64FE0400AD
:100430003500F292928C0036007C92924C0037008C
:10044000C08E90E00038006C92926C00390064928B
:10045000927C003A0000140000003B0002240000DF
:10046000003C0010284482003D0028282828003E37
:100470000082442810003F00204A30000040000065
:100480000000000041007E88887E004200FE9292BB
:100490006C0043007C828244004400FE82827C0027
:1004A0004500FE929282004600FE90908000470038
:1004B0007C82925C004800FE1010FE00490082FE23
:1004C0008200004A000C0202FC004B00FE1028C60D
:1004D000004C00FE020202004D00FE403040FE4E85
:1004E00000FE403008FE4F007C8282827C5000FE7D
:1004F0009090600051007C828A847A5200FE989429
:10050000620053006492924C00540080FE80800090
:100510005500FC0202FC005600F00C020CF05700E3
:10052000FE043804FE5800C63838C60059C0201EE4
:1005300020C0005A00869AB2C2002100007A000052
:100540000020000000000000000000002300260042
:10055000290000000000250028002B0004040404EA
:10056000040404040202020202020303030303035D
:10057000010204081020408001020408102001023A
:1005800004081020E22E5A3511241FBECFEFD8E008
:10059000DEBFCDBF12E0A0E0B1E0ECEDFCE702C0B1
:1005A00005900D92A630B107D9F726E0A6E0B2E09B
:1005B00001C01D92A436B207E1F712E0C3ECD2E00D
:1005C00004C02197FE010E94613CC23CD107C9F7DB
:1005D0000E945B310C94613E0C94000082309105C6
:1005E00038F0880F991F880F991F05970197F1F729
:1005F00008950895089580E480937C0080917A00A6
:10060000806480937A0080917A0086FDFCCF80918F
:100610007800909179000895CF92DF92EF92FF9247
:10062000CF93DF93B0911706A0E08111AB2F80919B
:10063000180690E0880F991FAC01485B5A4FC09094
:100640001D06D0901E06E0901F06F090200630E0B8
:1006500020E0FA01C591D491E881B90190E080E0F1
:10066000EB23EA130AC02F5F3F4F6C157D058E0503
:100670009F0578F36FEF7FEFCB01DF91CF91FF9074
:10068000EF90DF90CF900895833081F028F481308F
:1006900099F08230A9F008958730A9F08830C9F028
:1006A0008430B1F4809180008F7D03C08091800000
:1006B0008F7780938000089584B58F7784BD0895E7
:1006C00084B58F7DFBCF8091B0008F778093B00091
:1006D00008958091B0008F7DF9CF1F93CF93DF9362
:1006E000282F30E0F901E358FC4F8491F901E059DB
:1006F000FA4FD491F901E45AFA4FC491CC23A9F0EE
:10070000162F81110E944403EC2FF0E0EE0FFF1F23
:10071000EE5AFA4FA591B4918FB7F894EC9111115C
:1007200008C0D095DE23DC938FBFDF91CF911F915E
:100730000895DE2BF8CFCF93DF9390E0FC01E059D2
:10074000FA4F2491845A9A4FFC0184918823C9F06E
:1007500090E0880F991FFC01ED58FC4FA591B491D2
:10076000FC01EE5AFA4FC591D49161110DC09FB7AB
:10077000F8948C91209582238C9388812823288358
:100780009FBFDF91CF910895623051F49FB7F894E5
:100790003C91822F809583238C93E8812E2BEFCF81
:1007A0008FB7F894EC912E2B2C938FBFEACF1F9329
:1007B000CF93DF93182FEB0161E00E949B032097FA
:1007C00039F460E0812FDF91CF911F910C946D037C
:1007D000CF3FD10511F461E0F5CFE12FF0E0E35810
:1007E000FC4FE491E33031F140F4E130B1F0E2301C
:1007F000E1F0C038D1057CF7E4CFE73029F1E830EB
:1008000059F1E430B1F780918000806280938000DC
:10081000D0938B00C0938A0004C084B5806884BDE7
:10082000C7BDDF91CF911F91089584B5806284BDCB
:10083000C8BDF7CF80918000806880938000D093FE
:100840008900C0938800EDCF8091B00080688093CC
:10085000B000C093B300E5CF8091B0008062809378
:10086000B000C093B400DDCF3FB7F8948091B102DF
:100870009091B202A091B302B091B40226B5A89BA8
:1008800005C02F3F19F00196A11DB11D3FBFBA2F22
:10089000A92F982F8827BC01CD01620F711D811DE2
:1008A000911D42E0660F771F881F991F4A95D1F767
:1008B00008958F929F92AF92BF92CF92DF92EF9264
:1008C000FF926B017C010E9434044B015C01C11456
:1008D000D104E104F104B9F00E94340468197909E3
:1008E0008A099B09683E73408105910580F321E0E8
:1008F000C21AD108E108F10888EE880E83E0981E3C
:10090000A11CB11CE4CFFF90EF90DF90CF90BF907F
:10091000AF909F908F9008952FB7F8946091AD029B
:100920007091AE028091AF029091B0022FBF0895F6
:100930009091480189130BC0E2E7F3E0E4919FEF47
:1009400090934801E13049F028F0E23061F060E036
:100950000C946D0310926E00FACF90916F009D7F02
:1009600090936F00F4CF909170009D7F90937000F2
:1009700091E09093B0009091B100987F9460909333
:10098000B1001092B300E3CF4F925F926F927F92CB
:100990008F929F92AF92BF92CF92DF92EF92FF928F
:1009A0000F931F93CF93DF9300D000D01F92CDB74A
:1009B000DEB78B0129013A01909148018917C9F0EE
:1009C0009F3F09F47EC00F900F900F900F900F90F3
:1009D000DF91CF911F910F91FF90EF90DF90CF901B
:1009E000BF90AF909F908F907F906F905F904F904F
:1009F0000895E2E7F3E094919D8397FDE4CF61E0F1
:100A00000E949B038D81882321F09D81923009F003
:100A10004AC14801B12CA12C60E072E18AE790E064
:100A2000A50198010E94193929833A834B835C837D
:100A300069017A0181E0C81AD108E108F1089FEF45
:100A4000C916D104E104F10409F00CF401C160E419
:100A500072E48FE090E0A50198010E9419396901C4
:100A60007A0181E0C81AD108E108F1089D8192302D
:100A700009F0A2C08FEFC816D104E104F10409F017
:100A80000CF4E6C160E970ED83E090E0A501980107
:100A90000E94193969017A0191E0C91AD108E10867
:100AA000F1088FEFC816D104E104F10411F00CF045
:100AB0007FC183E09091B100987F892B8093B10032
:100AC000CFC080934801E2E7F3E094919D839F3F7C
:100AD00009F479CF913041F150F0923009F446C0D9
:100AE0009D8197FD70CF61E00E949B038ECF14BC67
:100AF00015BC94B5926094BD95B5916095BD282FB5
:100B000030E0F901E45AFA4FE491F0E0EE0FFF1FF4
:100B1000EE5AFA4F45915491F901E059FA4FE49198
:100B2000E09398021D826BCF10928000109281009A
:100B300090918100986090938100909181009160E4
:100B400090938100282F30E0F901E45AFA4FE491A4
:100B5000F0E0EE0FFF1FEE5AFA4F45915491F90164
:100B6000E059FA4FE491E093970249CF1092B00018
:100B70001092B1009091B00092609093B00090916B
:100B8000B10091609093B100282F30E0F901E45A50
:100B9000FA4FE491F0E0EE0FFF1FEE5AFA4F459145
:100BA00054915093A2024093A102F901E059FA4FE7
:100BB000E491E093A30223CF9FEFC916D104E1048F
:100BC000F10409F00CF46DC068E478EE81E090E087
:100BD000A50198010E94193969017A0181E0C81ABA
:100BE000D108E108F1089D81992309F4FAC08FEF3B
:100BF000C816D104E104F10411F00CF0FBC0EFC001
:100C000064E274EF80E090E0A50194010E9419393C
:100C100069017A0181E0C81AD108E108F10885E08C
:100C20009FEFC916D104E104F10409F008F442CFA2
:100C300062E17AE780E090E0A50194010E94193911
:100C400069017A0181E0C81AD108E108F108E5C01C
:100C500081E09D8191112ECF95B5987F892B85BD1F
:100C60002FEF3FEFA901411451046104710409F011
:100C700043C09D81913009F45EC0923009F46DC08B
:100C80009111A1CEC7BC20939D0230939E02409348
:100C90009F025093A00280916E00826080936E004C
:100CA00092CE82E0D6CFB12CA12C60E072E18AE72F
:100CB00090E0A50198010E94193969017A0181E04B
:100CC000C81AD108E108F108C114D10491E0E9067D
:100CD000F10404F591E08D81813011F6809181005D
:100CE000887F892B809381002FEF3FEFA90141146A
:100CF000510461047104F9F0D801AA0FBB1FA301CC
:100D000092010E94383928EE33E040E050E00E9422
:100D10008239AFCF68E478EE81E090E0A5019801D8
:100D20000E94193969017A0181E0C81AD108E108E5
:100D3000F10893E0D0CFD0928900C0928800209330
:100D4000990230939A0240939B0250939C028091A7
:100D50006F00826080936F0036CEC092B300209304
:100D6000A4023093A5024093A6025093A70280915B
:100D7000700082608093700026CE84E09FEFC916D9
:100D8000D104E104F10409F008F466CFC980DA80E7
:100D9000EB80FC808AE0F594E794D794C7948A9519
:100DA000D1F781E0C81AD108E108F10885E054CFF5
:100DB00068E478EE81E090E0A50198010E9419397D
:100DC00069017A0181E0C81AD108E108F1089FEFB2
:100DD000C916D104E104F10411F00CF011CF84E044
:100DE00069CE83E09FEFC916D104E104F10409F054
:100DF0000CF432CF62E17AE780E090E0A501940143
:100E00000E94193969017A0181E0C81AD108E10804
:100E1000F1089D81992309F4B0CF86E09FEFC916B0
:100E2000D104E104F10409F008F444CEC980DA8069
:100E3000EB80FC809AE0F594E794D794C7949A9558
:100E4000D1F781E0C81AD108E108F10887E032CE75
:100E500082E030CECF92DF92EF92FF920F931F93FA
:100E600069017A010115110511F401E010E00E94F9
:100E70000B3BA7019601809129050E94C404C7017C
:100E8000B6010E945904B801110F880B990B1F91EC
:100E90000F91FF90EF90DF90CF900C9459044F92F8
:100EA0005F926F927F928F929F92AF92BF92CF92FA
:100EB000DF92EF92FF920F931F93CF93DF93CDB703
:100EC000DEB728970FB6F894DEBF0FBECDBF2B015B
:100ED0003C0129833A834B835C83ED82FE820F833E
:100EE00018870E94043B8B0129813A814B815C81E8
:100EF000C301B2010E94DC3787FF25C0B801110F82
:100F0000880B990B0E94E3372B013C01AC019B013C
:100F100069817A818B819C810E94613B1816C4F59E
:100F20008401A6019501C301B2010E942A072D8107
:100F30003E814F815885C301B2010E9442380E9410
:100F4000043B8B01DBCFB801110F880B990B0E947A
:100F5000E3372B013C01AC019B0169817A818B81D4
:100F60009C810E94DC3787FF13C08401A601950194
:100F7000C301B2010E942A072D813E814F8158850D
:100F8000C301B2010E94923A0E94043B8B01DBCF65
:100F900028960FB6F894DEBF0FBECDBFDF91CF917C
:100FA0001F910F91FF90EF90DF90CF90BF90AF9087
:100FB0009F908F907F906F905F904F9008950F93C8
:100FC0001F93CF93DF93EC010E948C04688779878D
:100FD0008A879B87E881F9810284F385E02DCE0121
:100FE000099597FF15C00E948C04088519852A85EC
:100FF0003B85601B710B820B930B0C811D812E8135
:101000003F81601771078207930720F38FEF9FEFEF
:10101000DF91CF911F910F910895DC01ED91FC912B
:101020000190F081E02D0994AF92BF92CF92DF92B0
:10103000EF92FF920F931F93CF93DF936C017B018D
:101040008B01040F151FEB015E01AE18BF08C0171E
:10105000D10759F06991D601ED91FC910190F08191
:10106000E02DC6010995892B79F7C501DF91CF9154
:101070001F910F91FF90EF90DF90CF90BF90AF90B6
:101080000895FC01538D448D252F30E0842F90E08E
:10109000821B930B541710F0CF9608950197089573
:1010A000FC01918D828D981761F0A28DAE0FBF2F3C
:1010B000B11D5D968C91928D9F5F9F73928F90E092
:1010C00008958FEF9FEF0895FC01918D828D981701
:1010D00031F0828DE80FF11D858D90E008958FEF3E
:1010E0009FEF08950F931F930E948C0460935B03FE
:1010F00070935C0380935D0390935E0383E593E0BC
:101100000E94640897FF1DC00E948C0400915B033D
:1011100010915C0320915D0330915E03601B710BA5
:10112000820B930B009157031091580320915903A0
:1011300030915A036017710782079307F8F28FEF17
:101140009FEF1F910F910895FC01918D228D892FA2
:1011500090E0805C9F4F821B91098F7399270895BF
:1011600083E593E00E94A40821E0892B09F420E0A4
:10117000822F089580E090E0892B29F00E94B0082A
:1011800081110C9400000895FC01A48DA80FB92FC3
:10119000B11DA35ABF4F2C91848D90E001968F739F
:1011A0009927848FA689B7892C93A089B1898C91BE
:1011B000837080648C93938D848D981306C002880D
:1011C000F389E02D80818F7D80830895EF92FF92D7
:1011D0000F931F93CF93DF93EC0181E0888F9B8D5A
:1011E0008C8D98131AC0E889F989808185FF15C014
:1011F0009FB7F894EE89FF896083E889F989808137
:101200008370806480839FBF81E090E0DF91CF9105
:101210001F910F91FF90EF900895F62E0B8D10E027
:101220000F5F1F4F0F731127E02E8C8D8E110CC096
:101230000FB607FCFACFE889F989808185FFF5CFE1
:10124000CE010E94C408F1CFEB8DEC0FFD2FF11DF4
:10125000E35AFF4FF0829FB7F8940B8FEA89FB891E
:1012600080818062CFCF0F931F93CF93DF938C0148
:10127000D0E0C0E0F801EC0FFD1F6491662341F05F
:1012800083E593E00E94E608892B11F02196F2CFC6
:10129000CE01DF91CF911F910F910895CF93DF93EE
:1012A000EC01888D8823B9F0AA89BB89E889F9897E
:1012B0008C9185FD03C0808186FD0DC00FB607FCB3
:1012C000F7CF8C9185FFF2CF808185FFEDCFCE01E6
:1012D0000E94C408E9CFDF91CF9108950895DC0101
:1012E000EC918E2F90E0FC01EE0FFF1FE80FF91F2D
:1012F000E152FD4F808186FF02C08F7B808308957D
:101300008EEF93E00E946F098DE294E00E946F09D6
:101310008CE594E00E946F098BE894E00C946F09CF
:10132000CF92DF92EF92FF92CF93DF93EC01603286
:1013300082E07807CCF5653B710514F064EB70E052
:10134000898128E830E0281B310987FD3395220F79
:10135000331F220F331F6901330FEE08FF088A8104
:1013600028E532E0281B310987FD3395220F331F12
:10137000220F331F032E000C440B550B2C193D0973
:101380004E095F09DB0177FF02C0B0E0A0E00E94D8
:10139000433924EB30E040E050E00E941939C20E9E
:1013A000D31EE41EF51EB601E881EC3070F52981EC
:1013B00088E890E0821B910927FD9395880F991F7B
:1013C000880F991F681779077CF02A8188E592E0D9
:1013D000821B910927FD9395880F991F880F991FEC
:1013E000681779070CF4CB010297880F991F4FB744
:1013F000F8942E2F30E0F901EE0FFF1FE20FF31FDC
:10140000E152FD4F928381834FBFDF91CF91FF90D7
:10141000EF90DF90CF900895CF92DF92EF92FF92FE
:101420000F931F93CF93DF93EC018B010E948C04E9
:101430006B017C0129A53AA5121613060CF042C0D7
:101440008BA59CA5A601481B590B429FC001439F39
:10145000900D529F900D112461E070E0883E23E0D2
:10146000920724F068EE73E00E944D3C8D859E85C6
:101470009801281B390B37FF03C03195219531099D
:1014800062177307FCF4081719071CF4719561952E
:101490007109860F971F9E878D87CBA6DCA6EDA6C8
:1014A000FEA66D857E858F859889680F791FCE0190
:1014B000DF91CF911F910F91FF90EF90DF90CF9030
:1014C0000C9490091E870D87E8CF1F93CF93DF936D
:1014D000EC01162F88818C3008F04EC061E0812F1E
:1014E0000E949B038881282F30E0F901EE0FFF1F37
:1014F000E20FF31FE152FD4F1F736081607C612B8F
:10150000608319821A822CE0622F0E942D3C829FF8
:10151000B001112430E020E0AB01420F531FFA016B
:10152000EE0FFF1FE40FF51FE152FD4F908196FD76
:1015300016C02F5F3F4F2C30310571F781110FC05E
:101540001092800082E080938100109285001092BA
:101550008400B19A80916F00826080936F00E8816F
:101560008E2F90E0FC01EE0FFF1FE80FF91FE152F4
:10157000FD4F8081806480838881DF91CF911F91AE
:101580000895CF93DF93DC01EC912E2F30E0F90129
:10159000EE0FFF1FE20FF31FE152FD4F208126FDEA
:1015A0003EC0EC010E94650A8AE590E09E878D8727
:1015B0006AE570E0CE010E9490090E948C046BA73E
:1015C0007CA78DA79EA78EE190E09E8F8D8F80EDEA
:1015D00097E098878F8380E090E0A4E8B2E4898F59
:1015E0009A8FAB8FBC8F8AE198EFA2ECBDE38D8B15
:1015F0009E8BAF8BB88F1F8E18A219A21AA28DE2F4
:1016000090E09C838B83198A1A8A1B8A1C8A19860C
:101610001A861B861C861E821D821FA218A6DF91B9
:10162000CF9108956091190570911A058EEF93E09E
:101630000E94C10A60911B0570911C058DE294E027
:101640000E94C10A60911D0570911E058CE594E011
:101650000E94C10A60911F05709120058BE894E0FB
:101660000C94C10A4F925F926F927F92AF92BF9299
:10167000CF92DF92EF92FF920F931F93CF93DF935E
:101680008C01EB010E94120B809143058111109295
:1016900043050E948C042801012E000C660877087F
:1016A000DC01CB01840D951DA61DB71D80932B0574
:1016B00090932C05A0932D05B0932E05CE0108968E
:1016C0007C010A30110509F486C0C301B2010E94F1
:1016D000E33720E030E040E251E40E94923A2B01EF
:1016E0003C018E0133E3A32E35E0B32E4EEFC42E22
:1016F00043E0D42EF801619171918F01F601858547
:101700009685681B790B072E000C880B990B0E949D
:10171000E337A30192010E94923AF501619371931C
:10172000819391935F01FFE2CF0ED11C0E151F052F
:1017300009F70E948C0400912B0510912C05209133
:101740002D0530912E05601771078207930708F069
:1017500063C00E948C04665F7F4F8F4F9F4F6093E2
:101760002F0570933005809331059093320523E364
:10177000C22E25E0D22E0EEF13E0F60141905190DB
:10178000619071906F01F80165857685072E000CD8
:10179000880B990B0E94E337A30192010E94B43990
:1017A0000E94043BC8010E940C0A015D1F4FF4E037
:1017B0000A3B1F0711F70E948C0400912F0510911E
:1017C000300520913105309132056017710782078D
:1017D000930788F3AECF8E019EEFC92E93E0D92EEA
:1017E000F801619171918F01C6010E940C0AFFE21C
:1017F000CF0ED11C0E151F0599F70E948C04009185
:101800002B0510912C0520912D0530912E05601788
:1018100071078207930788F38E018EEFC82E83E04D
:10182000D82ED601FE01219131911D968D919C916A
:101830001E972817390799F49F96EE16FF0699F719
:10184000DF91CF911F910F91FF90EF90DF90CF909C
:10185000BF90AF907F906F905F904F900895F80188
:10186000619171918F01C6010E940C0AFFE2CF0EB7
:10187000D11CE016F10699F70E948C04665F7F4F39
:101880008F4F9F4F60932F057093300580933105E4
:10189000909332050E948C0400912F051091300521
:1018A0002091310530913205601771078207930747
:1018B00088F3B2CFCF93DF93CDB7DEB728970FB6BB
:1018C000F894DEBF0FBECDBF80914305811115C0D6
:1018D00088E0E3E5F1E0DE01119601900D928A9532
:1018E000E1F7BE016F5F7F4F84EF91E00E94320B02
:1018F0000E94800981E08093430528960FB6F894F2
:10190000DEBF0FBECDBFDF91CF910895209193022E
:10191000309194022817390771F4909192028091C6
:101920009102981741F0E0919202F0E0EF5AFD4FDA
:10193000808190E008958FEF9FEF08950895EF92D2
:10194000FF920F931F93CF93DF93DC015C96ED9092
:10195000FC905D97E114F10479F481E090E0139636
:101960009C938E93129790E080E0DF91CF911F912E
:101970000F91FF90EF9008955196ED91FC91529741
:1019800050968C915097982F90950FB75E962C910A
:101990005E97122F127021FD6095F894208111231B
:1019A00019F1282B2083E7012197F1F728E0462F32
:1019B00050E0308160FF1AC0382B3083E701219757
:1019C000F1F7BA0175956795215089F7112381F0D8
:1019D0008081892380830FBF5C968D919C910197B4
:1019E000F1F781E090E0C1CF2923DCCF3923E5CFA7
:1019F0009081892BEFCF2091930230919402281788
:101A0000390761F4809191022091920290E0805C0C
:101A10009F4F821B91098F739927089590E080E072
:101A20000895209193023091940228173907B9F450
:101A30009091920280919102981789F0E091920220
:101A4000F0E0EF5AFD4F80812091920230E02F5F4D
:101A50003F4F2F7333272093920290E008958FEF2A
:101A60009FEF089520912E02260F3327331F213236
:101A70003105ECF420912903FC0190E080E0243052
:101A800069F082E00895A0912E022191AC01425F9D
:101A90005D4FA40FB52FB11D2C930196861798F3B7
:101AA00080912E02680F60932E0280E0089581E0FD
:101AB00008951092290381E0809328031092030374
:101AC00061E082E10E946D0361E083E10E946D03A9
:101AD000E9EBF0E080818E7F808380818D7F808341
:101AE00088E48093B80085E48093BC000895109248
:101AF000DE021092DD0210923003109252030E9417
:101B0000590D89EF92E09093DC028093DB028AEF1B
:101B100092E09093DA028093D9020895CF93DF93F5
:101B200091E090930D028823B9F0C091B800D09154
:101B3000BA008091BC008A7B8093BC0060E082E1A7
:101B40000E946D0360E083E10E946D030E94590DC5
:101B5000D093BA00C093B800DF91CF9108958F92CF
:101B60009F92AF92BF92CF92DF92EF92FF920F932C
:101B70001F93CF93DF93D0915203D13208F0D7C097
:101B8000182FC09151030E9434046B017C01809195
:101B9000290381116BC082E08093290310932803ED
:101BA0008FEF8093270310922603D0932503A1E3A0
:101BB000B3E0E5E0F3E080E0D81391C010920403B5
:101BC00080910403CC0FC82BC093040380910303BE
:101BD000813009F088C0109203030E9434046B0125
:101BE0007C01809104038093BB0080912B03909132
:101BF0002C03A0912D03B0912E03892B8A2B8B2BC4
:101C0000A1F00E94340400912B0310912C03209129
:101C10002D0330912E036C197D098E099F0906173B
:101C200017072807390708F442C08091BC0083FDDC
:101C3000D8CF85EC8093BC000E9434046B017C01FA
:101C400080912903823009F450C0809127038F3F8F
:101C500009F46FC080912703803209F46CC0809131
:101C60002703803309F469C084E026C080912B03E8
:101C700090912C03A0912D03B0912E03892B8A2BD8
:101C80008B2B09F484CF0E94340480902B03909016
:101C90002C03A0902D03B0902E036C197D098E09A2
:101CA0009F0986169706A806B90608F070CF80919E
:101CB0002A030E948E0D85E0109230031092520389
:101CC00010922F03DF91CF911F910F91FF90EF9012
:101CD000DF90CF90BF90AF909F908F9008959D918F
:101CE00091938F5F69CF85EEA5CF80912B03909163
:101CF0002C03A0912D03B0912E03892B8A2B8B2BC3
:101D000009F49ECF0E94340400912B0310912C0300
:101D100020912D0330912E036C197D098E099F09A6
:101D2000061717072807390708F08ACFC0CF81E0C8
:101D3000C3CF80E0C1CF82E0BFCF83E0BDCF1F9390
:101D4000CF93DF93162FC4EBD5E0A981BA819B8195
:101D500021E020932F0390935103109230031092AF
:101D60005203ED91FC9111970190F081E02D682FC5
:101D7000CD01099589819A81DC01ED91FC91019059
:101D8000F081E02D612F099581E0DF91CF911F91C6
:101D90000C94AF0D1F93CF93DF93EA01122FDC0158
:101DA00011968D919C91DC01ED91FC910280F38163
:101DB000E02D0995C817D90729F4812F0E94AF0D8E
:101DC00091E0811190E0892FDF91CF911F910895CB
:101DD000CF93DF93EC018B818823A1F0888191E080
:101DE00090932F038093510310923003109252036B
:101DF00081E00E94AF0D91E0811190E0892FDF9189
:101E0000CF9108950E94770D81E08B83CE010E94CF
:101E1000E80E982F8111E2CFF1CF8F929F92AF926F
:101E2000BF92CF92DF92EF92FF920F931F93CF93C7
:101E3000DF93D82FC62F142F613208F09CC00E9468
:101E400034046B017C018091290381116FC081E012
:101E500080932903109328039FEF909327031092F8
:101E600026039C0F90932503809304038091040321
:101E7000DD0FD82BD093040380910303813009F048
:101E80007CC0109203030E9434046B017C0180919A
:101E900004038093BB0080912B0390912C03A091AD
:101EA0002D03B0912E03892B8A2B8B2BA1F00E943E
:101EB000340400912B0310912C0320912D033091B9
:101EC0002E036C197D098E099F090617170728072D
:101ED000390708F44CC08091BC0083FDD8CF85EC55
:101EE0008093BC000E9434046B017C018091290323
:101EF000813009F444C0809126038C1710F4C091FE
:101F00002603E5E0F3E0A9EBB2E080E08C1359C0D2
:101F10008C2FDF91CF911F910F91FF90EF90DF9069
:101F2000CF90BF90AF909F908F90089580912B039A
:101F300090912C03A0912D03B0912E03892B8A2B15
:101F40008B2B09F480CF0E94340480902B03909057
:101F50002C03A0902D03B0902E036C197D098E09DF
:101F60009F0986169706A806B90608F06CCF8091DF
:101F70002A030E948E0DC0E0CBCF85EEB1CF8091B9
:101F80002B0390912C03A0912D03B0912E03892B4C
:101F90008A2B8B2B09F4AACF0E94340400912B03C7
:101FA00010912C0320912D0330912E036C197D0983
:101FB0008E099F09061717072807390708F096CFDB
:101FC000D6CF91919D938F5FA1CFE091DE0280915A
:101FD000DD02E81730F4F0E0E754FD4F808190E037
:101FE00008958FEF9FEF08959091DE028091DD02BA
:101FF0002FEF3FEF981748F4E92FF0E0E754FD4F3B
:10200000208130E09F5F9093DE02C90108958091A6
:10201000DD029091DE02891B990B0895CF92DF9229
:10202000EF92FF920F931F93CF93DF937C01CB012D
:102030008A0120912F03222389F0EB016B01C40E4A
:10204000D51ECC15DD0569F06991D701ED91FC91A4
:102050000190F081E02DC7010995F3CF642F0E9414
:10206000320DC801DF91CF911F910F91FF90EF903A
:10207000DF90CF900895CF93DF931F92CDB7DEB757
:10208000698320912F032223F9F0209152032032FB
:1020900058F021E030E0FC013383228390E080E0BF
:1020A0000F90DF91CF91089580913003E82FF0E0F9
:1020B000EF5CFC4F998190838F5F80933003809316
:1020C000520381E090E0ECCF61E0CE0101960E94E6
:1020D000320DF7CFFC01248131E030932F032093A0
:1020E000510310923003109252038385682B88EAC3
:1020F00095E00E943B1081E00C94AF0D90E080E0F1
:1021000008950F931F93CF93DF938C01EB01E09120
:10211000FB038E2F90E0FC01EE0FFF1FE80FF91F6D
:10212000E152FD4F808186FD06C066E070E08BEFD6
:1021300093E00E94650A6091A8027091A902600F65
:10214000711F653B710514F064EB70E077FF02C00E
:1021500070E060E08BEF93E00E949009E091F8035B
:102160008E2F90E0FC01EE0FFF1FE80FF91FE152E8
:10217000FD4F808186FD06C067E070E088EF93E048
:102180000E94650A6091AA027091AB026C0F7D1FDC
:10219000653B710514F064EB70E077FF02C070E0FE
:1021A00060E088EF93E0DF91CF911F910F910C9445
:1021B00090090F931F93CF93DF93082F162FD42FDF
:1021C000C8E06D2F661F6627661F802F0E946D0373
:1021D000DD0F61E0812F0E946D0360E0812F0E947E
:1021E0006D03C15071F7DF91CF911F910F91089549
:1021F000CF92DF92EF92FF920F931F93CF93DF93D3
:10220000C1E0D0E060E08091BB040E946D036E01EC
:1022100081E0C81AD1080EEF13E0F12CE12C809177
:10222000BD048E151F04C9F0C4F04C2F6091BC048E
:102230008091BA040E94D91040E06091BC04809162
:10224000BA040E94D910F801E054FF4F10828FEFBA
:10225000E81AF80A0C0D1D1DE2CF60E08091BB0466
:102260000E946D0361E08091BB040E946D03219682
:10227000C930D10539F61092BE041092BF041092F5
:10228000C0041092C1041092C2041092C3041092B0
:10229000C4041092C504E6ECF4E0119285E0E63146
:1022A000F807D9F7DF91CF911F910F91FF90EF9031
:1022B000DF90CF900895CF92DF92EF92FF920F932D
:1022C0001F93CF93DF93C82FD0E0C654DB4F9C8180
:1022D00001E010E020E030E004C0000F111F221FD9
:1022E000331F6A95D2F7442369F1092B0C83E82E3A
:1022F000E694E694E694F12C182F177060E0809134
:10230000BB040E946D03D12CC12C1F5F24968091C9
:10231000BD048C151D04F1F0ECF06091BC048091BB
:10232000BA04EC14FD0489F4412F0E94D9104881AD
:102330006091BC048091BA040E94D9108FEFC81A32
:10234000D80AE5CF00950923D1CF40E00E94D910EB
:1023500040E0EECF60E08091BB040E946D0361E03D
:102360008091BB04DF91CF911F910F91FF90EF906F
:10237000DF90CF900C946D035F926F927F928F925B
:102380009F92AF92BF92CF92DF92EF92FF920F9304
:102390001F93CF93DF9370E0DB01E3E0AA0FBB1F35
:1023A000EA95E1F7A654BB4F1C961C921C9727E0B8
:1023B000829FC0011124FC01E25FFB4FE4911D9656
:1023C000EC931D97FC01E15FFB4FE4911E96EC93AB
:1023D0001E97FC01E05FFB4FE4911F96EC931F9763
:1023E000FC01EF5EFB4FE4915096EC935097FC019B
:1023F000EE5EFB4FE4915196EC9351978D5E9B4FAF
:10240000FC01849152968C93529753961C92842E81
:10241000912C6F5F7F4F8616970609F0F6C036EC59
:10242000E32E34E0F32E5701C12C47E0D42E57E0C1
:10243000752EF50101915F01D0E0C0E010E08091C0
:10244000160590911705019769F4A8010C2E02C09A
:10245000559547950A94E2F74170672D6C1B8C2DBA
:102460000E945B118091160590911705029761F407
:10247000A8010C2E02C0559547950A94E2F74170C9
:102480006C2F8D2D0E945B11809116059091170580
:10249000039761F4A8018C2F0C2E02C05595479527
:1024A0000A94E2F741706C2D0E945B118091160531
:1024B00090911705049769F4A8010C2E02C0559558
:1024C00047950A94E2F741706D2D872D8C1B0E9471
:1024D0005B112196C830D10509F0B1CFDA94C394CD
:1024E000EFEFDE12A6CF64EF71E080E090E00E9493
:1024F000590493E0880C991C9A95E1F7F1E08F1A42
:102500009108D12CC12C27E0522E2FEFC21AD20AEB
:10251000F701818181937F015F01612C87E0782E33
:10252000F50101915F01D0E0C0E010E08091160557
:1025300090911705019769F4A8010C2E02C05595DA
:1025400047950A94E2F74170652D6C1B862D0E9419
:102550005B118091160590911705029761F4A8010F
:102560000C2E02C0559547950A94E2F741706C2FE6
:10257000872D0E945B118091160590911705039796
:1025800061F4A8018C2F0C2E02C0559547950A9432
:10259000E2F74170662D0E945B11809116059091C3
:1025A0001705049769F4A8010C2E02C055954795AC
:1025B0000A94E2F74170672D852D8C1B0E945B11F8
:1025C0002196C830D10509F0B1CF7A946394FFEF1A
:1025D0007F12A6CF64E670E080E090E00E9459048C
:1025E000C814D9040CF491CFDF91CF911F910F91B2
:1025F000FF90EF90DF90CF90BF90AF909F908F9023
:102600007F906F905F900C94F810DF91CF911F91A5
:102610000F91FF90EF90DF90CF90BF90AF909F9081
:102620008F907F906F905F900895AF92BF92CF92FE
:10263000DF92EF92FF920F931F93CF93DF936B0183
:102640007C0180911605909117050197F1F4C7E080
:1026500010E000E05801D6E0B701A6010A2C04C042
:1026600076956795579547950A94D2F741706C2FE8
:102670008D2F0E945B118FEFA81AB80AD15061F715
:102680000A5F1F4FC150C23029F780911605909103
:1026900017050297F9F4C0E010E000E05801D1E01E
:1026A000B701A6010A2C04C0769567955795479502
:1026B0000A94D2F741706C2F8D2F0E945B118FEF1F
:1026C000A81AB80ADF5FD73059F70A5F1F4FCF5FEC
:1026D000C53021F780911605909117050397F1F405
:1026E000C0E010E000E05801D6E0B701A6010A2CD6
:1026F00004C076956795579547950A94D2F741702F
:102700006D2F8C2F0E945B118FEFA81AB80AD15041
:1027100061F70A5F1F4FCF5FC53029F7809116051B
:10272000909117050497F9F4C7E010E000E0580114
:10273000D1E0B701A6010A2C04C07695679557959C
:1027400047950A94D2F741706D2F8C2F0E945B1130
:102750008FEFA81AB80ADF5FD73059F70A5F1F4F0B
:10276000C150C23021F7DF91CF911F910F91FF909F
:10277000EF90DF90CF90BF90AF9008950F931F938D
:10278000CF93DF9300D0CDB7DEB769834A83880F3C
:10279000991F00919A0510919B05000F111FE4E409
:1027A000F5E09F01245435402017310714F41192AD
:1027B000F8CF2981FC01EC5BFA4F21838A81808369
:1027C00060E0809198050E946D03101611066CF46C
:1027D00001501109F801EC5BFA4F408160919605B8
:1027E000809194050E94D910F0CF61E08091980506
:1027F0000F900F90DF91CF911F910F910C946D036B
:10280000EF92FF920F931F93CF937C018C0183E093
:10281000000F111F8A95E1F70C5A1A4FC1E0F80119
:1028200011928F0140E06C2FC7010E94BE13CF5F51
:10283000C930A9F7CF911F910F91FF90EF900895A4
:102840002F923F924F925F926F927F928F929F92C0
:10285000AF92BF92CF92DF92EF92FF920F931F93AE
:10286000CF93DF93CDB7DEB728970FB6F894DEBFCE
:102870000FBECDBFFE01319628E0DF011D922A95E3
:10288000E9F78F011C01B8E02B0E311CC12CD12CB3
:102890007601C394DC014D91CD0150E027E030E09A
:1028A000BA01022E02C0759567950A94E2F760FF9F
:1028B0000DC026013701022E04C0440C551C661CB5
:1028C000771C0A94D2F76081642960832150310912
:1028D00038F7319682159305E9F6EE24E394F12C4E
:1028E00080919A0590919B05181619065CF4D80101
:1028F0004C91F701EC5BFA4F47876E2D90E080E03A
:102900000E94BE13BFEFEB1AFB0A0F5F1F4FE9E0F7
:10291000EE16F10429F728960FB6F894DEBF0FBE25
:10292000CDBFDF91CF911F910F91FF90EF90DF907E
:10293000CF90BF90AF909F908F907F906F905F905F
:102940004F903F902F9008950F931F93CF93DF9355
:10295000082F162F60E08091BB040E946D03D0E029
:10296000C0E08091BD048C171D0689F084F0402FD3
:102970006091BC048091BA040E94D910412F6091EB
:10298000BC048091BA040E94D9102196EACF60E07D
:102990008091BB040E946D0361E08091BB04DF91D4
:1029A000CF911F910F910C946D0360E08CE00E9419
:1029B0006D034091F10364E088E00E94D91061E06A
:1029C0008CE00C946D038F929F92AF92BF92CF9246
:1029D000DF92EF92FF920F931F93CF93DF93CDB7C8
:1029E000DEB72E970FB6F894DEBF0FBECDBF809135
:1029F000B5059091B6052091B70531E030932F03CE
:102A0000209351031092300310925203DC01ED9198
:102A1000FC910190F081E02D6BE3099580E00E942C
:102A2000AF0D41E06EE08091B7050E940D0F10924E
:102A3000DE028093DD028E010F5F1F4F6E01BFE04B
:102A4000CB0ED11C8091B5059091B605DC01ED91BE
:102A5000FC910284F385E02D0995B82E8091B5058F
:102A60009091B605DC01ED91FC910284F385E02D97
:102A70000995E12C8E299B29F801819391938F016F
:102A8000CE16DF06F9F6C090BC05D090BD05E090EB
:102A9000BE05F090BF0569817A81072E000C880B76
:102AA000990B0E94E337A70196010E94923A209168
:102AB000CC053091CD054091CE055091CF050E94B7
:102AC000B3396093DC057093DD058093DE05909348
:102AD000DF056B817C81072E000C880B990B0E940F
:102AE000E337A70196010E94923A2091D0053091D8
:102AF000D1054091D2055091D3050E94B33960931E
:102B0000E0057093E1058093E2059093E3058091E1
:102B1000B40561E06827681B770B072E000C880B53
:102B2000990B0E94E3374B015C016D817E81072E7A
:102B3000000C880B990B0E94E3379B01AC01C50187
:102B4000B4010E944238A70196010E94923A209156
:102B5000D4053091D5054091D6055091D7050E94F6
:102B6000B3396093E4057093E5058093E60590938F
:102B7000E7056F817885072E000C880B990B0E9462
:102B8000E33720E030EF41E456E40E94B43920E01E
:102B900030E04AEA53E40E94923A6093D805709379
:102BA000D9058093DA059093DB05C090B805D090E5
:102BB000B905E090BA05F090BB0569857A85072EC6
:102BC000000C880B990B0E94E337A70196010E9425
:102BD000923A2091C0053091C1054091C2055091B3
:102BE000C3050E94B3396093E8057093E9058093AB
:102BF000EA059093EB056B857C85072E000C880B0E
:102C0000990B0E94E337A70196010E94923A209106
:102C1000C4053091C5054091C6055091C7050E9475
:102C2000B3396093EC057093ED058093EE059093B6
:102C3000EF056D857E85072E000C880B990B0E9491
:102C4000E337A70196010E94923A2091C80530917E
:102C5000C9054091CA055091CB050E94B3396093D4
:102C6000F0057093F1058093F2059093F3052E968D
:102C70000FB6F894DEBF0FBECDBFDF91CF911F918D
:102C80000F91FF90EF90DF90CF90BF90AF909F900B
:102C90008F9008951F93CF93DF9300D000D01F92A1
:102CA000CDB7DEB786E089831A829B836C837D83F0
:102CB0008091260690912706FC01248135812530DC
:102CC0003105E0F0208111E010932F032093510390
:102CD000109230031092520321E045E050E0BE0113
:102CE0006F5F7F4F0E94CA0E81270F900F900F9049
:102CF0000F900F90DF91CF911F91089581E0F5CF54
:102D0000CF93DF9300D0CDB7DEB789836A838091FC
:102D1000260690912706FC01248135812230310559
:102D200090F0208131E030932F03209351031092D3
:102D300030031092520321E042E050E0BE016F5F89
:102D40007F4F0E94CA0E0F900F90DF91CF91089590
:102D5000AF92BF92CF92DF92EF92FF921F93CF93E9
:102D6000DF93DC0114962D913C911597232B09F4E8
:102D700049C07A01EC01888191E090932F03809300
:102D80005103109230031092520320E041E050E0D2
:102D9000CD010E94CA0E182F8823A1F1CC80DD80BE
:102DA00061E0C114D10409F460E0A62EB12C462FD5
:102DB00088810E940D0F1092DE028093DD028A1539
:102DC0001B0401F590E080E08A159B0570F4898171
:102DD0009A81DC01ED91FC910284F385E02D099547
:102DE000F701808381E090E0EFCFCD28B9F2812F09
:102DF000DF91CF911F91FF90EF90DF90CF90BF9028
:102E0000AF90089510E0F3CF8F929F92AF92BF9250
:102E1000CF92DF92EF92FF921F93CF93DF931F9297
:102E2000CDB7DEB76B017C0120E030E040E85FE326
:102E30000E94DC3787FD86C020E030EC4AE555E48F
:102E4000C701B6010E94613B18163CF4C12C30EC5E
:102E5000D32E3AE5E32E35E4F32E609128067091E7
:102E6000290680912A0690912B060E94E1374B019A
:102E70005C0120E030E040E855E4C701B6010E9463
:102E800042389B01AC01C501B4010E94923A20E096
:102E900030E040E05FE30E94B43920E030E040E8F9
:102EA0005FE30E94B3396B017C0120E030E040E435
:102EB00050E40E94DC3787FD4CC020E030E04FE753
:102EC00053E4C701B6010E94613B181634F4C12CCB
:102ED000D12C9FE7E92E93E4F92E1982AE014F5FC2
:102EE0005F4FBA0180912606909127060E94A8168E
:102EF0001981612F6F76606180E00E948016C701A2
:102F0000B6010E940B3B8EEF0E948016612F80E07D
:102F10000E94801665E070E080E090E00E94590415
:102F2000612F606A80E00E9480160F90DF91CF9140
:102F30001F91FF90EF90DF90CF90BF90AF909F9048
:102F40008F900895C12CD12C20E8E22E2FE3F22E91
:102F500084CFC12CD12C80E4E82EFE2CBECF0F9361
:102F60001F93CF938C01C62F0E946A106C2F646050
:102F7000C8010E946A106C2F6B7FC8010E946A1002
:102F800083EC90E00197F1F7CF911F910F91089595
:102F90000F931F93CF938C01C62F607F61600E94B7
:102FA000AF1780E1C89FB00111246160C8010E9481
:102FB000AF1781E090E0CF911F910F910895CF93CB
:102FC000C82F682F607F8CE995E00E94AF1780E1E1
:102FD000C89FB00111248CE995E0CF910C94AF17F4
:102FE000CF93DF93CDB7DEB728970FB6F894DEBF47
:102FF0000FBECDBF98E0EBE5F1E0DE011196019048
:103000000D929A95E1F79091A405961710F46FEF41
:10301000690F70E0660F771F21E030E02C0F3D1F35
:10302000620F731FFB019081890F806828960FB68D
:10303000F894DEBF0FBECDBFDF91CF910C94DF17A8
:103040000F931F9360E088E00E946D0383E090E09F
:103050000197F1F761E088E00E946D0383E290E060
:103060000197F1F760E088E00E946D03E9E7F5E081
:103070006491E5E6F5E0E491F0E0EE0FFF1FE85B18
:10308000FA4F8591949100E315E720E030E0462F58
:103090000E94662E6115710581059105A9F06F5F8B
:1030A0007F4F8F4F9F4F9F7061157105810591056F
:1030B00059F00E94E13720E030E048E652E40E94F7
:1030C000923A1F910F91089560E070EC89E794E4C3
:1030D000F8CF4F925F926F927F928F929F92AF92B2
:1030E000BF92CF92DF92EF92FF920F931F93CF93F5
:1030F000DF93CDB7DEB72C970FB6F894DEBF0FBEC7
:10310000CDBF0E94E314C090E405D090E505E090A7
:10311000E605F090E70521E030E03A83298320E0DE
:1031200030E0A901C701B6010E94613B87FF02C0E0
:103130001A82198201E010E020E030E0A901C70105
:10314000B6010E94DC3787FD02C010E000E0698113
:103150007A81601B710B072E000C880B990B0E9463
:10316000E3376D837E838F839887A7019601C7011C
:10317000B6010E9442382B013C01C090DC05D09082
:10318000DD05E090DE05F090DF05A7019601C7019F
:10319000B6010E944238A30192010E94B4390E94F4
:1031A0007C3B9B01AC018090E0059090E105A090F4
:1031B000E205B090E3056D817E818F8198850E9444
:1031C00042389B01AC01C501B4010E94333A21EEA3
:1031D0003EE245E652E40E9442386093F405709363
:1031E000F5058093F6059093F705A5019401C501B7
:1031F000B4010E944238A30192010E94B4390E9496
:103200007C3B9B01AC01C701B6010E94333A905848
:1032100021EE3EE245E652E40E9442386093F80512
:103220007093F9058093FA059093FB050E948C0436
:103230006B017C018091080690910906A0910A0615
:10324000B0910B06A7019601281B390B4A0B5B0BAB
:10325000CA01B9010E94E1372FE632E143E85AE39F
:103260000E9442384B015C01C0920806D0920906C8
:10327000E0920A06F0920B0680910C0690910D06E2
:10328000A0910E06B0910F0689839A83AB83BC830D
:103290004090F4055090F5056090F6057090F705A4
:1032A0002091E8053091E9054091EA055091EB0540
:1032B000C501B4010E9442382091FC053091FD0502
:1032C0004091FE055091FF050E94B439A30192017F
:1032D0000E94B3396B017C0120E030E044E353E409
:1032E0000E94613B18163CF420E030E044EB53E4CC
:1032F000C701B601EDCF20E030E044E353ECC70155
:10330000B6010E94DC3787FF0BC020E030E044EBC1
:1033100053E4C701B6010E94B4396B017C01EBCFC5
:1033200029813A814B815C8160E070E080E89FE315
:103330000E94B33969877A878B879C87A70196019A
:10334000C301B2010E94B43929813A814B815C8169
:103350000E9442386B017C0129853A854B855C854A
:10336000C301B2010E9442389B01AC01C701B60102
:103370000E94B4396B017C0120E030E044E353E467
:103380000E94613B18164CF420E030E044EB53E41B
:10339000C701B6010E94B339EDCF20E030E044E32D
:1033A00053ECC701B6010E94DC3787FF0BC020E059
:1033B00030E044EB53E4C701B6010E94B4396B011D
:1033C0007C01EBCFC092FC05D092FD05E092FE059A
:1033D000F092FF054090F8055090F9056090FA05CD
:1033E0007090FB052091EC053091ED054091EE05C4
:1033F0005091EF056D817E818F8198850E944238C2
:10340000A50194010E9442382091000630910106E6
:1034100040910206509103060E94B439A301920123
:103420000E94B3396B017C0120E030E044EB52E4B0
:103430000E94613B18163CF420E030E044E353E482
:10344000C701B601EDCF20E030E044EB52ECC701FC
:10345000B6010E94DC3787FF0BC020E030E044E378
:1034600053E4C701B6010E94B4396B017C01EBCF74
:10347000A7019601C301B2010E94B43929813A81A2
:103480004B815C810E9442386B017C01A301920157
:1034900069857A858B859C850E9442389B01AC01A9
:1034A000C701B6010E94B4396B017C0120E030E015
:1034B00044EB52E40E94613B18164CF420E030E0EB
:1034C00044E353E4C701B6010E94B339EDCF20E0D5
:1034D00030E044EB52ECC701B6010E94DC3787FFB5
:1034E0000BC020E030E044E353E4C701B6010E9482
:1034F000B4396B017C01EBCFC0920006D09201067B
:10350000E0920206F09203062091F0053091F10559
:103510004091F2055091F305C501B4010E94423873
:103520002091040630910506409106065091070649
:103530000E94B439609304067093050680930606D2
:10354000909307062C960FB6F894DEBF0FBECDBF42
:10355000DF91CF911F910F91FF90EF90DF90CF906F
:10356000BF90AF909F908F907F906F905F904F90A3
:103570000895660F771F660F771F6F567C4F44E0E4
:1035800050E085EB92E00E9422366091B502709186
:10359000B6028091B7029091B8020C9415134F9225
:1035A0005F926F927F928F929F92AF92BF92CF92D3
:1035B000DF92EF92FF920F931F93CF93DF936A01F5
:1035C000270138018B014C0159017B0188E0E80E8D
:1035D000F11CCEEFD3E0F801819191918F019E8390
:1035E0008D83F401819191914F019C838B83D886C7
:1035F000CF826D8D7E8DC6010E94393C90E080E0C7
:103600000E94E1379B01AC01298F3A8F4B8F5C8F71
:103610006BED7FE089EC90E40E94923A6D8B7E8B9B
:103620008F8B988FF50181919191A191B1915F015B
:1036300089879A87AB87BC87AF960E151F0559F609
:103640000E948C040E94E1374B015C01B601DD0C45
:10365000880B990B0E94E337A30192010E94423824
:10366000A50194010E94B4396B017C01A50194016C
:10367000C701B6010E94613B87FD89C0CEEFD3E050
:103680000E948C046BA37CA38DA39EA30F8D18A115
:1036900029A13AA14B015C01801A910AA20AB30A3E
:1036A0000D8D1E8D30E020E0081519052A053B051B
:1036B0000CF05BC06F8F78A389A39AA38FA18111AF
:1036C00046C029853A854B855C8569897A898B89CD
:1036D0009C890E94B4390E946E3B4B015C016B8156
:1036E0007C8190E080E00E94E137A50194010E9476
:1036F00042384B015C016D817E81072E000C880BE6
:10370000990B0E94E3379B01AC01C501B4010E94F3
:10371000B4394B015C0120E030E0A9010E94613B1B
:1037200020E030E040E05FE387FD2CC0C501B4013C
:103730000E94B4390E94043B88A5882319F0719532
:1037400061957109665A7F4FCE010E940C0A2D893E
:103750003E894F89588D69897A898B899C890E9415
:10376000B439698B7A8B8B8B9C8BAF96F4E0CA3B18
:10377000DF0709F085CF0E948C040E94E1374B01DE
:103780005C0174CFC501B4010E94B339D3CFDF917E
:10379000CF911F910F91FF90EF90DF90CF90BF904E
:1037A000AF909F908F907F906F905F904F90089513
:1037B0002F923F924F925F926F927F928F929F9241
:1037C000AF92BF92CF92DF92EF92FF920F931F932F
:1037D000CF93DF93CDB7DEB728970FB6F894DEBF4F
:1037E0000FBECDBF9A8389837C836B835E834D83B9
:1037F0001901270138010E94120B809143058111A4
:1038000010924305C301B2010E94043B4B016B01BE
:1038100016161706BCF418861F82E12CF12C00E85E
:103820001FE391014D815E816B817C8189819A8149
:103830000E94CF1A8F819885019698878F83C8162A
:10384000D90659F7B401990C880B990B0E94E337FC
:103850009B01AC01C301B2010E94B3397B018C0111
:1038600091014D815E816B817C8189819A810E9469
:10387000CF1A28960FB6F894DEBF0FBECDBFDF91EA
:10388000CF911F910F91FF90EF90DF90CF90BF905D
:10389000AF909F908F907F906F905F904F903F90F0
:1038A0002F9008951F93CF93DF93EC01162F0E9462
:1038B0000339181739F0612FCE01DF91CF911F9195
:1038C0000C940B39DF91CF911F910895FC018081F9
:1038D0009181009711F00C94033D0895AF92BF922F
:1038E000CF92DF92EF92FF920F931F93CF93DF93CC
:1038F000DC01CD90DC901197C114D10439F01496FD
:10390000CD91DC918C017601209761F4DF91CF910C
:103910001F910F91FF90EF90DF90CF90BF90AF90ED
:10392000089575015701BFEFAB1ABB0AF7018081FB
:10393000082E000C990B0E94AB37892B91F7219729
:10394000CC0DDD1D8881082E000C990B0E94AB3731
:10395000892B29F0CE15DF0510F02197F3CFAE01AA
:103960004F5F5F4F4E195F09D80115965C934E93D8
:103970001497CE14DF0420F4B701C6010E94513E13
:10398000D801ED91FC91119714968D919C91E80FBF
:10399000F91F1082BBCF0F931F93CF93DF93EC01DE
:1039A00088819981009759F02A813B812617370732
:1039B00030F081E0DF91CF911F910F9108958B013D
:1039C0006F5F7F4F0E948C3D009759F099838883E9
:1039D0001B830A832C813D81232B59F7FC01108224
:1039E000E8CF80E0E7CFEF92FF920F931F93CF9342
:1039F000DF93EC017B018A01BA010E94CB1C288174
:103A00003981811114C02115310519F0C9010E94B5
:103A1000033D198218821D821C821B821A82CE01EC
:103A2000DF91CF911F910F91FF90EF9008951D832B
:103A30000C83B701C9010E945A3EF1CFFC011182EB
:103A400010821382128215821482FB0101900020E1
:103A5000E9F73197AF01461B570B0C94F31CCF923B
:103A6000DF92EF92FF920F931F93CF93DF9300D0DB
:103A7000CDB7DEB78C016B016FED71E00E941E1DAA
:103A8000C6010E94DF0797FD21C08A309105F1F041
:103A900089831A82F801E480F580FFEFEF1AFF0AAC
:103AA000B701C8010E94CB1C882351F3F801208183
:103AB000318184819581BE016F5F7F4F820F931F9B
:103AC0000E945A3EF801F582E482DACFC8010F90D5
:103AD0000F90DF91CF911F910F91FF90EF90DF90AA
:103AE000CF900895FB0101900020E9F73197AF01D5
:103AF000461B570BDC01ED91FC910280F381E02D18
:103B000009948F929F92AF92BF92EF92FF920F9380
:103B10001F93CF93DF93CDB7DEB7A1970FB6F8947D
:103B2000DEBF0FBECDBF7C01FA01CB0119A222304E
:103B300008F42AE08E010F5D1F4F822E912CB12CCC
:103B4000A12CBF01A50194010E948239F901CA018B
:103B50006A300CF5605DD8016E938D01232B242B08
:103B6000252B79F790E080E0109721F0BD01C70187
:103B70000E94721DA1960FB6F894DEBF0FBECDBF96
:103B8000DF91CF911F910F91FF90EF90BF90AF9079
:103B90009F908F900895695CDECFCF92DF92EF9275
:103BA000FF920F931F93CF93DF9377FF1DC06A019E
:103BB0007B01EC016DE20E940D088C014427552722
:103BC000BA014C195D096E097F092AE0CE010E94F5
:103BD000811D800F911FDF91CF911F910F91FF9059
:103BE000EF90DF90CF9008952AE0DF91CF911F9161
:103BF0000F91FF90EF90DF90CF900C94811D6DEDB1
:103C000071E00C94721DCF93DF93AC01990F660B9A
:103C1000770B83E593E00E94CD1DEC0183E593E0F3
:103C20000E94FF1D8C0F9D1FDF91CF9108954F9231
:103C30005F926F927F928F929F92AF92BF92CF923C
:103C4000DF92EF92FF926B017C01AC019B010E941D
:103C5000C03B60EE71E081111AC046015701E89443
:103C6000B7F82FEF3FEF4FE75FE7C501B4010E94C0
:103C7000C03B811124C02FEF3FEF4FE75FE7C50145
:103C8000B4010E94DC371816D4F464EE71E083E5C9
:103C900093E00E94721D7C0183E593E00E94FF1D6A
:103CA0008E0D9F1DFF90EF90DF90CF90BF90AF9053
:103CB0009F908F907F906F905F904F9008952FEF1F
:103CC0003FEF4FE75FE4C701B6010E94613B181662
:103CD0001CF468EE71E0DBCF2FEF3FEF4FE75FECB6
:103CE000C701B6010E94DC3787FDF3CF20E030E04A
:103CF000A901C701B6010E94DC37B12CA12C87FFB6
:103D00000AC06DE283E593E00E940D085C01F7FABA
:103D1000F094F7F8F0942AE037ED43EA5BE3C7014B
:103D2000B6010E94B4392B013C010E940B3B6B0190
:103D30007C010E94E1379B01AC01C301B2010E94EA
:103D4000B3392B013C012AE0B701A60183E593E0DA
:103D50000E94811D7C01EA0CFB1C6EE283E593E06E
:103D60000E940D08E80EF91E20E030E040E251E428
:103D7000C301B2010E9442382B013C010E940B3B5F
:103D80004B01B12CA12C2AE0B501A40183E593E0FD
:103D90000E94811DE80EF91EC501B4010E94E137A1
:103DA0009B01AC01C301B2010E94B33920E030E0B5
:103DB00040E251E40E9442380E940B3BAB0170E0AC
:103DC00060E02AE083E593E00E94811DE80EF91E81
:103DD00063CFCF93DF93FC01448155816081718172
:103DE00083E593E00E941408EC0183E593E00E94D0
:103DF000FF1D8C0F9D1FDF91CF910895CF93DF930F
:103E0000682F83E593E00E940D08EC0183E593E0C1
:103E10000E94FF1D8C0F9D1FDF91CF910895CF93BE
:103E2000DF93AB01BC0183E593E00E94CD1DEC0163
:103E300083E593E00E94FF1D8C0F9D1FDF91CF91C2
:103E400008950F931F93CF93DF93EC010E94721D8F
:103E50008C01CE010E94FF1D800F911FDF91CF9139
:103E60001F910F91089585ED8093BC0080912B03E5
:103E700090912C03A0912D03B0912E030796A11DC4
:103E8000B11D23E0B695A795979587952A95D1F70B
:103E90002091BC0024FD03C0109229030895409195
:103EA0002B0350912C0360912D0370912E03452B11
:103EB000462B472B69F30097A105B10541F02AE293
:103EC0002A95F1F700C00197A109B109E1CF8091CE
:103ED0002A030C948E0D2F923F924F925F926F9215
:103EE0007F928F929F92AF92BF92CF92DF92EF928A
:103EF000FF920F931F93CF93DF93CDB7DEB7CA55D1
:103F0000D1400FB6F894DEBF0FBECDBF81E090E088
:103F10000E94031E90E080E00E94031E90E080E07B
:103F20000E94031E81E090E00E94031E8BE090E05F
:103F300090930C0280930B0290E080E00E94031E9D
:103F400082E090E00E94031E60E070E080E490E474
:103F50000E94171E81E090E00E94031E60E070E066
:103F6000CB010E940F1F82E390E00E94031E0E947B
:103F7000C63526E030E040E050E00E9419396F5F1E
:103F80007F4F8F4F9F4F0E940F1F63E070E080E0D4
:103F900090E00E940F1F81E090E00E94031E6FEDF1
:103FA00071E083E593E00E94211FC75BDE4F198219
:103FB0001882C954D140C55BDE4F19821882CB5498
:103FC000D140C35BDE4F19821882CD54D1404AE004
:103FD0009E012F5F3F4F3901B90190E080E00E94C0
:103FE0003636F30101900020E9F73197AF01461909
:103FF0005709B301CE01875B9E4F0E94F31C6CEE04
:1040000071E0C3010E941E1D6E013FEBC31A3EEF1B
:10401000D30AF60111821082138212821582148251
:1040200069817A816115710529F04D815E81C60132
:104030000E94F31CC75BDE4FE880F980C954D14071
:10404000E114F10409F45CC1C35BDE4F08811981FE
:10405000CD54D14001151105C9F0F6018481958137
:10406000080F191FB801C6010E94CB1C882309F450
:1040700047C1F6012081318184819581B701820F8A
:10408000931F0E945A3EF60115830483C6010E94C5
:10409000E91EC6010E94661CC3010E94661CCE0177
:1040A000875B9E4F0E94661C81E40E94FE1E63EFA8
:1040B00071E0C3010E941E1D4D815E8170E060E0D1
:1040C0002AE083E593E00E94811D83E593E00E944E
:1040D000FF1DC3010E94661C68EF71E0C3010E94CE
:1040E0001E1D89819A81009709F419C10E941E360C
:1040F0000E94171EC3010E94661C8091400190918E
:1041000041010E94031E109241011092400184E07F
:1041100090E00E94031E80912001909121010E9455
:10412000031E109221011092200184E090E00E9471
:10413000031E61E08DE00E946D03EFE7F3E08491E0
:10414000E2E7F5E01491EEE5F5E00491002309F4CF
:10415000EAC081110E944403E02FF0E0EE0FFF1F40
:10416000E85BFA4FA591B491EC911E2381E090E0B9
:1041700009F480E00E94031E60E082E00E949B033D
:1041800060E870E089E00E94D7030E94FB020E9471
:10419000031E61E08DE00E946D0328EC30E040E0FA
:1041A00050E068EB71E088E00E94C40488E00E945F
:1041B00098048DE090E00E94031E68EE73E080E0BA
:1041C00090E00E94590468EE73E080E090E00E9465
:1041D00059040E948C04AB01BC012AE083E593E002
:1041E0000E94811D83E593E00E94FF1D0E948C04C4
:1041F00000910702109108022091090230910A02F1
:10420000601B710B820B930B643F7140810591051C
:1042100050F00E948C046093070270930802809310
:10422000090290930A02E0916303F091640382E033
:104230008083E0915F03F09160031082E09161035D
:10424000F09162038FEC808310926B03E09167031F
:10425000F091680386E08083E0916503F091660346
:10426000808180618083E0916503F09166038081A5
:1042700088608083E0916503F091660380818068A7
:104280008083E0916503F091660380818F7D808358
:104290006BEF71E083E593E00E94211F83E593E0DB
:1042A0000E94A40821E030E01816190614F030E04E
:1042B00020E0C9010E94031E63E573E0C3010E9470
:1042C0002F1DC3010E946E1CC3010E94E91EC30181
:1042D0000E94661C83E593E00E9450080E94FE1E27
:1042E0000E947208FC0197FD93C28D329105F1F096
:1042F000C0970A97D8F083E593E00E945008F0CF6A
:10430000F60180819181009711F00E94033DF60132
:10431000118210821582148213821282B7CE60E05D
:1043200070E0CB01E5CE80E090E024CF812C912C91
:10433000540110E0E130F105D9F0ED32F10509F456
:1043400065C2CF01C0970A9798F4AAE0B0E0A50132
:1043500094010E9438394F01FF0FAA08BB08860E4E
:10436000971EA81EB91E20E3821A9108A108B10861
:1043700083E593E00E9450080E947208FC01C097F8
:104380000A97C0F2E130F105A9F2112341F0B0948F
:10439000A09490948094811C911CA11CB11CC50117
:1043A000B4010E940F1F10925A06109259061092E3
:1043B00058061092570610925606109255068DE92F
:1043C00091E090935C0680935B0690914B0696314A
:1043D00008F047C02DEB30E0309356062093550689
:1043E0002BE931E030935806209357062CE231E058
:1043F00030935A06209359062091680084E0983043
:1044000048F031E09E3008F430E081E001C0880FD0
:104410003A95EAF7822B809368002DE630E09830D9
:1044200050F02BE630E09E3030F02CE630E0963154
:1044300010F030E020E03093530620935206292FED
:1044400030E0983008F0E8C181E001C0880F9A950B
:10445000EAF78093540680915B0690915C06019781
:10446000F1F78091590690915A06892B49F1E09114
:104470009302F091940236E0EF33F30709F130979D
:1044800039F0A389B4899C918589809589238C937F
:1044900080915D068E7F80935D061092910210924E
:1044A00092028FE396E09093940280939302E091BE
:1044B0005206F0915306808190915406892B808397
:1044C0006BEF71E08FE396E00E94211F8FE396E08F
:1044D0000E94FB0C21E030E01816190614F030E0C1
:1044E00020E0C9010E94031E8FE396E00E94110D97
:1044F0000E94FE1E6FE376E0C3010E942F1DC301E0
:104500000E946E1CC3010E94E91EC3010E94661C2A
:104510008CE791E00E94330983E593E00E94FF1D40
:1045200038E0832E912CA12CB12C00E0FF24F394D1
:10453000182DF0922F0380925103109230031092A5
:10454000520381E00E94AF0D811136C087E791E0F0
:104550000E943309103128F460E383E593E00E9460
:104560000D0820E1B501A40183E593E00E94811DBF
:10457000173211F01F3321F488E691E00E943309CD
:1045800084EC810F823020F488E591E00E943309A9
:1045900080EC810F883020F482E491E00E9433099E
:1045A0001856123020F48AE291E00E94330983E524
:1045B00093E00E94FF1D0F5F4FEF841A940AA40A34
:1045C000B40A58E785169104A104B10409F0B0CFEC
:1045D000011108C08FEE90E00E94330983E593E05B
:1045E0000E94FF1D81E080932F0388E08093510398
:1045F000109230031092520360E088EA95E00E9426
:104600003B1081E00E94AF0D41E061E088E00E9434
:104610000D0F282F1092DE028093DD0281E090E0E2
:10462000211102C090E080E00E94031E88EA95E01C
:104630000E94F40F0E94031E68EC70E080913C061B
:104640000E94D70380913D0601E010E0A80101C05F
:10465000440F8A95EAF72091F103242B80913E06BE
:10466000A80101C0440F8A95EAF74095F22EF42282
:10467000F092F1030E94D51480913D06980101C08B
:10468000220F8A95EAF780913E06F80102C0EE0FEC
:10469000FF1F8A95E2F72E2B2095F222F092F1036C
:1046A0000E94D51480913D06480102C0880C991CD7
:1046B0008A95E2F7C40190913E0601C0000F9A95D9
:1046C000EAF7082B00950F210093F1030E94D514FF
:1046D0002091300630913106AAE0B0E00E94A43962
:1046E0009B01AC0160E077E883E993E00E948239A6
:1046F00019012A0120923306309234064092350681
:1047000050923606109237061092380610923906EB
:1047100010923A06CA01B90128EE33E040E050E0B9
:104720000E948239C95ADE4F288339834A835B83CA
:10473000C755D1404B015C01CB5ADE4F798368836A
:10474000C555D14025E630E0CD5ADE4F3983288368
:10475000C355D140CD5ADE4F48815981C355D14010
:1047600041505109CD5ADE4F59834883C355D1403A
:10477000452B09F4DEC090912F06913009F459C001
:10478000923009F070C080E4E82E20E8F22E01E0BB
:1047900010E28091320683FF53C0885F8093320617
:1047A000809132068F7380933206913009F04AC0AF
:1047B0006FEF70E08BE00E94D7036FEF70E083E053
:1047C0000E94D703212F202B9F2D9E29822F892BDA
:1047D00080953091F10383238093F103E0913206B9
:1047E000F0E0B3E0F595E795BA95E1F7E830F1052B
:1047F00008F037C0E250FC4D0C94613C2E2481241B
:10480000852489248C2490249224962411E0B0CD10
:10481000812C912C5401C3CD9E3040F42850310995
:1048200081E001C0880F2A95EAF713CE2E50310996
:10483000F7CF10E1E12E08E0F02E02E014E0A9CF5E
:10484000805FACCF923009F0BDCF6FEF70E086E0B3
:104850000E94D7036FEF70E085E0B2CF182B109362
:10486000F1030E94D514C101211450E4350641041E
:10487000510480F0C95ADE4F688179818A819B8119
:10488000C755D1400E945904CB5ADE4F8881998187
:10489000C555D1400E94EE028091370690913806AE
:1048A000A0913906B0913A06880D991DAA1DBB1D2D
:1048B0008093370690933806A0933906B0933A0652
:1048C000883E9340A105B10508F444CF61E070E053
:1048D00080E090E00E94590480913706909138065C
:1048E000A0913906B0913A06885E9340A109B109BA
:1048F0008093370690933806A0933906B0933A0612
:1049000029CF822B8093F103ACCF082B0093F103C6
:10491000A8CF0F29802BF6CFF82AF092F103A1CF70
:10492000892BF0CFE82AE092F1039BCF1E29812B3F
:10493000E9CF6AE570E08CE296E00E9490098EEF84
:104940008983A301B30180912606909127060E94D6
:10495000A816698170E06F5F7F4F90E080E00E9451
:10496000E13720E034E244E759E40E9442384B0149
:104970005C01609128067091290680912A06909129
:104980002B060E94E1379B01AC01C501B4010E94D6
:10499000923A9B01AC0160E070E88BEB94E40E94DA
:1049A000923A0E940B3B90E080E00E944A1660E041
:1049B00070E190E080E00E944A1660E078E090E0CC
:1049C00080E00E944A160E948C0400911906109102
:1049D0001A0620911B0630911C064B015C01801ABF
:1049E000910AA20AB30A95018401003D17402105EE
:1049F000310548F4809121068111BFC060E070E06C
:104A000080EC9FE7ECC06093190670931A068093C0
:104A10001B0690931C061092140610921306109217
:104A20001206109211061092100662E0809115068F
:104A30000E949B0361E070E080E090E00E945904D6
:104A400061E0809115060E949B0360E0809115064D
:104A50000E946D038091160685518230D8F48BE256
:104A600091E10197F1F762E0809115060E949B03A6
:104A70008091220690E00E94EE02F89480E00E946D
:104A80000C036F3F7F4F8F4F9F4F59F410922106B9
:104A90007894B4CF64E170E080E090E00E94590423
:104AA000E2CF81E00E940C036F3F7F4F8F4F9F4FFB
:104AB00069F38301730180E00E940C03F7016083B6
:104AC00071838283938381E00E940C03F7016483E6
:104AD000758386839783F8E0EF0EF11CCE14DF0414
:104AE00051F7789430E020E0F80180809180A28036
:104AF000B3804481558166817781FFEF8F169F06D1
:104B0000AF06BF0631F04F3F8FEF580768077807B1
:104B100019F41092210672CFF901A3E0F595E795FB
:104B2000AA95E1F7E05FF94F8081880F841695061A
:104B3000A606B70608F4D9C180832F5F3F4F085FF0
:104B40001F4F2832310581F640911406209110063E
:104B500080911106280F3327331F80911206280FEA
:104B6000311D80911306820F932F911D99274817AD
:104B7000190679F681E080932106809116068C3023
:104B800009F4CFC108F0B3C18B3009F037CF609181
:104B9000120670E090E080E00E94E1374B015C017A
:104BA0001091130617FF0AC0AC019B0160E070E092
:104BB00080E89FEB0E94B3394B015C011F70612FAD
:104BC00070E090E080E00E94E3372DEC3CEC4CEC90
:104BD0005DE30E944238A50194010E94B4390E940D
:104BE000171E0E9420180E94171E81E090E00E946C
:104BF000031E0E9469186091FC057091FD0580916B
:104C0000FE059091FF050E94171E0E946918609191
:104C1000DC057091DD058091DE059091DF050E9435
:104C2000171E60E080E00E94F0176BEF71E08CE9E6
:104C300095E00E94721D40E050E0BA018CE995E0D9
:104C40000E94CD1D61E080E00E94F01781E00E948B
:104C5000DF178BE39FE10197F1F761E080E00E94AD
:104C6000F01700E110E060E28CE995E00E940D0889
:104C700001501109C1F761E080E00E94F01780E463
:104C80000E94DF1708E111E030E2E32E31E0F32E5D
:104C9000F80161918F018CE995E00E94C817E01638
:104CA000F106B1F760E080E00E94F01760E08FE06D
:104CB0000E94F01760E08CE995E00E94C81788E137
:104CC0000E94DF178091A2058B7F8093A2058860E8
:104CD0000E94DF178091A2058D7F8093A2058860D6
:104CE0000E94DF178091A2058E7F8093A2058860C5
:104CF0000E94DF1788E08093A70560E08CE995E0CB
:104D00000E946A1080E191E00E94201480919A052F
:104D100090919B051816190624F490E080E00E94FB
:104D2000001480E091E00E94201468EC70E080E0C4
:104D300090E00E94590488E091E00E94201468EC01
:104D400070E080E090E00E94590460E072E0C601EB
:104D50000E941E1DF6018481958126E0289F200176
:104D6000299F500C112498EFE92EFF24FA9426E095
:104D7000A22EB12C4E145F040CF4F5C0F30118E020
:104D8000812E11928A94E9F7F6010480F581E02DD5
:104D9000CB5ADE4FF983E883C555D140F601208018
:104DA0003180870187E0882E912C17FD6EC0041595
:104DB00015050CF06AC0C801B5010E944D3CCB5AE4
:104DC000DE4F28813981C555D1406217730730F411
:104DD000F101E60FF71F2114310421F410920602AD
:104DE000E6E0F2E02081222309F4BBC0C801B5014E
:104DF0000E944D3CCD5ADE4F99838883C355D140E4
:104E0000853009F4AEC0822F220F990B0E94493ED3
:104E1000BC018DE992E00E942B36009709F4A1C0F5
:104E20008D59924035E0389FF001399FF00D1124E3
:104E3000CD5ADE4F48815981C355D140E40FF51F4B
:104E4000E756FE4FE49141E050E060E070E0082C4E
:104E500004C0440F551F661F771F0A94D2F7DE0166
:104E6000119690E080E0F0E09F01082E02C0359599
:104E700027950A94E2F720FF03C02C91242B2C9352
:104E8000019611968730910579F70F5F1F4F51E01A
:104E9000851A910808F089CF10E000E061E0600F0A
:104EA00080919A0590919B05181619067CF4E1E013
:104EB000F0E0EC0FFD1FE00FF11F4081F801EC5B0B
:104EC000FA4F408B90E080E00E94BE130F5F1F4FAF
:104ED0000830110519F760E570E080E090E00E946D
:104EE00059049FEFE91AF90A45CF816025CE855113
:104EF000823008F083CD10911206612F70E0762F7A
:104F0000662766277F7780911306682B90E080E004
:104F10000E94E1372DEC3CEC4CEC5DE30E94423802
:104F20001CC010911206612F70E090E080E00E949A
:104F3000E1374B015C01609113066F7070E090E007
:104F400080E00E94E3372DEC3CEC4CEC5DE30E94EA
:104F50004238A50194010E94B43917FF40CE905801
:104F60003ECEE0E070CFC6010E94661C80919A059B
:104F700090919B051816190654F44091570540610D
:104F80004093570564E090E080E00E94BE1380915A
:104F90009A0590919B051816190634F444E06AE0CE
:104FA00090E080E00E94BE1388E0E3E6F1E0DE01DD
:104FB000A75BBE4F01900D928A95E1F788E0EBE682
:104FC000F1E0D60101900D928A95E1F778E0B72ED5
:104FD000F3018B2C11928A94E9F7EBED2E2EEFE082
:104FE0003E2EE9EC4E2EEFEB5E2E29863A864B865E
:104FF0005C862D863E864F86588AE12CF12C00E097
:1050000010E4930148EE53E0B601CE01875B9E4F5A
:105010000E94D81BE3E6F1E0DE01A75BBE4F8B2DBB
:1050200001900D928A95E1F7EBE6F1E0D6018B2D28
:1050300001900D928A95E1F780E1E3E7F1E0D30179
:1050400001900D928A95E1F78AE090E0C55BDE4F12
:1050500099838883CB54D140930140ED57E0B6014A
:10506000CE01875B9E4F0E94D81BE3E8F1E0DE0192
:10507000A75BBE4F8B2D01900D928A95E1F7EBE86F
:10508000F1E0D6018B2D01900D928A95E1F7E3E5D1
:10509000F1E0D3018B2D01900D928A95E1F7BE01CD
:1050A000675B7E4F80E991E00E94320BB60180E998
:1050B00091E00E94320B60E674E080E090E00E9494
:1050C0005904B30184EF91E00E94320BC75BDE4FBD
:1050D000188219821A821B82C954D1408FE090E055
:1050E000C35BDE4F99838883CD54D140C15BDE4FD3
:1050F00099838883CF54D140F601108211821282A5
:10510000138289E090E09583848387EF9FEF9783F4
:105110008683F3018B2C11928A94E9F729863A86CB
:105120004B865C8687E39DE8A7E2B0EC8D879E877F
:10513000AF87B88B930148EE53E0B601CE01875B91
:105140009E4F0E94D81BE3E9F1E0D6018B2D019020
:105150000D928A95E1F7B60180ED97E00E94320B3F
:10516000E3E5F1E0D30101900D92BA94E1F7B301C8
:1051700080ED97E00E94320B0E945A0C6AE570E0C5
:105180008AE590E00E9481100E948009E091FB0373
:105190008E2F90E0FC01EE0FFF1FE80FF91FE15288
:1051A000FD4F80818F7B8083E091F8038E2F90E00C
:1051B000FC01EE0FFF1FE80FF91FE152FD4F808148
:1051C0008F7B80830E94120B809143058111109286
:1051D00043056AE570E08EEF93E00E940C0A00E25E
:1051E00011E060E4E62E61E0F62EF8018081918105
:1051F0009A838983828193819C838B838481958127
:105200009E838D838681978198878F83B30184EFF6
:1052100091E00E94320B085F1F4FE016F10629F75C
:1052200080EF90E090932804809327049093570494
:105230008093560490938604809385049093B504DC
:105240008093B40464E170E080EA90E00E948110F1
:105250006CE271E080E090E00E9459040EE110E001
:1052600022E330E040E050E064EA70ED84E294E450
:105270000E942A0709E110E027E330E040E050E017
:1052800062E570ED84EA94E40E942A070AE010E0E7
:105290002CE330E040E050E060E070E08CED94E41E
:1052A0000E942A070EE110E022E330E040E050E0E7
:1052B00064EA70ED84E294E40E942A076AE070E0F8
:1052C00080E090E00E94B91A68E0862E912C7FE081
:1052D000A72EB12CC12CD12C16E6E12EFE2C06E80F
:1052E0001FE320E030E04AEF54E460E070E88BEB2D
:1052F00094E40E944F0764E670E080E090E00E9432
:105300005904FAE0AF2EB12CC12CD12C20E030E4AE
:105310004CE155E460E070E88DEE94E40E944F07A4
:10532000C75BDE4F188219821A821B82C954D14092
:1053300084E190E0C35BDE4F99838883CD54D140F4
:10534000C15BDE4F99838883CF54D140CF5BDE4F62
:10535000188219821A821B82C154D1408AE090E0DF
:10536000CB5BDE4F99838883C554D14086EF9FEF96
:10537000C95BDE4F99838883C754D14080E1F30134
:1053800011928A95E9F7E12CF12C00E81FE39301D3
:1053900040E253E0BE016F5B7E4FCE01875B9E4FC4
:1053A0000E94D81BBFE0AB2EB12CC12CD12C16E62D
:1053B000E12EFE2C06E81FE320E030E04AEF54E443
:1053C00060E070E88BEB94E40E944F0764E670E0C5
:1053D00080E090E00E9459049AE0A92EB12CC12CE3
:1053E000D12C20E030E44CE155E460E070E88DEE33
:1053F00094E40E944F070E945A0C6BE070E080E03A
:1054000090E00E94B91A01E010E028EC30E040E0A2
:1054100050E060E070E08CED93E40E942A0788245D
:105420008394912C32E1A32EB12CC12CD12C1CE5FC
:10543000E12E1FE8F12E02E81FE320E030ED42E00C
:1054400055E460E070E08CE594E40E944F076AE068
:1054500070E080E090E00E94B91A02ED12E052EF95
:10546000E52E52E0F52E44E050E0B80185EB92E0E5
:105470000E9422366091B5027091B6028091B70207
:105480009091B8020E94151368E770E080E090E008
:105490000E9459040C5F1F4FE016F10621F70E948D
:1054A000F81040E1E42E41E0F42EB12C57E0C52E77
:1054B000D12C10E000E0F701808190E09601201BE4
:1054C000310B02C0959587952A95E2F780FF05C0BC
:1054D00041E06B2D802F0E945B110F5F1F4F083042
:1054E000110549F7B394FFEFEF1AFF0A38E0832E56
:1054F000B810DFCF0E94F81060E072E0CE01019694
:105500000E941E1D8D819E81892B09F44FC0098147
:105510001A810115110571F0F80181918F0188231D
:1055200049F0082E000C990B0E94493EF801319772
:105530008083F2CFE980FA80F70181918823B1F06E
:105540004F018E189F08CF5ADE4F99828882C1552D
:10555000D14094012A30310584F349E050E0CF5A1C
:10556000DE4F59834883C155D140E7CF10E000E0BA
:10557000F70191917F0180ED890FCF5ADE4F48816D
:10558000C155D140602F8C3220F08CE2903209F06E
:105590008BE20E94BC110F5F1F4FCF5ADE4F8880F5
:1055A0009980C155D1400815190511F7CE01019612
:1055B0000E94661C41E063E083E00E945B1164E0AE
:1055C0008AE00E94A4140E9420180E94171E61E025
:1055D0008DE00E946D030E94FB0297FD0396959556
:1055E0008795959587950E94031E86E090E090939D
:1055F0000C0280930B02C65ADE4F0FB6F894DEBF42
:105600000FBECDBFDF91CF911F910F91FF90EF9013
:10561000DF90CF90BF90AF909F908F907F906F90D2
:105620005F904F903F902F9008951F920F920FB66A
:105630000F9211242F933F938F939F93AF93BF9318
:105640008091AD029091AE02A091AF02B091B002F4
:105650003091AC0223E0230F2D3758F50196A11DA0
:10566000B11D2093AC028093AD029093AE02A09343
:10567000AF02B093B0028091B1029091B202A091BA
:10568000B302B091B4020196A11DB11D8093B10285
:105690009093B202A093B302B093B402BF91AF91C2
:1056A0009F918F913F912F910F900FBE0F901F9060
:1056B000189526E8230F0296A11DB11DD2CF1F9287
:1056C0000F920FB60F9211242F933F934F935F9336
:1056D0006F937F938F939F93AF93BF93EF93FF93BA
:1056E0008091A4029091A502A091A602B091A70278
:1056F000892B8A2B8B2BD1F19091A302E091A102EF
:10570000F091A2028081892780838091A4029091E8
:10571000A502A091A602B091A702181619061A06B2
:105720001B069CF48091A4029091A502A091A60270
:10573000B091A7020197A109B1098093A4029093A7
:10574000A502A093A602B093A702FF91EF91BF918B
:10575000AF919F918F917F916F915F914F913F9109
:105760002F910F900FBE0F901F90189580914801B8
:105770000E949804EACF1F920F920FB60F92112445
:105780002F933F934F935F936F937F938F939F9349
:10579000AF93BF93EF93FF9383E593E00E94C40818
:1057A000FF91EF91BF91AF919F918F917F916F91F9
:1057B0005F914F913F912F910F900FBE0F901F90CF
:1057C00018951F920F920FB60F9211242F938F935B
:1057D0009F93EF93FF93E0916303F09164038081C3
:1057E000E0916903F0916A0382FD1BC09081809172
:1057F0006C038F5F8F7320916D03821741F0E091EE
:105800006C03F0E0ED5AFC4F958F80936C03FF9191
:10581000EF919F918F912F910F900FBE0F901F903E
:1058200018958081F4CF1F920F920FB60F9211241A
:105830002F933F934F935F936F937F938F939F9398
:10584000AF93BF93CF93DF93EF93FF938091950234
:10585000C0919602D0E087FF24C01092850010927C
:105860008400809195028F5F8093950280919502CC
:10587000082E000C990B8C179D0724F4809195023B
:105880008C30C4F18091840090918500049680341E
:105890009C4908F47AC08091840090918500049618
:1058A00076C080919502082E000C990B8C179D07ED
:1058B000C4F6E09195028E2FEE0F990BFC01EE0FCE
:1058C000FF1FE80FF91FE152FD4F808186FFC9CF0E
:1058D000E09195028E2FEE0F990BFC01EE0FFF1F4A
:1058E000E80FF91FE152FD4F808160E08F730E9445
:1058F0006D03B7CF2091840030918500E09195022F
:105900008E2FEE0F990BFC01EE0FFF1FE80FF91F12
:10591000E152FD4F81819281820F931F9093890004
:1059200080938800E09195028E2FEE0F990BFC0179
:10593000EE0FFF1FE80FF91FE152FD4F808186FF38
:1059400011C0E09195028E2FEE0F990BFC01EE0F26
:10595000FF1FE80FF91FE152FD4F808161E08F7357
:105960000E946D03FF91EF91DF91CF91BF91AF91B5
:105970009F918F917F916F915F914F913F912F9167
:105980000F900FBE0F901F90189580E49CE99093A4
:105990008900809388008FEF80939502E3CF1F9258
:1059A0000F920FB60F9211242F933F934F935F9353
:1059B0006F937F938F939F93AF93BF93EF93FF93D7
:1059C000E0919302F0919402309749F0A685B78553
:1059D0008585968D91FF14C09C918923A1F4FF9138
:1059E000EF91BF91AF919F918F917F916F915F9157
:1059F0004F913F912F910F900FBE0F901F901895D0
:105A00009C91892361F7A389B4899C9185898095AC
:105A100089238C93868997890197F1F7608D718D21
:105A2000A685B785558538E020E0CB010197F1F7D1
:105A3000822F90E095958795282F4C91452309F06A
:105A40002068315091F7868D81FD209580919102DB
:105A500090E001968F73992730919202381799F050
:105A6000A0919102B0E0AF5ABD4F2C938093910268
:105A7000828D938D0197F1F7A389B4898C919589D3
:105A8000892B8C93ACCF868D8160868FF1CF1F924E
:105A90000F920FB60F9211242F933F934F935F9362
:105AA0006F937F938F939F93AF93BF93EF93FF93E6
:105AB0008091B900887F803609F44AC0F0F58832B9
:105AC00009F4A7C018F5803109F49BC0B8F4882305
:105AD00009F4F9C0883009F494C0FF91EF91BF91A7
