:100000000C94BD000C94E5000C94E5000C94220BBC
:100010000C94220B0C94220B0C94E5000C94480ACF
:100020000C94E5000C94E5000C94E5000C942C0B6A
:100030000C94E5000C94E5000C94E5000C94E500AC
:100040000C94FE090C94E5000C94F00A0C94CA0A76
:100050000C94E5000C94E5000C94E5000C94E5008C
:100060000C94E5000C94E50005A84CCDB2D44EB933
:100070003836A9020C50B9918688083CA6AAAA2A4B
:10008000BE000000803F0200C3000080610000C08D
:100090003000008061000000C30000008601000005
:1000A0000C0300008601000000000000000000308A
:1000B0000C0000100A010018496200100A0100003B
:1000C0000000000000000000000000000000000030
:1000D0000000000000000021000021520884128C62
:1000E000144A0C0023310000C00000000000000092
:1000F0000000000000000000000000000000000000
:10010000104A0C000825062084100330420801180C
:100110002904008C140200460281000381402081E2
:10012000402030402090180000000800020100002C
:10013000030407000000000000000000000000258C
:100140000028002B0000000000240027002A0004E3
:10015000040404040404040202020202020303036E
:100160000303030102040810204080010204081068
:100170002001020408102000030C11241FBECFEF41
:10018000D8E0DEBFCDBF11E0A0E0B1E0EEE7F7E2DE
:1001900002C005900D92A835B107D9F723E0A8E574
:1001A000B1E001C01D92AB38B207E1F710E0CDEB32
:1001B000D0E004C02197FE010E94B713CC3BD107C9
:1001C000C9F70E94670C0C94BD130C94000090E0DA
:1001D000FC01ED59FE4F2491815B9E4FFC018491FF
:1001E000882399F090E0880F991FFC01EB5BFE4F8C
:1001F000A591B491FC01E55CFE4F859194918FB778
:10020000F894EC91E22BEC938FBF089590E0FC0101
:10021000E95DFE4F2491FC01ED59FE4F3491FC0144
:10022000E15BFE4FE491EE23C9F0222339F0233045
:1002300001F1A8F4213019F1223029F1F0E0EE0F9C
:10024000FF1FE55CFE4FA591B4918FB7F894EC9138
:10025000611126C030953E233C938FBF089527300F
:10026000A9F02830C9F0243049F7809180008F7DB3
:1002700003C0809180008F7780938000DFCF84B5AA
:100280008F7784BDDBCF84B58F7DFBCF8091B000AD
:100290008F778093B000D2CF8091B0008F7DF9CF5F
:1002A0003E2BDACF3FB7F89480917A0190917B0191
:1002B000A0917C01B0917D0126B5A89B05C02F3F80
:1002C00019F00196A11DB11D3FBFBA2FA92F982F7C
:1002D0008827BC01CD01620F711D811D911D42E077
:1002E000660F771F881F991F4A95D1F708958F923F
:1002F0009F92AF92BF92CF92DF92EF92FF926B01EB
:100300007C010E9452014B015C01C114D104E10443
:10031000F104B9F00E945201681979098A099B0910
:10032000683E73408105910580F321E0C21AD1082F
:10033000E108F10888EE880E83E0981EA11CB11C2C
:10034000E4CFFF90EF90DF90CF90BF90AF909F9061
:100350008F9008952FB7F89460917601709177018E
:1003600080917801909179012FBF08954F925F920B
:100370006F927F928F929F92AF92BF92CF92DF92B5
:10038000EF92FF920F931F93CF93DF9300D000D093
:100390001F92CDB7DEB78B0129013A019091000180
:1003A0008917C9F09F3F09F47DC00F900F900F90FF
:1003B0000F900F90DF91CF911F910F91FF90EF90D1
:1003C000DF90CF90BF90AF909F908F907F906F9075
:1003D0005F904F900895E6E8F0E094919D8397FD3B
:1003E000E4CF0E94E7008D81882321F09D81923027
:1003F00009F049C14801B12CA12C60E072E18AE703
:1004000090E0A50198010E94571029833A834B83FD
:100410005C8369017A0181E0C81AD108E108F1081A
:100420009FEFC916D104E104F10409F00CF400C1F6
:1004300060E472E48FE090E0A50198010E945710FB
:1004400069017A0181E0C81AD108E108F1089D81AB
:10045000923009F0A1C08FEFC816D104E104F10475
:1004600009F00CF4E5C160E970ED83E090E0A501CE
:1004700098010E94571069017A0191E0C91AD108C8
:10048000E108F1088FEFC816D104E104F10411F07E
:100490000CF07EC183E09091B100987F892B80930E
:1004A000B100CEC080930001E6E8F0E094919D8316
:1004B0009F3F09F47ACF913039F148F0923009F436
:1004C00045C09D8197FD71CF0E94E7008FCF14BC7E
:1004D00015BC94B5926094BD95B5916095BD282FDB
:1004E00030E0F901E15BFE4FE491F0E0EE0FFF1F19
:1004F000E55CFE4F45915491F901ED59FE4FE491B1
:10050000E0935D011D826DCF1092800010928100FA
:10051000909181009860909381009091810091600A
:1005200090938100282F30E0F901E15BFE4FE491C8
:10053000F0E0EE0FFF1FE55CFE4F45915491F9018D
:10054000ED59FE4FE491E0935C014BCF1092B00067
:100550001092B1009091B00092609093B000909191
:10056000B10091609093B100282F30E0F901E15B78
:10057000FE4FE491F0E0EE0FFF1FE55CFE4F45916A
:1005800054915093670140936601F901ED59FE4F74
:10059000E491E093680125CF9FEFC916D104E104EF
:1005A000F10409F00CF46DC068E478EE81E090E0AD
:1005B000A50198010E94571069017A0181E0C81ACB
:1005C000D108E108F1089D81992309F4FAC08FEF61
:1005D000C816D104E104F10411F00CF0FBC0EFC027
:1005E00064E274EF80E090E0A50194010E9457104E
:1005F00069017A0181E0C81AD108E108F10885E0B3
:100600009FEFC916D104E104F10409F008F443CFC7
:1006100062E17AE780E090E0A50194010E94571022
:1006200069017A0181E0C81AD108E108F108E5C042
:1006300081E09D8191112FCF95B5987F892B85BD44
:100640002FEF3FEFA901411451046104710409F037
:1006500043C09D81913009F45EC0923009F46DC0B1
:100660009111A3CEC7BC20936201309363014093E4
:1006700064015093650180916E00826080936E00EA
:1006800094CE82E0D6CFB12CA12C60E072E18AE753
:1006900090E0A50198010E94571069017A0181E05C
:1006A000C81AD108E108F108C114D10491E0E906A3
:1006B000F10404F591E08D81813011F68091810083
:1006C000887F892B809381002FEF3FEFA901411490
:1006D000510461047104F9F0D801AA0FBB1FA301F2
:1006E00092010E94761028EE33E040E050E00E9434
:1006F0008910AFCF68E478EE81E090E0A501980121
:100700000E94571069017A0181E0C81AD108E108F6
:10071000F10893E0D0CFD0928900C0928800209356
:100720005E0130935F0140936001509361018091BD
:100730006F00826080936F0038CEC092B300209328
:10074000690130936A0140936B0150936C01809171
:10075000700082608093700028CE84E09FEFC916FD
:10076000D104E104F10409F008F466CFC980DA800D
:10077000EB80FC808AE0F594E794D794C7948A953F
:10078000D1F781E0C81AD108E108F10885E054CF1B
:1007900068E478EE81E090E0A50198010E9457108E
:1007A00069017A0181E0C81AD108E108F1089FEFD8
:1007B000C916D104E104F10411F00CF011CF84E06A
:1007C0006ACE83E09FEFC916D104E104F10409F079
:1007D0000CF432CF62E17AE780E090E0A501940169
:1007E0000E94571069017A0181E0C81AD108E10816
:1007F000F1089D81992309F4B0CF86E09FEFC916D7
:10080000D104E104F10409F008F445CEC980DA808E
:10081000EB80FC809AE0F594E794D794C7949A957E
:10082000D1F781E0C81AD108E108F10887E033CE9A
:1008300082E031CEAF92BF92CF92DF92EF92FF92E1
:100840000F931F93CF93DF936C017B018B01040FF8
:10085000151FEB015E01AE18BF08C017D10759F094
:100860006991D601ED91FC910190F081E02DC601D6
:100870000995892B79F7C501DF91CF911F910F91D0
:10088000FF90EF90DF90CF90BF90AF900895FC0164
:10089000538D448D252F30E0842F90E0821B930BE5
:1008A000541710F0CF96089501970895FC01918D8B
:1008B000828D981761F0A28DAE0FBF2FB11D5D968E
:1008C0008C91928D9F5F9F73928F90E008958FEF30
:1008D0009FEF0895FC01918D828D981731F0828DE4
:1008E000E80FF11D858D90E008958FEF9FEF08953B
:1008F000FC01918D228D892F90E0805C9F4F821B9F
:1009000091098F739927089582EA91E00E947804F3
:1009100021E0892B09F420E0822F089580E090E007
:10092000892B29F00E94840481110C940000089501
:10093000FC01A48DA80FB92FB11DA35ABF4F2C9154
:10094000848D90E001968F739927848FA689B7894B
:100950002C93A089B1898C91837080648C93938D42
:10096000848D981306C00288F389E02D80818F7DE5
:1009700080830895EF92FF920F931F93CF93DF939D
:10098000EC0181E0888F9B8D8C8D98131AC0E889CB
:10099000F989808185FF15C09FB7F894EE89FF899A
:1009A0006083E889F98980818370806480839FBF38
:1009B00081E090E0DF91CF911F910F91FF90EF9038
:1009C0000895F62E0B8D10E00F5F1F4F0F73112748
:1009D000E02E8C8D8E110CC00FB607FCFACFE88983
:1009E000F989808185FFF5CFCE010E949804F1CF6F
:1009F000EB8DEC0FFD2FF11DE35AFF4FF0829FB7F7
:100A0000F8940B8FEA89FB8980818062CFCFCF93E6
:100A1000DF93EC01888D8823B9F0AA89BB89E88926
:100A2000F9898C9185FD03C0808186FD0DC00FB6CC
:100A300007FCF7CF8C9185FFF2CF808185FFEDCF4A
:100A4000CE010E949804E9CFDF91CF910895DC0197
:100A5000EC918E2F90E0FC01EE0FFF1FE80FF91FC5
:100A6000E258FE4F808186FF02C08F7B808308950D
:100A700085E492E00E94270584E792E00E94270522
:100A800083EA92E00E94270582ED92E00C9427050C
:100A9000CF92DF92EF92FF92CF93DF93EC0160321F
:100AA00082E07807CCF5653B710514F064EB70E0EB
:100AB000898128E830E0281B310987FD3395220F12
:100AC000331F220F331F6901330FEE08FF088A819D
:100AD00028E532E0281B310987FD3395220F331FAB
:100AE000220F331F032E000C440B550B2C193D090C
:100AF0004E095F09DB0177FF02C0B0E0A0E00E9471
:100B0000811024EB30E040E050E00E945710C20E0C
:100B1000D31EE41EF51EB601E881EC3070F5298184
:100B200088E890E0821B910927FD9395880F991F13
:100B3000880F991F681779077CF02A8188E592E071
:100B4000821B910927FD9395880F991F880F991F84
:100B5000681779070CF4CB010297880F991F4FB7DC
:100B6000F8942E2F30E0F901EE0FFF1FE20FF31F74
:100B7000E258FE4F928381834FBFDF91CF91FF9068
:100B8000EF90DF90CF900895CF92DF92EF92FF9297
:100B90000F931F93CF93DF93EC018B010E94AA0167
:100BA0006B017C0129A53AA5121613060CF042C070
:100BB0008BA59CA5A601481B590B429FC001439FD2
:100BC000900D529F900D112461E070E0883E23E06B
:100BD000920724F068EE73E00E94A3138D859E8532
:100BE0009801281B390B37FF03C031952195310936
:100BF00062177307FCF4081719071CF471956195C7
:100C00007109860F971F9E878D87CBA6DCA6EDA660
:100C1000FEA66D857E858F859889680F791FCE0128
:100C2000DF91CF911F910F91FF90EF90DF90CF90C8
:100C30000C9448051E870D87E8CF1F93CF93DF9351
:100C4000EC01162F88818C3008F04DC0862F0E9451
:100C5000E7008881282F30E0F901EE0FFF1FE20F37
:100C6000F31FE258FE4F1F736081607C612B60832D
:100C700019821A822CE0622F0E948313829FB00196
:100C8000112430E020E0AB01420F531FFA01EE0FB8
:100C9000FF1FE40FF51FE258FE4F908196FD16C02E
:100CA0002F5F3F4F2C30310571F781110FC010922B
:100CB000800082E080938100109285001092840071
:100CC000B19A80916F00826080936F00E8818E2FCF
:100CD00090E0FC01EE0FFF1FE80FF91FE258FE4FF6
:100CE0008081806480838881DF91CF911F910895F6
:100CF000CF93DF93DC01EC912E2F30E0F901EE0F62
:100D0000FF1FE20FF31FE258FE4F208126FD3EC079
:100D1000EC010E941D068AE590E09E878D876AE5BA
:100D200070E0CE010E9448050E94AA016BA77CA733
:100D30008DA79EA78EE190E09E8F8D8F80ED97E02E
:100D400098878F8380E090E0A4E8B2E4898F9A8F3F
:100D5000AB8FBC8F8AE198EFA2ECBDE38D8B9E8BAD
:100D6000AF8BB88F1F8E18A219A21AA28DE290E045
:100D70009C838B83198A1A8A1B8A1C8A19861A8675
:100D80001B861C861E821D821FA218A6DF91CF9192
:100D90000895609160037091610385E492E00E9480
:100DA0007806609162037091630384E792E00E9489
:100DB0007806609164037091650383EA92E00E9473
:100DC0007806609166037091670382ED92E00C945F
:100DD00078064F925F926F927F92AF92BF92CF92BE
:100DE000DF92EF92FF920F931F93CF93DF93EC016B
:100DF0007B010E94C90680918A03811110928A03A7
:100E00000E94AA018B019C01BE01DD0F880B990B8A
:100E1000060F171F281F391F0093720310937303C7
:100E200020937403309375030E94D11120E030E0C9
:100E300040E251E40E9427112B013C01570188E058
:100E4000A80EB11C2AE7C22E23E0D22E05E412E040
:100E5000E70169917991F80185859685681B790B81
:100E6000072E000C880B990B0E94D111A30192014F
:100E70000E942711F60161937193819391936F0101
:100E8000015D1F4FCA15DB0521F70E94AA010091E1
:100E900072031091730320917403309175036017EE
:100EA00071078207930708F071C00E94AA01665F6C
:100EB0007F4F8F4F9F4F609376037093770380939C
:100EC0007803909379039AE7C92E93E0D92E05E42D
:100ED00012E0F60141905190619071906F01F8011C
:100EE00065857685072E000C880B990B0E94D11121
:100EF000A30192010E94BB100E949911C8010E9497
:100F0000C405015D1F4FF3E001301F0711F70E9478
:100F1000AA01009176031091770320917803309114
:100F20007903601771078207930788F3AECF85E4D2
:100F3000C82E82E0D82E8701F801619171918F014E
:100F4000C6010E94C405FFE2CF0ED11C0C171D077D
:100F500099F70E94AA01665F7F4F8F4F9F4F609362
:100F600076037093770380937803909379030E94BC
:100F7000AA010091760310917703209178033091B4
:100F80007903601771078207930788F3A5E4B2E03D
:100F9000F701219131911D968D919C911E972817F3
:100FA000390729F69F96EC17FD0799F7DF91CF9146
:100FB0001F910F91FF90EF90DF90CF90BF90AF9077
:100FC0007F906F905F904F900895CF93DF93CDB750
:100FD000DEB728970FB6F894DEBF0FBECDBF88E00E
:100FE000E1E0F1E0DE01119601900D928A95E1F7C2
:100FF000BE016F5F7F4F84EF91E00E94E9060E947F
:10100000380581E080938A0328960FB6F894DEBFF6
:101010000FBECDBFDF91CF910895EF92FF920F9356
:101020001F93CF93C82F8B014FE3E42E42E0F42EA1
:10103000882321F032E4E32E32E0F32ED701EC9145
:101040008E2F90E0FC01EE0FFF1FE80FF91FE25812
:10105000FE4F808186FD07C067E0C11166E070E049
:10106000C7010E941D06E1E0CE27EC2FF0E0EE0F55
:10107000FF1FE359FE4F60817181600F711F653B57
:10108000710514F064EB70E077FF02C070E060E07F
:10109000C701CF911F910F91FF90EF900C944805DD
:1010A0000F931F93CF93DF93082F162FD42FC8E0F1
:1010B0006D2F661F6627661F802F0E940601DD0FB9
:1010C00061E0812F0E94060160E0812F0E940601ED
:1010D000C15071F7DF91CF911F910F9108950F9338
:1010E0001F93CF93DF93082F162F60E080910203A8
:1010F0000E940601D0E0C0E0809104038C171D0619
:1011000089F084F0402F60910303809101030E94D5
:101110005008412F60910303809101030E94500801
:101120002196EACF60E0809102030E94060161E00F
:1011300080910203DF91CF911F910F910C940601D2
:10114000FF920F931F93CF93DF93F82EC82FD0E019
:10115000CF5FDC4F2C8181E090E0A0E0B0E004C0E4
:10116000880F991FAA1FBB1F6A95D2F7442329F144
:10117000822B8C8360E0809102030E94060110E0C4
:1011800000E0F39424968091040380171106E9F09F
:10119000E4F060910303809101030115110581F4CE
:1011A0004F2D0E94500848816091030380910103F4
:1011B0000E9450080F5F1F4FE6CF80958223D9CF42
:1011C00040E00E94500840E0EFCF60E080910203D1
:1011D0000E94060161E080910203DF91CF911F918F
:1011E0000F91FF900C9406014F925F926F927F9245
:1011F0008F929F92AF92BF92CF92DF92EF92FF9227
:101200000F931F93CF93DF93280139018B015C016A
:101210007A014B0188E0880E911CC5E4D2E088EE8B
:10122000C82E83E0D82EF801819191918F019E8381
:101230008D83F501819191915F019C838B83D88689
:10124000CF826D8D7E8DC6010E948F1390E080E06D
:101250000E94CF119B01AC01298F3A8F4B8F5C8F7D
:101260006BED7FE089EC90E40E9427116D8B7E8B03
:101270008F8B988FF70181919191A191B1917F010D
:1012800089879A87AB87BC87AF960815190559F6E9
:101290000E94AA010E94CF114B015C0120E030E0C6
:1012A0004AE754E4C301B2010E946212A50194010D
:1012B0000E94BB106B017C01A5019401C701B6011E
:1012C0000E945D1287FD89C0C5E4D2E00E94AA0198
:1012D0006BA37CA38DA39EA30F8D18A129A13AA176
:1012E0004B015C01801A910AA20AB30A0D8D1E8D72
:1012F00030E020E0081519052A053B050CF05BC01D
:101300006F8F78A389A39AA38FA1811146C02985E5
:101310003A854B855C8569897A898B899C890E948D
:10132000BB100E94CF124B015C016B817C8190E06D
:1013300080E00E94CF11A50194010E9462124B012E
:101340005C016D817E81072E000C880B990B0E9439
:10135000D1119B01AC01C501B4010E94BB104B012E
:101360005C0120E030E0A9010E945D1220E030E045
:1013700040E05FE387FD2CC0C501B4010E94BB10B3
:101380000E94991188A5882319F0719561957109BA
:10139000665A7F4FCE010E94C4052D893E894F8930
:1013A000588D69897A898B899C890E94BB10698BC9
:1013B0007A8B8B8B9C8BAF96F3E0C130DF0709F003
:1013C00085CF0E94AA010E94CF114B015C0174CF0E
:1013D000C501B4010E94BA10D3CFDF91CF911F9104
:1013E0000F91FF90EF90DF90CF90BF90AF909F90C4
:1013F0008F907F906F905F904F9008951F920F9203
:101400000FB60F9211242F933F938F939F93AF9317
:10141000BF938091760190917701A0917801B0916E
:1014200079013091750123E0230F2D3758F501968E
:10143000A11DB11D209375018093760190937701D2
:10144000A0937801B093790180917A0190917B010A
:10145000A0917C01B0917D010196A11DB11D8093E9
:101460007A0190937B01A0937C01B0937D01BF91A1
:10147000AF919F918F913F912F910F900FBE0F9041
:101480001F90189526E8230F0296A11DB11DD2CFFB
:101490001F920F920FB60F9211242F933F934F93E9
:1014A0005F936F937F938F939F93AF93BF93EF93CC
:1014B000FF938091690190916A01A0916B01B091B5
:1014C0006C01892B8A2B8B2BD1F190916801E091D3
:1014D0006601F0916701808189278083809169018D
:1014E00090916A01A0916B01B0916C0118161906D8
:1014F0001A061B069CF48091690190916A01A091E3
:101500006B01B0916C010197A109B1098093690148
:1015100090936A01A0936B01B0936C01FF91EF91DE
:10152000BF91AF919F918F917F916F915F914F91FB
:101530003F912F910F900FBE0F901F9018958091A3
:101540000001E6E8F0E0E4919FEF90930001E130C4
:1015500051F030F0E23069F060E00E940601DECF29
:1015600010926E00F9CF90916F009D7F90936F0065
:10157000F3CF909170009D7F9093700091E09093D5
:10158000B0009091B100987F94609093B100109258
:10159000B300E2CF1F920F920FB60F9211242F9338
:1015A0003F934F935F936F937F938F939F93AF93EB
:1015B000BF93EF93FF9382EA91E00E949804FF911A
:1015C000EF91BF91AF919F918F917F916F915F91BB
:1015D0004F913F912F910F900FBE0F901F90189534
:1015E0001F920F920FB60F9211242F938F939F93F8
:1015F000EF93FF93E091B201F091B3018081E0910C
:10160000B801F091B90182FD1BC090818091BB01AE
:101610008F5F8F732091BC01821741F0E091BB0175
:10162000F0E0EE55FE4F958F8093BB01FF91EF9157
:101630009F918F912F910F900FBE0F901F90189533
:101640008081F4CF1F920F920FB60F9211240F904A
:101650000FBE0F901F9018951F920F920FB60F920A
:1016600011242F933F934F935F936F937F938F93A7
:101670009F93AF93BF93CF93DF93EF93FF938091AB
:101680005801C0915901D0E087FF24C01092850015
:1016900010928400809158018F5F8093580180914F
:1016A0005801082E000C990B8C179D0724F480918B
:1016B00058018C30C4F1809184009091850004968B
:1016C00080349C4908F47AC0809184009091850010
:1016D000049676C080915801082E000C990B8C1747
:1016E0009D07C4F6E09158018E2FEE0F990BFC0177
:1016F000EE0FFF1FE80FF91FE258FE4F808186FFB3
:10170000C9CFE09158018E2FEE0F990BFC01EE0F1F
:10171000FF1FE80FF91FE258FE4F808160E08F73D2
:101720000E940601B7CF2091840030918500E0919E
:1017300058018E2FEE0F990BFC01EE0FFF1FE80FE3
:10174000F91FE258FE4F81819281820F931F90937F
:10175000890080938800E09158018E2FEE0F990B3D
:10176000FC01EE0FFF1FE80FF91FE258FE4F8081CA
:1017700086FF11C0E09158018E2FEE0F990BFC01EE
:10178000EE0FFF1FE80FF91FE258FE4F808161E066
:101790008F730E940601FF91EF91DF91CF91BF916E
:1017A000AF919F918F917F916F915F914F913F91F9
:1017B0002F910F900FBE0F901F90189580E49CE919
:1017C00090938900809388008FEF80935801E3CF36
:1017D000FC01909159019C3098F481E0890F80932D
:1017E00059019083892F90E0FC01EE0FFF1FE80F55
:1017F000F91FE258FE4F88EB9BE0928381830895A6
:101800008FEF80830895CF93DF93E2EAF1E01382B4
:10181000128288EE93E0A0E0B0E084839583A683F3
:10182000B78389E491E09183808385EC90E095878C
:10183000848784EC90E09787868780EC90E0918B9A
:10184000808B81EC90E0938B828B82EC90E0958B87
:10185000848B86EC90E0978B868B118E128E138E84
:10186000148E85E492E00E94E80BC5E4D2E0188A69
:101870001F861AA619A684E792E00E94E80B1FAE05
:101880001EAE10929E0210929D0283EA92E00E9488
:10189000E80B1092B3021092B2021092CD02109295
:1018A000CC0282ED92E00E94E80B1092E2021092CC
:1018B000E1021092FC021092FB0282E492E00E948C
:1018C000E80B8FE392E0DF91CF910C94E80BCF937C
:1018D000DF93CDB7DEB7A0970FB6F894DEBF0FBE8B
:1018E000CDBF789484B5826084BD84B5816084BDA9
:1018F00085B5826085BD85B5816085BD80916E00AE
:10190000816080936E0010928100809181008260DE
:10191000809381008091810081608093810080911B
:1019200080008160809380008091B100846080930A
:10193000B1008091B00081608093B00080917A0006
:10194000846080937A0080917A00826080937A002C
:1019500080917A00816080937A0080917A0080681B
:1019600080937A001092C10082E090E0909361032E
:101970008093600383E090E090936303809362031D
:1019800084E090E0909365038093640385E090E0A9
:1019900090936703809366030E94C90610928A039E
:1019A00015E4E12E12E0F12E10E000E0C8010E94E3
:1019B0004F1090E0813891050CF09A95D701509620
:1019C0009C938E931F970F5F1F4FBFE2EB0EF11C8E
:1019D0000430110559F78DE090E0909371038093E6
:1019E00070030E94E70080918A03811102C00E9467
:1019F000E50766E070E082E492E00E941D0667E081
:101A000070E08FE392E00E941D0686E090E00E9465
:101A10004F108A35B1F484E090E00E944F10082EF8
:101A2000000C990B90936E0180936D0185E090E01E
:101A30000E944F10082E000C990B90937001809318
:101A40006F016AE570E081E00E940D086AE570E0D0
:101A500080E00E940D0881E18093010380E1809382
:101A600002038FE08093030381E08093040381E00D
:101A700090E090935E0380935D03109205031092B3
:101A800006031092070310920803109209031092A4
:101A90000A0310920B0310920C03BDE0EB2EB3E08F
:101AA000FB2EF701119283E0ED35F807D9F781E1BC
:101AB0000E94E700809103030E94E70080910203E7
:101AC0000E94E70061E0809103030E94060167E045
:101AD0008BE00E946F0860E089E00E946F0861E07F
:101AE0008CE00E946F0860E08FE00E946F0810E0B9
:101AF00000E060E0809102030E940601A5E0CA2E8A
:101B0000A3E0DA2EB12CA12C99249394900E80910D
:101B100004038A151B04B9F0B4F0492D6091030346
:101B2000809101030E94500840E06091030380917E
:101B300001030E945008D6011C92BFEFAB1ABB0AEA
:101B4000C00ED11EE4CF60E0809102030E94060126
:101B500061E0809102030E9406010F5F1F4F083071
:101B6000110539F61092050310920603109207032F
:101B7000109208031092090310920A0310920B03AB
:101B800010920C03F70111927F01FDE5EF16F3E0CF
:101B9000FF06C1F76FE08AE00E946F0864E08AE008
:101BA0000E946F0884EB90E090936F0280936E0226
:101BB00090939E0280939D029093CD028093CC02DD
:101BC0009093FC028093FB02412C512CF4EB6F2E7E
:101BD000F2E47F2E01E211E0D8011A96ED90FC901C
:101BE0001B9718966D917C9181E00E940D08B701BA
:101BF00080E00E940D08F801808191819A83898399
:101C0000828193819C838B83848195819E838D8344
:101C10008681978198878F83BE016F5F7F4F80E9B0
:101C200091E00E94E906045F1F4F85E491E0801770
:101C3000910791F60E94C90680918A038111109242
:101C40008A0366E470E083EA92E00E94C4056EE1D4
:101C500070E080E00E940D0888E0E9E0F1E0DE013C
:101C6000599601900D928A95E1F788E0E1E1F1E063
:101C7000DE01519601900D928A95E1F788E0E1E04E
:101C8000F1E0DE01119601900D928A95E1F7BE0117
:101C9000675E7F4F80E991E00E94E906BE016F5EBA
:101CA0007F4F80E991E00E94E90660E976E080E0FC
:101CB00090E00E947701BE016F5F7F4F84EF91E05B
:101CC0000E94E906BE01675E7F4F80E991E00E94B5
:101CD000E906BE016F5E7F4F80E991E00E94E90650
:101CE00060E976E080E090E00E947701BE016F5FDE
:101CF0007F4F84EF91E00E94E90688E0E9E1F1E09E
:101D0000DE01519601900D928A95E1F7BE016F5E5A
:101D10007F4F88E795E00E94E90688E0E1E0F1E086
:101D2000DE01119601900D928A95E1F7BE016F5F79
:101D30007F4F88E795E00E94E906A9E1B0E0BA8FFD
:101D4000A98FBC8FAB8FEFE0F0E0FE8FED8FF8A393
:101D5000EF8F198A1A8A1B8A1C8A8BE090E09E8B6F
:101D60008D8BA5EFBFEFB88FAF8B19861A861B86B8
:101D70001C8649825A826B827C824D825E826F828F
:101D8000788682E99AE0A6E8BFE38D879E87AF87D1
:101D9000B88B0E94C90680918A03811110928A0330
:101DA00000E010E020E83FE3AE014F5F5F4FBE016F
:101DB0006F5E7F4FCE0149960E94F40800E010E06C
:101DC00020E83FE3AE014F5F5F4FBE016F5E7F4F84
:101DD000CE0149960E94F40800E010E09801AE019F
:101DE0004F5F5F4FBE016F5E7F4FCE0149960E94ED
:101DF000F408912C812C44E050E0B40161507F4FF5
:101E000081E791E00E944610C0907101D09072016C
:101E1000E0907301F090740180915D0390915E03F6
:101E2000019711F5E7E03E2E10E000E0580176E062
:101E3000272EB701A6010A2C04C076956795579501
:101E400047950A94D2F74170632D822D0E94A00815
:101E50009FEFA91AB90A2A942110EBCF0A5F1F4FEE
:101E60003A94A2E03A12E2CF80915D0390915E0332
:101E7000029711F5312C10E000E058012224239440
:101E8000B701A6010A2C04C076956795579547952A
:101E90000A94D2F74170632D822D0E94A008BFEFF3
:101EA000AB1ABB0A2394E7E02E12EACF0A5F1F4F5A
:101EB0003394F5E03F12E1CF80915D0390915E0392
:101EC000039709F5312C10E000E0580166E0262E5A
:101ED000B701A6010A2C04C07695679557954795DA
:101EE0000A94D2F74170622D832D0E94A0088FEFD3
:101EF000A81AB80A2A942110EBCF0A5F1F4F339417
:101F000095E03912E2CF80915D0390915E030497D2
:101F100019F557E0352E10E000E0580122242394F3
:101F2000B701A6010A2C04C0769567955795479589
:101F30000A94D2F74170622D832D0E94A008AFEF62
:101F4000AA1ABA0A2394B7E02B12EACF0A5F1F4FEE
:101F50003A94E2E03E12E1CF68E770E080E090E082
:101F60000E947701F4E08F0E911C88E2881691049C
:101F700009F041CF40E5E42EF12C00ED17E0B80167
:101F8000012E000C880B990B0E94D1114B015C01B2
:101F900091E0E91AF10809F122E130E040E050E077
:101FA000B801809170030E94B60162E170E080E0A8
:101FB00090E00E94770161E070E080E090E00E9494
:101FC00077012CE53FE842E85FE3C501B4010E94D8
:101FD00027110E9499118B01D2CF0E943805E09100
:101FE00042028E2F90E0FC01EE0FFF1FE80FF91F59
:101FF000E258FE4F80818F7B8083E0913F028E2FDD
:1020000090E0FC01EE0FFF1FE80FF91FE258FE4FB2
:1020100080818F7B80830E94C90666E070E082E445
:1020200092E00E941D0667E070E08FE392E00E945C
:102030001D0610926F0210926E0210929E02109274
:102040009D021092CD021092CC021092FC021092CE
:10205000FB0280918A03811102C00E94E5076AE5B4
:1020600070E081E00E940D086AE570E080E00E9467
:102070000D08A0E0B0E0AB2B09F4ACCD0E948404C5
:10208000882309F4A7CD0E940000A4CDFB01DC0148
:1020900002C005900D9241505040D8F70895F9992B
:1020A000FECF92BD81BDF89A992780B50895052E7F
:1020B00097FB1EF400940E946E1057FD07D00E94FB
:1020C000891007FC03D04EF40C946E105095409587
:1020D000309521953F4F4F4F5F4F089590958095D4
:1020E000709561957F4F8F4F9F4F08950E94AB1061
:1020F000A59F900DB49F900DA49F800D911D11245C
:102100000895B7FF0C9476100E947610821B930BF3
:102110000895A1E21A2EAA1BBB1BFD010DC0AA1F28
:10212000BB1FEE1FFF1FA217B307E407F50720F040
:10213000A21BB30BE40BF50B661F771F881F991FBB
:102140001A9469F760957095809590959B01AC0104
:10215000BD01CF010895A29FB001B39FC001A39F0D
:10216000700D811D1124911DB29F700D811D1124D0
:10217000911D08955058BB27AA270E94D2100C9495
:1021800023120E94151238F00E941C1220F039F41C
:102190009F3F19F426F40C9412120EF4E095E7FB1D
:1021A0000C940C12E92F0E94341258F3BA176207EC
:1021B00073078407950720F079F4A6F50C9456125E
:1021C0000EF4E0950B2EBA2FA02D0B01B901900152
:1021D0000C01CA01A0011124FF27591B99F0593F96
:1021E00050F4503E68F11A16F040A22F232F342FDE
:1021F0004427585FF3CF469537952795A795F0402C
:102200005395C9F77EF41F16BA0B620B730B840B40
:10221000BAF09150A1F0FF0FBB1F661F771F881FF8
:10222000C2F70EC0BA0F621F731F841F48F4879550
:1022300077956795B795F7959E3F08F0B0CF939542
:10224000880F08F09927EE0F9795879508950E94BB
:102250003B110C9423120E941C1258F00E9415127C
:1022600040F029F45F3F29F00C940C1251110C94AA
:1022700057120C9412120E94341268F39923B1F38E
:10228000552391F3951B550BBB27AA27621773079C
:10229000840738F09F5F5F4F220F331F441FAA1F30
:1022A000A9F335D00E2E3AF0E0E832D091505040EC
:1022B000E695001CCAF72BD0FE2F29D0660F771F9A
:1022C000881FBB1F261737074807AB07B0E809F080
:1022D000BB0B802DBF01FF2793585F4F3AF09E3F05
:1022E000510578F00C940C120C9457125F3FE4F3F4
:1022F000983ED4F3869577956795B795F7959F5F48
:10230000C9F7880F911D9695879597F90895E1E093
:10231000660F771F881FBB1F621773078407BA07F2
:1023200020F0621B730B840BBA0BEE1F88F7E0954D
:1023300008950E94A0116894B1110C945712089549
:102340000E943C1288F09F5798F0B92F9927B751F7
:10235000B0F0E1F0660F771F881F991F1AF0BA9549
:10236000C9F714C0B13091F00E945612B1E008953F
:102370000C945612672F782F8827B85F39F0B93F31
:10238000CCF3869577956795B395D9F73EF49095FC
:102390008095709561957F4F8F4F9F4F0895E8947A
:1023A00009C097FB3EF490958095709561957F4F9D
:1023B0008F4F9F4F9923A9F0F92F96E9BB2793954B
:1023C000F695879577956795B795F111F8CFFAF45B
:1023D000BB0F11F460FF1BC06F5F7F4F8F4F9F4F8C
:1023E00016C0882311F096E911C0772321F09EE8EA
:1023F000872F762F05C0662371F096E8862F70E050
:1024000060E02AF09A95660F771F881FDAF7880F29
:102410009695879597F9089597F99F6780E870E0FA
:1024200060E008959FEF80EC089500240A9416164A
:10243000170618060906089500240A9412161306B2
:10244000140605060895092E0394000C11F4882340
:1024500052F0BB0F40F4BF2B11F460FF04C06F5F5C
:102460007F4F8F4F9F4F089557FD9058440F551F32
:1024700059F05F3F71F04795880F97FB991F61F006
:102480009F3F79F087950895121613061406551F7D
:10249000F2CF4695F1DF08C0161617061806991FE9
:1024A000F1CF86957105610508940895E894BB27DE
:1024B00066277727CB0197F908950E94D71208F471
:1024C0008FEF08950E9475120C9423120E9415122A
:1024D00038F00E941C1220F0952311F00C940C127D
:1024E0000C94121211240C9457120E94341270F39F
:1024F000959FC1F3950F50E0551F629FF001729FA9
:10250000BB27F00DB11D639FAA27F00DB11DAA1FB7
:10251000649F6627B00DA11D661F829F2227B00D04
:10252000A11D621F739FB00DA11D621F839FA00D8F
:10253000611D221F749F3327A00D611D231F849FDF
:10254000600D211D822F762F6A2F11249F57504036
:102550009AF0F1F088234AF0EE0FFF1FBB1F661FB1
:10256000771F881F91505040A9F79E3F510580F07A
:102570000C940C120C9457125F3FE4F3983ED4F382
:10258000869577956795B795F795E7959F5FC1F71E
:10259000FE2B880F911D9695879597F908959F9327
:1025A0000E94FD120F9007FCEE5F0C942613990F0A
:1025B0000008550FAA0BE0E8FEEF16161706E8070D
:1025C000F907C0F012161306E407F50798F0621B2E
:1025D000730B840B950B39F40A2661F0232B242B03
:1025E000252B21F408950A2609F4A140A6958FEF22
:1025F000811D811D08950C9412120E943C12D8F383
:10260000E894E0E0BB279F57F0F02AED3FE049EC6B
:1026100006C0EE0FBB0F661F771F881F28F0B23A67
:1026200062077307840728F0B25A620B730B840B9E
:10263000E3959A9572F7803830F49A95BB0F661F30
:10264000771F881FD2F790480C943C13EF93E0FF5C
:1026500007C0A2EA2AED3FE049EC5FEB0E94D210EE
:102660000E9423120F90039401FC9058E8E6F0E0DA
:102670000C9448139F3F31F0915020F48795779543
:102680006795B795880F911D9695879597F9089549
:102690009F938F937F936F93FF93EF939B01AC0175
:1026A0000E946212EF91FF910E945C132F913F9163
:1026B0004F915F910C946212DF93CF931F930F930E
:1026C000FF92EF92DF927B018C01689406C0DA2EB4
:1026D000EF010E947512FE01E894A59125913591B4
:1026E00045915591A6F3EF010E94D210FE0197018A
:1026F000A801DA9469F7DF90EF90FF900F911F9196
:10270000CF91DF910895991B79E004C0991F961726
:1027100008F0961B881F7A95C9F780950895AA1B23
:10272000BB1B51E107C0AA1FBB1FA617B70710F0BC
:10273000A61BB70B881F991F5A95A9F780959095EE
:10274000BC01CD01089597FB072E16F4009407D025
:1027500077FD09D00E948F1307FC05D03EF49095B9
:1027600081959F4F0895709561957F4F0895EE0F65
:0E277000FF1F0590F491E02D0994F894FFCF1F
:10277E00FF5A005A005A005A005A005A003E0023CF
:10278E00005A005A003E0069005A005A0096001E78
:10279E00005A005A005A005A005A005A003C00785B
:1027AE00005A005A00A00014005A005A0046006E4B
:1027BE00001400A00000000000BA041A0447040729
:0827CE0005780456046A0400BA
:00000001FF
