:100000000C9462000C948A000C948A000C948A0070
:100010000C948A000C948A000C948A000C948A0038
:100020000C948A000C948A000C948A000C948A0028
:100030000C948A000C948A000C948A000C948A0018
:100040000C94CF010C948A000C943F020C9419027A
:100050000C948A000C948A000C948A000C948A00F8
:100060000C948A000C948A000000000024002700F1
:100070002A000000000023002600290000000000E4
:10008000250028002B0004040404040404040202D4
:100090000202020203030303030301020408102007
:1000A0004080010204081020010204081020000012
:1000B0000008000201000003040700000000000027
:1000C0000000A30311241FBECFEFD8E0DEBFCDBFD9
:1000D00011E0A0E0B1E0E0EBF7E002C005900D9286
:1000E000A434B107D9F721E0A4E4B1E001C01D9226
:1000F000AA3EB207E1F710E0C2E6D0E004C02197C3
:10010000FE010E94D003C136D107C9F70E947102D7
:100110000C94D6030C940000833081F028F48130D5
:1001200099F08230A9F008958730A9F08830C9F09D
:100130008430B1F4809180008F7D03C08091800075
:100140008F7780938000089584B58F7784BD08955C
:1001500084B58F7DFBCF8091B0008F778093B00006
:1001600008958091B0008F7DF9CFAF92BF92CF926A
:10017000DF92EF92FF920F931F93CF93DF936C0167
:100180007B018B01040F151FEB015E01AE18BF0848
:10019000C017D10759F06991D601ED91FC910190FA
:1001A000F081E02DC6010995892B79F7C501DF9112
:1001B000CF911F910F91FF90EF90DF90CF90BF9064
:1001C000AF900895FC01538D448D252F30E0842F8E
:1001D00090E0821B930B541710F0CF96089501976F
:1001E0000895FC01918D828D981761F0A28DAE0F5C
:1001F000BF2FB11D5D968C91928D9F5F9F73928FE3
:1002000090E008958FEF9FEF0895FC01918D828D0E
:10021000981731F0828DE80FF11D858D90E00895DB
:100220008FEF9FEF0895FC01918D228D892F90E033
:10023000805C9F4F821B91098F73992708958DE4ED
:1002400091E00E94130121E0892B09F420E0822F24
:10025000089580E090E0892B29F00E941F01811110
:100260000C9400000895FC01A48DA80FB92FB11DB6
:10027000A35ABF4F2C91848D90E001968F739927DC
:10028000848FA689B7892C93A089B1898C918370BA
:1002900080648C93938D848D981306C00288F389B3
:1002A000E02D80818F7D80830895EF92FF920F93E0
:1002B0001F93CF93DF93EC0181E0888F9B8D8C8D12
:1002C00098131AC0E889F989808185FF15C09FB706
:1002D000F894EE89FF896083E889F98980818370C9
:1002E000806480839FBF81E090E0DF91CF911F9178
:1002F0000F91FF90EF900895F62E0B8D10E00F5F99
:100300001F4F0F731127E02E8C8D8E110CC00FB66E
:1003100007FCFACFE889F989808185FFF5CFCE0106
:100320000E943301F1CFEB8DEC0FFD2FF11DE35A4D
:10033000FF4FF0829FB7F8940B8FEA89FB89808189
:100340008062CFCFCF93DF93EC01888D8823B9F003
:10035000AA89BB89E889F9898C9185FD03C08081D0
:1003600086FD0DC00FB607FCF7CF8C9185FFF2CF4D
:10037000808185FFEDCFCE010E943301E9CFDF916F
:10038000CF910895FC0101900020E9F73197AF016A
:10039000481B590BBC018DE491E00C94B5001F92F1
:1003A0000F920FB60F9211242F933F938F939F9329
:1003B000AF93BF938091490190914A01A0914B0165
:1003C000B0914C013091480123E0230F2D3758F5AF
:1003D0000196A11DB11D209348018093490190937E
:1003E0004A01A0934B01B0934C018091440190913C
:1003F0004501A0914601B09147010196A11DB11D93
:100400008093440190934501A0934601B093470126
:10041000BF91AF919F918F913F912F910F900FBE00
:100420000F901F90189526E8230F0296A11DB11D6D
:10043000D2CF1F920F920FB60F9211242F933F939A
:100440004F935F936F937F938F939F93AF93BF93DC
:10045000EF93FF938DE491E00E943301FF91EF91C0
:10046000BF91AF919F918F917F916F915F914F91CC
:100470003F912F910F900FBE0F901F9018951F92D4
:100480000F920FB60F9211242F938F939F93EF9398
:10049000FF93E0915D01F0915E018081E091630145
:1004A000F091640182FD1BC09081809166018F5F95
:1004B0008F7320916701821741F0E0916601F0E0AF
:1004C000E35BFE4F958F80936601FF91EF919F91C3
:1004D0008F912F910F900FBE0F901F9018958081D4
:1004E000F4CF789484B5826084BD84B5816084BD86
:1004F00085B5826085BD85B5816085BD80916E00C2
:10050000816080936E0010928100809181008260F2
:10051000809381008091810081608093810080912F
:1005200080008160809380008091B100846080931E
:10053000B1008091B00081608093B00080917A001A
:10054000846080937A0080917A00826080937A0040
:1005500080917A00816080937A0080917A0080682F
:1005600080937A001092C100ECE9CE2EE0E0DE2EFE
:10057000F6012491F8E8AF2EF0E0BF2EF50184914A
:100580008823C1F090E0880F991FFC01E859FF4FC4
:10059000A591B491FC01E458FF4FC591D4913FB7A8
:1005A000F8949C91822F809598239C93988189231D
:1005B00088833FBF07EA10E0F801249163E9E62E43
:1005C00060E0F62EF7018491882399F090E0880F7F
:1005D000991FFC01E859FF4FA591B491FC01E45823
:1005E000FF4F859194918FB7F8949C91292B2C9370
:1005F0008FBFE0915D01F0915E0182E08083E09128
:100600005901F0915A011082E0915B01F0915C0177
:100610008FEC808310926501E0916101F09162019D
:1006200086E08083E0915F01F091600180818061CC
:100630008083E0915F01F091600180818860808318
:10064000E0915F01F0916001808180688083E0919A
:100650005F01F091600180818F7D808386E291E06F
:100660000E94C20181E491E00E94C20120EB422E6F
:1006700020E0522E3BEB632E30E0732E40E0842EC0
:1006800040E0942EF2018491F601C491F501D491D9
:10069000DD2309F453C081110E948C00ED2FF0E09E
:1006A000EE0FFF1FEE58FF4FA591B4918C91C82318
:1006B00091E080E009F490E0C92FD82FF3018491F4
:1006C000F8013490F70124902220A1F081110E94BA
:1006D0008C00E22DF0E0EE0FFF1FE458FF4FA591D4
:1006E000B4918FB7F8949C91C1112BC030943922EA
:1006F0003C928FBF80910001909101018C179D0762
:1007000089F084E191E0C130D10511F48BE191E0F1
:100710000E94C20181E491E00E94C201D0930101D4
:10072000C09300018114910409F4ACCF0E941F0111
:10073000882309F4A7CF0E940000A4CFD0E0C0E036
:10074000BDCF392AD5CFEDE4F1E01382128288EED5
:1007500093E0A0E0B0E084839583A683B78386E02E
:1007600091E09183808385EC90E09587848784EC89
:1007700090E09787868780EC90E0918B808B81EC6E
:1007800090E0938B828B82EC90E0958B848B86EC4F
:1007900090E0978B868B118E128E138E148E089597
:1007A000EE0FFF1F0590F491E02D0994F894FFCF10
:1007B000FFFF000000005501B500E200A201130197
:1007C000F10005015375656C746F005072657369B3
:1007D0006F6E61646F00426F74C3B36E20636F6E9F
:1007E0002070756C6C2D646F776E206C6973746FFC
:0407F000000D0A00EE
:00000001FF
