:100000000C945D000C9485000C9485000C94850084
:100010000C9485000C9485000C9485000C9485004C
:100020000C9485000C9485000C9485000C9485003C
:100030000C9485000C9485000C9485000C9485002C
:100040000C9499030C9485000C9409040C94E3031C
:100050000C9485000C9485000C9485000C9485000C
:100060000C9485000C94850000000008000201003B
:100070000003040700000000000000000000000072
:10008000250028002B0000000000240027002A0083
:10009000040404040404040402020202020203032E
:1000A0000303030301020408102040800102040836
:1000B00010200102040810203B0411241FBECFEFC2
:1000C000D8E0DEBFCDBF11E0A0E0B1E0E0E7FAE0AC
:1000D00002C005900D92A034B107D9F721E0A0E449
:1000E000B1E001C01D92A03FB207E1F710E0CDE5FD
:1000F000D0E004C02197FE010E943005CC35D10725
:10010000C9F70E9471040C9436050C94000090E02D
:10011000FC01EC55FF4F249180579F4FFC018491C7
:10012000882399F090E0880F991FFC01EA57FF4F50
:10013000A591B491FC01E458FF4F859194918FB73C
:10014000F894EC91E22BEC938FBF089590E0FC01C2
:10015000E859FF4F2491FC01EC55FF4F3491FC010D
:10016000E057FF4FE491EE23C9F0222339F023300A
:1001700001F1A8F4213019F1223029F1F0E0EE0F5D
:10018000FF1FE458FF4FA591B4918FB7F894EC91FD
:10019000611126C030953E233C938FBF08952730D0
:1001A000A9F02830C9F0243049F7809180008F7D74
:1001B00003C0809180008F7780938000DFCF84B56B
:1001C0008F7784BDDBCF84B58F7DFBCF8091B0006E
:1001D0008F778093B000D2CF8091B0008F7DF9CF20
:1001E0003E2BDACF1F93CF93DF93182FEB010E94A2
:1001F0008700209739F460E0812FDF91CF911F9124
:100200000C94A600CF3FD10511F461E0F5CFE12FAA
:10021000F0E0E859FF4FE491E33031F140F4E13090
:10022000B1F0E230E1F0C038D1057CF7E4CFE7303F
:1002300029F1E83059F1E430B1F780918000806213
:1002400080938000D0938B00C0938A0004C084B553
:10025000806884BDC7BDDF91CF911F91089584B59B
:10026000806284BDC8BDF7CF809180008068809394
:100270008000D0938900C0938800EDCF8091B000BA
:1002800080688093B000C093B300E5CF8091B00048
:1002900080628093B000C093B400DDCF3FB7F89484
:1002A0008091450190914601A0914701B09148018C
:1002B00026B5A89B05C02F3F19F00196A11DB11DC1
:1002C0003FBFBA2FA92F982F8827BC01CD01620FFD
:1002D000711D811D911D42E0660F771F881F991FB8
:1002E0004A95D1F708958F929F92AF92BF92CF9285
:1002F000DF92EF92FF924B015C010E944E016B0175
:100300007C010E944E016C197D098E099F09683E8F
:10031000734081059105A8F321E0821A9108A10894
:10032000B10888EEC80E83E0D81EE11CF11C8114D0
:100330009104A104B10429F7FF90EF90DF90CF90D2
:10034000BF90AF909F908F900895AF92BF92CF9241
:10035000DF92EF92FF920F931F93CF93DF936C0185
:100360007B018B01040F151FEB015E01AE18BF0866
:10037000C017D10759F06991D601ED91FC91019018
:10038000F081E02DC6010995892B79F7C501DF9130
:10039000CF911F910F91FF90EF90DF90CF90BF9082
:1003A000AF900895FC01538D448D252F30E0842FAC
:1003B00090E0821B930B541710F0CF96089501978D
:1003C0000895FC01918D828D981761F0A28DAE0F7A
:1003D000BF2FB11D5D968C91928D9F5F9F73928F01
:1003E00090E008958FEF9FEF0895FC01918D828D2D
:1003F000981731F0828DE80FF11D858D90E00895FA
:100400008FEF9FEF0895FC01918D228D892F90E051
:10041000805C9F4F821B91098F73992708958BE40D
:1004200091E00E94030221E0892B09F420E0822F51
:10043000089580E090E0892B29F00E940F0281113D
:100440000C9400000895FC01A48DA80FB92FB11DD4
:10045000A35ABF4F2C91848D90E001968F739927FA
:10046000848FA689B7892C93A089B1898C918370D8
:1004700080648C93938D848D981306C00288F389D1
:10048000E02D80818F7D80830895EF92FF920F93FE
:100490001F93CF93DF93EC0181E0888F9B8D8C8D30
:1004A00098131AC0E889F989808185FF15C09FB724
:1004B000F894EE89FF896083E889F98980818370E7
:1004C000806480839FBF81E090E0DF91CF911F9196
:1004D0000F91FF90EF900895F62E0B8D10E00F5FB7
:1004E0001F4F0F731127E02E8C8D8E110CC00FB68D
:1004F00007FCFACFE889F989808185FFF5CFCE0125
:100500000E942302F1CFEB8DEC0FFD2FF11DE35A7A
:10051000FF4FF0829FB7F8940B8FEA89FB898081A7
:100520008062CFCFCF93DF93EC01888D8823B9F021
:10053000AA89BB89E889F9898C9185FD03C08081EE
:1005400086FD0DC00FB607FCF7CF8C9185FFF2CF6B
:10055000808185FFEDCFCE010E942302E9CFDF919C
:10056000CF910895CF93DF93FC0101900020E9F72C
:100570003197AF01481B590BBC018BE491E00E94FD
:10058000A501EC0142E050E062E171E08BE491E012
:100590000E94A5018C0F9D1FDF91CF910895CF93ED
:1005A000DF9360E08CE00E94A600D0914A01C8E091
:1005B0006D2F661F6627661F88E00E94A600DD0F6C
:1005C00061E084E00E94A60060E084E00E94A60052
:1005D000C15071F761E08CE0DF91CF910C94A600DF
:1005E0001F93CF93DF93EC01162F6883809149010D
:1005F000811117C087E00E94870088E00E94870071
:100600008CE00E94870084E00E94870060E087E021
:100610000E94A60010924A010E94CF0281E08093BE
:100620004901133071F1143091F1123021F18BE056
:10063000898382E08A8383E08B8389810E9487009B
:100640008A8121E030E0A90102C0440F551F8A953C
:10065000E2F7CA019B8101C0220F9A95EAF7822B2B
:10066000809590914A01892380934A01DF91CF912F
:100670001F910C94CF0283E0898381E08A8384E018
:10068000DBCF86E0898385E08A8387E0D5CF85E06C
:1006900089831A8286E0D0CFFC01428121E030E0DC
:1006A000F90102C0EE0FFF1F4A95E2F7AF0170910A
:1006B0004A01FC018381F90102C0EE0FFF1F8A95F8
:1006C000E2F7CF01633089F0643091F0623049F095
:1006D000472B9E2F9095842F892380934A010C9459
:1006E000CF0240954723842BF8CF842B872BF5CF5F
:1006F000842B80958723F1CF1F93CF93DF93182FFF
:10070000C62FD0E0BE018091ED010E94F200BE0133
:100710008091E9010E94F200612F8CEE91E00E942D
:100720004C03612F88EE91E0DF91CF911F910C94E3
:100730004C031F920F920FB60F9211242F933F93E9
:100740008F939F93AF93BF9380914101909142010A
:10075000A0914301B09144013091400123E0230F67
:100760002D3758F50196A11DB11D209340018093AE
:10077000410190934201A0934301B09344018091C1
:10078000450190914601A0914701B0914801019621
:10079000A11DB11D8093450190934601A09347018F
:1007A000B0934801BF91AF919F918F913F912F914D
:1007B0000F900FBE0F901F90189526E8230F0296FA
:1007C000A11DB11DD2CF1F920F920FB60F9211240F
:1007D0002F933F934F935F936F937F938F939F9349
:1007E000AF93BF93EF93FF938BE491E00E942302BA
:1007F000FF91EF91BF91AF919F918F917F916F91F9
:100800005F914F913F912F910F900FBE0F901F90CE
:1008100018951F920F920FB60F9211242F938F935A
:100820009F93EF93FF93E0915B01F0915C018081D6
:10083000E0916101F091620182FD1BC09081809185
:1008400064018F5F8F7320916501821741F0E09101
:100850006401F0E0E55BFE4F958F80936401FF91AA
:10086000EF919F918F912F910F900FBE0F901F903E
:1008700018958081F4CFEBE4F1E01382128288EEC8
:1008800093E0A0E0B0E084839583A683B78384E0FF
:1008900091E09183808385EC90E09587848784EC58
:1008A00090E09787868780EC90E0918B808B81EC3D
:1008B00090E0938B828B82EC90E0958B848B86EC1E
:1008C00090E0978B868B118E128E138E148E61E0C2
:1008D0008CEE91E00E94F00264E088EE91E00C94CE
:1008E000F002789484B5826084BD84B5816084BD53
:1008F00085B5826085BD85B5816085BD80916E00BE
:10090000816080936E0010928100809181008260EE
:10091000809381008091810081608093810080912B
:1009200080008160809380008091B100846080931A
:10093000B1008091B00081608093B00080917A0016
:10094000846080937A0080917A00826080937A003C
:1009500080917A00816080937A0080917A0080682B
:1009600080937A001092C100E0915B01F0915C01EC
:1009700082E08083E0915701F09158011082E0916C
:100980005901F0915A018FEC808310926301E0913C
:100990005F01F091600186E08083E0915D01F0915C
:1009A0005E01808180618083E0915D01F0915E0154
:1009B000808188608083E0915D01F0915E0180819B
:1009C00080688083E0915D01F0915E0180818F7D80
:1009D000808385E191E00E94B202C0E0D0E081E234
:1009E00091E00E94B20268EC81E00E947C0360ED1D
:1009F00077E080E090E00E9473018EE291E00E9437
:100A0000B20260E084E00E947C0368EE73E080E064
:100A100090E00E94730185E391E00E94B2026FEFC3
:100A200082E00E947C0360ED77E080E090E00E942D
:100A300073018EE291E00E94B20260E084E00E94C5
:100A40007C0368EE73E080E090E00E9473012097E1
:100A500031F20E940F02882311F20E940000BFCFE2
:100A6000EE0FFF1F0590F491E02D0994F894FFCF4D
:100A7000000000004502A501D20192020302E1013B
:100A8000F5010D0A00436172726F206C6973746F17
:100A9000006164656C616E74652032303000717580
:100AA0006965746F006174726173203235350000BE
:00000001FF
