:100000000C945D000C9485000C9485000C94850084
:100010000C9485000C9485000C9485000C9485004C
:100020000C9485000C9485000C9485000C9485003C
:100030000C9485000C9485000C9485000C9485002C
:100040000C9494010C9485000C9404020C94DE0131
:100050000C9485000C9485000C9485000C9485000C
:100060000C9485000C9485000000000024002700FB
:100070002A0000000000250028002B0004040404CE
:100080000404040402020202020203030303030342
:10009000010204081020408001020408102001021F
:1000A00004081020000000080002010000030407FB
:1000B00000000000000000002C0311241FBECFEF41
:1000C000D8E0DEBFCDBF11E0A0E0B1E0E2ECF6E0A9
:1000D00002C005900D92A633B107D9F721E0A6E33F
:1000E000B1E001C01D92AC3DB207E1F710E0CDE5F3
:1000F000D0E004C02197FE010E945903CC35D107FE
:10010000C9F70E9436020C945F030C940000AF9272
:10011000BF92CF92DF92EF92FF920F931F93CF93F4
:10012000DF936C017B018B01040F151FEB015E0156
:10013000AE18BF08C017D10759F06991D601ED91EB
:10014000FC910190F081E02DC6010995892B79F78A
:10015000C501DF91CF911F910F91FF90EF90DF903C
:10016000CF90BF90AF900895FC01538D448D252F03
:1001700030E0842F90E0821B930B541710F0CF9641
:10018000089501970895FC01918D828D981761F073
:10019000A28DAE0FBF2FB11D5D968C91928D9F5F8A
:1001A0009F73928F90E008958FEF9FEF0895FC0169
:1001B000918D828D981731F0828DE80FF11D858D1C
:1001C00090E008958FEF9FEF0895FC01918D228DAF
:1001D000892F90E0805C9F4F821B91098F73992734
:1001E000089586E391E00E94E50021E0892B09F45F
:1001F00020E0822F089580E090E0892B29F00E9472
:10020000F10081110C9400000895FC01A48DA80F49
:10021000B92FB11DA35ABF4F2C91848D90E0019648
:100220008F739927848FA689B7892C93A089B18968
:100230008C91837080648C93938D848D981306C009
:100240000288F389E02D80818F7D80830895EF926D
:10025000FF920F931F93CF93DF93EC0181E0888F80
:100260009B8D8C8D98131AC0E889F989808185FF50
:1002700015C09FB7F894EE89FF896083E889F989F2
:1002800080818370806480839FBF81E090E0DF91F4
:10029000CF911F910F91FF90EF900895F62E0B8D47
:1002A00010E00F5F1F4F0F731127E02E8C8D8E1102
:1002B0000CC00FB607FCFACFE889F989808185FF69
:1002C000F5CFCE010E940501F1CFEB8DEC0FFD2F94
:1002D000F11DE35AFF4FF0829FB7F8940B8FEA8924
:1002E000FB8980818062CFCFCF93DF93EC01888D33
:1002F0008823B9F0AA89BB89E889F9898C9185FDA1
:1003000003C0808186FD0DC00FB607FCF7CF8C912E
:1003100085FFF2CF808185FFEDCFCE010E940501E0
:10032000E9CFDF91CF9108951F920F920FB60F92F0
:1003300011242F933F938F939F93AF93BF938091FB
:10034000D8019091D901A091DA01B091DB013091EF
:10035000D70123E0230F2D3758F50196A11DB11DBC
:100360002093D7018093D8019093D901A093DA010B
:10037000B093DB018091D3019091D401A091D5017C
:10038000B091D6010196A11DB11D8093D301909328
:10039000D401A093D501B093D601BF91AF919F91A5
:1003A0008F913F912F910F900FBE0F901F90189536
:1003B00026E8230F0296A11DB11DD2CF1F920F92E6
:1003C0000FB60F9211242F933F934F935F936F9328
:1003D0007F938F939F93AF93BF93EF93FF9386E3A6
:1003E00091E00E940501FF91EF91BF91AF919F9124
:1003F0008F917F916F915F914F913F912F910F90CE
:100400000FBE0F901F9018951F920F920FB60F926C
:1004100011242F938F939F93EF93FF93E0914601C5
:10042000F09147018081E0914C01F0914D0182FDF6
:100430001BC0908180914F018F5F8F73209150017D
:10044000821741F0E0914F01F0E0EA5CFE4F958F9A
:1004500080934F01FF91EF919F918F912F910F907A
:100460000FBE0F901F9018958081F4CF789484B5BB
:10047000826084BD84B5816084BD85B5826085BDA0
:1004800085B5816085BD80916E00816080936E002E
:100490001092810080918100826080938100809120
:1004A00081008160809381008091800081608093D1
:1004B00080008091B10084608093B1008091B00091
:1004C00081608093B00080917A00846080937A008C
:1004D00080917A00826080937A0080917A008160B6
:1004E00080937A0080917A00806880937A001092DD
:1004F000C1004DE950E0FA01649189E890E0FC0107
:100500002491222399F030E0220F331FF901E8599A
:10051000FF4FA591B491F901EE58FF4F2591349109
:100520002FB7F8943C91632B6C932FBFE1EBF0E075
:100530002491FA014491FC0194919923D9F022234A
:1005400059F0233009F471C008F064C0213009F477
:1005500072C0223009F473C0E92FF0E0EE0FFF1FE4
:10056000EE58FF4FA591B4918FB7F8949C91492B09
:100570004C938FBFE0914601F091470182E0808368
:10058000E0914201F09143011082E0914401F09129
:1005900045018FEC808310924E01E0914A01F09169
:1005A0004B0186E08083E0914801F0914901808110
:1005B00080618083E0914801F091490180818860E9
:1005C0008083E0914801F0914901808180688083B7
:1005D000E0914801F091490180818F7D808340E264
:1005E00050E062E171E086E391E00E94870042E022
:1005F00050E063E371E086E391E00E948700C0E091
:10060000D0E02097F1F30E94F1008823D1F30E94FB
:100610000000F7CF2730B1F02830D1F0243009F0B6
:100620009BCF809180008F7D03C0809180008F7769
:100630008093800091CF84B58F7784BD8DCF84B5B2
:100640008F7DFBCF8091B0008F778093B00084CFF7
:100650008091B0008F7DF9CFE6E3F1E01382128242
:1006600088EE93E0A0E0B0E084839583A683B7830F
:1006700084E091E09183808385EC90E09587848786
:1006800084EC90E09787868780EC90E0918B808B5C
:1006900081EC90E0938B828B82EC90E0958B848B45
:1006A00086EC90E0978B868B118E128E138E148EB3
:1006B0000895EE0FFF1F0590F491E02D0994F89432
:0206C000FFCF6A
:1006C2000000000027018700B4007401E500C300A8
:1006D200D70050696E20313320656E20414C544F53
:1006E2003A206C6973746F2070617261206D656469
:0606F2006972000D0A0010
:00000001FF
