:100000000C945D000C9485000C9485000C94850084
:100010000C9485000C9485000C9485000C9485004C
:100020000C9485000C9485000C9485000C941403AA
:100030000C9485000C9485000C9485000C9485002C
:100040000C9472020C9485000C94E2020C94BC0295
:100050000C9485000C9485000C9485000C9485000C
:100060000C9485000C9485000000000024002700FB
:100070002A0000000000250028002B0004040404CE
:100080000404040402020202020203030303030342
:10009000010204081020408001020408102001021F
:1000A00004081020000000080002010000030407FB
:1000B0000000000000000000D00311241FBECFEF9D
:1000C000D8E0DEBFCDBF11E0A0E0B1E0E8E3FBE0A7
:1000D00002C005900D92A432B107D9F721E0A4E245
:1000E000B1E001C01D92AC3FB207E1F710E0CDE5F1
:1000F000D0E004C02197FE010E949405CC35D107C1
:10010000C9F70E9435040C949A050C94000090E005
:10011000FC01EC55FF4F2491FC01E057FF4F349157
:10012000FC01E458FF4FE491EE23C9F0222339F09B
:10013000233001F1A8F4213019F1223029F1F0E047
:10014000EE0FFF1FEE58FF4FA591B4918FB7F894B3
:10015000EC91611126C030953E233C938FBF0895EA
:100160002730A9F02830C9F0243049F78091800069
:100170008F7D03C0809180008F7780938000DFCFD8
:1001800084B58F7784BDDBCF84B58F7DFBCF809125
:10019000B0008F778093B000D2CF8091B0008F7D78
:1001A000F9CF3E2BDACF3FB7F89480912A01909196
:1001B0002B01A0912C01B0912D0126B5A89B05C063
:1001C0002F3F19F00196A11DB11D3FBFBA2FA92FD6
:1001D000982F8827BC01CD01620F711D811D911DD3
:1001E00042E0660F771F881F991F4A95D1F708953F
:1001F0008F929F92AF92BF92CF92DF92EF92FF9237
:100200000E94D3004B015C018CEBC82E82E0D82EFB
:10021000E12CF12C0E94D300681979098A099B0905
:10022000683E734081059105A8F321E0C21AD10808
:10023000E108F10888EE880E83E0981EA11CB11C2D
:10024000C114D104E104F10429F7FF90EF90DF908D
:10025000CF90BF90AF909F908F900895AF92BF9234
:10026000CF92DF92EF92FF920F931F93CF93DF9382
:100270006C017B018B01040F151FEB015E01AE18B1
:10028000BF08C017D10759F06991D601ED91FC91D3
:100290000190F081E02DC6010995892B79F7C50100
:1002A000DF91CF911F910F91FF90EF90DF90CF9052
:1002B000BF90AF900895FC01538D448D252F30E001
:1002C000842F90E0821B930B541710F0CF96089563
:1002D00001970895FC01918D828D981761F0A28D90
:1002E000AE0FBF2FB11D5D968C91928D9F5F9F7356
:1002F000928F90E008958FEF9FEF0895FC01918D0C
:10030000828D981731F0828DE80FF11D858D90E078
:1003100008958FEF9FEF0895FC01918D228D892F15
:1003200090E0805C9F4F821B91098F7399270895FD
:100330008EE291E00E948C0121E0892B09F420E0FB
:10034000822F089580E090E0892B29F00E94980187
:1003500081110C9400000895FC01A48DA80FB92F01
:10036000B11DA35ABF4F2C91848D90E001968F73DD
:100370009927848FA689B7892C93A089B1898C91FC
:10038000837080648C93938D848D981306C002884B
:10039000F389E02D80818F7D80830895EF92FF9215
:1003A0000F931F93CF93DF93EC0181E0888F9B8D98
:1003B0008C8D98131AC0E889F989808185FF15C052
:1003C0009FB7F894EE89FF896083E889F989808175
:1003D0008370806480839FBF81E090E0DF91CF9144
:1003E0001F910F91FF90EF900895F62E0B8D10E066
:1003F0000F5F1F4F0F731127E02E8C8D8E110CC0D5
:100400000FB607FCFACFE889F989808185FFF5CF1F
:10041000CE010E94AC01F1CFEB8DEC0FFD2FF11D51
:10042000E35AFF4FF0829FB7F8940B8FEA89FB895C
:1004300080818062CFCFCF93DF93EC01888D8823BA
:10044000B9F0AA89BB89E889F9898C9185FD03C037
:10045000808186FD0DC00FB607FCF7CF8C9185FF1C
:10046000F2CF808185FFEDCFCE010E94AC01E9CFB4
:10047000DF91CF910895DC01EC91EC3090F511966D
:100480008C91119728E830E0281B310987FD3395BE
:10049000220F331F220F331F6217730784F0129647
:1004A0008C9128E532E0281B310987FD3395220F16
:1004B000331F220F331F621773070CF49B01225066
:1004C0003109220F331F4FB7F8948E2F90E0FC01B3
:1004D000EE0FFF1FE80FF91FE553FE4F3283218314
:1004E0004FBF08951F920F920FB60F9211242F93B2
:1004F0003F938F939F93AF93BF93809126019091E9
:100500002701A0912801B09129013091250123E014
:10051000230F2D3758F50196A11DB11D20932501FC
:100520008093260190932701A0932801B09329017D
:1005300080912A0190912B01A0912C01B0912D0165
:100540000196A11DB11D80932A0190932B01A093C8
:100550002C01B0932D01BF91AF919F918F913F914D
:100560002F910F900FBE0F901F90189526E8230F24
:100570000296A11DB11DD2CF1F920F920FB60F92FE
:1005800011242F933F934F935F936F937F938F9398
:100590009F93AF93BF93EF93FF938EE291E00E94FE
:1005A000AC01FF91EF91BF91AF919F918F917F919E
:1005B0006F915F914F913F912F910F900FBE0F90D0
:1005C0001F9018951F920F920FB60F9211242F9320
:1005D0008F939F93EF93FF93E0913E01F0913F0142
:1005E0008081E0914401F091450182FD1BC0908122
:1005F000809147018F5F8F7320914801821741F0EE
:10060000E0914701F0E0E25DFE4F958F8093470156
:10061000FF91EF919F918F912F910F900FBE0F90AF
:100620001F9018958081F4CF1F920F920FB60F92F2
:1006300011242F933F934F935F936F937F938F93E7
:100640009F93AF93BF93CF93DF93EF93FF938091EB
:100650002401C091EF01D0E087FF24C010928500F3
:1006600010928400809124018F5F809324018091F7
:100670002401082E000C990B8C179D0724F48091FF
:1006800024018C30C4F180918400909185000496FF
:1006900080349C4908F47AC0809184009091850050
:1006A000049676C080912401082E000C990B8C17BB
:1006B0009D07C4F6E09124018E2FEE0F990BFC01EB
:1006C000EE0FFF1FE80FF91FE553FE4F808186FFF5
:1006D000C9CFE09124018E2FEE0F990BFC01EE0F94
:1006E000FF1FE80FF91FE553FE4F808160E08F7315
:1006F0000E948700B7CF2091840030918500E0915F
:1007000024018E2FEE0F990BFC01EE0FFF1FE80F57
:10071000F91FE553FE4F81819281820F931F9093C1
:10072000890080938800E09124018E2FEE0F990BB1
:10073000FC01EE0FFF1FE80FF91FE553FE4F80810C
:1007400086FF11C0E09124018E2FEE0F990BFC0162
:10075000EE0FFF1FE80FF91FE553FE4F808161E0A8
:100760008F730E948700FF91EF91DF91CF91BF912E
:10077000AF919F918F917F916F915F914F913F9139
:100780002F910F900FBE0F901F90189580E49CE959
:1007900090938900809388008FEF80932401E3CFAA
:1007A000109231011092300188EE93E0A0E0B0E0A9
:1007B0008093320190933301A0933401B0933501BB
:1007C0008CE091E090932F0180932E0185EC90E0D6
:1007D00090933B0180933A0184EC90E090933D012B
:1007E00080933C0180EC90E090933F0180933E0128
:1007F00081EC90E0909341018093400182EC90E085
:10080000909343018093420186EC90E090934501E0
:1008100080934401109247011092480110924901BF
:1008200010924A01E0EFF1E02CEF31E04FEF68EB7E
:100830007BE08091EF018C30B0F491E0980F9093C1
:10084000EF01808390E0DC01AA0FBB1FA80FB91F46
:10085000A553BE4F12967C936E93119733962E1725
:100860003F0739F708954083F9CF789484B58260C3
:1008700084BD84B5816084BD85B5826085BD85B544
:10088000816085BD80916E00816080936E001092C2
:10089000810080918100826080938100809181003D
:1008A00081608093810080918000816080938000CE
:1008B0008091B10084608093B1008091B00081602C
:1008C0008093B00080917A00846080937A00809158
:1008D0007A00826080937A0080917A0081608093B0
:1008E0007A0080917A00806880937A001092C1002B
:1008F000E0913E01F0913F0182E08083E0913A0176
:10090000F0913B011082E0913C01F0913D018FECB0
:10091000808310924601E0914201F091430186E00C
:100920008083E0914001F09141018081806180836A
:10093000E0914001F0914101808188608083E091E5
:100940004001F0914101808180688083E091400105
:10095000F091410180818F7D808346E050E06AE123
:1009600071E08EE291E00E942E0142E050E061E2EF
:1009700071E08EE291E00E942E01A0EFB1E030E044
:1009800020E0CCE0D2E08C918C3008F074C0F9010A
:10099000EE0FFF1FE050FF4F40815181CA019927A0
:1009A000FC01E057FF4F649184589F4FFC018491F4
:1009B0008823A1F090E0880F991FFC01E859FF4FB0
:1009C00005911491FC01EE58FF4F859194918FB7DA
:1009D000F894F8019081692B60838FBF8C91682F08
:1009E00070E0FB01EE0FFF1FE60FF71FE553FE4F10
:1009F000942F9F734081407C492B408311961C9219
:100A0000119712961C9212976C2F0E9488058C9F4A
:100A10008001112450E040E0B801640F751FFB0114
:100A2000EE0FFF1FE60FF71FE553FE4F908196FD77
:100A300015C04F5F5F4F4C30510571F781110EC0EB
:100A400010928000D0938100109285001092840053
:100A5000B19A80916F00826080936F00EC918E2F2D
:100A600090E0FC01EE0FFF1FE80FF91FE553FE4F6A
:100A70008081806480832F5F3F4F1396243031053F
:100A800009F081CF0CEF11E038E8E32EF12C48E5B6
:100A9000C42E42E0D42E50E0A52E50E0B52EC0EF7B
:100AA000D1E08981B701681B710987FD7395660FD5
:100AB000771F660F771FCE010E943B0223960C170B
:100AC0001D0779F70E94F80090EF892E91E0992E8A
:100AD000F4018281B601681B710987FD7395660F69
:100AE000771F660F771FC4010E943B02F3E08F0E51
:100AF000911CC815D90561F70E94F800A114B10432
:100B000071F20E949801882351F20E940000C7CF21
:100B1000991B79E004C0991F961708F0961B881F4F
:100B20007A95C9F780950895EE0FFF1F0590F4910F
:080B3000E02D0994F894FFCFB9
:100B3800030005000600090000000000CE012E0198
:100B48005B011B028C016A017E01496E6963696F52
:040B5800000D0A0082
:00000001FF
