:100000000C9435000C945D000C945D000C945D0024
:100010000C945D000C945D000C945D000C945D00EC
:100020000C945D000C945D000C945D000C945D00DC
:100030000C945D000C945D000C945D000C945D00CC
:100040000C9431030C945D000C94A1030C947B037D
:100050000C945D000C945D000C945D000C945D00AC
:100060000C945D000C945D00010511241FBECFEFC0
:10007000D8E0DEBFCDBF11E0A0E0B1E0EAE1F0E101
:1000800002C005900D92A434B107D9F721E0A4E491
:10009000B1E001C01D92AA3EB207E1F710E0C5E34E
:1000A000D0E004C02197FE010E940508C433D107A7
:1000B000C9F70E94D3030C940B080C94000080E451
:1000C00080937C0080917A00806480937A00809194
:1000D0007A0086FDFCCF8091780090917900089598
:1000E0003FB7F8948091490190914A01A0914B014A
:1000F000B0914C0126B5A89B05C02F3F19F0019681
:10010000A11DB11D3FBFBA2FA92F982F8827BC0171
:10011000CD01620F711D811D911D42E0660F771F99
:10012000881F991F4A95D1F708958F929F92AF9299
:10013000BF92CF92DF92EF92FF924B015C010E943F
:1001400070006B017C010E9470006C197D098E09A2
:100150009F09683E734081059105A8F321E0821A4A
:100160009108A108B10888EEC80E83E0D81EE11CF2
:10017000F11C81149104A104B10429F7FF90EF90C0
:10018000DF90CF90BF90AF909F908F900895AF92E7
:10019000BF92CF92DF92EF92FF920F931F93CF9374
:1001A000DF936C017B018B01040F151FEB015E01D6
:1001B000AE18BF08C017D10759F06991D601ED916B
:1001C000FC910190F081E02DC6010995892B79F70A
:1001D000C501DF91CF911F910F91FF90EF90DF90BC
:1001E000CF90BF90AF900895FC01538D448D252F83
:1001F00030E0842F90E0821B930B541710F0CF96C1
:10020000089501970895FC01918D828D981761F0F2
:10021000A28DAE0FBF2FB11D5D968C91928D9F5F09
:100220009F73928F90E008958FEF9FEF0895FC01E8
:10023000918D828D981731F0828DE80FF11D858D9B
:1002400090E008958FEF9FEF0895FC01918D228D2E
:10025000892F90E0805C9F4F821B91098F739927B3
:1002600008958DE491E00E94250121E0892B09F495
:1002700020E0822F089580E090E0892B29F00E94F1
:10028000310181110C9400000895FC01A48DA80F88
:10029000B92FB11DA35ABF4F2C91848D90E00196C8
:1002A0008F739927848FA689B7892C93A089B189E8
:1002B0008C91837080648C93938D848D981306C089
:1002C0000288F389E02D80818F7D80830895EF92ED
:1002D000FF920F931F93CF93DF93EC0181E0888F00
:1002E0009B8D8C8D98131AC0E889F989808185FFD0
:1002F00015C09FB7F894EE89FF896083E889F98972
:1003000080818370806480839FBF81E090E0DF9173
:10031000CF911F910F91FF90EF900895F62E0B8DC6
:1003200010E00F5F1F4F0F731127E02E8C8D8E1181
:100330000CC00FB607FCFACFE889F989808185FFE8
:10034000F5CFCE010E944501F1CFEB8DEC0FFD2FD3
:10035000F11DE35AFF4FF0829FB7F8940B8FEA89A3
:10036000FB8980818062CFCFCF93DF93EC01888DB2
:100370008823B9F0AA89BB89E889F9898C9185FD20
:1003800003C0808186FD0DC00FB607FCF7CF8C91AE
:1003900085FFF2CF808185FFEDCFCE010E94450120
:1003A000E9CFDF91CF910895FC0101900020E9F79A
:1003B0003197AF01481B590BBC018DE491E00C94BF
:1003C000C7008F929F92AF92BF920F931F93CF93CC
:1003D000DF93CDB7DEB7A1970FB6F894DEBF0FBE9F
:1003E000CDBF19A2423008F44AE08E010F5D1F4FC5
:1003F000842E912CB12CA12CA50194010E94C5073B
:10040000E62FB901CA01EA30F4F4E05DD801EE93B9
:100410008D01232B242B252B79F790E080E010977A
:1004200019F0CD010E94D401A1960FB6F894DEBF59
:100430000FBECDBFDF91CF911F910F91BF90AF90B5
:100440009F908F900895E95CE1CF4F925F926F92F9
:100450007F928F929F92AF92BF92CF92DF92EF9254
:10046000FF920F931F93CF936B017C01742EAC010D
:100470009B010E94AB07882399F082E191E0CF9124
:100480001F910F91FF90EF90DF90CF90BF90AF90B2
:100490009F908F907F906F905F904F900C94D401BD
:1004A00046015701E894B7F82FEF3FEF4FE75FE7BA
:1004B000C501B4010E94AB0781110DC02FEF3FEFC2
:1004C0004FE75FE7C501B4010E949B0518161CF4B5
:1004D00086E191E0D4CF2FEF3FEF4FE75FE4C70114
:1004E000B6010E94F30618161CF48AE191E0C7CF0A
:1004F0002FEF3FEF4FE75FECC701B6010E949B056E
:1005000087FDF3CF20E030E0A901C701B6010E94CA
:100510009B0510E000E087FF0AC06DE28DE491E0EA
:100520000E9467018C01F7FAF094F7F8F094C0E0AC
:1005300060E070E080E09FE37C1641F020E030E076
:1005400040E251E40E94A005CF5FF6CFA7019601DB
:100550000E942F052B013C010E9412064B015C01F9
:100560004AE00E94E1017C01E00EF11ECC23C1F1C2
:10057000C501B4010E9441069B01AC01C301B20157
:100580000E942E054B015C016EE28DE491E00E9419
:100590006701E80EF91EC15018F120E030E040E29A
:1005A00051E4C501B4010E94F8062B013C010E94F0
:1005B00012064B01B12CA12C4AE0C501B4010E94E6
:1005C000E101E80EF91EC501B4010E9441069B013C
:1005D000AC01C301B2010E942E054B015C01DBCFCF
:1005E000C701CF911F910F91FF90EF90DF90CF90B7
:1005F000BF90AF909F908F907F906F905F904F9043
:100600000895CF92DF92EF92FF92CF93DF936C0128
:10061000990FEE08FF08F7FE19C06DE28DE491E036
:100620000E946701EC0166277727CB016C197D09D1
:100630008E099F094AE00E94E1018C0F9D1FDF9106
:10064000CF91FF90EF90DF90CF9008954AE0C701DF
:10065000B601DF91CF91FF90EF90DF90CF900C9497
:10066000E1011F920F920FB60F9211242F933F9327
:100670008F939F93AF93BF938091450190914601D3
:10068000A0914701B09148013091440123E0230F2C
:100690002D3758F50196A11DB11D2093440180937B
:1006A000450190934601A0934701B0934801809182
:1006B000490190914A01A0914B01B0914C010196E2
:1006C000A11DB11D8093490190934A01A0934B0154
:1006D000B0934C01BF91AF919F918F913F912F911A
:1006E0000F900FBE0F901F90189526E8230F0296CB
:1006F000A11DB11DD2CF1F920F920FB60F921124E0
:100700002F933F934F935F936F937F938F939F9319
:10071000AF93BF93EF93FF938DE491E00E94450167
:10072000FF91EF91BF91AF919F918F917F916F91C9
:100730005F914F913F912F910F900FBE0F901F909F
:1007400018951F920F920FB60F9211242F938F932B
:100750009F93EF93FF93E0915D01F0915E018081A3
:10076000E0916301F091640182FD1BC09081809152
:1007700066018F5F8F7320916701821741F0E091CE
:100780006601F0E0E35BFE4F958F80936601FF9179
:10079000EF919F918F912F910F900FBE0F901F900F
:1007A00018958081F4CF789484B5826084BD84B537
:1007B000816084BD85B5826085BD85B5816085BD5C
:1007C00080916E00816080936E0010928100809114
:1007D000810082608093810080918100816080939C
:1007E0008100809180008160809380008091B100C1
:1007F00084608093B1008091B00081608093B000EC
:1008000080917A00846080937A0080917A0082607F
:1008100080937A0080917A00816080937A00809141
:100820007A00806880937A001092C100E0915D01A7
:10083000F0915E0182E08083E0915901F0915A01CC
:100840001082E0915B01F0915C018FEC808310924B
:100850006501E0916101F091620186E08083E091A1
:100860005F01F0916001808180618083E0915F0190
:10087000F0916001808188608083E0915F01F09158
:100880006001808180688083E0915F01F091600168
:1008900080818F7D808390E0292E90E0392E0E9408
:1008A0005F002C0188EC682E712CD0E0C0E00FEFC7
:1008B00013E0C12CD12C7601812C912C54010E9483
:1008C0005F00AC01DC01A419B509BD010B2E000CC1
:1008D000880B990B860E971EA81EB91E9D010E94BB
:1008E000E707C60ED71EE81EF91E401751070CF485
:1008F0008A01C417D5070CF4EA0162E070E080E0D9
:1009000090E00E94950081E0681A7108C1F6C50167
:10091000B4010E94430620E030E048E453E40E9422
:10092000A0054B015C01C701B6010E94430620E00F
:1009300030E048E453E40E94A0056B017C01A5016E
:100940009401C501B4010E94F8069B01AC01C701E6
:10095000B6010E942E056B017C01B201550C880B7B
:10096000990B0E944306A50194010E942F054B019B
:100970005C0120E030E0A901C701B6010E94F30646
:1009800018161CF0C12CD12C7601C701B6010E94AB
:100990006B076B017C018EE191E00E94D401C801DC
:1009A0000E94010383E291E00E94D401CE010E94E3
:1009B000010389E291E00E94D40142E0C501B40143
:1009C0000E94250284E391E00E94D40142E0C70125
:1009D000B6010E94250281E491E00E94D40168EEF4
:1009E00073E080E090E00E9495002114310409F446
:1009F00056CF0E943101882309F451CF0E94000094
:100A00004ECFEDE4F1E01382128288EE93E0A0E095
:100A1000B0E084839583A683B78384E091E09183DB
:100A2000808385EC90E09587848784EC90E09787BD
:100A3000868780EC90E0918B808B81EC90E0938BAB
:100A4000828B82EC90E0958B848B86EC90E0978B88
:100A5000868B118E128E138E148E08955058BB27DC
:100A6000AA270E9446050C94B9060E94AB0638F0EE
:100A70000E94B20620F039F49F3F19F426F40C943A
:100A8000A8060EF4E095E7FB0C94A206E92F0E945D
:100A9000CA0658F3BA17620773078407950720F050
:100AA00079F4A6F50C94EC060EF4E0950B2EBA2F13
:100AB000A02D0B01B90190010C01CA01A001112464
:100AC000FF27591B99F0593F50F4503E68F11A1610
:100AD000F040A22F232F342F4427585FF3CF4695A1
:100AE00037952795A795F0405395C9F77EF41F16C3
:100AF000BA0B620B730B840BBAF09150A1F0FF0F8D
:100B0000BB1F661F771F881FC2F70EC0BA0F621F78
:100B1000731F841F48F4879577956795B795F79568
:100B20009E3F08F0B0CF9395880F08F09927EE0FFD
:100B30009795879508950E947E0608F481E00895B0
:100B40000E94B4050C94B9060E94B20658F00E94A7
:100B5000AB0640F029F45F3F29F00C94A206511136
:100B60000C94ED060C94A8060E94CA0668F399231B
:100B7000B1F3552391F3951B550BBB27AA27621799
:100B80007307840738F09F5F5F4F220F331F441FA6
:100B9000AA1FA9F335D00E2E3AF0E0E832D09150DA
:100BA0005040E695001CCAF72BD0FE2F29D0660FC7
:100BB000771F881FBB1F261737074807AB07B0E80A
:100BC00009F0BB0B802DBF01FF2793585F4F3AF010
:100BD0009E3F510578F00C94A2060C94ED065F3F01
:100BE000E4F3983ED4F3869577956795B795F79596
:100BF0009F5FC9F7880F911D9695879597F908957E
:100C0000E1E0660F771F881FBB1F62177307840719
:100C1000BA0720F0621B730B840BBA0BEE1F88F728
:100C2000E09508950E94D20688F09F5798F0B92F5A
:100C30009927B751B0F0E1F0660F771F881F991F11
:100C40001AF0BA95C9F714C0B13091F00E94EC06C1
:100C5000B1E008950C94EC06672F782F8827B85FD1
:100C600039F0B93FCCF3869577956795B395D9F769
:100C70003EF490958095709561957F4F8F4F9F4F73
:100C80000895E89409C097FB3EF49095809570957F
:100C900061957F4F8F4F9F4F9923A9F0F92F96E9C8
:100CA000BB279395F695879577956795B795F1113D
:100CB000F8CFFAF4BB0F11F460FF1BC06F5F7F4FDA
:100CC0008F4F9F4F16C0882311F096E911C07723EC
:100CD00021F09EE8872F762F05C0662371F096E8F5
:100CE000862F70E060E02AF09A95660F771F881FC4
:100CF000DAF7880F9695879597F90895990F000868
:100D0000550FAA0BE0E8FEEF16161706E807F907DD
:100D1000C0F012161306E407F50798F0621B730B78
:100D2000840B950B39F40A2661F0232B242B252BF9
:100D300021F408950A2609F4A140A6958FEF811D9C
:100D4000811D089597F99F6780E870E060E008953D
:100D50009FEF80EC089500240A94161617061806D3
:100D60000906089500240A941216130614060506AF
:100D70000895092E0394000C11F4882352F0BB0F40
:100D800040F4BF2B11F460FF04C06F5F7F4F8F4FA3
:100D90009F4F089557FD9058440F551F59F05F3FDE
:100DA00071F04795880F97FB991F61F09F3F79F08D
:100DB00087950895121613061406551FF2CF46950F
:100DC000F1DF08C0161617061806991FF1CF869591
:100DD0007105610508940895E894BB276627772775
:100DE000CB0197F908950E947E0608F48FEF0895CD
:100DF0000E940B070C94B9060E94AB0638F00E94C3
:100E0000B20620F0952311F00C94A2060C94A806CB
:100E100011240C94ED060E94CA0670F3959FC1F34D
:100E2000950F50E0551F629FF001729FBB27F00D98
:100E3000B11D639FAA27F00DB11DAA1F649F6627ED
:100E4000B00DA11D661F829F2227B00DA11D621F3C
:100E5000739FB00DA11D621F839FA00D611D221FF6
:100E6000749F3327A00D611D231F849F600D211DDA
:100E7000822F762F6A2F11249F5750409AF0F1F05D
:100E800088234AF0EE0FFF1FBB1F661F771F881FC6
:100E900091505040A9F79E3F510580F00C94A20656
:100EA0000C94ED065F3FE4F3983ED4F38695779576
:100EB0006795B795F795E7959F5FC1F7FE2B880F6C
:100EC000911D9695879597F9089519F416F40C9449
:100ED000A8060C94B0070E94D206B8F39923C9F370
:100EE000B6F39F57550B87FF0E94BE070024A0E66C
:100EF00040EA900180585695979528F4805C660FDB
:100F0000771F881F20F026173707480730F4621B29
:100F1000730B840B202931294A2BA695179407942B
:100F2000202531254A2758F7660F771F881F20F0A4
:100F300026173707480730F4620B730B840B200D1C
:100F4000311D411DA09581F7B901842F9158880F5B
:100F50009695879508950E947E06880B990B0895B3
:100F60009F3F31F0915020F4879577956795B7951D
:100F7000880F911D9695879597F908959150504047
:100F8000660F771F881FD2F70895A1E21A2EAA1BB9
:100F9000BB1BFD010DC0AA1FBB1FEE1FFF1FA21729
:100FA000B307E407F50720F0A21BB30BE40BF50B26
:100FB000661F771F881F991F1A9469F760957095AF
:100FC000809590959B01AC01BD01CF0108950E94D1
:100FD000EF07332312F48A1B9B0B0C940008A29F8B
:100FE000B001B39FC001A39F700D811D1124911DFD
:100FF000B29F700D811D1124911D08950E94EF076D
:10100000B7FF0895821B930B0895EE0FFF1F059005
:0A101000F491E02D0994F894FFCF4D
:10101A00000000006701C700F400B40125010301C4
:10102A0017016E616E00696E66006F7666006D6903
:10103A006E2000206D617820002070726F6D6564EB
:10104A00696F20002064657376696163696F6E2039
:04105A00000D0A007B
:00000001FF
