:100000000C9462000C948A000C948A000C948A0070
:100010000C948A000C948A000C948A000C948A0038
:100020000C948A000C948A000C948A000C948A0028
:100030000C948A000C948A000C948A000C948A0018
:100040000C9430020C948A000C94A0020C947A0256
:100050000C948A000C948A000C948A000C948A00F8
:100060000C948A000C948A000000000025002800EF
:100070002B0000000000240027002A0000000000E0
:1000800023002600290004040404040404040202DA
:100090000202020203030303030301020408102007
:1000A0004080010204081020010204081020000012
:1000B0000008000201000003040700000000000027
:1000C0000000810411241FBECFEFD8E0DEBFCDBFFA
:1000D00011E0A0E0B1E0E8E2FEE002C005900D9280
:1000E000A433B107D9F721E0A4E3B1E001C01D9228
:1000F000AA3DB207E1F710E0C2E6D0E004C02197C4
:10010000FE010E940C07C136D107C9F70E94D20236
:100110000C9412070C940000E0EBF0E08491ECE901
:10012000F0E09491E8E8F0E0E491EE23C1F1882357
:1001300039F08330E9F090F4813001F1823011F12F
:10014000F0E0EE0FFF1FE458FF4FA591B491EC9142
:10015000E92381E090E029F580E008958730A9F057
:100160008830C9F0843061F7809180008F7D03C0B2
:10017000809180008F7780938000E2CF84B58F7765
:1001800084BDDECF84B58F7DFBCF8091B0008F77AB
:100190008093B000D5CF8091B0008F7DF9CF80E003
:1001A00090E00895AF92BF92CF92DF92EF92FF92CC
:1001B0000F931F93CF93DF936C017B018B01040F8F
:1001C000151FEB015E01AE18BF08C017D10759F02B
:1001D0006991D601ED91FC910190F081E02DC6016D
:1001E0000995892B79F7C501DF91CF911F910F9167
:1001F000FF90EF90DF90CF90BF90AF900895FC01FB
:10020000538D448D252F30E0842F90E0821B930B7B
:10021000541710F0CF96089501970895FC01918D21
:10022000828D981761F0A28DAE0FBF2FB11D5D9624
:100230008C91928D9F5F9F73928F90E008958FEFC6
:100240009FEF0895FC01918D828D981731F0828D7A
:10025000E80FF11D858D90E008958FEF9FEF0895D1
:10026000FC01918D228D892F90E0805C9F4F821B35
:1002700091098F73992708958DE391E00E943001D1
:1002800021E0892B09F420E0822F089580E090E09E
:10029000892B29F00E943C0181110C9400000895E3
:1002A000FC01A48DA80FB92FB11DA35ABF4F2C91EB
:1002B000848D90E001968F739927848FA689B789E2
:1002C0002C93A089B1898C91837080648C93938DD9
:1002D000848D981306C00288F389E02D80818F7D7C
:1002E00080830895EF92FF920F931F93CF93DF9334
:1002F000EC0181E0888F9B8D8C8D98131AC0E88962
:10030000F989808185FF15C09FB7F894EE89FF8930
:100310006083E889F98980818370806480839FBFCE
:1003200081E090E0DF91CF911F910F91FF90EF90CE
:100330000895F62E0B8D10E00F5F1F4F0F731127DE
:10034000E02E8C8D8E110CC00FB607FCFACFE88919
:10035000F989808185FFF5CFCE010E945001F1CF50
:10036000EB8DEC0FFD2FF11DE35AFF4FF0829FB78D
:10037000F8940B8FEA89FB8980818062CFCFCF937D
:10038000DF93EC01888D8823B9F0AA89BB89E889BD
:10039000F9898C9185FD03C0808186FD0DC00FB663
:1003A00007FCF7CF8C9185FFF2CF808185FFEDCFE1
:1003B000CE010E945001E9CFDF91CF910895FC0159
:1003C00001900020E9F73197AF01481B590BBC01A0
:1003D0008DE391E00C94D2008F929F92AF92BF92E6
:1003E0000F931F93CF93DF93CDB7DEB7A1970FB6CF
:1003F000F894DEBF0FBECDBF19A2423008F44AE028
:100400008E010F5D1F4F842E912CB12CA12CA501C4
:1004100094010E94EA06E62FB901CA01EA30F4F419
:10042000E05DD801EE938D01232B242B252B79F74A
:1004300090E080E0109719F0CD010E94DF01A196B5
:100440000FB6F894DEBF0FBECDBFDF91CF911F91E5
:100450000F91BF90AF909F908F900895E95CE1CF8E
:100460001F920F920FB60F9211242F933F938F93E9
:100470009F93AF93BF938091390190913A01A091DE
:100480003B01B0913C013091380123E0230F2D371F
:1004900058F50196A11DB11D2093380180933901B3
:1004A00090933A01A0933B01B0933C0180913401B9
:1004B00090913501A0913601B09137010196A11DAF
:1004C000B11D8093340190933501A0933601B09310
:1004D0003701BF91AF919F918F913F912F910F90D5
:1004E0000FBE0F901F90189526E8230F0296A11DAE
:1004F000B11DD2CF1F920F920FB60F9211242F93DE
:100500003F934F935F936F937F938F939F93AF939B
:10051000BF93EF93FF938DE391E00E945001FF9111
:10052000EF91BF91AF919F918F917F916F915F916B
:100530004F913F912F910F900FBE0F901F901895E4
:100540001F920F920FB60F9211242F938F939F93A8
:10055000EF93FF93E0914D01F0914E018081E09186
:100560005301F091540182FD1BC09081809156018E
:100570008F5F8F7320915701821741F0E0915601F0
:10058000F0E0E35CFE4F958F80935601FF91EF9171
:100590009F918F912F910F900FBE0F901F901895E4
:1005A0008081F4CFCF93DF9300D000D000D0CDB7BF
:1005B000DEB7789484B5826084BD84B5816084BDE3
:1005C00085B5826085BD85B5816085BD80916E00F1
:1005D000816080936E001092810080918100826022
:1005E000809381008091810081608093810080915F
:1005F00080008160809380008091B100846080934E
:10060000B1008091B00081608093B00080917A0049
:10061000846080937A0080917A00826080937A006F
:1006200080917A00816080937A0080917A0080685E
:1006300080937A001092C100ECE9F0E02491E8E8A0
:10064000F0E084918823C9F090E0880F991FFC01A5
:10065000EE58FF4F65917491FC01E859FF4FA59149
:10066000B4919FB7F894FB01808120958223808309
:100670008C91E22FE823EC939FBFE0914D01F09124
:100680004E0182E08083E0914901F0914A0110829D
:10069000E0914B01F0914C018FEC80831092550159
:1006A000E0915101F091520186E08083E0914F0189
:1006B000F0915001808180618083E0914F01F09141
:1006C0005001808188608083E0914F01F09150015A
:1006D000808180688083E0914F01F091500180819A
:1006E0008F7D808300E010E00E948C009E838D83CC
:1006F0008FB7F8942091390130913A0140913B0134
:1007000050913C0129833A834B835C838FBFC12C7A
:10071000D12C7601812C912C5401412C512C320189
:100720002FB7F8948091390190913A01A0913B0143
:10073000B0913C012FBF29813A814B815C81821BA2
:10074000930BA40BB50B803D9740A105B105E0F4D8
:100750000E948C004D815E818417950729F05FEF20
:10076000451A550A650A750A8130910529F4EFEF9B
:100770008E1A9E0AAE0ABE0AFFEFCF1ADF0AEF0AF0
:10078000FF0A9E838D83CCCF82E191E00E94DF013E
:100790004AE0C301B2010E94EC018BE191E00E94AA
:1007A000DF01C501B4010E94C30520E030E048EC40
:1007B00052E40E9478064B015C01C701B6010E9419
:1007C000C3059B01AC01C501B4010E9420056B016A
:1007D0007C014B015C01AC019B010E94E506882372
:1007E000C1F082E291E00E94DF018EE291E00E947E
:1007F000DF0181E391E00E94DF010115110509F499
:1008000073CF0E943C01882309F46ECF0E94000040
:100810006BCF26013701E89477F82FEF3FEF4FE7D2
:100820005FE7C301B2010E94E50681110DC02FEF01
:100830003FEF4FE75FE7C301B2010E941B051816A7
:100840001CF486E291E0CFCF2FEF3FEF4FE75FE45C
:10085000C701B6010E94730618161CF48AE291E0E3
:10086000C2CF2FEF3FEF4FE75FECC701B6010E9409
:100870001B0587FDF3CF20E030E0A901C701B601D9
:100880000E941B0587FF0BC06DE28DE391E00E9483
:10089000720146015701B7FAB094B7F8B0942DEC45
:1008A0003CEC4CE45DE3C501B4010E94AF044B0194
:1008B0005C010E9492056B017C010E94C1059B01B5
:1008C000AC01C501B4010E94AE044B015C014AE0D9
:1008D000C701B6010E94EC016EE28DE391E00E9437
:1008E000720120E030E040E251E4C501B4010E9411
:1008F00078060E94920590E080E04AE00E94EC01B8
:1009000074CFEDE3F1E01382128288EE93E0A0E071
:10091000B0E084839583A683B78384E091E09183DC
:10092000808385EC90E09587848784EC90E09787BE
:10093000868780EC90E0918B808B81EC90E0938BAC
:10094000828B82EC90E0958B848B86EC90E0978B89
:10095000868B118E128E138E148E08955058BB27DD
:10096000AA270E94C6040C9439060E942B0638F070
:100970000E94320620F039F49F3F19F426F40C94BB
:1009800028060EF4E095E7FB0C942206E92F0E945E
:100990004A0658F3BA17620773078407950720F0D1
:1009A00079F4A6F50C946C060EF4E0950B2EBA2F94
:1009B000A02D0B01B90190010C01CA01A001112465
:1009C000FF27591B99F0593F50F4503E68F11A1611
:1009D000F040A22F232F342F4427585FF3CF4695A2
:1009E00037952795A795F0405395C9F77EF41F16C4
:1009F000BA0B620B730B840BBAF09150A1F0FF0F8E
:100A0000BB1F661F771F881FC2F70EC0BA0F621F79
:100A1000731F841F48F4879577956795B795F79569
:100A20009E3F08F0B0CF9395880F08F09927EE0FFE
:100A30009795879508950E94FE0508F481E0089532
:100A40000E9434050C9439060E94320658F00E9428
:100A50002B0640F029F45F3F29F00C942206511137
:100A60000C946D060C9428060E944A0668F399239C
:100A7000B1F3552391F3951B550BBB27AA2762179A
:100A80007307840738F09F5F5F4F220F331F441FA7
:100A9000AA1FA9F335D00E2E3AF0E0E832D09150DB
:100AA0005040E695001CCAF72BD0FE2F29D0660FC8
:100AB000771F881FBB1F261737074807AB07B0E80B
:100AC00009F0BB0B802DBF01FF2793585F4F3AF011
:100AD0009E3F510578F00C9422060C946D065F3F02
:100AE000E4F3983ED4F3869577956795B795F79597
:100AF0009F5FC9F7880F911D9695879597F908957F
:100B0000E1E0660F771F881FBB1F6217730784071A
:100B1000BA0720F0621B730B840BBA0BEE1F88F729
:100B2000E09508950E94520688F09F5798F0B92FDB
:100B30009927B751B0F0E1F0660F771F881F991F12
:100B40001AF0BA95C9F714C0B13091F00E946C0642
:100B5000B1E008950C946C06672F782F8827B85F52
:100B600039F0B93FCCF3869577956795B395D9F76A
:100B70003EF490958095709561957F4F8F4F9F4F74
:100B80000895E89409C097FB3EF490958095709580
:100B900061957F4F8F4F9F4F9923A9F0F92F96E9C9
:100BA000BB279395F695879577956795B795F1113E
:100BB000F8CFFAF4BB0F11F460FF1BC06F5F7F4FDB
:100BC0008F4F9F4F16C0882311F096E911C07723ED
:100BD00021F09EE8872F762F05C0662371F096E8F6
:100BE000862F70E060E02AF09A95660F771F881FC5
:100BF000DAF7880F9695879597F90895990F000869
:100C0000550FAA0BE0E8FEEF16161706E807F907DE
:100C1000C0F012161306E407F50798F0621B730B79
:100C2000840B950B39F40A2661F0232B242B252BFA
:100C300021F408950A2609F4A140A6958FEF811D9D
:100C4000811D089597F99F6780E870E060E008953E
:100C50009FEF80EC089500240A94161617061806D4
:100C60000906089500240A941216130614060506B0
:100C70000895092E0394000C11F4882352F0BB0F41
:100C800040F4BF2B11F460FF04C06F5F7F4F8F4FA4
:100C90009F4F089557FD9058440F551F59F05F3FDF
:100CA00071F04795880F97FB991F61F09F3F79F08E
:100CB00087950895121613061406551FF2CF469510
:100CC000F1DF08C0161617061806991FF1CF869592
:100CD0007105610508940895E894BB276627772776
:100CE000CB0197F908950E94FE0508F48FEF08954F
:100CF0000E948B060C9439060E942B0638F00E9445
:100D0000320620F0952311F00C9422060C9428064C
:100D100011240C946D060E944A0670F3959FC1F34E
:100D2000950F50E0551F629FF001729FBB27F00D99
:100D3000B11D639FAA27F00DB11DAA1F649F6627EE
:100D4000B00DA11D661F829F2227B00DA11D621F3D
:100D5000739FB00DA11D621F839FA00D611D221FF7
:100D6000749F3327A00D611D231F849F600D211DDB
:100D7000822F762F6A2F11249F5750409AF0F1F05E
:100D800088234AF0EE0FFF1FBB1F661F771F881FC7
:100D900091505040A9F79E3F510580F00C942206D7
:100DA0000C946D065F3FE4F3983ED4F386957795F7
:100DB0006795B795F795E7959F5FC1F7FE2B880F6D
:100DC000911D9695879597F908950E94FE05880BC9
:100DD000990B0895A1E21A2EAA1BBB1BFD010DC0A1
:100DE000AA1FBB1FEE1FFF1FA217B307E407F507DB
:100DF00020F0A21BB30BE40BF50B661F771F881FB7
:100E0000991F1A9469F760957095809590959B014C
:100E1000AC01BD01CF010895EE0FFF1F0590F491C5
:080E2000E02D0994F894FFCFC6
:100E2800000000007201D200FF00BF0130010E0176
:100E3800220163616D62696F73200020616C746FB9
:100E480020006E616E00696E66006F766600202570
:040E5800000D0A007F
:00000001FF
