:100000000C9441010C9469010C9469010C946901F0
:100010000C9469010C9469010C9469010C946901B8
:100020000C9469010C9469010C9469010C946901A8
:100030000C9469010C9469010C9469010C94690198
:100040000C94490D0C9469010C94B90D0C94930D0A
:100050000C9469010C9469010C9469010C94690178
:100060000C94EB0D0C946901084AD73B3BCE016E12
:1000700084BCBFFDC12F3D6C74319ABD56833DDAFF
:100080003D00C77F11BED9E4BB4C3E916BAAAABE0E
:10009000000000803F0000407A10F35A00A0724E2A
:1000A00018090010A5D4E80000E87648170000E41D
:1000B0000B54020000CA9A3B000000E1F505000065
:1000C00080969800000040420F000000A0860100CA
:1000D0000000102700000000E8030000000064009A
:1000E000000000000A000000000001000000000005
:1000F0002C76D888DC674F0823DFC1DFAE59E1B129
:10010000B796E5E3E453C63AE651997696E8E6C237
:100110008426EB898C9B62ED407C6FFCEFBC9C9F3E
:1001200040F2BAA56FA5F490055A2AF75C936B6C60
:10013000F9676DC11BFCE0E40D47FEF520E6B50054
:10014000D0ED902E0300943577050080841E0800C2
:1001500000204E0A000000C80C333333330F986E72
:1001600012831141EF8D2114893BE65516CFFEE62F
:10017000DB18D1844B381BF77C1D901DA4BBE424F5
:10018000203284725E228100C9F124ECA1E53D2772
:1001900020204E696E67756E6F2E205265766973EA
:1001A00061206C6F73206361626C657320534441FE
:1001B00020792053434C2079206C6120616C696D5B
:1001C000656E74616369C3B36E2E0020204D505577
:1001D0003630353020286F2072656C6F6A2052549B
:1001E0004329002020504341393638352028313604
:1001F00020736572766F732900202070616E7461C0
:100200006C6C61204F4C454400202070616E74611D
:100210006C6C61204C4344002020307800427573A0
:1002200063616E646F20646973706F73697469765B
:100230006F73204932432E2E2E000000000025004F
:1002400028002B0004040404040404040202020233
:100250000202030303030303010204081020408089
:100260000102040810200102040810200000000808
:10027000000201000003040700000000000000006D
:100280000A0F11241FBECFEFD8E0DEBFCDBF11E0B3
:10029000A0E0B1E0E8E1F9E302C005900D92AE38CC
:1002A000B107D9F723E0AEE8B1E001C01D92A33752
:1002B000B207E1F711E0C1E4D1E004C02197FE01EB
:1002C0000E94921AC034D107C9F70E948A0F0C9479
:1002D0008A1C0C9400000895089590E0FC01E459F4
:1002E000FD4F2491FC01E85AFD4F3491FC01EC5B79
:1002F000FD4FE491EE23C9F0222339F0233001F1C0
:10030000A8F4213019F1223029F1F0E0EE0FFF1F9F
:10031000E65CFD4FA591B4918FB7F894EC91611113
:1003200026C030953E233C938FBF08952730A9F017
:100330002830C9F0243049F7809180008F7D03C0B8
:10034000809180008F7780938000DFCF84B58F7796
:1003500084BDDBCF84B58F7DFBCF8091B0008F77DC
:100360008093B000D2CF8091B0008F7DF9CF3E2B2B
:10037000DACF3FB7F8948091D7019091D801A0913E
:10038000D901B091DA0126B5A89B05C02F3F19F01D
:100390000196A11DB11D3FBFBA2FA92F982F882705
:1003A000BC01CD01620F711D811D911D42E0660FE0
:1003B000771F881F991F4A95D1F708958F929F92B2
:1003C000AF92BF92CF92DF92EF92FF924B015C010E
:1003D0000E94B9016B017C010E94B9016C197D0971
:1003E0008E099F09683E734081059105A8F321E0BD
:1003F000821A9108A108B10888EEC80E83E0D81EC1
:10040000E11CF11C81149104A104B10429F7FF90AF
:10041000EF90DF90CF90BF90AF909F908F90089516
:10042000AF92BF92CF92DF92EF92FF920F931F9302
:10043000CF93DF936C017B018B01040F151FEB0140
:100440005E01AE18BF08C017D10759F06991D601F7
:10045000ED91FC910190F081E02DC6010995892B69
:1004600079F7C501DF91CF911F910F91FF90EF9028
:10047000DF90CF90BF90AF900895FC01538D448DD5
:10048000252F30E0842F90E0821B930B541710F03F
:10049000CF96089501970895FC01918D828D98174C
:1004A00061F0A28DAE0FBF2FB11D5D968C91928D24
:1004B0009F5F9F73928F90E008958FEF9FEF089555
:1004C000FC01918D828D981731F0828DE80FF11D1E
:1004D000858D90E008958FEF9FEF0895FC01918D39
:1004E000228D892F90E0805C9F4F821B91098F7332
:1004F0009927089585E592E00E946E0221E0892BFC
:1005000009F420E0822F089580E090E0892B29F003
:100510000E947A0281110C9400000895FC01A48DC0
:10052000A80FB92FB11DA35ABF4F2C91848D90E015
:1005300001968F739927848FA689B7892C93A089F8
:10054000B1898C91837080648C93938D848D981382
:1005500006C00288F389E02D80818F7D8083089515
:10056000EF92FF920F931F93CF93DF93EC0181E003
:10057000888F9B8D8C8D98131AC0E889F9898081AA
:1005800085FF15C09FB7F894EE89FF896083E889DD
:10059000F98980818370806480839FBF81E090E0CF
:1005A000DF91CF911F910F91FF90EF900895F62E5C
:1005B0000B8D10E00F5F1F4F0F731127E02E8C8DF6
:1005C0008E110CC00FB607FCFACFE889F98980813B
:1005D00085FFF5CFCE010E948E02F1CFEB8DEC0F9F
:1005E000FD2FF11DE35AFF4FF0829FB7F8940B8F58
:1005F000EA89FB8980818062CFCF0F931F93CF93CD
:10060000DF938C01D0E0C0E0F801EC0FFD1F649196
:10061000662341F085E592E00E94B002892B11F03B
:100620002196F2CFCE01DF91CF911F910F910895C6
:10063000CF93DF93EC01888D8823B9F0AA89BB8919
:10064000E889F9898C9185FD03C0808186FD0DC004
:100650000FB607FCF7CF8C9185FFF2CF808185FF25
:10066000EDCFCE010E948E02E9CFDF91CF910895A8
:1006700008952091AF01260F3327331F2132310512
:10068000ECF420912B02FC0190E080E0243069F032
:1006900082E00895A091AF012191AC0141575E4FD6
:1006A000A40FB52FB11D2C930196861798F3809156
:1006B000AF01680F6093AF0180E0089581E0089575
:1006C00010922B0281E080932A021092050261E0D1
:1006D00082E10E946D0161E083E10E946D01E9EB1E
:1006E000F0E080818E7F808380818D7F808388E4AD
:1006F0008093B80085E48093BC0008951092E401D3
:100700001092E30110923202109254020E94600390
:100710008BE691E09093E2018093E1018CE691E019
:100720009093E0018093DF010895CF93DF9391E0F0
:1007300090938E018823B9F0C091B800D091BA008F
:100740008091BC008A7B8093BC0060E082E10E94C3
:100750006D0160E083E10E946D010E946003D0930F
:10076000BA00C093B800DF91CF9108958F929F9205
:10077000AF92BF92CF92DF92EF92FF920F931F93AF
:10078000CF93DF93D0915402D13208F0D7C0182F05
:10079000C09153020E94B9016B017C0180912B0230
:1007A00081116BC082E080932B0210932A028FEF9D
:1007B0008093290210922802D0932702A3E3B2E08B
:1007C000E7E0F2E080E0D81391C010920602809139
:1007D0000602CC0FC82BC09306028091050281301F
:1007E00009F088C0109205020E94B9016B017C01DA
:1007F000809106028093BB0080912D0290912E0281
:10080000A0912F02B0913002892B8A2B8B2BA1F063
:100810000E94B90100912D0210912E0220912F0209
:10082000309130026C197D098E099F090617170750
:100830002807390708F442C08091BC0083FDD8CF57
:1008400085EC8093BC000E94B9016B017C01809112
:100850002B02823009F450C0809129028F3F09F4A5
:100860006FC080912902803209F46CC08091290206
:10087000803309F469C084E026C080912D029091F4
:100880002E02A0912F02B0913002892B8A2B8B2B44
:1008900009F484CF0E94B90180902D0290902E021D
:1008A000A0902F02B09030026C197D098E099F092B
:1008B00086169706A806B90608F070CF80912C021C
:1008C0000E94950385E01092320210925402109219
:1008D0003102DF91CF911F910F91FF90EF90DF9048
:1008E000CF90BF90AF909F908F9008959D919193DE
:1008F0008F5F69CF85EEA5CF80912D0290912E025A
:10090000A0912F02B0913002892B8A2B8B2B09F4F6
:100910009ECF0E94B90100912D0210912E022091CC
:100920002F02309130026C197D098E099F0906173C
:1009300017072807390708F08ACFC0CF81E0C3CF57
:1009400080E0C1CF82E0BFCF83E0BDCF1F93CF93C4
:10095000DF93162FC7E0D3E0A981BA819B8121E004
:10096000209331029093530210923202109254025B
:10097000ED91FC9111970190F081E02D682FCD0150
:10098000099589819A81DC01ED91FC910190F081BA
:10099000E02D612F099581E0DF91CF911F910C949B
:1009A000B6031F93CF93DF93EA01122FDC01119658
:1009B0008D919C91DC01ED91FC910280F381E02D01
:1009C0000995C817D90729F4812F0E94B60391E031
:1009D000811190E0892FDF91CF911F910895CF93DE
:1009E000DF93EC018B818823A1F0888191E09093C3
:1009F000310280935302109232021092540281E02D
:100A00000E94B60391E0811190E0892FDF91CF9190
:100A100008950E947E0381E08B83CE010E94EF0443
:100A2000982F8111E2CFF1CF8F929F92AF92BF9218
:100A3000CF92DF92EF92FF920F931F93CF93DF93AA
:100A4000D82FC62F142F613208F09CC00E94B90124
:100A50006B017C0180912B0281116FC081E080933A
:100A60002B0210932A029FEF9093290210922802E2
:100A70009C0F909327028093060280910602DD0F5F
:100A8000D82BD093060280910502813009F07CC0FA
:100A9000109205020E94B9016B017C01809106024F
:100AA0008093BB0080912D0290912E02A0912F0285
:100AB000B0913002892B8A2B8B2BA1F00E94B901B7
:100AC00000912D0210912E0220912F0230913002C0
:100AD0006C197D098E099F09061717072807390722
:100AE00008F44CC08091BC0083FDD8CF85EC809386
:100AF000BC000E94B9016B017C0180912B02813006
:100B000009F444C0809128028C1710F4C091280287
:100B1000E7E0F2E0A5EEB1E080E08C1359C08C2F45
:100B2000DF91CF911F910F91FF90EF90DF90CF90C9
:100B3000BF90AF909F908F90089580912D029091DB
:100B40002E02A0912F02B0913002892B8A2B8B2B81
:100B500009F480CF0E94B90180902D0290902E025E
:100B6000A0902F02B09030026C197D098E099F0968
:100B700086169706A806B90608F06CCF80912C025D
:100B80000E949503C0E0CBCF85EEB1CF80912D02BE
:100B900090912E02A0912F02B0913002892B8A2BC6
:100BA0008B2B09F4AACF0E94B90100912D0210915C
:100BB0002E0220912F02309130026C197D098E098E
:100BC0009F09061717072807390708F096CFD6CFD1
:100BD00091919D938F5FA1CF0895E091E401809161
:100BE000E301E81730F4F0E0EB51FE4F808190E034
:100BF00008958FEF9FEF08959091E4018091E301B4
:100C00002FEF3FEF981748F4E92FF0E0EB51FE4F3C
:100C1000208130E09F5F9093E401C90108958091A5
:100C2000E3019091E401891B990B0895CF92DF9223
:100C3000EF92FF920F931F93CF93DF937C01CB0131
:100C40008A0120913102222389F0EB016B01C40E4D
:100C5000D51ECC15DD0569F06991D701ED91FC91A8
:100C60000190F081E02DC7010995F3CF642F0E9418
:100C70003903C801DF91CF911F910F91FF90EF9041
:100C8000DF90CF900895CF93DF931F92CDB7DEB75B
:100C90006983209131022223F9F0209154022032FD
:100CA00058F021E030E0FC013383228390E080E0C3
:100CB0000F90DF91CF91089580913202E82FF0E0FC
:100CC000ED5CFD4F998190838F5F8093320280931A
:100CD000540281E090E0ECCF61E0CE0101960E94E9
:100CE0003903F7CFFC01248131E0309331022093A6
:100CF000530210923202109254028385682B8BEFBC
:100D000092E00E94430681E00C94B60390E080E0FC
:100D10000895FC0101900020E9F73197AF01481BCD
:100D2000590BBC0185E592E00C9410028F929F92C2
:100D3000AF92BF920F931F93CF93DF93CDB7DEB7E0
:100D4000A1970FB6F894DEBF0FBECDBF19A24230F7
:100D500008F44AE08E010F5D1F4F842E912CB12CB8
:100D6000A12CA50194010E944218E62FB901CA01E5
:100D7000EA30F4F4E05DD801EE938D01232B242BAF
:100D8000252B79F790E080E0109719F0CD010E94B3
:100D90008906A1960FB6F894DEBF0FBECDBFDF91D6
:100DA000CF911F910F91BF90AF909F908F9008951A
:100DB000E95CE1CFCF93DF9300D0CDB7DEB7898375
:100DC0006A838091F5029091F602FC0124813581BD
:100DD0002230310590F0208131E0309331022093B0
:100DE0005302109232021092540221E042E050E08D
:100DF000BE016F5F7F4F0E94D1040F900F90DF9173
:100E0000CF910895AF92BF92CF92DF92EF92FF926F
:100E10001F93CF93DF93DC0114962D913C9115978E
:100E2000232B09F449C07A01EC01888191E0909369
:100E3000310280935302109232021092540220E049
:100E400041E050E0CD010E94D104182F8823A1F188
:100E5000CC80DD8061E0C114D10409F460E0A62EED
:100E6000B12C462F88810E9414051092E4018093D2
:100E7000E3018A151B0401F590E080E08A159B05CB
:100E800070F489819A81DC01ED91FC910284F385F3
:100E9000E02D0995F701808381E090E0EFCFCD2828
:100EA000B9F2812FDF91CF911F91FF90EF90DF90EA
:100EB000CF90BF90AF90089510E0F3CF8F929F92A4
:100EC000AF92BF92CF92DF92EF92FF921F93CF9398
:100ED000DF931F92CDB7DEB76B017C0120E030E0DD
:100EE00040E85FE30E94B51687FD86C020E030EC45
:100EF0004AE555E4C701B6010E94211A18163CF4D0
:100F0000C12C30ECD32E3AE5E32E35E4F32E60917C
:100F1000F7027091F8028091F9029091FA020E9412
:100F2000BA164B015C0120E030E040E855E4C7010F
:100F3000B6010E941B179B01AC01C501B4010E94C0
:100F4000521920E030E040E05FE30E94741820E096
:100F500030E040E85FE30E9473186B017C0120E001
:100F600030E040E450E40E94B51687FD4CC020E01C
:100F700030E04FE753E4C701B6010E94211A18166A
:100F800034F4C12CD12C9FE7E92E93E4F92E198279
:100F9000AE014F5F5F4FBA018091F5029091F6026A
:100FA0000E9402071981612F6F76606180E00E94C4
:100FB000DA06C701B6010E94CB198EEF0E94DA064D
:100FC000612F80E00E94DA0665E070E080E090E04A
:100FD0000E94DE01612F606A80E00E94DA060F90B5
:100FE000DF91CF911F91FF90EF90DF90CF90BF9056
:100FF000AF909F908F900895C12CD12C20E8E22EC5
:101000002FE3F22E84CFC12CD12C80E4E82EFE2CCD
:10101000BECF8F929F92AF92BF92CF92DF92EF920C
:10102000FF921F93CF93DF9300D000D01F92CDB7D4
:10103000DEB7182F24E0829FC0011124FC01EA5F73
:10104000FE4FC080D1800D2C000CEE08FF08DB01A4
:10105000653B710514F0A4EBB0E0B7FF02C0B0E04F
:10106000A0E08A5F9E4FFC0122813381032E000C99
:10107000440B550B2C193D094E095F090E940318BA
:1010800024EB30E040E050E00E94D917C20ED31E9E
:10109000E41EF51EB60190E080E00E94BA166B01D6
:1010A0007C018EEF8983AE014F5F5F4FBA01809163
:1010B000F5029091F6020E940207698170E06F5F6D
:1010C0007F4F90E080E00E94BA1620E034E244E7CF
:1010D00059E40E941B174B015C016091F70270916B
:1010E000F8028091F9029091FA020E94BA169B01CF
:1010F000AC01C501B4010E9452199B01AC01C701AA
:10110000B6010E9452190E94CB19110F110F1A5FDC
:1011100019831A821B826C837D838091F5029091E2
:10112000F602FC01248135812530310590F02081C3
:1011300031E0309331022093530210923202109228
:10114000540221E045E050E0BE016F5F7F4F0E94F6
:10115000D1040F900F900F900F900F90DF91CF91CF
:101160001F91FF90EF90DF90CF90BF90AF909F9036
:101170008F9008958F929F92AF92BF92CF92DF92FD
:10118000EF92FF920F931F93CF93DF93CDB7DEB70C
:101190002E970FB6F894DEBF0FBECDBF8091080327
:1011A0009091090320910A0331E03093310220939A
:1011B00053021092320210925402DC01ED91FC9124
:1011C0000190F081E02D6BE3099580E00E94B60369
:1011D00041E06EE080910A030E9414051092E40140
:1011E0008093E3018E010F5F1F4F6E01BFE0CB0EB6
:1011F000D11C8091080390910903DC01ED91FC91D1
:101200000284F385E02D0995B82E80910803909112
:101210000903DC01ED91FC910284F385E02D099531
:10122000E12C8E299B29F801819391938F01CE1691
:10123000DF06F9F6C0900F03D0901003E090110381
:10124000F090120369817A81072E000C880B990BAC
:101250000E94BC16A70196010E94521920911F03FB
:101260003091200340912103509122030E94731872
:1012700060932F0370933003809331039093320374
:101280006B817C81072E000C880B990B0E94BC1689
:10129000A70196010E945219209123033091240343
:1012A00040912503509126030E94731860933303E5
:1012B0007093340380933503909336038091070332
:1012C00061E06827681B770B072E000C880B990BD1
:1012D0000E94BC164B015C016D817E81072E000CC3
:1012E000880B990B0E94BC169B01AC01C501B4018F
:1012F0000E941B17A70196010E94521920912703F3
:10130000309128034091290350912A030E947318B9
:1013100060933703709338038093390390933A03B3
:101320006F817885072E000C880B990B0E94BC16E4
:1013300020E030EF41E456E40E94741820E030E0F1
:101340004AEA53E40E94521960932B0370932C03D2
:1013500080932D0390932E03C0900B03D0900C0329
:10136000E0900D03F0900E0369857A85072E000C3E
:10137000880B990B0E94BC16A70196010E94521976
:1013800020911303309114034091150350911603DB
:101390000E94731860933B0370933C0380933D035A
:1013A00090933E036B857C85072E000C880B990B70
:1013B0000E94BC16A70196010E94521920911703A2
:1013C000309118034091190350911A030E94731829
:1013D00060933F03709340038093410390934203D3
:1013E0006D857E85072E000C880B990B0E94BC161C
:1013F000A70196010E94521920911B0330911C03F2
:1014000040911D0350911E030E9473186093430383
:101410007093440380934503909346032E960FB632
:10142000F894DEBF0FBECDBFDF91CF911F910F911A
:10143000FF90EF90DF90CF90BF90AF909F908F90F4
:1014400008950F931F93CF938C01C62F0E947206AD
:101450006C2F6460C8010E9472066C2F6B7FC801FC
:101460000E94720683EC90E00197F1F7CF911F91F3
:101470000F9108950F931F93CF93DF938C01D62F75
:10148000C42F607F642B0E94210A80E1D89FB001A5
:1014900011246C2BC801DF91CF911F910F910C94F7
:1014A000210A41E00E943A0A81E090E008954F92BB
:1014B0005F926F927F928F929F92AF92BF92CF92E4
:1014C000DF92EF92FF920F931F93CF93DF93CDB7ED
:1014D000DEB72C970FB6F894DEBF0FBECDBF0E94CB
:1014E000BA08C0903703D0903803E0903903F090E9
:1014F0003A0321E030E03A83298320E030E0A9017B
:10150000C701B6010E94211A87FF02C01A82198200
:1015100001E010E020E030E0A901C701B6010E941F
:10152000B51687FD02C010E000E069817A81601B7A
:10153000710B072E000C880B990B0E94BC166D8353
:101540007E838F839887A7019601C701B6010E9409
:101550001B172B013C01C0902F03D0903003E0906B
:101560003103F0903203A7019601C701B6010E9432
:101570001B17A30192010E9474180E94341A9B0148
:10158000AC018090330390903403A0903503B09069
:1015900036036D817E818F8198850E941B179B0188
:1015A000AC01C501B4010E94F31821EE3EE245E60C
:1015B00052E40E941B176093470370934803809383
:1015C000490390934A03A5019401C501B4010E9407
:1015D0001B17A30192010E9474180E94341A9B01E8
:1015E000AC01C701B6010E94F318905821EE3EE20B
:1015F00045E652E40E941B1760934B0370934C0323
:1016000080934D0390934E038FB7F894C090DB0105
:10161000D090DC01E090DD01F090DE018FBF809181
:101620005B0390915C03A0915D03B0915E03A70101
:101630009601281B390B4A0B5B0BCA01B9010E94AA
:10164000BA162FE632E143E85AE30E941B174B011A
:101650005C01C0925B03D0925C03E0925D03F09268
:101660005E0380915F0390916003A0916103B0914C
:10167000620389839A83AB83BC8340904703509075
:1016800048036090490370904A0320913B033091D6
:101690003C0340913D0350913E03C501B4010E94BB
:1016A0001B1720914F0330915003409151035091EB
:1016B00052030E947418A30192010E9473186B01D7
:1016C0007C0120E030E044E353E40E94211A181624
:1016D0003CF420E030E044EB53E4C701B601EDCF29
:1016E00020E030E044E353ECC701B6010E94B51698
:1016F00087FF0BC020E030E044EB53E4C701B601A4
:101700000E9474186B017C01EBCF29813A814B81D7
:101710005C8160E070E080E89FE30E947318698755
:101720007A878B879C87A7019601C301B2010E942B
:10173000741829813A814B815C810E941B176B01CF
:101740007C0129853A854B855C85C301B2010E94E5
:101750001B179B01AC01C701B6010E9474186B01F5
:101760007C0120E030E044E353E40E94211A181683
:101770004CF420E030E044EB53E4C701B6010E9492
:101780007318EDCF20E030E044E353ECC701B6011D
:101790000E94B51687FF0BC020E030E044EB53E415
:1017A000C701B6010E9474186B017C01EBCFC09297
:1017B0004F03D0925003E0925103F09252034090B5
:1017C0004B0350904C0360904D0370904E0320915A
:1017D0003F033091400340914103509142036D819A
:1017E0007E818F8198850E941B17A50194010E941C
:1017F0001B1720915303309154034091550350918E
:1018000056030E947418A30192010E9473186B0181
:101810007C0120E030E044EB52E40E94211A1816CB
:101820003CF420E030E044E353E4C701B601EDCFDF
:1018300020E030E044EB52ECC701B6010E94B5163F
:1018400087FF0BC020E030E044E353E4C701B6015A
:101850000E9474186B017C01EBCFA7019601C301B4
:10186000B2010E94741829813A814B815C810E94E7
:101870001B176B017C01A301920169857A858B8519
:101880009C850E941B179B01AC01C701B6010E94F9
:1018900074186B017C0120E030E044EB52E40E94BC
:1018A000211A18164CF420E030E044E353E4C70159
:1018B000B6010E947318EDCF20E030E044EB52EC0B
:1018C000C701B6010E94B51687FF0BC020E030E0CB
:1018D00044E353E4C701B6010E9474186B017C0114
:1018E000EBCFC0925303D0925403E0925503F09291
:1018F0005603209143033091440340914503509196
:101900004603C501B4010E941B1720915703309173
:1019100058034091590350915A030E9474186093E0
:101920005703709358038093590390935A032C964E
:101930000FB6F894DEBF0FBECDBFDF91CF911F91E0
:101940000F91FF90EF90DF90CF90BF90AF909F905E
:101950008F907F906F905F904F900895CF93DF931B
:10196000EC0188819981009711F00E94341B198243
:1019700018821D821C821B821A82DF91CF910895EA
:10198000FC0180819181009711F00C94341B089523
:101990000F931F93CF93DF93EC0188819981009778
:1019A00059F02A813B812617370730F081E0DF911B
:1019B000CF911F910F9108958B016F5F7F4F0E9410
:1019C000BD1B009759F0998388831B830A832C8160
:1019D0003D81232B59F7FC011082E8CF80E0E7CF4F
:1019E000EF92FF920F931F93CF93DF93EC017B0154
:1019F0008A01BA010E94C80C81110BC0CE010E945D
:101A0000AE0CCE01DF91CF911F910F91FF90EF901F
:101A100008951D830C83B701888199810E94831CDE
:101A2000F0CF85ED8093BC0080912D0290912E0225
:101A3000A0912F02B09130020796A11DB11D23E0A5
:101A4000B695A795979587952A95D1F72091BC00D3
:101A500024FD03C010922B02089540912D02509155
:101A60002E0260912F0270913002452B462B472B9E
:101A700069F30097A105B10541F02AE22A95F1F733
:101A800000C00197A109B109E1CF80912C020C940B
:101A900095031F920F920FB60F9211242F933F932D
:101AA0008F939F93AF93BF938091DB019091DC0163
:101AB000A091DD01B091DE013091D60123E0230F2A
:101AC0002D3758F50196A11DB11D2093D6018093A5
:101AD000DB019093DC01A093DD01B093DE018091E6
:101AE000D7019091D801A091D901B091DA01019666
:101AF000A11DB11D8093D7019093D801A093D90166
:101B0000B093DA01BF91AF919F918F913F912F9147
:101B10000F900FBE0F901F90189526E8230F029686
:101B2000A11DB11DD2CF1F920F920FB60F9211249B
:101B30002F933F934F935F936F937F938F939F93D5
:101B4000AF93BF93EF93FF9385E592E00E948E02DF
:101B5000FF91EF91BF91AF919F918F917F916F9185
:101B60005F914F913F912F910F900FBE0F901F905B
:101B700018951F920F920FB60F9211242F938F93E7
:101B80009F93EF93FF93E0916502F091660280814D
:101B9000E0916B02F0916C0282FD1BC090818091FC
:101BA0006E028F5F8F7320916F02821741F0E09178
:101BB0006E02F0E0EB5AFD4F958F80936E02FF911D
:101BC000EF919F918F912F910F900FBE0F901F90CB
:101BD00018958081F4CF1F920F920FB60F921124A7
:101BE0002F933F934F935F936F937F938F939F9325
:101BF000AF93BF93EF93FF938091B900887F8036B6
:101C000009F44AC0F0F5883209F4A7C018F580310C
:101C100009F49BC0B8F4882309F4F9C0883009F4AA
:101C200094C0FF91EF91BF91AF919F918F917F9160
:101C30006F915F914F913F912F910F900FBE0F9039
:101C40001F901895883109F488C0803251F780932D
:101C5000290214C0803409F49DC040F48033B9F3E4
:101C60008833F9F68093290285ECB0C0803509F4F9
:101C700085C0883509F496C0883499F60E94110D04
:101C8000D0CF883909F48CC038F5883729F050F462
:101C9000883611F0803729F683E080932B0210926A
:101CA000D10157C0883809F47BC0803919F08038D9
:101CB00009F0B7CF8091D101803208F071C0E09176
:101CC000D10181E08E0F8093D1018091BB00F0E0C3
:101CD000EF54FE4F80833DC0803B39F0E0F4803A02
:101CE00009F479C0883A09F09CCF84E080932B02F4
:101CF0001092B0011092AF01E091E101F091E20188
:101D000009958091AF0181110FC081E08093AF01EF
:101D100010928F0109C0803C09F4A6CF883C09F4D9
:101D2000A3CF883B09F07DCFE091B00181E08E0F19
:101D30008093B001F0E0E157FE4F80818093BB00BB
:101D40009091B0018091AF0129C0809106028093EB
:101D5000BB0085EC8093BC0064CF909128028091F9
:101D60002702981758F5E091280281E08E0F8093A2
:101D70002802F0E0E95FFD4F8081E9CFE091280281
:101D800081E08E0F809328028091BB00F0E0E95F34
:101D9000FD4F808390912802809127029817C8F206
:101DA00085E8D8CFE091280281E08E0F8093280249
:101DB0008091BB00F0E0E95FFD4F808380912A02B3
:101DC00081115CCF81E08093050284EA8093BC009E
:101DD00010922B0226CF85EC8093BC0010922B0230
:101DE0008091D101803230F4E091D101F0E0EF54E4
:101DF000FE4F10826091D10170E0E091DF01F0911F
:101E0000E00181EB91E009951092D1010ACF109287
:101E1000290234CFE5E5F2E01382128248EE53E066
:101E200060E070E044835583668377838AE491E0C1
:101E30009183808385EC90E09587848784EC90E0A3
:101E40009787868780EC90E0918B808B81EC90E087
:101E5000938B828B82EC90E0958B848B86EC90E068
:101E6000978B868B118E128E138E148EABEFB2E091
:101E700013961C921E92129714964D935D936D9338
:101E80007C9317978CE591E011969C938E93E3E6F3
:101E9000F3E0138212828EE691E09183808387E2E1
:101EA000848380E1818782E082871386E7E0F3E024
:101EB000108288E68383B283A18348E451EE6AE707
:101EC0007FE340935F0350936003609361037093DB
:101ED00062031486158616861786108A118A128A5E
:101EE000138A148A158A168A178A108E118E128EFA
:101EF000138E148E158E168E178E10A211A212A29A
:101F000013A2E2EFF2E080E48083B283A183148223
:101F100013820895CF93DF93CDB7DEB7CB54D109A9
:101F20000FB6F894DEBF0FBECDBF789484B5826043
:101F300084BD84B5816084BD85B5826085BD85B56D
:101F4000816085BD80916E00816080936E001092EB
:101F50008100809181008260809381008091810066
:101F600081608093810080918000816080938000F7
:101F70008091B10084608093B1008091B000816055
:101F80008093B00080917A00846080937A00809181
:101F90007A00826080937A0080917A0081608093D9
:101FA0007A0080917A00806880937A001092C10054
:101FB0000E947E030E947E031092680380916D034D
:101FC000823018F098E09093680380936B0362E38B
:101FD00070E080E090E00E94DE0160916E0383E695
:101FE00093E00E94720668EE73E080E090E00E9449
:101FF000DE0160E383E693E00E94210A0BE416E42D
:10200000C8010197F1F760E383E693E00E94210A9B
:10201000C8010197F1F760E383E693E00E94210A8B
:1020200083E592E00197F1F760E283E693E00E9496
:10203000210A60916803606240E083E693E00E94B9
:102040003A0A84E08093690340E06CE083E693E021
:102050000E943A0A40E061E083E693E00E943A0A77
:102060000BE31FE1C8010197F1F782E080936A0357
:1020700040E066E083E693E00E943A0A40E062E0D6
:1020800083E693E00E943A0AC8010197F1F788E0DD
:1020900080936E0360E083E693E00E94720661E045
:1020A0008BE60E94A60460E089E10E94A60460E03D
:1020B0008AE10E94A60480E090E0A3E8B2E4809365
:1020C0000B0390930C03A0930D03B0930E0368E0F1
:1020D0008BE10E94A60480E090E0A0E8B6E4809343
:1020E0000F0390931003A0931103B093120360E0C9
:1020F0008CE10E94A6040E94570A809147039091A8
:102100004803A0914903B0914A0380934F039093F1
:102110005003A0935103B093520380914B039091CD
:102120004C03A0914D03B0914E03809353039093C1
:102130005403A0935503B09356032FB7F89480919E
:10214000DB019091DC01A091DD01B091DE012FBF98
:1021500080935B0390935C03A0935D03B0935E0355
:1021600068EE73E080E090E00E94DE0110921303BD
:102170001092140310921503109216031092170375
:10218000109218031092190310921A0310921B0355
:1021900010921C0310921D0310921E0310921F0335
:1021A0001092200310922103109222031092230315
:1021B00010922403109225031092260310922703F5
:1021C000109228031092290310922A0304EF11E0C1
:1021D00024961CAE1DAE1EAE1FAE249728961CAED4
:1021E0001DAE1EAE1FAE28972C961CAE1DAE1EAEA9
:1021F0001FAE2C97C12CD12C760146015701260128
:1022000037010E94BA0820912F033091300340918A
:10221000310350913203C301B2010E9474182B01A3
:102220003C012091330330913403409135035091A8
:102230003603C501B4010E9474184B015C0120E013
:1022400030E040E85FE3609137037091380380919C
:10225000390390913A030E9473189B01AC01C701A6
:10226000B6010E9474186B017C0120913B033091F0
:102270003C0340913D0350913E032C966CAD7DADE7
:102280008EAD9FAD2C970E9474182C966CAF7DAFCD
:102290008EAF9FAF2C9720913F0330914003409128
:1022A00041035091420328966CAD7DAD8EAD9FAD3C
:1022B00028970E94741828966CAF7DAF8EAF9FAFA1
:1022C0002897209143033091440340914503509156
:1022D000460324966CAD7DAD8EAD9FAD24970E94D4
:1022E000741824966CAF7DAF8EAF9FAF249761E0DA
:1022F00070E080E090E00E94DE010150110909F0D9
:1023000080CF20E030E04AEF53E4C301B2010E94E5
:10231000521960931F0370932003809321039093BD
:10232000220320E030E04AEF53E4C501B4010E94EB
:102330005219609323037093240380932503909391
:10234000260320E030E04AEF53E4C701B6010E94C3
:102350005219609327037093280380932903909365
:102360002A0320E030E04AEF53E42C966CAD7DADBB
:102370008EAD9FAD2C970E945219609313037093FA
:102380001403809315039093160320E030E04AEF86
:1023900053E428966CAD7DAD8EAD9FAD28970E941D
:1023A0005219609317037093180380931903909345
:1023B0001A0320E030E04AEF53E424966CAD7DAD83
:1023C0008EAD9FAD24970E94521960931B037093AA
:1023D0001C0380931D0390931E038091F50290913E
:1023E000F602009711F00E94341B86E090E00E94F4
:1023F000981A8C018091F3029091F4022091F202DC
:10240000F801208392838183138280E290E0958398
:1024100084831093F6020093F5020E947E0381E00C
:10242000F8018383C8010E94EF048823E1F060E88B
:1024300080E00E94DA066AE070E080E090E00E94AE
:10244000DE0180E498E7ADE7B1E08093F702909376
:10245000F802A093F902B093FA0260E070E08AE714
:1024600094E40E945E0780EC9CEFABE9B1E08093BE
:10247000F7029093F802A093F902B093FA0260E099
:1024800070E088E492E40E945E07E0916502F091BA
:10249000660282E08083E0916102F0916202108224
:1024A000E0916302F09164028FEC808310926D02E0
:1024B000E0916902F0916A0286E08083E091670210
:1024C000F0916802808180618083E0916702F091E1
:1024D0006802808188608083E0916702F0916802E1
:1024E000808180688083E0916702F091680280813A
:1024F0008F7D80838DE192E00E94FD0286E791E06E
:102500000E94890628E0C22ED12CE12CF12C00E09B
:10251000BB24B3941C2DB0923102C092530210928E
:1025200032021092540281E00E94B603811134C03D
:1025300088E192E00E94FD02103128F460E385E515
:1025400092E00E94B00240E1C701B6010E949606E7
:10255000173211F01F3321F489E092E00E94FD024E
:1025600084EC810F823020F489EF91E00E94FD021B
:1025700080EC810F883020F483EE91E00E94FD0210
:102580001856123020F48BEC91E00E94FD0286E791
:1025900091E00E9489060F5FFFEFCF1ADF0AEF0A72
:1025A000FF0A88E7C816D104E104F10409F0B2CFAC
:1025B000011108C080E991E00E94FD0286E791E0E8
:1025C0000E9489068AE5482E512C612C712C90E0DE
:1025D000292E90E0392E0E94570AC0904F03D090C8
:1025E0005003E0905103F0905203C092D201D09278
:1025F000D301E092D401F092D50140E060E883E697
:1026000093E00E943A0A1DAA1CAA1FAA1EAA19AE8C
:1026100018AE8E010F5F1F4F22E044E0C701B601E4
:102620000E946014009709F4AFC0FC0101900020E3
:10263000E9F73197AF01481B590BBC01CE01C49695
:102640000E94F00C1BAE1AAE1DAE1CAE1FAE1EAE2D
:1026500048E050E069E771E0CE01CA960E94F00CB4
:102660001A8219821C821B821E821D826AAD7BAD7A
:102670006115710531F04EAD5FADCE0101960E943E
:10268000F00CECA8FDA8E114F10409F482C008AD37
:1026900019AD01151105B9F08D819E81080F191F23
:1026A000B801CE0101960E94C80C882309F471C0BC
:1026B00029813A818D819E81B701820F931F0E94EB
:1026C000831C1E830D834D815E8169817A8183E63F
:1026D00093E00E941002CE0101960E94C00CCE0130
:1026E000CA960E94C00CCE01C4960E94C00C609194
:1026F000D2017091D3018091D4019091D5010E94B3
:10270000C4199B01AC01235D3F4F4F4F5F4FA4EBBA
:10271000B0E00E94F817A30192010E94D917B901F5
:1027200080E00E9409086AE570E083E00E940908E1
:102730000E94570AC0903703D0903803E0903903C5
:10274000F0903A03A7019601C701B6010E94781ADA
:10275000882321F182E891E00E94890686E791E0D2
:102760000E94890662E370E080E090E00E94DE0152
:102770002114310409F42FCF0E947A02882309F42E
:102780002ACF0E94000027CFCE01C4960E94AE0C33
:1027900059CFCE0101960E94AE0C95CF460157014C
:1027A000E894B7F82FEF3FEF4FE75FE7C501B401BB
:1027B0000E94781A81110DC02FEF3FEF4FE75FE7BE
:1027C000C501B4010E94B51618161CF486E891E004
:1027D000C3CF2FEF3FEF4FE75FE4C701B6010E9481
:1027E000211A18161CF48AE891E0B6CF2FEF3FEFBC
:1027F0004FE75FECC701B6010E94B51687FDF3CF26
:1028000020E030E0A901C701B6010E94B51687FF9C
:1028100009C06DE285E592E00E94B002F7FAF094FB
:10282000F7F8F0942AE037ED43EA5BE3C701B6011D
:102830000E9474184B015C010E94CB196B017C0152
:102840000E94BA169B01AC01C501B4010E94731825
:102850004B015C014AE0C701B6010E9496066EE298
:1028600085E592E00E94B00220E030E040E251E4D1
:10287000C501B4010E941B174B015C010E94CB19DA
:102880006B01F12CE12C4AE0C701B6010E949606CB
:10289000C701B6010E94BA169B01AC01C501B40183
:1028A0000E94731820E030E040E251E40E941B17C0
:1028B0000E94CB1990E080E04AE00E9496064ECF3D
:1028C000EF920F931F93CF93DF93E80134E047FD1E
:1028D00034E1042E000C550B57FF03C05195419570
:1028E0005109E32E022F242FAE010E947E14CE0147
:1028F000DF91CF911F910F91EF900895A9E0B0E083
:10290000E4E8F4E10C9411186A01F22EB02E102FB5
:10291000FBE3AF2EA01608F41BE31F5F012F27E097
:10292000AE014F5F5F4F0E94DD15BC018981982F7A
:102930009970913009F43FC09BE2E1FC04C09E2DE8
:102940009170E0FC3AC05E2D5071E82FE87083FF73
:1029500046C084E0911101C083E0EF2DE81B8F1584
:1029600008F0E0E0D6018E2F20E2552351F19923A3
:1029700029F0D6019C93C60101966C0196012D5F4A
:102980003F4FE2FE24C08EE4D6018C9391E4119671
:102990009C93119712968C93D9018E2F90E28111FE
:1029A0001BC0E20FF32FF11D10828EEF9FEF2996CF
:1029B000ECE00C942D189DE2C6CF90E2C4CF2D938D
:1029C00081508111FCCFCE0ED11CE0E0D0CF8EE63D
:1029D000D6018C9391E6DBCF9D938150E0CF482FB9
:1029E000447082FF3DC084E0911101C083E08F15E7
:1029F00010F4EF2DE81BD6018E2F20E2552309F1AC
:102A0000992329F0D6019C93C60101966C01960189
:102A10002D5F3F4FE2FE1BC089E4D6018C938EE40C
:102A200011968C93119786E412968C93D9018E2F70
:102A300090E2882309F4B5CF9D938150FACF2D936E
:102A400081508111FCCFCE0ED11CE0E0D9CF89E6B8
:102A5000D6018C938EE611968C93119786E6E4CF7F
:102A60009B0177FF02C030E020E0A1E0B0E09111CF
:102A700002C0B0E0A0E0F9013196AE0FBF1F8B2C71
:102A8000912CBB2009F461C05401EFEFAE1ABE0ACD
:102A9000AA0DBB1DFA161B0619F014F04F2D4A1B88
:102AA000511188C0E3FC59C07601A42FB0E2A111F6
:102AB0004FC0C40ED11C992309F45BC040E0D6017D
:102AC0001196F60190836D01552309F448C0012F3A
:102AD000060F9A81582F507184FF03C0913309F477
:102AE000015010160CF047C0093008F008E0EEE283
:102AF000FE2E5B01A01AB108850191948194910882
:102B00002F3F320729F4D601FC92F60131966F016E
:102B10006217730794F1021713077CF5DB01A21B00
:102B2000B30BAA24A394B12CAC0EBD1EAA0DBB1DE1
:102B300011968C9121503109D6011196281539052D
:102B4000F4F0F60180836D01DBCFB12CA12CA0CF76
:102B5000F701B1937F01A150AACF9111B0CFD60157
:102B6000942F50E302C05D9391509111FCCFC40E9D
:102B7000D11C40E0ACCF01E0BACF80E3DBCF6217DD
:102B8000730731F4963388F4953311F4552369F0C3
:102B9000F6018083FD01842F90E2811108C0A40F0B
:102BA000B11D1C9290E080E002CF81E3F1CF9193C0
:102BB0008150F3CF911183CF8ACF283008F027E0DE
:102BC0003327DA01990F311D87FD91600096610569
:102BD000710539F432602E5F3D9330E32A95E1F7B9
:102BE00008959F3F30F080387105610509F03C5F22
:102BF0003C5F3D93913008F08068911DDF93CF9347
:102C00001F930F93FF92EF92192F987F9695E92FBC
:102C100096959695E90FFF27E051FF4F99273327A7
:102C2000EE24FF24A701E70105900894079428F4F7
:102C3000360FE71EF81E491F511D660F771F881FAC
:102C4000991F0694A1F70590079428F4E70EF81E43
:102C5000491F561FC11D770F881F991F661F0694B5
:102C6000A1F70590079428F4F80E491F561FC71FB7
:102C7000D11D880F991F661F771F0694A1F7059035
:102C8000079420F4490F561FC71FD81F990F661FBE
:102C9000771F881F0694A9F784911095177041F04B
:102CA000D695C79557954795F794E7941A95C1F728
:102CB000E6E9F0E06894159015913591659195914C
:102CC00005907FE27395E118F10A430B560BC90B8F
:102CD000D009C0F7E10CF11E431F561FC91FD01DBC
:102CE0007EF4703311F48A95E6CFE894015030F009
:102CF000080F0AF40027021708F4202F2395022F4B
:102D00007A3328F079E37D932A95E9F710C07D9313
:102D10002A9589F606949795679537951795179490
:102D2000E118F10A430B560BC90BD00998F0239513
:102D30007E9173957A3308F070E37C932013B8F793
:102D40007E9170617D9330F0839571E37D9370E3A4
:102D50002A95E1F71124EF90FF900F911F91CF91E9
:102D6000DF91992787FD909508950E94F71608F442
:102D700081E00895E89409C097FB3EF49095809512
:102D8000709561957F4F8F4F9F4F9923A9F0F92F31
:102D900096E9BB279395F695879577956795B795AF
:102DA000F111F8CFFAF4BB0F11F460FF1BC06F5F95
:102DB0007F4F8F4F9F4F16C0882311F096E911C0A7
:102DC000772321F09EE8872F762F05C0662371F0C8
:102DD00096E8862F70E060E02AF09A95660F771FDC
:102DE000881FDAF7880F9695879597F90895990FB8
:102DF0000008550FAA0BE0E8FEEF16161706E807C5
:102E0000F907C0F012161306E407F50798F0621BE5
:102E1000730B840B950B39F40A2661F0232B242BBA
:102E2000252B21F408950A2609F4A140A6958FEFD9
:102E3000811D811D08950E942E170C949F170E94DA
:102E4000911738F00E94981720F0952311F00C94F8
:102E500088170C948E1711240C94D3170E94B01766
:102E600070F3959FC1F3950F50E0551F629FF001DD
:102E7000729FBB27F00DB11D639FAA27F00DB11DF6
:102E8000AA1F649F6627B00DA11D661F829F22277F
:102E9000B00DA11D621F739FB00DA11D621F839F06
:102EA000A00D611D221F749F3327A00D611D231FDC
:102EB000849F600D211D822F762F6A2F11249F572A
:102EC00050409AF0F1F088234AF0EE0FFF1FBB1F2D
:102ED000661F771F881F91505040A9F79E3F5105EC
:102EE00080F00C9488170C94D3175F3FE4F3983E5E
:102EF000D4F3869577956795B795F795E7959F5F96
:102F0000C1F7FE2B880F911D9695879597F9089527
:102F100097F99F6780E870E060E008959FEF80EC8C
:102F2000089500240A94161617061806090608952F
:102F300000240A9412161306140605060895092E95
:102F40000394000C11F4882352F0BB0F40F4BF2B04
:102F500011F460FF04C06F5F7F4F8F4F9F4F089544
:102F600057FD9058440F551F59F05F3F71F047953A
:102F7000880F97FB991F61F09F3F79F0879508951F
:102F8000121613061406551FF2CF4695F1DF08C03E
:102F9000161617061806991FF1CF8695710561055B
:102FA00008940895E894BB2766277727CB0197F903
:102FB0000895052E97FB1EF400940E94F01757FD0C
:102FC00007D00E94421807FC03D04EF40C94F0176F
:102FD00050954095309521953F4F4F4F5F4F089545
:102FE00090958095709561957F4F8F4F9F4F089575
:102FF0000E946418A59F900DB49F900DA49F800D12
:10300000911D11240895B7FF0C94F8170E94F8172A
:10301000821B930B08952F923F924F925F926F9273
:103020007F928F929F92AF92BF92CF92DF92EF9258
:10303000FF920F931F93CF93DF93CDB7DEB7CA1BD9
:10304000DB0B0FB6F894DEBF0FBECDBF09942A8804
:10305000398848885F846E847D848C849B84AA84AC
:10306000B984C884DF80EE80FD800C811B81AA8139
:10307000B981CE0FD11D0FB6F894DEBF0FBECDBF04
:10308000ED010895A1E21A2EAA1BBB1BFD010DC084
:10309000AA1FBB1FEE1FFF1FA217B307E407F50708
:1030A00020F0A21BB30BE40BF50B661F771F881FE4
:1030B000991F1A9469F760957095809590959B017A
:1030C000AC01BD01CF010895A29FB001B39FC00123
:1030D000A39F700D811D1124911DB29F700D811D44
:1030E0001124911D08955058BB27AA270E948B18C0
:1030F0000C949F170E94911738F00E94981720F0A7
:1031000039F49F3F19F426F40C948E170EF4E095D1
:10311000E7FB0C948817E92F0E94B01758F3BA17F1
:10312000620773078407950720F079F4A6F50C94DD
:10313000D2170EF4E0950B2EBA2FA02D0B01B9017A
:1031400090010C01CA01A0011124FF27591B99F01D
:10315000593F50F4503E68F11A16F040A22F232F29
:10316000342F4427585FF3CF469537952795A79579
:10317000F0405395C9F77EF41F16BA0B620B730B20
:10318000840BBAF09150A1F0FF0FBB1F661F771F91
:10319000881FC2F70EC0BA0F621F731F841F48F446
:1031A000879577956795B795F7959E3F08F0B0CFCF
:1031B0009395880F08F09927EE0F979587950895B6
:1031C0000E94911760F080E891E009F49EEF0E9460
:1031D000981728F040E851E071F45EEF0CC00C94B1
:1031E0008E170C94D217E92FE0780E94B01740F3A5
:1031F000092E052AB1F3261737074807590738F073
:103200000E2E07F8E02569F0E025E0640AC0EF63C0
:1032100007F8009407FADB01B9019D01DC01CA013E
:10322000AD01EF930E9469190E949F170E94231914
:103230005F91552339F02BED3FE049E450FD49EC17
:103240000C9474180895DF93DD27B92FBF7740E8F9
:103250005FE31616170648075B0718F4D92F0E947C
:10326000261A9F938F937F936F930E94741AE8E6B8
:10327000F0E00E94FA190E949F172F913F914F9101
:103280005F910E942E17DD2351F09058A2EA2AED9B
:103290003FE049EC5FE3D0785D270E948B18DF9117
:1032A0000C949F170E9466190C949F170E94981700
:1032B00058F00E94911740F029F45F3F29F00C94D8
:1032C000881751110C94D3170C948E170E94B017C5
:1032D00068F39923B1F3552391F3951B550BBB2745
:1032E000AA2762177307840738F09F5F5F4F220F8A
:1032F000331F441FAA1FA9F335D00E2E3AF0E0E881
:1033000032D091505040E695001CCAF72BD0FE2FCA
:1033100029D0660F771F881FBB1F2617370748075E
:10332000AB07B0E809F0BB0B802DBF01FF27935816
:103330005F4F3AF09E3F510578F00C9488170C943B
:10334000D3175F3FE4F3983ED4F38695779567955E
:10335000B795F7959F5FC9F7880F911D969587954B
:1033600097F90895E1E0660F771F881FBB1F62176A
:1033700073078407BA0720F0621B730B840BBA0B28
:10338000EE1F88F7E09508950E94CB196894B1115B
:103390000C94D31708950E94B81788F09F5798F09F
:1033A000B92F9927B751B0F0E1F0660F771F881F4A
:1033B000991F1AF0BA95C9F714C0B13091F00E9464
:1033C000D217B1E008950C94D217672F782F882771
:1033D000B85F39F0B93FCCF3869577956795B3958B
:1033E000D9F73EF490958095709561957F4F8F4FFA
:1033F0009F4F0895DF93CF931F930F93FF92EF9208
:10340000DF927B018C01689406C0DA2EEF010E94E6
:103410002E17FE01E894A59125913591459155917E
:10342000A6F3EF010E948B18FE019701A801DA9420
:1034300069F7DF90EF90FF900F911F91CF91DF918F
:1034400008950E94F71608F48FEF08959B01AC01D0
:1034500060E070E080E89FE30C94521919F416F4D0
:103460000C948E170C947D1A0E94B817B8F3992308
:10347000C9F3B6F39F57550B87FF0E948B1A0024A0
:10348000A0E640EA900180585695979528F4805C14
:10349000660F771F881F20F026173707480730F47C
:1034A000621B730B840B202931294A2BA695179494
:1034B0000794202531254A2758F7660F771F881F64
:1034C00020F026173707480730F4620B730B840B84
:1034D000200D311D411DA09581F7B901842F915810
:1034E000880F9695879508959B01AC010C941B1746
:1034F0000E94F716880B990B08959F3F31F0915069
:1035000020F4879577956795B795880F911D9695C7
:10351000879597F9089591505040660F771F881F3F
:10352000D2F70895EE0FFF1F0590F491E02D099456
:103530000F931F93CF93DF938230910510F482E0B5
:1035400090E0E0917103F091720330E020E0B0E090
:10355000A0E0309799F42115310509F44AC0281BE1
:10356000390B24303105D8F58A819B8161157105AD
:1035700089F1FB0193838283FE0111C04081518157
:103580000281138148175907E0F04817590799F449
:10359000109761F012960C93129713961C93329623
:1035A000CF01DF91CF911F910F9108950093710387
:1035B00010937203F4CF2115310551F042175307D0
:1035C00038F0A901DB019A01BD01DF01F801C1CF8B
:1035D000EF01F9CF9093720380937103CDCFFE0179
:1035E000E20FF31F8193919322503109398328838D
:1035F000D7CF20916F0330917003232B41F420919A
:103600000201309103013093700320936F032091E6
:103610000001309101012115310541F42DB73EB76C
:103620004091040150910501241B350BE0916F037B
:10363000F0917003E217F307A0F42E1B3F0B28173D
:10364000390778F0AC014E5F5F4F2417350748F01B
:103650004E0F5F1F5093700340936F0381939193BC
:103660009FCFF0E0E0E09CCFCF93DF930097E9F0AD
:10367000FC01329713821282A0917103B091720300
:10368000ED0130E020E01097A1F420813181820F1C
:10369000931F20916F03309170032817390709F0A9
:1036A00061C0F0937003E0936F03DF91CF910895B1
:1036B000EA01CE17DF07E8F54A815B819E014115DB
:1036C0005105B1F7E901FB83EA8349915991C40F90
:1036D000D51FEC17FD0761F4808191810296840F5C
:1036E000951FE90199838883828193819B838A83D3
:1036F000F0E0E0E012968D919C9113970097B9F558
:103700002D913C911197CD010296820F931F20912C
:103710006F03309170032817390739F6309751F548
:103720001092720310927103B0937003A0936F0311
:10373000BCCFD383C28340815181840F951FC817AA
:10374000D90761F44E5F5F4F88819981480F591FF7
:10375000518340838A819B81938382832115310524
:1037600009F0B0CFF0937203E09371039ECFFD0197
:10377000DC01C0CF13821282D7CFB0E0A0E0E3EC2F
:10378000FBE10C940D188C01009751F4CB010E94C1
:10379000981A8C01C801CDB7DEB7E0E10C94291866
:1037A000FC01E60FF71F9C0122503109E217F307D5
:1037B00008F49DC0D901CD91DC911197C617D707A8
:1037C00098F0C530D10530F3CE01049786179707DE
:1037D00008F3C61BD70B2297C193D1936D937C93AB
:1037E000CF010E94341BD6CF5B01AC1ABD0A4C013D
:1037F0008C0E9D1EA0917103B0917203512C412C2F
:10380000F12CE12C109731F580916F0390917003AA
:103810008815990509F05CC04616570608F058C08F
:103820008091000190910101009741F48DB79EB7FE
:103830004091040150910501841B950BE817F9078D
:1038400008F055C0F0937003E0936F03F9017183A2
:103850006083A0CF8D919C91119712966C901297D6
:1038600013967C901397A815B90559F56C0142E0A1
:10387000C40ED11CCA14DB0420F1AC014A195B0947
:10388000DA011296159780F0628273825183408329
:10389000D9016D937C93E114F10471F0D701139673
:1038A000FC93EE93129776CF22968C0F9D1FF90111
:1038B00091838083F301EFCFF0937203E093710360
:1038C00069CF4816590608F42C017D01D3019ACF1F
:1038D000CB010E94981A7C01009749F0AE01B80113
:1038E0000E947A1CC8010E94341B870153CF10E04C
:1038F00000E050CFFB01DC0102C001900D9241506D
:103900005040D8F70895FB01DC0101900D92002092
:08391000E1F70895F894FFCFE0
:1039180000007303800026029209F401C409F4012F
:10392800C40960095802F401C409F401C409F40186
:10393800C409F401C409F401C409F401C409F40177
:10394800C409F401C409F401C409F401C409F40167
:10395800C409F401C40900000000B00210023D02CD
:1039680018036E024C0260020000000043061606AF
:103978008606EC050F06FC05ED0500000000510A5F
:103988001002860638030D0A00416E67756C6F3A9F
:0E39980020006E616E00696E66006F7666003C
:00000001FF
