:100000000C9462020C948A020C948A020C94BF1124
:100010000C94BF110C94BF110C948A020C94E5103F
:100020000C948A020C948A020C948A020C94C911D2
:100030000C948A020C948A020C948A020C948A0210
:100040000C949B100C948A020C948D110C946711E3
:100050000C948A020C948A020C948A020C948A02F0
:100060000C948A020C948A0205A84CCDB2D44EB9E5
:100070003836A9020C50B9918688083CA6AAAA2A4B
:10008000BE000000803F00407A10F35A00A0724E7C
:1000900018090010A5D4E80000E87648170000E42D
:1000A0000B54020000CA9A3B000000E1F505000075
:1000B00080969800000040420F000000A0860100DA
:1000C0000000102700000000E803000000006400AA
:1000D000000000000A000000000001000000000015
:1000E0002C76D888DC674F0823DFC1DFAE59E1B139
:1000F000B796E5E3E453C63AE651997696E8E6C248
:100100008426EB898C9B62ED407C6FFCEFBC9C9F4E
:1001100040F2BAA56FA5F490055A2AF75C936B6C70
:10012000F9676DC11BFCE0E40D47FEF520E6B50064
:10013000D0ED902E0300943577050080841E0800D2
:1001400000204E0A000000C80C333333330F986E82
:1001500012831141EF8D2114893BE65516CFFEE63F
:10016000DB18D1844B381BF77C1D901DA4BBE42405
:10017000203284725E228100C9F124ECA1E53D2782
:100180003E5149453E00427F40004261514946216F
:1001900041454B311814127F1027454545393C4ADB
:1001A000494930017109050336494949360649492B
:1001B000291E00000000007E0909097E7F49494987
:1001C000363E414141227F4141221C7F49494941FC
:1001D0007F090909013E4149497A7F0808087F00E3
:1001E000417F41002040413F017F081422417F4070
:1001F0004040407F020C027F7F0408107F3E414157
:10020000413E7F090909063E4151215E7F091929B6
:1002100046464949493101017F01013F4040403F85
:100220001F2040201F3F4038403F631408146303E1
:1002300004780403615149454300005F0000020156
:1002400051090600606000000050300000003636A2
:100250000000080808080808083E080814141414C8
:100260001408142241000041221408001C224100FD
:100270000041221C0014083E081420100804022328
:10028000130864623031323334353637383920411F
:1002900042434445464748494A4B4C4D4E4F5051C6
:1002A00052535455565758595A213F2E2C3A2D2BFC
:1002B0003D3C3E28292A2F250000000008000201AD
:1002C00000000304070000000000000000028C246E
:1002D000490C0E4130041E42480C8C44480C82E00C
:1002E00049129CC0411E8CC421041042081E8CC4BB
:1002F000480C8EE0480C002385000023FD0000E040
:10030000FD008C14B6128C144A0C00C300008091BE
:10031000243F80D4B63F0020B53F00F00300805852
:1003200021000281402040283100C02F3100C0EC64
:10033000310000420901A1C448210441480C10C207
:10034000210480D4860040187A00000000002500B7
:1003500028002B0000000000240027002A000404CD
:10036000040404040404020202020202030303035D
:100370000303010204081020408001020408102039
:1003800001020408102030007C82827C003100428F
:10039000FE0200003200468A9262003300449292CC
:1003A0006C0034001C64FE04003500F292928C0054
:1003B00036007C92924C003700C08E90E0003800EE
:1003C0006C92926C0039006492927C003A000014A6
:1003D0000000003B0002240000003C001028448282
:1003E000003D0028282828003E0082442810003FB5
:1003F00000204A3000004000000000000041007E64
:1004000088887E004200FE92926C0043007C8282CB
:1004100044004400FE82827C004500FE92928200ED
:100420004600FE9090800047007C82925C0048006D
:10043000FE1010FE00490082FE8200004A000C02FD
:1004400002FC004B00FE1028C6004C00FE02020217
:10045000004D00FE403040FE4E00FE403008FE4F92
:10046000007C8282827C5000FE9090600051007C73
:10047000828A847A5200FE989462005300649292B9
:100480004C00540080FE8080005500FC0202FC00FD
:100490005600F00C020CF05700FE043804FE580021
:1004A000C63838C60059C0201E20C0005A00869A9F
:1004B000B2C2002100007A0000002000000000000D
:1004C0000000851211241FBECFEFD8E0DEBFCDBFE4
:1004D00011E0A0E0B1E0ECEAFCE302C005900D926F
:1004E000A835B107D9F723E0A8E5B1E001C01D9216
:1004F000AE3DB207E1F712E0C2E6D2E004C02197B8
:10050000FE010E94541CC136D107C9F70E945D1339
:100510000C94541E0C94000090E0FC01EE58FC4F2B
:100520002491825A9C4FFC018491882399F090E099
:10053000880F991FFC01EC5AFC4FA591B491FC0166
:10054000E65BFC4F859194918FB7F894EC91E22B88
:10055000EC938FBF089590E0FC01E754FD4F249188
:10056000FC01EE58FC4F3491FC01E25AFC4FE4913F
:10057000EE23C9F0222339F0233001F1A8F4213011
:1005800019F1223029F1F0E0EE0FFF1FE65BFC4F7E
:10059000A591B4918FB7F894EC91611126C0309574
:1005A0003E233C938FBF08952730A9F02830C9F02F
:1005B000243049F7809180008F7D03C080918000B6
:1005C0008F7780938000DFCF84B58F7784BDDBCFBA
:1005D00084B58F7DFBCF8091B0008F778093B00082
:1005E000D2CF8091B0008F7DF9CF3E2BDACF3FB7CD
:1005F000F8948091610190916201A0916301B091A2
:10060000640126B5A89B05C02F3F19F00196A11DD6
:10061000B11D3FBFBA2FA92F982F8827BC01CD014C
:10062000620F711D811D911D42E0660F771F881FAB
:10063000991F4A95D1F708958F929F92AF92BF92DA
:10064000CF92DF92EF92FF926B017C010E94F70242
:100650004B015C01C114D104E104F104B9F00E9422
:10066000F702681979098A099B09683E7340810578
:10067000910580F321E0C21AD108E108F10888EE63
:10068000880E83E0981EA11CB11CE4CFFF90EF9070
:10069000DF90CF90BF90AF909F908F9008954F9232
:1006A0005F926F927F928F929F92AF92BF92CF9202
:1006B000DF92EF92FF920F931F93CF93DF93CDB70B
:1006C000DEB729970FB6F894DEBF0FBECDBF2D83DE
:1006D0003E834F8358870115110511F401E010E0A6
:1006E0000E945C1B69837A838B839C838091670360
:1006F0009091680320912001281729F12F3F09F4D8
:100700009CC06D817E818F8198850E941C03B801F9
:10071000110F880B990B29960FB6F894DEBF0FBE08
:10072000CDBFDF91CF911F910F91FF90EF90DF90A0
:10073000CF90BF90AF909F908F907F906F905F9081
:100740004F900C941C03EDECF2E02491298727FDD7
:10075000D8CF0E948C028985882321F09985923018
:1007600009F092C189819A814C01B12CA12C60E0E1
:1007700072E18AE790E0A50194010E94DC19290149
:100780003A017A01690191E0C91AD108E108F1083A
:100790002FEFC216D104E104F10409F00CF442C1B8
:1007A00060E472E48FE090E0A50194010E94DC19FE
:1007B00069017A0181E0C81AD108E108F108998538
:1007C000923009F0B4C082E02FEFC216D104E104E8
:1007D000F10409F00CF4F8C060E970ED83E090E0FA
:1007E000A50194010E94DC1969017A0181E0C81A0F
:1007F000D108E108F10883E09FEFC916D104E104B4
:10080000F10409F00CF4E0C068E478EE81E090E0D7
:10081000A50194010E94DC1969017A0181E0C81ADE
:10082000D108E108F1089FEFC916D104E104F104F1
:1008300011F00CF0D0C084E0C7C080932001EDEC33
:10084000F2E0249129872F3F09F45BCF213039F161
:1008500048F0223009F445C0298527FD52CF0E9477
:100860008C027CCF14BC15BC24B5226024BD25B5F8
:10087000216025BD9C013327F901E25AFC4FE49128
:10088000F0E0EE0FFF1FE65BFC4F45915491F9013C
:10089000EE58FC4FE491E093690119865ACF10920B
:1008A00080001092810020918100286020938100B7
:1008B000209181002160209381009C013327F90160
:1008C000E25AFC4FE491F0E0EE0FFF1FE65BFC4FB5
:1008D00045915491F901EE58FC4FE491E093680181
:1008E00038CF1092B0001092B1002091B000226079
:1008F0002093B0002091B10021602093B1009C01B1
:100900003327F901E25AFC4FE491F0E0EE0FFF1FAC
:10091000E65BFC4F4591549150936701409366010B
:10092000F901EE58FC4FE491E093650112CF2FEFEF
:10093000C216D104E104F10409F00CF4A3C068E488
:1009400078EE81E090E0A50194010E94DC19690134
:100950007A0181E0C81AD108E108F1089985992344
:1009600009F403C12FEFC216D104E104F10409F028
:100970000CF461CF62E17AE780E090E0A501940198
:100980000E94DC1969017A0181E0C81AD108E108E6
:10099000F1089985992309F4DFC086E09FEFC91615
:1009A000D104E104F10481F078F0730162012AE0DE
:1009B000F594E794D794C7942A95D1F781E0C81AA3
:1009C000D108E108F10887E09091B100987F892B68
:1009D0008093B1002FC064E274EF80E090E0A50145
:1009E00094010E94DC1969017A0181E0C81AD108DA
:1009F000E108F10885E09FEFC916D104E104F10494
:100A000019F310F362E17AE780E090E0A501940128
:100A10000E94DC1969017A0191E0C91AD108E10844
:100A2000F108BBCF81E029852111CECF95B5987F04
:100A3000892B85BDA981BA81AA0FBB1F2D813E815B
:100A40004F8158850E94FB1928EE33E040E050E0CA
:100A50000E94451A9985913009F44CC0923009F4EE
:100A60005BC091114ECEC7BC2093720130937301CD
:100A7000409374015093750180916E008260809361
:100A80006E003FCE82E0CFCF89819A814C01B12C9C
:100A9000A12C60E072E18AE790E0A50194010E9438
:100AA000DC1969017A0191E0C91AD108E108F1085D
:100AB00091E0C114D10421E0E206F10484F068E47D
:100AC00078EE81E090E0A50194010E94DC196901B3
:100AD0007A0181E0C81AD108E108F10893E029857C
:100AE000213009F0A7CF80918100887F892B8093E6
:100AF0008100A0CFD0928900C092880020936E011F
:100B000030936F01409370015093710180916F0099
:100B1000826080936F00F5CDC092B30020936A018C
:100B200030936B0140936C0150936D018091700084
:100B3000826080937000E5CD730162019AE0F594C4
:100B4000E794D794C7949A95D1F721E0C21AD108B7
:100B5000E108F10885E06ACF8FEFC816D104E104FF
:100B6000F10409F048F784E061CF8FEFC816D10493
:100B7000E104F10411F00CF0FDCE83E057CF4F9269
:100B80005F926F927F928F929F92AF92BF92CF921D
:100B9000DF92EF92FF920F931F93CF93DF93CDB726
:100BA000DEB728970FB6F894DEBF0FBECDBF2B017E
:100BB0003C0129833A834B835C83ED82FE820F8361
:100BC00018870E94551B8B0129813A814B815C81DA
:100BD000C301B2010E94B01887FF25C0B801110FF0
:100BE000880B990B0E94B7182B013C01AC019B01AB
:100BF00069817A818B819C810E948B1B1816C4F5B8
:100C00008401A6019501C301B2010E944F032D8109
:100C10003E814F815885C301B2010E9416190E947E
:100C2000551B8B01DBCFB801110F880B990B0E946C
:100C3000B7182B013C01AC019B0169817A818B8142
:100C40009C810E94B01887FF13C08401A601950102
:100C5000C301B2010E944F032D813E814F8158850F
:100C6000C301B2010E94E31A0E94551B8B01DBCF26
:100C700028960FB6F894DEBF0FBECDBFDF91CF919F
:100C80001F910F91FF90EF90DF90CF90BF90AF90AA
:100C90009F908F907F906F905F904F9008952FB7A7
:100CA000F89460915D0170915E0180915F01909177
:100CB00060012FBF0895AF92BF92CF92DF92EF9263
:100CC000FF920F931F93CF93DF936C017B018B01F6
:100CD000040F151FEB015E01AE18BF08C017D10746
:100CE00059F06991D601ED91FC910190F081E02DD0
:100CF000C6010995892B79F7C501DF91CF911F9125
:100D00000F91FF90EF90DF90CF90BF90AF9008953C
:100D1000FC01538D448D252F30E0842F90E0821B01
:100D2000930B541710F0CF96089501970895FC0186
:100D3000918D828D981761F0A28DAE0FBF2FB11DDE
:100D40005D968C91928D9F5F9F73928F90E0089536
:100D50008FEF9FEF0895FC01918D828D981731F0F0
:100D6000828DE80FF11D858D90E008958FEF9FEF44
:100D70000895FC01918D228D892F90E0805C9F4F1A
:100D8000821B91098F73992708958AE791E00E9449
:100D9000B90621E0892B09F420E0822F089580E034
:100DA00090E0892B29F00E94C50681110C94000067
:100DB0000895FC01A48DA80FB92FB11DA35ABF4FF0
:100DC0002C91848D90E001968F739927848FA6894A
:100DD000B7892C93A089B1898C91837080648C939E
:100DE000938D848D981306C00288F389E02D80814D
:100DF0008F7D80830895EF92FF920F931F93CF937F
:100E0000DF93EC0181E0888F9B8D8C8D98131AC045
:100E1000E889F989808185FF15C09FB7F894EE892C
:100E2000FF896083E889F989808183708064808389
:100E30009FBF81E090E0DF91CF911F910F91FF90D4
:100E4000EF900895F62E0B8D10E00F5F1F4F0F737C
:100E50001127E02E8C8D8E110CC00FB607FCFACF37
:100E6000E889F989808185FFF5CFCE010E94D906F6
:100E7000F1CFEB8DEC0FFD2FF11DE35AFF4FF08208
:100E80009FB7F8940B8FEA89FB8980818062CFCF6E
:100E9000CF93DF93EC01888D8823B9F0AA89BB89B1
:100EA000E889F9898C9185FD03C0808186FD0DC09C
:100EB0000FB607FCF7CF8C9185FFF2CF808185FFBD
:100EC000EDCFCE010E94D906E9CFDF91CF910895F1
:100ED000CF92DF92EF92FF92CF93DF93EC016032DB
:100EE00082E07807CCF5653B710514F064EB70E0A7
:100EF000898128E830E0281B310987FD3395220FCE
:100F0000331F220F331F6901330FEE08FF088A8158
:100F100028E532E0281B310987FD3395220F331F66
:100F2000220F331F032E000C440B550B2C193D09C7
:100F30004E095F09DB0177FF02C0B0E0A0E00E942C
:100F4000061A24EB30E040E050E00E94DC19C20EAB
:100F5000D31EE41EF51EB601E881EC3070F5298140
:100F600088E890E0821B910927FD9395880F991FCF
:100F7000880F991F681779077CF02A8188E592E02D
:100F8000821B910927FD9395880F991F880F991F40
:100F9000681779070CF4CB010297880F991F4FB798
:100FA000F8942E2F30E0F901EE0FFF1FE20FF31F30
:100FB000E95EFD4F928381834FBFDF91CF91FF9018
:100FC000EF90DF90CF9008951F93CF93DF93EC01C4
:100FD0009881292F30E0F901EE0FFF1FE20FF31F78
:100FE000E95EFD4F808186FD8CC0162F9C3008F095
:100FF0004DC0862F0E948C028881282F30E0F90195
:10100000EE0FFF1FE20FF31FE95EFD4F1F736081BC
:10101000607C162B108319821A822CE0622F0E94AA
:10102000201C829FB001112430E020E0AB01420F70
:10103000531FFA01EE0FFF1FE40FF51FE95EFD4F8E
:10104000908196FD16C02F5F3F4F2C30310571F710
:1010500081110FC01092800082E080938100109275
:10106000850010928400B19A80916F008260809315
:101070006F00E8818E2F90E0FC01EE0FFF1FE80F5C
:10108000F91FE95EFD4F8081806480838AE590E0EE
:101090009E878D876AE570E0CE010E9468070E94F6
:1010A0004F066BA77CA78DA79EA78EE190E09E8F31
:1010B0008D8F80ED97E098878F8380E090E0A4E8A3
:1010C000B2E4898F9A8FAB8FBC8F8AE198EFA2EC44
:1010D000BDE38D8B9E8BAF8BB88F1F8E18A219A28C
:1010E0001AA28DE290E09C838B83198A1A8A1B8A4C
:1010F0001C8A19861A861B861C861E821D821FA2C8
:1011000018A6DF91CF911F910895609157037091B8
:1011100058038CE392E00E94E407609159037091B8
:101120005A038BE692E00E94E40760915B037091A2
:101130005C038AE992E00E94E40760915D0370918C
:101140005E0389EC92E00C94E407CF92DF92EF9279
:10115000FF920F931F93CF93DF93EC018B010E94BB
:101160004F066B017C0129A53AA5121613060CF057
:1011700042C08BA59CA5A601481B590B429FC001EC
:10118000439F900D529F900D112461E070E0883EC6
:1011900023E0920724F068EE73E00E94401C8D85E6
:1011A0009E859801281B390B37FF03C03195219587
:1011B000310962177307FCF4081719071CF47195BD
:1011C00061957109860F971F9E878D87CBA6DCA638
:1011D000EDA6FEA66D857E858F859889680F791F9F
:1011E000CE01DF91CF911F910F91FF90EF90DF9093
:1011F000CF900C9468071E870D87E8CFDC01EC9137
:101200008E2F90E0FC01EE0FFF1FE80FF91FE95E43
:10121000FD4F808186FF02C08F7B808308950F93EE
:101220001F93CF93DF93082F162FD42FC8E06D2F75
:10123000661F6627661F802F0E94AB02DD0F61E0EC
:10124000812F0E94AB0260E0812F0E94AB02C1504F
:1012500071F7DF91CF911F910F910895CF92DF9297
:10126000EF92FF920F931F93CF93DF93C1E0D0E0F3
:1012700060E08091F9020E94AB026E0181E0C81A21
:10128000D1080CE312E0F12CE12C8091FB028E15C9
:101290001F04C9F0C4F04C2F6091FA028091F8024B
:1012A0000E940F0940E06091FA028091F8020E94CA
:1012B0000F09F801E054FF4F10828FEFE81AF80A87
:1012C0000C0D1D1DE2CF60E08091F9020E94AB027F
:1012D00061E08091F9020E94AB022196C930D105EC
:1012E00039F61092FC021092FD021092FE0210924A
:1012F000FF02109200031092010310920203109259
:101300000303E4E0F3E0119283E0E435F807D9F752
:10131000DF91CF911F910F91FF90EF90DF90CF90D1
:101320000895CF92DF92EF92FF920F931F93CF9386
:10133000DF93C82FD0E0C850DD4F9C8101E010E062
:1013400020E030E004C0000F111F221F331F6A95F8
:10135000D2F7442369F1092B0C83E82EE694E69436
:10136000E694F12C182F177060E08091F9020E942A
:10137000AB02D12CC12C1F5F24968091FB028C15EF
:101380001D04F1F0ECF06091FA028091F802EC1487
:10139000FD0489F4412F0E940F0948816091FA02EF
:1013A0008091F8020E940F098FEFC81AD80AE5CF82
:1013B00000950923D1CF40E00E940F0940E0EECF15
:1013C00060E08091F9020E94AB0261E08091F90235
:1013D000DF91CF911F910F91FF90EF90DF90CF9011
:1013E0000C94AB025F926F927F928F929F92AF921A
:1013F000BF92CF92DF92EF92FF920F931F93CF9302
:10140000DF9370E0DB01E3E0AA0FBB1FEA95E1F791
:10141000A850BD4F1C961C921C9727E0829FC001CC
:101420001124FC01E957FC4FE4911D96EC931D97A4
:10143000FC01E857FC4FE4911E96EC931E97FC01CB
:10144000E757FC4FE4911F96EC931F97FC01E6577A
:10145000FC4FE4915096EC935097FC01E557FC4FFC
:10146000E4915196EC93519784579C4FFC018491E1
:1014700052968C93529753961C92842E912C6F5FA8
:101480007F4F8616970609F0F6C034E0E32E33E06E
:10149000F32E5701C12C47E0D42E57E0752EF501ED
:1014A00001915F01D0E0C0E010E080915403909181
:1014B0005503019769F4A8010C2E02C05595479574
:1014C0000A94E2F74170672D6C1B8C2D0E949109E4
:1014D0008091540390915503029761F4A8010C2E5A
:1014E00002C0559547950A94E2F741706C2F8D2DF7
:1014F0000E9491098091540390915503039761F4E0
:10150000A8018C2F0C2E02C0559547950A94E2F73E
:1015100041706C2D0E949109809154039091550364
:10152000049769F4A8010C2E02C0559547950A94BA
:10153000E2F741706D2D872D8C1B0E949109219639
:10154000C830D10509F0B1CFDA94C394EFEFDE12C1
:10155000A6CF64EF71E080E090E00E941C0393E06E
:10156000880C991C9A95E1F7F1E08F1A9108D12C1B
:10157000C12C27E0522E2FEFC21AD20AF701818127
:1015800081937F015F01612C87E0782EF501019145
:101590005F01D0E0C0E010E08091540390915503CA
:1015A000019769F4A8010C2E02C0559547950A943D
:1015B000E2F74170652D6C1B862D0E949109809188
:1015C000540390915503029761F4A8010C2E02C0B8
:1015D000559547950A94E2F741706C2F872D0E942C
:1015E00091098091540390915503039761F4A801E8
:1015F0008C2F0C2E02C0559547950A94E2F7417046
:10160000662D0E949109809154039091550304978F
:1016100069F4A8010C2E02C0559547950A94E2F78B
:101620004170672D852D8C1B0E9491092196C83031
:10163000D10509F0B1CF7A946394FFEF7F12A6CF62
:1016400064E670E080E090E00E941C03C814D904B6
:101650000CF491CFDF91CF911F910F91FF90EF90FC
:10166000DF90CF90BF90AF909F908F907F906F90C2
:101670005F900C942E09DF91CF911F910F91FF90F5
:10168000EF90DF90CF90BF90AF909F908F907F9022
:101690006F905F9008950F931F93CF93DF9300D0C7
:1016A000CDB7DEB769834A83880F991F0091D803AD
:1016B0001091D903000F111FE2E8F3E09F012258B7
:1016C00033402017310714F41192F8CF2981FC011F
:1016D000EE57FC4F21838A81808360E08091D6039E
:1016E0000E94AB02101611066CF401501109F801AA
:1016F000EE57FC4F40816091D4038091D2030E9449
:101700000F09F0CF61E08091D6030F900F90DF9129
:10171000CF911F910F910C94AB02EF92FF920F9318
:101720001F93CF937C018C0183E0000F111F8A95DA
:10173000E1F70E561C4FC1E0F80111928F0140E015
:101740006C2FC7010E944B0BCF5FC930A9F7CF9117
:101750001F910F91FF90EF9008958F929F92AF92FB
:10176000BF92CF92DF92EF92FF920F931F93CF938E
:10177000DF93CDB7DEB728970FB6F894DEBF0FBE64
:10178000CDBFDE01119628E0FD0111922A95E9F7FF
:1017900030E020E0812C912C54018394FC01619174
:1017A000CF0170E075016401022E04C0CC0CDD1C79
:1017B000EE1CFF1C0A94D2F77D01FD0147E050E0CA
:1017C0008B01042E02C0159507950A94E2F700FFDD
:1017D00003C017811C2917834150510931974F3F8E
:1017E000540771F72F5F3F4F28303105B9F601E0FC
:1017F00010E08091D8039091D903181619065CF473
:10180000F7014081F801EE57FC4F4787602F90E0C9
:1018100080E00E944B0B0F5F1F4FFFEFEF1AFF0A94
:101820000930110531F728960FB6F894DEBF0FBEC8
:10183000CDBFDF91CF911F910F91FF90EF90DF907F
:10184000CF90BF90AF909F908F9008950F931F936C
:10185000CF93DF93082F162F60E08091F9020E944A
:10186000AB02D0E0C0E08091FB028C171D0689F02E
:1018700084F0402F6091FA028091F8020E940F09D3
:10188000412F6091FA028091F8020E940F0921967F
:10189000EACF60E08091F9020E94AB0261E08091A2
:1018A000F902DF91CF911F910F910C94AB028F92AF
:1018B0009F92AF92BF92CF92DF92EF92FF920F93DF
:1018C0001F93CF93DF93CDB7DEB728970FB6F89469
:1018D000DEBF0FBECDBF88E0E7E2F1E0DE0111968A
:1018E00001900D928A95E1F70E948508809181030D
:1018F0008111109281030E944F066C507E4F8F4FD2
:101900009F4F6093690370936A0380936B03909376
:101910006C038E010F5F1F4F5E0189E0A80EB11CA2
:1019200091E7C92E93E0D92E2CE3E22E22E0F22E8D
:10193000F801619171918F01F70185859685681B8A
:10194000790B072E000C880B990B0E94B71820E02A
:1019500030E048E452E40E94E31AF6016193719387
:10196000819391936F01FFE2EF0EF11CA016B10677
:10197000F9F60E944F060091690310916A032091C5
:101980006B0330916C03601771078207930708F0AF
:1019900075C00E944F06665F7F4F8F4F9F4F6093C9
:1019A0006D0370936E0380936F039093700381E7D0
:1019B000E82E83E0F82E0CE312E0F701819091907D
:1019C000A190B1907F01F80165857685072E000C06
:1019D000880B990B0E94B718A50194010E94771AF1
:1019E0000E94551BC8010E94A508015D1F4FF2E02F
:1019F000083F1F0711F70E944F0600916D031091D9
:101A00006E0320916F033091700360177107820796
:101A1000930788F3AECF8CE392E00E94A5086B8118
:101A20007C818BE692E00E94A5086D817E818AE927
:101A300092E00E94A5086F81788589EC92E00E946F
:101A4000A5080E944F06665F7F4F8F4F9F4F6093A0
:101A50006D0370936E0380936F03909370030E94E5
:101A60004F0600916D0310916E0320916F0330912A
:101A70007003601771078207930788F369817A8181
:101A80008091490290914A026817790721F62B81CB
:101A90003C8180917802909179022817390709F0EA
:101AA000BACF2D813E818091A7029091A80228177C
:101AB000390709F0B0CF2F8138858091D6029091F7
:101AC000D7022817390709F0A6CF8CE392E00E94CD
:101AD000FE088BE692E00E94FE088AE992E00E94EE
:101AE000FE0889EC92E00E94FE0881E08093810369
:101AF00028960FB6F894DEBF0FBECDBFDF91CF9111
:101B00001F910F91FF90EF90DF90CF90BF90AF901B
:101B10009F908F900895AF92BF92CF92DF92EF92F5
:101B2000FF920F931F93CF93DF93660F771F660F7C
:101B3000771F62537D4F44E050E086E791E00E94BA
:101B40006516C0907601D0907701E0907801F09012
:101B5000790180915403909155030197F1F4C7E006
:101B600010E000E05801D6E0B701A6010A2C04C03D
:101B700076956795579547950A94D2F741706C2FE3
:101B80008D2F0E9491098FEFA81AB80AD15061F7E2
:101B90000A5F1F4FC150C23029F7809154039091C2
:101BA00055030297F9F4C0E010E000E05801D1E0DD
:101BB000B701A6010A2C04C07695679557954795FD
:101BC0000A94D2F741706C2F8D2F0E9491098FEFEC
:101BD000A81AB80ADF5FD73059F70A5F1F4FCF5FE7
:101BE000C53021F780915403909155030397F1F488
:101BF000C0E010E000E05801D6E0B701A6010A2CD1
:101C000004C076956795579547950A94D2F7417029
:101C10006D2F8C2F0E9491098FEFA81AB80AD1500E
:101C200061F70A5F1F4FCF5FC53029F780915403DA
:101C3000909155030497F9F4C7E010E000E05801D3
:101C4000D1E0B701A6010A2C04C076956795579597
:101C500047950A94D2F741706D2F8C2F0E949109FD
:101C60008FEFA81AB80ADF5FD73059F70A5F1F4F06
:101C7000C150C23021F7DF91CF911F910F91FF909A
:101C8000EF90DF90CF90BF90AF9008954F925F920A
:101C90006F927F928F929F92AF92BF92CF92DF927C
:101CA000EF92FF920F931F93CF93DF936A01270167
:101CB00038018B014C0159017B0188E0E80EF11CD1
:101CC000CCE3D2E0F801819191918F019E838D83C5
:101CD000F401819191914F019C838B83D886CF82AF
:101CE0006D8D7E8DC6010E942C1C90E080E00E94CC
:101CF000B5189B01AC01298F3A8F4B8F5C8F6BED30
:101D00007FE089EC90E40E94E31A6D8B7E8B8F8BD1
:101D1000988FF50181919191A191B1915F0189878E
:101D20009A87AB87BC87AF960E151F0559F60E94A0
:101D30004F060E94B5184B015C01B601DD0C880B03
:101D4000990B0E94B718A30192010E941619A501D0
:101D500094010E94771A6B017C01A5019401C701CF
:101D6000B6010E948B1B87FD89C0CCE3D2E00E94A4
:101D70004F066BA37CA38DA39EA30F8D18A129A151
:101D80003AA14B015C01801A910AA20AB30A0D8D97
:101D90001E8D30E020E0081519052A053B050CF0E2
:101DA0005BC06F8F78A389A39AA38FA1811146C0CE
:101DB00029853A854B855C8569897A898B899C89D7
:101DC0000E94771A0E94901B4B015C016B817C8101
:101DD00090E080E00E94B518A50194010E941619B8
:101DE0004B015C016D817E81072E000C880B990BE5
:101DF0000E94B7189B01AC01C501B4010E94771A7B
:101E00004B015C0120E030E0A9010E948B1B20E027
:101E100030E040E05FE387FD2CC0C501B4010E94C3
:101E2000771A0E94551B88A5882319F07195619532
:101E30007109665A7F4FCE010E94A5082D893E89FF
:101E40004F89588D69897A898B899C890E94771A74
:101E5000698B7A8B8B8B9C8BAF96F2E0C83FDF0748
:101E600009F085CF0E944F060E94B5184B015C0116
:101E700074CFC501B4010E94761AD3CFDF91CF9100
:101E80001F910F91FF90EF90DF90CF90BF90AF9098
:101E90009F908F907F906F905F904F900895FC017E
:101EA00080819181009711F00C94F61C0895EF92B7
:101EB000FF920F931F93CF93DF93EC017B018A0175
:101EC00088819981009729F02A813B812417350761
:101ED00088F4B8016F5F7F4F0E947F1D009791F0DB
:101EE000998388831B830A832C813D81232B11F4E2
:101EF000FC0110821D830C83B701888199810E94A7
:101F00004D1E0CC088819981009711F00E94F61C2B
:101F1000198218821D821C821B821A82CE01DF91D7
:101F2000CF911F910F91FF90EF9008952F923F92C4
:101F30004F925F926F927F928F929F92AF92BF92D9
:101F4000CF92DF92EF92FF920F931F93CF93DF9385
:101F5000CDB7DEB762970FB6F894DEBF0FBECDBF28
:101F60009E878D87DC0114968D919C9126E0289F99
:101F7000F001299FF00D1124F88BEF8788EFC82E10
:101F8000DD24DA94AE014F5F5F4F5A874987CE0157
:101F900007979C878B87412C512C320143944B012E
:101FA000770FAA08BB08AF85B889AC15BD050CF43E
:101FB000A9C0E985FA8528E011922A95E9F78601FA
:101FC000AE014F5F5F4F1A017A0117FD67C0AF8501
:101FD000B8890A171B070CF061C0C80166E070E001
:101FE0000E94401CED85FE858481958168177907E4
:101FF00030F40190F081E02D309709F07EC010920E
:102000005801E8E5F1E02081222309F479C0C801F4
:1020100066E070E00E94401C9A8B898B853009F441
:102020006FC0822F220F990B0E943C1EBC0184E8D6
:1020300092E00E946E16009709F462C084589240A4
:1020400025E0289FF001299FF00D112449895A8924
:10205000E40FF51FE058FE4FE49190E080E0F0E0DF
:10206000AF01082E02C0559547950A94E2F740FF4C
:1020700011C0B301A201082E04C0440F551F661FF2
:10208000771F0A94D2F7D70117962C911797242B14
:1020900017962C9301968730910511F70F5F1F4F0C
:1020A000B1E0EB1AF108EB85FC85EE16FF0609F0AE
:1020B0008CCF01E010E08091D8039091D9031816DD
:1020C00019065CF4D1014C91F801EE57FC4F47879B
:1020D000602F90E080E00E944B0B0F5F1F4FBFEF1F
:1020E0002B1A3B0A0930110531F7C501B4010E94D2
:1020F0001C03EFEFCE1ADE0A56CFE60FF71F83CF91
:10210000E0E0ABCF62960FB6F894DEBF0FBECDBF56
:10211000DF91CF911F910F91FF90EF90DF90CF90C3
:10212000BF90AF909F908F907F906F905F904F90F7
:102130003F902F9008951F920F920FB60F92112487
:102140002F933F938F939F93AF93BF9380915D01A4
:1021500090915E01A0915F01B091600130915C01AE
:1021600023E0230F2D3758F50196A11DB11D2093B3
:102170005C0180935D0190935E01A0935F01B09339
:1021800060018091610190916201A0916301B09121
:1021900064010196A11DB11D8093610190936201BC
:1021A000A0936301B0936401BF91AF919F918F9110
:1021B0003F912F910F900FBE0F901F90189526E81A
:1021C000230F0296A11DB11DD2CF1F920F920FB601
:1021D0000F9211242F933F934F935F936F937F93AD
:1021E0008F939F93AF93BF93EF93FF9380916A0177
:1021F00090916B01A0916C01B0916D01892B8A2B9C
:102200008B2BD1F190916501E0916601F09167010E
:1022100080818927808380916A0190916B01A091D0
:102220006C01B0916D01181619061A061B069CF474
:1022300080916A0190916B01A0916C01B0916D0148
:102240000197A109B10980936A0190936B01A09352
:102250006C01B0936D01FF91EF91BF91AF919F9190
:102260008F917F916F915F914F913F912F910F903F
:102270000FBE0F901F90189580912001EDECF2E0B9
:10228000E4919FEF90932001E13051F030F0E23083
:1022900069F060E00E94AB02DECF10926E00F9CFD1
:1022A00090916F009D7F90936F00F3CF909170009D
:1022B0009D7F9093700091E09093B0009091B10059
:1022C000987F94609093B1001092B300E2CF1F9278
:1022D0000F920FB60F9211242F933F934F935F935A
:1022E0006F937F938F939F93AF93BF93EF93FF93DE
:1022F0008AE791E00E94D906FF91EF91BF91AF91DB
:102300009F918F917F916F915F914F913F912F910D
:102310000F900FBE0F901F9018951F920F920FB63F
:102320000F9211242F938F939F93EF93FF93E0913C
:102330008A01F0918B018081E0919001F0919101EF
:1023400082FD1BC09081809193018F5F8F732091DC
:102350009401821741F0E0919301F0E0E658FE4FBE
:10236000958F80939301FF91EF919F918F912F9182
:102370000F900FBE0F901F9018958081F4CF1F9281
:102380000F920FB60F9211240F900FBE0F901F9057
:1023900018951F920F920FB60F9211242F933F930F
:1023A0004F935F936F937F938F939F93AF93BF935D
:1023B000CF93DF93EF93FF9380915901C0913B023C
:1023C000D0E087FF24C01092850010928400809195
:1023D00059018F5F8093590180915901082E000C9B
:1023E000990B8C179D0724F4809159018C30C4F10E
:1023F0008091840090918500049680349C4908F473
:102400007AC08091840090918500049676C0809176
:102410005901082E000C990B8C179D07C4F6E0910A
:1024200059018E2FEE0F990BFC01EE0FFF1FE80FE5
:10243000F91FE95EFD4F808186FFC9CFE091590108
:102440008E2FEE0F990BFC01EE0FFF1FE80FF91F07
:10245000E95EFD4F808160E08F730E94AB02B7CFD1
:102460002091840030918500E09159018E2FEE0F6C
:10247000990BFC01EE0FFF1FE80FF91FE95EFD4FFE
:1024800081819281820F931F9093890080938800AD
:10249000E09159018E2FEE0F990BFC01EE0FFF1FFB
:1024A000E80FF91FE95EFD4F808186FF11C0E091C2
:1024B00059018E2FEE0F990BFC01EE0FFF1FE80F55
:1024C000F91FE95EFD4F808161E08F730E94AB02CE
:1024D000FF91EF91DF91CF91BF91AF919F918F913C
:1024E0007F916F915F914F913F912F910F900FBE10
:1024F0000F901F90189580E49CE990938900809339
:1025000088008FEF80935901E3CFCF93DF93109230
:102510007D0110927C0188EE93E0A0E0B0E0809312
:102520007E0190937F01A0938001B093810183E3AA
:1025300091E090937B0180937A0185EC90E09093F9
:1025400087018093860184EC90E0909389018093C9
:10255000880180EC90E090938B0180938A0181EC5C
:1025600090E090938D0180938C0182EC90E09093A9
:102570008F0180938E0186EC90E09093910180937F
:102580009001109293011092940110929501109273
:102590009601CCE0D0E0D093D303C093D2038BE07C
:1025A00090E09093D5038093D4038AE090E09093D9
:1025B000D7038093D60381E090E09093D903809372
:1025C000D8038CE00E948C028091D4030E948C027C
:1025D0008091D6030E948C0261E08091D6030E9414
:1025E000AB02D093D303C093D203E2E9F3E082EDD0
:1025F00093E011928E179F07E1F7D0E0C0E0809141
:10260000D8039091D903C817D90774F540E06FE05B
:10261000CE010E944B0B8091D8039091D903C8172B
:10262000D9072CF447E06BE0CE010E944B0B40E051
:1026300069E0CE010E944B0B8091D8039091D903A1
:10264000C817D9071CF4CE010E948D0B8091D803C6
:102650009091D903C817D9072CF440E06CE0CE0163
:102660000E944B0B2196CBCFECE3F2E028EF32E057
:102670004FEF68EB7BE080913B028C30E0F491E01F
:10268000980F90933B02808390E0DC01AA0FBB1F60
:10269000A80FB91FA95EBD4F12967C936E93119738
:1026A000108A178612A611A6BF962E173F0719F794
:1026B000DF91CF9108954083F3CFCF93DF93CDB7D0
:1026C000DEB7C354D1090FB6F894DEBF0FBECDBF3D
:1026D000789484B5826084BD84B5816084BD85B5FD
:1026E000826085BD85B5816085BD80916E00816009
:1026F00080936E00109281008091810082608093AF
:1027000081008091810081608093810080918000B0
:102710008160809380008091B10084608093B100DB
:102720008091B00081608093B00080917A008460D5
:1027300080937A0080917A00826080937A00809101
:102740007A00816080937A0080917A00806880931B
:102750007A001092C1008091D8039091D903181685
:10276000190634F441E06CE090E080E00E944B0BED
:102770008091D8039091D9031816190634F443E0D8
:102780006AE090E080E00E944B0B8091D80390912A
:10279000D9031816190624F490E080E00E948D0BEE
:1027A00082E090E0909358038093570383E090E099
:1027B00090935A038093590384E090E090935C03D4
:1027C00080935B0385E090E090935E0380935D03CC
:1027D0000E948508109281038CE3E82E82E0F82E97
:1027E00010E000E0C8010E94D41990E08138910502
:1027F0000CF09A95F701908B87870F5F1F4FFFE2D0
:10280000EF0EF11C0430110569F78DE090E0909314
:102810006803809367030E948C0280918103811179
:1028200002C00E94570C81E18093F80280E18093FE
:10283000F9028FE08093FA0281E08093FB0282E04C
:1028400090E090935503809354031092FC021092F1
:10285000FD021092FE021092FF02109200031092ED
:1028600001031092020310920303E4E0F3E01192DB
:1028700083E0E435F807D9F781E10E948C0280916A
:10288000FA020E948C028091F9020E948C0261E09F
:102890008091FA020E94AB0267E08BE00E94260C56
:1028A00060E089E00E94260C61E08CE00E94260C2A
:1028B00060E08FE00E94260C0E942E096FE08AE003
:1028C0000E94260C65E08AE00E94260CFE013196EB
:1028D0003F0104E1202E312C88E191E00E94AD0BF4
:1028E00080E091E00E94AD0B66E970E080E090E04E
:1028F0000E941C0388E091E00E94AD0B66E970E045
:1029000080E090E00E941C0380E191E00E94AD0B0A
:1029100066E970E080E090E00E941C031A82198250
:102920001C821B821E821D824CE050E061E471E03B
:10293000C3010E94570F60E570E0C3010E94960F2B
:10294000C3010E944F0F1DAA1CAA1FAA1EAA19AEDE
:1029500018AE830122E044E060E070E0CB010E9409
:102960004716009709F48FC0FC0101900020E9F799
:102970003197AF01481B590BBC01CE01C4960E9490
:10298000570F6DE270E0CE01C4960E94960FCE0103
:10299000C4960E944F0F8091D8039091D9031816C6
:1029A000190654F44091990340684093990368E0F4
:1029B00090E080E00E944B0B8091D8039091D90366
:1029C0001816190634F448E06AE090E080E00E94AE
:1029D0004B0B8091D8039091D9031816190624F453
:1029E00090E080E00E948D0B6AE070E080E090E073
:1029F0000E948B0D0E942E09B8E1EB2EB1E0FB2E58
:102A000017E0D12E07E010E0F701808190E0002E62
:102A100002C0959587950A94E2F780FF05C041E0D2
:102A20006D2D802F0E9491090150110968F7DA94E9
:102A30008FEFE81AF80A9FEFD912E4CF1A821982B1
:102A40001C821B821E821D8249E050E06EE471E010
:102A5000C3010E94570F8D819E81892B09F447C0C5
:102A600009811A8101151105D9F0F80181918F01B1
:102A70008823B1F0082E000C990B0E943C1EF8012F
:102A800031978083F2CF8CA99DA9009711F00E9405
:102A9000F61C1DAA1CAA19AE18AE1FAA1EAA71CF39
:102AA000E980FA80F7018191882359F02F014E18AF
:102AB0005F088AE048165104B4F3A9E04A2E512C6D
:102AC000F2CF10E000E0F70191917F0180ED890FD6
:102AD000442D602F8C3220F08CE2903209F08BE292
:102AE0000E94F2090F5F1F4F0415150561F7C3011E
:102AF0000E944F0F40E065E086E00E94910962E08D
:102B00008AE00E94260C0EE110E022E330E040E073
:102B100050E064EA70ED84E294E40E944F036AE0BE
:102B200070E080E090E00E948B0D58E0852E912CA3
:102B30006FE0A62EB12CC12CD12C16E6E12EFE2C76
:102B400006E81FE320E030E04AEF54E460E070E87C
:102B50008BEB94E40E94BF0564E670E080E090E0B7
:102B60000E941C03EAE0AE2EB12CC12CD12C20E037
:102B700030E44CE155E460E070E88DEE94E40E94AE
:102B8000BF051CAE1DAE1EAE1FAE22963FAE2EAED2
:102B9000229724963FAE2EAE24971CAA1DAA1EAAE9
:102BA0001FAA8AE090E099AF88AFE6EFFFEFFBAF96
:102BB000EAAFF30180E111928A95E9F70E94850856
:102BC00080918103811110928103E12CF12C00E8A6
:102BD0001FE3930140E253E0BE016C5C7F4FCE01E6
:102BE000CC960E94460EE12CF12C8701930140E225
:102BF00053E0BE016C5C7F4FCE01CC960E94460E26
:102C000098E0892E912C2FE0A22EB12CC12CD12C32
:102C100016E6E12EFE2C06E81FE320E030E04AEF46
:102C200054E460E070E88BEB94E40E94BF0564E636
:102C300070E080E090E00E941C034AE0A42EB12CDA
:102C4000C12CD12C20E030E44CE155E460E070E888
:102C50008DEE94E40E94BF0580918103811102C032
:102C60000E94570C6BE070E080E090E00E948B0DBA
:102C70000E942E09E0E0F0E0EF2B09F42DCE0E9437
:102C8000C506882309F428CE0E94000025CEEF92C5
:102C90000F931F93CF93DF93E80134E047FD34E1B6
:102CA000042E000C550B57FF03C051954195510957
:102CB000E32E022F242FAE010E947916CE01DF9160
:102CC000CF911F910F91EF900895FB01DC0102C09D
:102CD00005900D9241505040D8F70895FC010590A1
:102CE000061621F00020D9F7C00108953197CF01D1
:102CF0000895A9E0B0E0EFE7F6E10C94141A6A0138
:102D0000F22EB02E102FFBE3AF2EA01608F41BE31B
:102D10001F5F012F27E0AE014F5F5F4F0E94D81762
:102D2000BC018981982F9970913009F43FC09BE2D2
:102D3000E1FC04C09E2D9170E0FC3AC05E2D507104
:102D4000E82FE87083FF46C084E0911101C083E062
:102D5000EF2DE81B8F1508F0E0E0D6018E2F20E262
:102D6000552351F1992329F0D6019C93C601019670
:102D70006C0196012D5F3F4FE2FE24C08EE4D60128
:102D80008C9391E411969C93119712968C93D90190
:102D90008E2F90E281111BC0E20FF32FF11D1082E4
:102DA0008EEF9FEF2996ECE00C94301A9DE2C6CF8F
:102DB00090E2C4CF2D9381508111FCCFCE0ED11C57
:102DC000E0E0D0CF8EE6D6018C9391E6DBCF9D93E9
:102DD0008150E0CF482F447082FF3DC084E09111C4
:102DE00001C083E08F1510F4EF2DE81BD6018E2F64
:102DF00020E2552309F1992329F0D6019C93C601BD
:102E000001966C0196012D5F3F4FE2FE1BC089E4E5
:102E1000D6018C938EE411968C93119786E41296CA
:102E20008C93D9018E2F90E2882309F4B5CF9D931E
:102E30008150FACF2D9381508111FCCFCE0ED11C41
:102E4000E0E0D9CF89E6D6018C938EE611968C937B
:102E5000119786E6E4CF9B0177FF02C030E020E0C7
:102E6000A1E0B0E0911102C0B0E0A0E0F90131961C
:102E7000AE0FBF1F8B2C912CBB2009F461C05401F5
:102E8000EFEFAE1ABE0AAA0DBB1DFA161B0619F00B
:102E900014F04F2D4A1B511188C0E3FC59C0760134
:102EA000A42FB0E2A1114FC0C40ED11C992309F484
:102EB0005BC040E0D6011196F60190836D01552369
:102EC00009F448C0012F060F9A81582F507184FFD2
:102ED00003C0913309F4015010160CF047C00930BB
:102EE00008F008E0EEE2FE2E5B01A01AB1088501B1
:102EF0009194819491082F3F320729F4D601FC92D6
:102F0000F60131966F016217730794F102171307E8
:102F10007CF5DB01A21BB30BAA24A394B12CAC0E4D
:102F2000BD1EAA0DBB1D11968C9121503109D601F1
:102F3000119628153905F4F0F60180836D01DBCF79
:102F4000B12CA12CA0CFF701B1937F01A150AACF42
:102F50009111B0CFD601942F50E302C05D939150F0
:102F60009111FCCFC40ED11C40E0ACCF01E0BACF30
:102F700080E3DBCF6217730731F4963388F495331F
:102F800011F4552369F0F6018083FD01842F90E24E
:102F9000811108C0A40FB11D1C9290E080E002CF07
:102FA00081E3F1CF91938150F3CF911183CF8ACFF9
:102FB000283008F027E03327DA01990F311D87FD0B
:102FC000916000966105710539F432602E5F3D9382
:102FD00030E32A95E1F708959F3F30F0803871057E
:102FE000610509F03C5F3C5F3D93913008F08068DB
:102FF000911DDF93CF931F930F93FF92EF92192FA1
:10300000987F9695E92F96959695E90FFF27E052C0
:10301000FF4F99273327EE24FF24A701E7010590EE
:103020000894079428F4360FE71EF81E491F511D17
:10303000660F771F881F991F0694A1F705900794C4
:1030400028F4E70EF81E491F561FC11D770F881F71
:10305000991F661F0694A1F70590079428F4F80EAF
:10306000491F561FC71FD11D880F991F661F771F45
:103070000694A1F70590079420F4490F561FC71F27
:10308000D81F990F661F771F881F0694A9F7849190
:103090001095177041F0D695C79557954795F794B9
:1030A000E7941A95C1F7E6E8F0E068941590159159
:1030B00035916591959105907FE27395E118F10A3C
:1030C000430B560BC90BD009C0F7E10CF11E431F8F
:1030D000561FC91FD01D7EF4703311F48A95E6CFB8
:1030E000E894015030F0080F0AF40027021708F4A2
:1030F000202F2395022F7A3328F079E37D932A95A8
:10310000E9F710C07D932A9589F6069497956795FF
:10311000379517951794E118F10A430B560BC90B15
:10312000D00998F023957E9173957A3308F070E377
:103130007C932013B8F77E9170617D9330F0839576
:1031400071E37D9370E32A95E1F71124EF90FF90EE
:103150000F911F91CF91DF91992787FD9095089549
:103160000E94F21808F481E00895E89409C097FBE2
:103170003EF490958095709561957F4F8F4F9F4F4E
:103180009923A9F0F92F96E9BB279395F695879592
:1031900077956795B795F111F8CFFAF4BB0F11F455
:1031A00060FF1BC06F5F7F4F8F4F9F4F16C08823FC
:1031B00011F096E911C0772321F09EE8872F762F32
:1031C00005C0662371F096E8862F70E060E02AF073
:1031D0009A95660F771F881FDAF7880F969587955F
:1031E00097F90895990F0008550FAA0BE0E8FEEF34
:1031F00016161706E807F907C0F012161306E407BB
:10320000F50798F0621B730B840B950B39F40A26B3
:1032100061F0232B242B252B21F408950A2609F491
:10322000A140A6958FEF811D811D08950E94291947
:103230000C949A190E948C1938F00E94931920F06E
:10324000952311F00C9483190C94891911240C9472
:10325000CE190E94AB1970F3959FC1F3950F50E002
:10326000551F629FF001729FBB27F00DB11D639F38
:10327000AA27F00DB11DAA1F649F6627B00DA11DDE
:10328000661F829F2227B00DA11D621F739FB00D84
:10329000A11D621F839FA00D611D221F749F3327F4
:1032A000A00D611D231F849F600D211D822F762F8D
:1032B0006A2F11249F5750409AF0F1F088234AF06A
:1032C000EE0FFF1FBB1F661F771F881F91505040D6
:1032D000A9F79E3F510580F00C9483190C94CE19E8
:1032E0005F3FE4F3983ED4F3869577956795B7955D
:1032F000F795E7959F5FC1F7FE2B880F911D969577
:10330000879597F9089597F99F6780E870E060E0E6
:1033100008959FEF80EC089500240A94161617066E
:1033200018060906089500240A94121613061406B6
:1033300005060895092E0394000C11F4882352F019
:10334000BB0F40F4BF2B11F460FF04C06F5F7F4FD1
:103350008F4F9F4F089557FD9058440F551F59F0B8
:103360005F3F71F04795880F97FB991F61F09F3F72
:1033700079F087950895121613061406551FF2CF9B
:103380004695F1DF08C0161617061806991FF1CFEB
:1033900086957105610508940895E894BB27662712
:1033A0007727CB0197F90895F999FECF92BD81BD9A
:1033B000F89A992780B50895052E97FB1EF400947E
:1033C0000E94F31957FD07D00E94451A07FC03D04D
:1033D0004EF40C94F31950954095309521953F4F3C
:1033E0004F4F5F4F089590958095709561957F4FF1
:1033F0008F4F9F4F08950E94671AA59F900DB49F0D
:10340000900DA49F800D911D11240895B7FF0C9479
:10341000FB190E94FB19821B930B08952F923F9278
:103420004F925F926F927F928F929F92AF92BF92D4
:10343000CF92DF92EF92FF920F931F93CF93DF9380
:10344000CDB7DEB7CA1BDB0B0FB6F894DEBF0FBEDD
:10345000CDBF09942A88398848885F846E847D842A
:103460008C849B84AA84B984C884DF80EE80FD802C
:103470000C811B81AA81B981CE0FD11D0FB6F894A2
:10348000DEBF0FBECDBFED010895A1E21A2EAA1B2B
:10349000BB1BFD010DC0AA1FBB1FEE1FFF1FA21704
:1034A000B307E407F50720F0A21BB30BE40BF50B01
:1034B000661F771F881F991F1A9469F7609570958A
:1034C000809590959B01AC01BD01CF010895A29F0D
:1034D000B001B39FC001A39F700D811D1124911DE8
:1034E000B29F700D811D1124911D08955058BB2766
:1034F000AA270E948E1A0C949A190E948C1938F0EF
:103500000E94931920F039F49F3F19F426F40C948B
:1035100089190EF4E095E7FB0C948319E92F0E94BA
:10352000AB1958F3BA17620773078407950720F0A1
:1035300079F4A6F50C94CD190EF4E0950B2EBA2F64
:10354000A02D0B01B90190010C01CA01A0011124A9
:10355000FF27591B99F0593F50F4503E68F11A1655
:10356000F040A22F232F342F4427585FF3CF4695E6
:1035700037952795A795F0405395C9F77EF41F1608
:10358000BA0B620B730B840BBAF09150A1F0FF0FD2
:10359000BB1F661F771F881FC2F70EC0BA0F621FBE
:1035A000731F841F48F4879577956795B795F795AE
:1035B0009E3F08F0B0CF9395880F08F09927EE0F43
:1035C0009795879508950E94F71A0C949A190E946E
:1035D000931958F00E948C1940F029F45F3F29F0AC
:1035E0000C94831951110C94CE190C9489190E94D2
:1035F000AB1968F39923B1F3552391F3951B550B40
:10360000BB27AA2762177307840738F09F5F5F4FB5
:10361000220F331F441FAA1FA9F335D00E2E3AF0F4
:10362000E0E832D091505040E695001CCAF72BD00C
:10363000FE2F29D0660F771F881FBB1F261737075D
:103640004807AB07B0E809F0BB0B802DBF01FF278F
:1036500093585F4F3AF09E3F510578F00C948319D0
:103660000C94CE195F3FE4F3983ED4F3869577959A
:103670006795B795F7959F5FC9F7880F911D969548
:10368000879597F90895E1E0660F771F881FBB1FA4
:10369000621773078407BA0720F0621B730B840B51
:1036A000BA0BEE1F88F7E09508950E945C1B6894A2
:1036B000B1110C94CE1908950E94B31988F09F5748
:1036C00098F0B92F9927B751B0F0E1F0660F771F46
:1036D000881F991F1AF0BA95C9F714C0B13091F03C
:1036E0000E94CD19B1E008950C94CD19672F782F61
:1036F0008827B85F39F0B93FCCF386957795679501
:10370000B395D9F73EF490958095709561957F4F6C
:103710008F4F9F4F08950E94F21808F48FEF08957D
:103720009F930E949A1B0F9007FCEE5F0C94C31BA3
:103730000C9489190E94B319D8F3E894E0E0BB27F0
:103740009F57F0F02AED3FE049EC06C0EE0FBB0FAB
:10375000661F771F881F28F0B23A62077307840735
:1037600028F0B25A620B730B840BE3959A9572F7AB
:10377000803830F49A95BB0F661F771F881FD2F7E9
:1037800090480C94D91BEF93E0FF07C0A2EA2AED02
:103790003FE049EC5FEB0E948E1A0E949A190F904D
:1037A000039401FC9058E8E6F0E00C94E51B9F3F81
:1037B00031F0915020F4879577956795B795880FEC
:1037C000911D9695879597F908959F938F937F9371
:1037D0006F93FF93EF939B01AC010E941619EF9139
:1037E000FF910E94F91B2F913F914F915F910C9493
:1037F0001619DF93CF931F930F93FF92EF92DF92EF
:103800007B018C01689406C0DA2EEF010E94291911
:10381000FE01E894A5912591359145915591A6F326
:10382000EF010E948E1AFE019701A801DA9469F750
:10383000DF90EF90FF900F911F91CF91DF9108954E
:10384000991B79E004C0991F961708F0961B881FF2
:103850007A95C9F780950895AA1BBB1B51E107C053
:10386000AA1FBB1FA617B70710F0A61BB70B881F10
:10387000991F5A95A9F780959095BC01CD0108959F
:1038800097FB072E16F4009407D077FD09D00E940D
:103890002C1C07FC05D03EF4909581959F4F089510
:1038A000709561957F4F0895EE0FFF1F0590F4917D
:1038B000E02D09940F931F93CF93DF9382309105EE
:1038C00010F482E090E0E091DC03F091DD0330E061
:1038D00020E0B0E0A0E0309799F42115310509F41B
:1038E0004AC0281B390B24303105D8F58A819B81C9
:1038F0006115710589F1FB0193838283FE0111C07B
:10390000408151810281138148175907E0F048171F
:10391000590799F4109761F012960C931297139629
:103920001C933296CF01DF91CF911F910F91089593
:103930000093DC031093DD03F4CF2115310551F022
:103940004217530738F0A901DB019A01BD01DF01DD
:10395000F801C1CFEF01F9CF9093DD038093DC0331
:10396000CDCFFE01E20FF31F8193919322503109D5
:1039700039832883D7CF2091DA033091DB03232BBF
:1039800041F420912301309124013093DB032093F3
:10399000DA0320912101309122012115310541F4F2
:1039A0002DB73EB74091250150912601241B350BC0
:1039B000E091DA03F091DB03E217F307A0F42E1B8A
:1039C0003F0B2817390778F0AC014E5F5F4F241783
:1039D000350748F04E0F5F1F5093DB034093DA0327
:1039E000819391939FCFF0E0E0E09CCFCF93DF9362
:1039F0000097E9F0FC01329713821282A091DC0358
:103A0000B091DD03ED0130E020E01097A1F42081BA
:103A10003181820F931F2091DA033091DB03281745
:103A2000390709F061C0F093DB03E093DA03DF911B
:103A3000CF910895EA01CE17DF07E8F54A815B814F
:103A40009E0141155105B1F7E901FB83EA834991D4
:103A50005991C40FD51FEC17FD0761F48081918146
:103A60000296840F951FE90199838883828193814F
:103A70009B838A83F0E0E0E012968D919C911397EE
:103A80000097B9F52D913C911197CD010296820FC7
:103A9000931F2091DA033091DB032817390739F699
:103AA000309751F51092DD031092DC03B093DB03E5
:103AB000A093DA03BCCFD383C28340815181840FAA
:103AC000951FC817D90761F44E5F5F4F88819981B0
:103AD000480F591F518340838A819B81938382833E
:103AE0002115310509F0B0CFF093DD03E093DC033D
:103AF0009ECFFD01DC01C0CF13821282D7CFB0E090
:103B0000A0E0E5E8FDE10C94101A8C01009751F457
:103B1000CB010E945A1C8C01C801CDB7DEB7E0E191
:103B20000C942C1AFC01E60FF71F9C01225031095E
:103B3000E217F30708F49DC0D901CD91DC911197EC
:103B4000C617D70798F0C530D10530F3CE010497DA
:103B50008617970708F3C61BD70B2297C193D193FB
:103B60006D937C93CF010E94F61CD6CF5B01AC1AFB
:103B7000BD0A4C018C0E9D1EA091DC03B091DD03AB
:103B8000512C412CF12CE12C109731F58091DA0366
:103B90009091DB038815990509F05CC0461657061D
:103BA00008F058C08091210190912201009741F4C2
:103BB0008DB79EB74091250150912601841B950B2E
:103BC000E817F90708F055C0F093DB03E093DA0338
:103BD000F90171836083A0CF8D919C91119712960A
:103BE0006C90129713967C901397A815B90559F508
:103BF0006C0142E0C40ED11CCA14DB0420F1AC01FC
:103C00004A195B09DA011296159780F06282738275
:103C100051834083D9016D937C93E114F10471F0D9
:103C2000D7011396FC93EE93129776CF22968C0FC2
:103C30009D1FF90191838083F301EFCFF093DD03A2
:103C4000E093DC0369CF4816590608F42C017D0186
:103C5000D3019ACFCB010E945A1C7C01009749F0F6
:103C6000AE01B8010E94441EC8010E94F61C8701E3
:103C700053CF10E000E050CF9111089581568A5142
:103C800008F4805285580895FB01DC0102C00190C0
:103C90000D9241505040D8F70895FB01DC0101908E
:0C3CA0000D920020E1F70895F894FFCF8A
:103CAC000066FFFF7E3C18000000247E7E3C18005E
:103CBC003C42A5819999423C0066FFFF7E3C18006E
:103CCC00FF0000DE0380005A005A005A005A000020
:103CDC00000000FB065B0688064807B9069706AB92
:103CEC000620484F4C412C204E494E4F2100484F46
:083CFC004C41204F54544F00CD
:00000001FF
